{
  "contractName": "EIP712Base",
  "abi": [
    {
      "inputs": [],
      "name": "ERC712_VERSION",
      "outputs": [
        {
          "internalType": "string",
          "name": "",
          "type": "string"
        }
      ],
      "stateMutability": "view",
      "type": "function"
    },
    {
      "inputs": [],
      "name": "getDomainSeperator",
      "outputs": [
        {
          "internalType": "bytes32",
          "name": "",
          "type": "bytes32"
        }
      ],
      "stateMutability": "view",
      "type": "function"
    },
    {
      "inputs": [],
      "name": "getChainId",
      "outputs": [
        {
          "internalType": "uint256",
          "name": "",
          "type": "uint256"
        }
      ],
      "stateMutability": "pure",
      "type": "function"
    }
  ],
  "bytecode": "0x60806040526000805460ff1916905534801561001a57600080fd5b5061015e8061002a6000396000f3fe608060405234801561001057600080fd5b50600436106100415760003560e01c80630f7e59701461004657806320379ee5146100c35780633408e470146100dd575b600080fd5b61004e6100e5565b6040805160208082528351818301528351919283929083019185019080838360005b83811015610088578181015183820152602001610070565b50505050905090810190601f1680156100b55780820380516001836020036101000a031916815260200191505b509250505060405180910390f35b6100cb61011e565b60408051918252519081900360200190f35b6100cb610124565b6040518060400160405280600181526020017f310000000000000000000000000000000000000000000000000000000000000081525081565b60015490565b469056fea2646970667358221220a8ed1d27cdff97746b875446d3c672398c7f4329fcad7bdb91c9790885cdf53264736f6c63430006060033",
  "immutableReferences": {},
  "source": "pragma solidity 0.6.6;\n\nimport {Initializable} from \"./Initializable.sol\";\n\ncontract EIP712Base is Initializable {\n    struct EIP712Domain {\n        string name;\n        string version;\n        address verifyingContract;\n        bytes32 salt;\n    }\n\n    string constant public ERC712_VERSION = \"1\";\n\n    bytes32 internal constant EIP712_DOMAIN_TYPEHASH = keccak256(\n        bytes(\n            \"EIP712Domain(string name,string version,address verifyingContract,bytes32 salt)\"\n        )\n    );\n    bytes32 internal domainSeperator;\n\n    // supposed to be called once while initializing.\n    // one of the contractsa that inherits this contract follows proxy pattern\n    // so it is not possible to do this in a constructor\n    function _initializeEIP712(\n        string memory name\n    )\n        internal\n        initializer\n    {\n        _setDomainSeperator(name);\n    }\n\n    function _setDomainSeperator(string memory name) internal {\n        domainSeperator = keccak256(\n            abi.encode(\n                EIP712_DOMAIN_TYPEHASH,\n                keccak256(bytes(name)),\n                keccak256(bytes(ERC712_VERSION)),\n                address(this),\n                bytes32(getChainId())\n            )\n        );\n    }\n\n    function getDomainSeperator() public view returns (bytes32) {\n        return domainSeperator;\n    }\n\n    function getChainId() public pure returns (uint256) {\n        uint256 id;\n        assembly {\n            id := chainid()\n        }\n        return id;\n    }\n\n    /**\n     * Accept message hash and returns hash message in EIP712 compatible form\n     * So that it can be used to recover signer from signature signed using EIP712 formatted data\n     * https://eips.ethereum.org/EIPS/eip-712\n     * \"\\\\x19\" makes the encoding deterministic\n     * \"\\\\x01\" is the version byte to make it compatible to EIP-191\n     */\n    function toTypedMessageHash(bytes32 messageHash)\n        internal\n        view\n        returns (bytes32)\n    {\n        return\n            keccak256(\n                abi.encodePacked(\"\\x19\\x01\", getDomainSeperator(), messageHash)\n            );\n    }\n}\n",
  "sourcePath": "@maticnetwork/pos-portal/contracts/common/EIP712Base.sol",
  "compiler": {
    "name": "solc",
    "version": "0.6.6+commit.6c089d02.Emscripten.clang"
  },
  "schemaVersion": "3.4.4",
  "updatedAt": "2022-01-22T00:45:54.154Z",
  "devdoc": {
    "methods": {}
  },
  "userdoc": {
    "methods": {}
  }
}