{
  "contractName": "MOEToken",
  "abi": [
    {
      "anonymous": false,
      "inputs": [
        {
          "indexed": true,
          "internalType": "address",
          "name": "owner",
          "type": "address"
        },
        {
          "indexed": true,
          "internalType": "address",
          "name": "spender",
          "type": "address"
        },
        {
          "indexed": false,
          "internalType": "uint256",
          "name": "value",
          "type": "uint256"
        }
      ],
      "name": "Approval",
      "type": "event"
    },
    {
      "anonymous": false,
      "inputs": [
        {
          "indexed": true,
          "internalType": "bytes32",
          "name": "role",
          "type": "bytes32"
        },
        {
          "indexed": true,
          "internalType": "bytes32",
          "name": "previousAdminRole",
          "type": "bytes32"
        },
        {
          "indexed": true,
          "internalType": "bytes32",
          "name": "newAdminRole",
          "type": "bytes32"
        }
      ],
      "name": "RoleAdminChanged",
      "type": "event"
    },
    {
      "anonymous": false,
      "inputs": [
        {
          "indexed": true,
          "internalType": "bytes32",
          "name": "role",
          "type": "bytes32"
        },
        {
          "indexed": true,
          "internalType": "address",
          "name": "account",
          "type": "address"
        },
        {
          "indexed": true,
          "internalType": "address",
          "name": "sender",
          "type": "address"
        }
      ],
      "name": "RoleGranted",
      "type": "event"
    },
    {
      "anonymous": false,
      "inputs": [
        {
          "indexed": true,
          "internalType": "bytes32",
          "name": "role",
          "type": "bytes32"
        },
        {
          "indexed": true,
          "internalType": "address",
          "name": "account",
          "type": "address"
        },
        {
          "indexed": true,
          "internalType": "address",
          "name": "sender",
          "type": "address"
        }
      ],
      "name": "RoleRevoked",
      "type": "event"
    },
    {
      "anonymous": false,
      "inputs": [
        {
          "indexed": true,
          "internalType": "address",
          "name": "from",
          "type": "address"
        },
        {
          "indexed": true,
          "internalType": "address",
          "name": "to",
          "type": "address"
        },
        {
          "indexed": false,
          "internalType": "uint256",
          "name": "value",
          "type": "uint256"
        }
      ],
      "name": "Transfer",
      "type": "event"
    },
    {
      "inputs": [],
      "name": "DEFAULT_ADMIN_ROLE",
      "outputs": [
        {
          "internalType": "bytes32",
          "name": "",
          "type": "bytes32"
        }
      ],
      "stateMutability": "view",
      "type": "function"
    },
    {
      "inputs": [],
      "name": "DEPOSITOR_ROLE",
      "outputs": [
        {
          "internalType": "bytes32",
          "name": "",
          "type": "bytes32"
        }
      ],
      "stateMutability": "view",
      "type": "function"
    },
    {
      "inputs": [
        {
          "internalType": "address",
          "name": "owner",
          "type": "address"
        },
        {
          "internalType": "address",
          "name": "spender",
          "type": "address"
        }
      ],
      "name": "allowance",
      "outputs": [
        {
          "internalType": "uint256",
          "name": "",
          "type": "uint256"
        }
      ],
      "stateMutability": "view",
      "type": "function"
    },
    {
      "inputs": [
        {
          "internalType": "address",
          "name": "spender",
          "type": "address"
        },
        {
          "internalType": "uint256",
          "name": "amount",
          "type": "uint256"
        }
      ],
      "name": "approve",
      "outputs": [
        {
          "internalType": "bool",
          "name": "",
          "type": "bool"
        }
      ],
      "stateMutability": "nonpayable",
      "type": "function"
    },
    {
      "inputs": [
        {
          "internalType": "uint256",
          "name": "",
          "type": "uint256"
        },
        {
          "internalType": "uint256",
          "name": "",
          "type": "uint256"
        }
      ],
      "name": "attackVotes",
      "outputs": [
        {
          "internalType": "uint256",
          "name": "id",
          "type": "uint256"
        },
        {
          "internalType": "address",
          "name": "voter",
          "type": "address"
        },
        {
          "internalType": "uint256",
          "name": "amount",
          "type": "uint256"
        },
        {
          "internalType": "uint256",
          "name": "timestamp",
          "type": "uint256"
        }
      ],
      "stateMutability": "view",
      "type": "function"
    },
    {
      "inputs": [
        {
          "internalType": "address",
          "name": "account",
          "type": "address"
        }
      ],
      "name": "balanceOf",
      "outputs": [
        {
          "internalType": "uint256",
          "name": "",
          "type": "uint256"
        }
      ],
      "stateMutability": "view",
      "type": "function"
    },
    {
      "inputs": [],
      "name": "decimals",
      "outputs": [
        {
          "internalType": "uint8",
          "name": "",
          "type": "uint8"
        }
      ],
      "stateMutability": "view",
      "type": "function"
    },
    {
      "inputs": [
        {
          "internalType": "address",
          "name": "spender",
          "type": "address"
        },
        {
          "internalType": "uint256",
          "name": "subtractedValue",
          "type": "uint256"
        }
      ],
      "name": "decreaseAllowance",
      "outputs": [
        {
          "internalType": "bool",
          "name": "",
          "type": "bool"
        }
      ],
      "stateMutability": "nonpayable",
      "type": "function"
    },
    {
      "inputs": [
        {
          "internalType": "uint256",
          "name": "",
          "type": "uint256"
        },
        {
          "internalType": "uint256",
          "name": "",
          "type": "uint256"
        }
      ],
      "name": "defenseVotes",
      "outputs": [
        {
          "internalType": "uint256",
          "name": "id",
          "type": "uint256"
        },
        {
          "internalType": "address",
          "name": "voter",
          "type": "address"
        },
        {
          "internalType": "uint256",
          "name": "amount",
          "type": "uint256"
        },
        {
          "internalType": "uint256",
          "name": "timestamp",
          "type": "uint256"
        }
      ],
      "stateMutability": "view",
      "type": "function"
    },
    {
      "inputs": [
        {
          "internalType": "bytes32",
          "name": "role",
          "type": "bytes32"
        }
      ],
      "name": "getRoleAdmin",
      "outputs": [
        {
          "internalType": "bytes32",
          "name": "",
          "type": "bytes32"
        }
      ],
      "stateMutability": "view",
      "type": "function"
    },
    {
      "inputs": [
        {
          "internalType": "bytes32",
          "name": "role",
          "type": "bytes32"
        },
        {
          "internalType": "uint256",
          "name": "index",
          "type": "uint256"
        }
      ],
      "name": "getRoleMember",
      "outputs": [
        {
          "internalType": "address",
          "name": "",
          "type": "address"
        }
      ],
      "stateMutability": "view",
      "type": "function"
    },
    {
      "inputs": [
        {
          "internalType": "bytes32",
          "name": "role",
          "type": "bytes32"
        }
      ],
      "name": "getRoleMemberCount",
      "outputs": [
        {
          "internalType": "uint256",
          "name": "",
          "type": "uint256"
        }
      ],
      "stateMutability": "view",
      "type": "function"
    },
    {
      "inputs": [
        {
          "internalType": "bytes32",
          "name": "role",
          "type": "bytes32"
        },
        {
          "internalType": "address",
          "name": "account",
          "type": "address"
        }
      ],
      "name": "grantRole",
      "outputs": [],
      "stateMutability": "nonpayable",
      "type": "function"
    },
    {
      "inputs": [
        {
          "internalType": "bytes32",
          "name": "role",
          "type": "bytes32"
        },
        {
          "internalType": "address",
          "name": "account",
          "type": "address"
        }
      ],
      "name": "hasRole",
      "outputs": [
        {
          "internalType": "bool",
          "name": "",
          "type": "bool"
        }
      ],
      "stateMutability": "view",
      "type": "function"
    },
    {
      "inputs": [
        {
          "internalType": "address",
          "name": "spender",
          "type": "address"
        },
        {
          "internalType": "uint256",
          "name": "addedValue",
          "type": "uint256"
        }
      ],
      "name": "increaseAllowance",
      "outputs": [
        {
          "internalType": "bool",
          "name": "",
          "type": "bool"
        }
      ],
      "stateMutability": "nonpayable",
      "type": "function"
    },
    {
      "inputs": [],
      "name": "name",
      "outputs": [
        {
          "internalType": "string",
          "name": "",
          "type": "string"
        }
      ],
      "stateMutability": "view",
      "type": "function"
    },
    {
      "inputs": [
        {
          "internalType": "uint256",
          "name": "",
          "type": "uint256"
        }
      ],
      "name": "onnanocos",
      "outputs": [
        {
          "internalType": "string",
          "name": "name",
          "type": "string"
        },
        {
          "internalType": "address",
          "name": "owner",
          "type": "address"
        },
        {
          "components": [
            {
              "internalType": "bytes32",
              "name": "hash",
              "type": "bytes32"
            },
            {
              "internalType": "bytes2",
              "name": "hashFunction",
              "type": "bytes2"
            },
            {
              "internalType": "uint8",
              "name": "size",
              "type": "uint8"
            }
          ],
          "internalType": "struct Lib.Multihash",
          "name": "multihash",
          "type": "tuple"
        },
        {
          "internalType": "enum Lib.Status",
          "name": "status",
          "type": "uint8"
        },
        {
          "internalType": "uint256",
          "name": "timestamp",
          "type": "uint256"
        },
        {
          "internalType": "uint256",
          "name": "totalStakingAmount",
          "type": "uint256"
        },
        {
          "internalType": "uint256",
          "name": "roundId",
          "type": "uint256"
        }
      ],
      "stateMutability": "view",
      "type": "function"
    },
    {
      "inputs": [
        {
          "internalType": "bytes32",
          "name": "role",
          "type": "bytes32"
        },
        {
          "internalType": "address",
          "name": "account",
          "type": "address"
        }
      ],
      "name": "renounceRole",
      "outputs": [],
      "stateMutability": "nonpayable",
      "type": "function"
    },
    {
      "inputs": [
        {
          "internalType": "bytes32",
          "name": "role",
          "type": "bytes32"
        },
        {
          "internalType": "address",
          "name": "account",
          "type": "address"
        }
      ],
      "name": "revokeRole",
      "outputs": [],
      "stateMutability": "nonpayable",
      "type": "function"
    },
    {
      "inputs": [
        {
          "internalType": "uint256",
          "name": "",
          "type": "uint256"
        }
      ],
      "name": "rounds",
      "outputs": [
        {
          "internalType": "uint256",
          "name": "onnanocoId",
          "type": "uint256"
        },
        {
          "internalType": "uint256",
          "name": "totalDefenseAmount",
          "type": "uint256"
        },
        {
          "internalType": "uint256",
          "name": "totalAttackAmount",
          "type": "uint256"
        },
        {
          "internalType": "uint256",
          "name": "timestamp",
          "type": "uint256"
        },
        {
          "internalType": "uint256",
          "name": "totalVotes",
          "type": "uint256"
        }
      ],
      "stateMutability": "view",
      "type": "function"
    },
    {
      "inputs": [
        {
          "internalType": "address",
          "name": "",
          "type": "address"
        },
        {
          "internalType": "uint256",
          "name": "",
          "type": "uint256"
        }
      ],
      "name": "stakes",
      "outputs": [
        {
          "internalType": "uint256",
          "name": "id",
          "type": "uint256"
        },
        {
          "internalType": "uint256",
          "name": "amount",
          "type": "uint256"
        },
        {
          "internalType": "uint256",
          "name": "timestamp",
          "type": "uint256"
        }
      ],
      "stateMutability": "view",
      "type": "function"
    },
    {
      "inputs": [
        {
          "internalType": "bytes4",
          "name": "interfaceId",
          "type": "bytes4"
        }
      ],
      "name": "supportsInterface",
      "outputs": [
        {
          "internalType": "bool",
          "name": "",
          "type": "bool"
        }
      ],
      "stateMutability": "view",
      "type": "function"
    },
    {
      "inputs": [],
      "name": "symbol",
      "outputs": [
        {
          "internalType": "string",
          "name": "",
          "type": "string"
        }
      ],
      "stateMutability": "view",
      "type": "function"
    },
    {
      "inputs": [],
      "name": "totalOnnanocos",
      "outputs": [
        {
          "internalType": "uint256",
          "name": "",
          "type": "uint256"
        }
      ],
      "stateMutability": "view",
      "type": "function"
    },
    {
      "inputs": [],
      "name": "totalRounds",
      "outputs": [
        {
          "internalType": "uint256",
          "name": "",
          "type": "uint256"
        }
      ],
      "stateMutability": "view",
      "type": "function"
    },
    {
      "inputs": [],
      "name": "totalSupply",
      "outputs": [
        {
          "internalType": "uint256",
          "name": "",
          "type": "uint256"
        }
      ],
      "stateMutability": "view",
      "type": "function"
    },
    {
      "inputs": [
        {
          "internalType": "address",
          "name": "recipient",
          "type": "address"
        },
        {
          "internalType": "uint256",
          "name": "amount",
          "type": "uint256"
        }
      ],
      "name": "transfer",
      "outputs": [
        {
          "internalType": "bool",
          "name": "",
          "type": "bool"
        }
      ],
      "stateMutability": "nonpayable",
      "type": "function"
    },
    {
      "inputs": [
        {
          "internalType": "address",
          "name": "sender",
          "type": "address"
        },
        {
          "internalType": "address",
          "name": "recipient",
          "type": "address"
        },
        {
          "internalType": "uint256",
          "name": "amount",
          "type": "uint256"
        }
      ],
      "name": "transferFrom",
      "outputs": [
        {
          "internalType": "bool",
          "name": "",
          "type": "bool"
        }
      ],
      "stateMutability": "nonpayable",
      "type": "function"
    },
    {
      "inputs": [
        {
          "internalType": "string",
          "name": "name",
          "type": "string"
        },
        {
          "internalType": "bytes32",
          "name": "hash",
          "type": "bytes32"
        },
        {
          "internalType": "bytes2",
          "name": "hashFunction",
          "type": "bytes2"
        },
        {
          "internalType": "uint8",
          "name": "hashSize",
          "type": "uint8"
        },
        {
          "internalType": "uint256",
          "name": "amount",
          "type": "uint256"
        }
      ],
      "name": "add",
      "outputs": [],
      "stateMutability": "nonpayable",
      "type": "function"
    },
    {
      "inputs": [
        {
          "internalType": "uint256",
          "name": "id",
          "type": "uint256"
        }
      ],
      "name": "getMinimumAttackAmount",
      "outputs": [
        {
          "internalType": "uint256",
          "name": "amount",
          "type": "uint256"
        }
      ],
      "stateMutability": "view",
      "type": "function"
    },
    {
      "inputs": [
        {
          "internalType": "uint256",
          "name": "id",
          "type": "uint256"
        },
        {
          "internalType": "uint256",
          "name": "amount",
          "type": "uint256"
        }
      ],
      "name": "attack",
      "outputs": [],
      "stateMutability": "nonpayable",
      "type": "function"
    },
    {
      "inputs": [
        {
          "internalType": "uint256",
          "name": "id",
          "type": "uint256"
        }
      ],
      "name": "getMinimumDefenseAmount",
      "outputs": [
        {
          "internalType": "uint256",
          "name": "amount",
          "type": "uint256"
        }
      ],
      "stateMutability": "view",
      "type": "function"
    },
    {
      "inputs": [
        {
          "internalType": "uint256",
          "name": "id",
          "type": "uint256"
        },
        {
          "internalType": "uint256",
          "name": "amount",
          "type": "uint256"
        }
      ],
      "name": "defense",
      "outputs": [],
      "stateMutability": "nonpayable",
      "type": "function"
    },
    {
      "inputs": [
        {
          "internalType": "uint256",
          "name": "roundId",
          "type": "uint256"
        }
      ],
      "name": "clearRound",
      "outputs": [],
      "stateMutability": "nonpayable",
      "type": "function"
    },
    {
      "inputs": [
        {
          "internalType": "uint256",
          "name": "roundId",
          "type": "uint256"
        },
        {
          "internalType": "uint256",
          "name": "voteId",
          "type": "uint256"
        }
      ],
      "name": "resolveAttack",
      "outputs": [],
      "stateMutability": "nonpayable",
      "type": "function"
    },
    {
      "inputs": [
        {
          "internalType": "uint256",
          "name": "roundId",
          "type": "uint256"
        },
        {
          "internalType": "uint256",
          "name": "voteId",
          "type": "uint256"
        }
      ],
      "name": "reolveDefense",
      "outputs": [],
      "stateMutability": "nonpayable",
      "type": "function"
    },
    {
      "inputs": [
        {
          "internalType": "uint256",
          "name": "id",
          "type": "uint256"
        },
        {
          "internalType": "uint256",
          "name": "amount",
          "type": "uint256"
        }
      ],
      "name": "stake",
      "outputs": [],
      "stateMutability": "nonpayable",
      "type": "function"
    },
    {
      "inputs": [
        {
          "internalType": "uint256",
          "name": "stakeId",
          "type": "uint256"
        }
      ],
      "name": "unstake",
      "outputs": [],
      "stateMutability": "nonpayable",
      "type": "function"
    },
    {
      "inputs": [
        {
          "internalType": "address",
          "name": "staker",
          "type": "address"
        },
        {
          "internalType": "uint256",
          "name": "stakeId",
          "type": "uint256"
        }
      ],
      "name": "getStakeRewardAmount",
      "outputs": [
        {
          "internalType": "uint256",
          "name": "amount",
          "type": "uint256"
        },
        {
          "internalType": "uint256",
          "name": "duration",
          "type": "uint256"
        }
      ],
      "stateMutability": "view",
      "type": "function"
    },
    {
      "inputs": [
        {
          "internalType": "uint256",
          "name": "stakeId",
          "type": "uint256"
        }
      ],
      "name": "receiveStakeReward",
      "outputs": [],
      "stateMutability": "nonpayable",
      "type": "function"
    },
    {
      "inputs": [
        {
          "internalType": "uint256",
          "name": "id",
          "type": "uint256"
        }
      ],
      "name": "getOwnerRewardAmount",
      "outputs": [
        {
          "internalType": "uint256",
          "name": "amount",
          "type": "uint256"
        },
        {
          "internalType": "uint256",
          "name": "duration",
          "type": "uint256"
        }
      ],
      "stateMutability": "view",
      "type": "function"
    },
    {
      "inputs": [
        {
          "internalType": "uint256",
          "name": "id",
          "type": "uint256"
        }
      ],
      "name": "receiveOwnerReward",
      "outputs": [],
      "stateMutability": "nonpayable",
      "type": "function"
    },
    {
      "inputs": [
        {
          "internalType": "address",
          "name": "user",
          "type": "address"
        },
        {
          "internalType": "bytes",
          "name": "depositData",
          "type": "bytes"
        }
      ],
      "name": "deposit",
      "outputs": [],
      "stateMutability": "nonpayable",
      "type": "function"
    },
    {
      "inputs": [
        {
          "internalType": "uint256",
          "name": "amount",
          "type": "uint256"
        }
      ],
      "name": "withdraw",
      "outputs": [],
      "stateMutability": "nonpayable",
      "type": "function"
    },
    {
      "inputs": [
        {
          "internalType": "string",
          "name": "name",
          "type": "string"
        },
        {
          "internalType": "string",
          "name": "symbol",
          "type": "string"
        },
        {
          "internalType": "address",
          "name": "childchangeProxy",
          "type": "address"
        }
      ],
      "name": "initialize",
      "outputs": [],
      "stateMutability": "nonpayable",
      "type": "function"
    }
  ],
  "bytecode": "0x608060405234801561001057600080fd5b50613cee806100206000396000f3fe608060405234801561001057600080fd5b506004361061027f5760003560e01c80637b0472f01161015c578063a3b0b5a3116100ce578063d1cd59ea11610087578063d1cd59ea14610666578063d50c2c5014610679578063d547741f1461068c578063dd62ed3e1461069f578063e1fa7638146106d8578063fd75061f146106eb5761027f565b8063a3b0b5a3146105e0578063a457c2d714610607578063a9059cbb1461061a578063b4d039281461062d578063ca15c87314610640578063cf2c52cb146106535761027f565b80638c65c81f116101205780638c65c81f146104f25780639010d07c1461055757806391d1485414610582578063946e94c41461059557806395d89b41146105d0578063a217fddf146105d85761027f565b80637b0472f01461049d57806381a15af4146104b0578063860909c4146104c3578063867e1f55146104d65780638a568299146104e95761027f565b80632e17de78116101f557806339509351116101b957806339509351146103e5578063584b62a1146103f857806364d07acb146104265780636ad6c0351461044e5780636d13a9e61461046157806370a08231146104745761027f565b80632e17de781461038a5780632e1a7d4d1461039d5780632f2ff15d146103b0578063313ce567146103c357806336568abe146103d25761027f565b80630c6cc4a3116102475780630c6cc4a3146102fc578063111bf50b1461031357806318160ddd146103265780632042f1c71461032e57806323b872dd14610354578063248a9ca3146103675761027f565b806301ffc9a71461028457806306fdde03146102ac578063077f224a146102c1578063089563e1146102d6578063095ea7b3146102e9575b600080fd5b61029761029236600461374c565b6106fe565b60405190151581526020015b60405180910390f35b6102b461072b565b6040516102a39190613909565b6102d46102cf3660046137f7565b6107bd565b005b6102d46102e436600461372b565b6108ce565b6102976102f73660046136c8565b610b4c565b61030560fe5481565b6040519081526020016102a3565b6102d4610321366004613774565b610b63565b60cb54610305565b61034161033c3660046136f1565b610e0b565b6040516102a3979695949392919061391c565b61029761036236600461360f565b610f11565b6103056103753660046136f1565b60009081526065602052604090206001015490565b6102d46103983660046136f1565b610fbb565b6102d46103ab3660046136f1565b61119b565b6102d46103be366004613709565b6111a7565b604051601281526020016102a3565b6102d46103e0366004613709565b6111d3565b6102976103f33660046136c8565b611251565b61040b6104063660046136c8565b61128d565b604080519384526020840192909252908201526060016102a3565b6104396104343660046136c8565b6112d0565b604080519283526020830191909152016102a3565b61030561045c3660046136f1565b6113ee565b61043961046f3660046136f1565b611561565b6103056104823660046135c3565b6001600160a01b0316600090815260c9602052604090205490565b6102d46104ab36600461372b565b61180a565b6102d46104be3660046136f1565b611923565b6102d46104d136600461372b565b611ca3565b6102d46104e43660046136f1565b611e89565b61030560fd5481565b61052f6105003660046136f1565b60fc60205260009081526040902080546001820154600283015460038401546004909401549293919290919085565b604080519586526020860194909452928401919091526060830152608082015260a0016102a3565b61056a61056536600461372b565b612012565b6040516001600160a01b0390911681526020016102a3565b610297610590366004613709565b612031565b6105a86105a336600461372b565b61205c565b604080519485526001600160a01b0390931660208501529183015260608201526080016102a3565b6102b46120ac565b610305600081565b6103057f8f4f2da22e8ac8f11e15f9fc141cddbb5deea8800186560abb6e68c5496619a981565b6102976106153660046136c8565b6120bb565b6102976106283660046136c8565b612154565b61030561063b3660046136f1565b612161565b61030561064e3660046136f1565b612293565b6102d461066136600461364a565b6122aa565b6102d46106743660046136f1565b61233a565b6105a861068736600461372b565b61245e565b6102d461069a366004613709565b61247a565b6103056106ad3660046135dd565b6001600160a01b03918216600090815260ca6020908152604080832093909416825291909152205490565b6102d46106e636600461372b565b6124a0565b6102d46106f936600461372b565b612724565b60006001600160e01b03198216635a05180f60e01b1480610723575061072382612922565b90505b919050565b606060cc805461073a90613c36565b80601f016020809104026020016040519081016040528092919081815260200182805461076690613c36565b80156107b35780601f10610788576101008083540402835291602001916107b3565b820191906000526020600020905b81548152906001019060200180831161079657829003601f168201915b5050505050905090565b600054610100900460ff166107d85760005460ff16156107dc565b303b155b6108445760405162461bcd60e51b815260206004820152602e60248201527f496e697469616c697a61626c653a20636f6e747261637420697320616c72656160448201526d191e481a5b9a5d1a585b1a5e995960921b60648201526084015b60405180910390fd5b600054610100900460ff1615801561086f576000805460ff1961ff0019909116610100171660011790555b6108798484612957565b6108a37f8f4f2da22e8ac8f11e15f9fc141cddbb5deea8800186560abb6e68c5496619a983612990565b6108b63368056bc75e2d6310000061299a565b80156108c8576000805461ff00191690555b50505050565b60fd5482106108ef5760405162461bcd60e51b815260040161083b90613a5a565b600082815260ff6020526040812080548390811061091d57634e487b7160e01b600052603260045260246000fd5b60009182526020918290206040805160808101825260049093029091018054835260018101546001600160a01b0316938301939093526002830154908201819052600390920154606082015291506109875760405162461bcd60e51b815260040161083b90613a5a565b60208101516001600160a01b0316336001600160a01b0316146109bc5760405162461bcd60e51b815260040161083b90613a2e565b600083815260fc6020908152604091829020825160a08101845281548152600182015492810192909252600281015492820192909252600382015460608201819052600490920154608082015290610a265760405162461bcd60e51b815260040161083b90613a5a565b6000816060015142610a389190613bdc565b9050610e108111610a5b5760405162461bcd60e51b815260040161083b90613b03565b600082602001518360400151610a719190613b85565b9050826020015183604001511015610ae1578415610ab557610ab03360208501516040870151610aa19085613bbd565b610aab9190613b9d565b61299a565b610ae1565b610ae13360408601516020860151610acd8286613bbd565b610ad79190613b9d565b610aab9190613bdc565b600086815260ff60205260408120805487908110610b0f57634e487b7160e01b600052603260045260246000fd5b906000526020600020906004020160010160006101000a8154816001600160a01b0302191690836001600160a01b03160217905550505050505050565b6000610b59338484612a7a565b5060015b92915050565b60008111610b835760405162461bcd60e51b815260040161083b906139a9565b610b8e335b82612b9e565b6040518060e00160405280868152602001610ba63390565b6001600160a01b03168152604080516060810182528781526001600160f01b0319871660208281019190915260ff87168284015283015201600081526020014281526020016000815260200160fd5481525060fb600060fe5481526020019081526020016000206000820151816000019080519060200190610c2992919061348c565b50602082810151600180840180546001600160a01b039093166001600160a01b031990931692909217909155604080850151805160028087019190915593810151600386018054929093015160ff16620100000262ff00001960f09290921c61ffff19909316929092171617905560608401516004840180549193909260ff1990921691908490811115610ccd57634e487b7160e01b600052602160045260246000fd5b0217905550608082810151600583015560a080840151600684015560c09093015160079092019190915560408051928301815260fe805484526020808501868152600086850181815260608801828152600189890181815260fd54855260fc87528885209a518b559451908a015590516002890155516003880155905160049096019590955582519384019092525482528101336001600160a01b03908116825260208083018690524260409384015260fd54600090815260ff825283812080546001808201835591835283832087516004909202019081559286015190830180546001600160a01b0319169190941617909255918301516002830155606083015160039092019190915560fe805492935090610de983613c71565b909155505060fd8054906000610dfe83613c71565b9190505550505050505050565b60fb60205260009081526040902080548190610e2690613c36565b80601f0160208091040260200160405190810160405280929190818152602001828054610e5290613c36565b8015610e9f5780601f10610e7457610100808354040283529160200191610e9f565b820191906000526020600020905b815481529060010190602001808311610e8257829003601f168201915b5050505060018301546040805160608101825260028601548152600386015460f081901b6001600160f01b031916602083015262010000900460ff9081169282019290925260048601546005870154600688015460079098015496976001600160a01b03909516969295509216929087565b6000610f1e848484612cec565b6001600160a01b038416600090815260ca6020908152604080832033845290915290205482811015610fa35760405162461bcd60e51b815260206004820152602860248201527f45524332303a207472616e7366657220616d6f756e74206578636565647320616044820152676c6c6f77616e636560c01b606482015260840161083b565b610fb08533858403612a7a565b506001949350505050565b33600090815261010160205260408120805483908110610feb57634e487b7160e01b600052603260045260246000fd5b90600052602060002090600302016040518060600160405290816000820154815260200160018201548152602001600282015481525050905060008160400151116110485760405162461bcd60e51b815260040161083b90613a5a565b60018151600090815260fb602052604090206004015460ff16600281111561108057634e487b7160e01b600052602160045260246000fd5b14156110ce5760405162461bcd60e51b815260206004820152601f60248201527f4d4f453a20726f756e6420697320696e20646973707574652073746174757300604482015260640161083b565b6000806110dc335b856112d0565b91509150610e1081116111015760405162461bcd60e51b815260040161083b906139e0565b61111533838560200151610aab9190613b85565b826020015160fb60008560000151815260200190815260200160002060060160008282546111439190613bdc565b90915550503360009081526101016020526040902080548590811061117857634e487b7160e01b600052603260045260246000fd5b600091825260208220600390910201818155600181018290556002015550505050565b6111a433610b88565b50565b6000828152606560205260409020600101546111c481335b612eba565b6111ce8383612f1e565b505050565b6001600160a01b03811633146112435760405162461bcd60e51b815260206004820152602f60248201527f416363657373436f6e74726f6c3a2063616e206f6e6c792072656e6f756e636560448201526e103937b632b9903337b91039b2b63360891b606482015260840161083b565b61124d8282612f40565b5050565b33600081815260ca602090815260408083206001600160a01b03871684529091528120549091610b59918590611288908690613b85565b612a7a565b61010160205281600052604060002081815481106112aa57600080fd5b600091825260209091206003909102018054600182015460029092015490935090915083565b6001600160a01b0382166000908152610101602052604081208054829182918590811061130d57634e487b7160e01b600052603260045260246000fd5b906000526020600020906003020160405180606001604052908160008201548152602001600182015481526020016002820154815250509050600081604001511161136a5760405162461bcd60e51b815260040161083b90613a5a565b60408101516113799042613bdc565b91506283d60082826020015161138f9190613bbd565b6113999190613b9d565b925060008151600090815260fb602052604090206004015460ff1660028111156113d357634e487b7160e01b600052602160045260246000fd5b146113e55760008092509250506113e7565b505b9250929050565b600060fe5482106114115760405162461bcd60e51b815260040161083b90613a5a565b6002600083815260fb602052604090206004015460ff16600281111561144757634e487b7160e01b600052602160045260246000fd5b141561148c5760405162461bcd60e51b81526020600482015260146024820152734d4f453a2064657072656361746564206461746160601b604482015260640161083b565b600082815260fb602090815260408083206007015480845260fc835292819020815160a081018352815481526001820154938101939093526002810154918301829052600380820154606085015260049091015460808401526114ef9190613bbd565b816040015182602001516115039190613b85565b61150e906002613bbd565b1115611556576040810151611524906003613bbd565b816040015182602001516115389190613b85565b611543906002613bbd565b61154d9190613bdc565b92505050610726565b600092505050610726565b60008060fe5483106115855760405162461bcd60e51b815260040161083b90613a5a565b600083815260fb6020526040808220815160e081019092528054829082906115ac90613c36565b80601f01602080910402602001604051908101604052809291908181526020018280546115d890613c36565b80156116255780601f106115fa57610100808354040283529160200191611625565b820191906000526020600020905b81548152906001019060200180831161160857829003601f168201915b505050918352505060018201546001600160a01b031660208083019190915260408051606080820183526002808701548352600387015460f081901b6001600160f01b031916958401959095526201000090940460ff9081168385015292850191909152600485015493019216908111156116b057634e487b7160e01b600052602160045260246000fd5b60028111156116cf57634e487b7160e01b600052602160045260246000fd5b81526005820154602082015260068201546040820152600790910154606090910152905060008160600151600281111561171957634e487b7160e01b600052602160045260246000fd5b146117365760405162461bcd60e51b815260040161083b90613a8a565b60c0810151600090815260ff602052604081208054829061176757634e487b7160e01b600052603260045260246000fd5b60009182526020918290206040805160808101825260049093029091018054835260018101546001600160a01b031693830193909352600283015490820152600390910154606082018190529091506117d25760405162461bcd60e51b815260040161083b90613a5a565b60608101516117e19042613bdc565b92506241eb008382604001516117f79190613bbd565b6118019190613b9d565b93505050915091565b6000811161182a5760405162461bcd60e51b815260040161083b906139a9565b60fe54821061184b5760405162461bcd60e51b815260040161083b90613a5a565b600082815260fb602052604081206004015460ff16600281111561187f57634e487b7160e01b600052602160045260246000fd5b1461189c5760405162461bcd60e51b815260040161083b90613a8a565b6118a533610b88565b3360009081526101016020908152604080832081516060810183528681528084018681524282850190815283546001808201865594885286882093516003909102909301928355905192820192909255905160029091015584835260fb9091528120600601805483929061191a908490613b85565b90915550505050565b600081815260fc6020908152604091829020825160a08101845281548152600182015492810192909252600281015492820192909252600382015460608201526004909101546080820181905261198c5760405162461bcd60e51b815260040161083b90613a5a565b8051600090815260fb60205260409020600781015483146119bf5760405162461bcd60e51b815260040161083b90613a5a565b6001600482015460ff1660028111156119e857634e487b7160e01b600052602160045260246000fd5b14611a055760405162461bcd60e51b815260040161083b90613acc565b6000826060015142611a179190613bdc565b9050610e108111611a3a5760405162461bcd60e51b815260040161083b90613b03565b826020015183604001511115611a7e57611a6a3360648560400151611a5f9190613b9d565b610aab906001613bbd565b60048201805460ff191660021790556108c8565b8260200151836040015110156108c857611aa33360648560200151611a5f9190613b9d565b60048201805460ff19169055600084815260ff6020526040812080548290611adb57634e487b7160e01b600052603260045260246000fd5b9060005260206000209060040201604051806080016040529081600082015481526020016001820160009054906101000a90046001600160a01b03166001600160a01b03166001600160a01b031681526020016002820154815260200160038201548152505090506040518060a0016040528085600001518152602001826040015181526020016000815260200160008152602001600181525060fc600060fd548152602001908152602001600020600082015181600001556020820151816001015560408201518160020155606082015181600301556080820151816004015590505060fd548360070181905550600060405180608001604052808660000151815260200183602001516001600160a01b031681526020018360400151815260200142815250905060ff600060fd5481526020019081526020016000208190806001815401808255809150506001900390600052602060002090600402016000909190919091506000820151816000015560208201518160010160006101000a8154816001600160a01b0302191690836001600160a01b031602179055506040820151816002015560608201518160030155505060fd6000815480929190610dfe90613c71565b60008111611cc35760405162461bcd60e51b815260040161083b906139a9565b600082815260fb602090815260408083206007015480845260fc8352818420825160a0810184528154815260018201549481019490945260028101549284019290925260038201546060840152600490910154608083015291611d2585612161565b905080841015611d775760405162461bcd60e51b815260206004820152601d60248201527f4d4f453a206c657373207468616e206d696e696d756d20616d6f756e74000000604482015260640161083b565b6000826060015142611d899190613bdc565b9050610e108110611dac5760405162461bcd60e51b815260040161083b90613acc565b611db63386612b9e565b60ff60008581526020019081526020016000206040518060800160405280888152602001611de13390565b6001600160a01b03908116825260208083018a905242604093840152845460018082018755600096875282872086516004909302019182558583015182820180546001600160a01b031916919095161790935584840151600282015560609094015160039094019390935587845260fc9092528220018054879290611e67908490613b85565b9091555050600084815260fc60205260408120600401805491610dfe83613c71565b33600090815261010160205260408120805483908110611eb957634e487b7160e01b600052603260045260246000fd5b6000918252602080832060408051606081018252600394909402909101805480855260018201548585015260029182015485840152855260fb90925283206004015491935060ff90911690811115611f2157634e487b7160e01b600052602160045260246000fd5b1415611f3f5760405162461bcd60e51b815260040161083b90613a8a565b600080611f4b336110d6565b9150915060008211611f9f5760405162461bcd60e51b815260206004820152601f60248201527f4d4f453a20726577617264206d7573742067726561746572207468616e203000604482015260640161083b565b610e108111611fc05760405162461bcd60e51b815260040161083b906139e0565b33600090815261010160205260409020805442919086908110611ff357634e487b7160e01b600052603260045260246000fd5b60009182526020909120600260039092020101556108c8335b8361299a565b600082815260976020526040812061202a9083612f62565b9392505050565b60009182526065602090815260408084206001600160a01b0393909316845291905290205460ff1690565b610100602052816000526040600020818154811061207957600080fd5b600091825260209091206004909102018054600182015460028301546003909301549194506001600160a01b0316925084565b606060cd805461073a90613c36565b33600090815260ca602090815260408083206001600160a01b03861684529091528120548281101561213d5760405162461bcd60e51b815260206004820152602560248201527f45524332303a2064656372656173656420616c6c6f77616e63652062656c6f77604482015264207a65726f60d81b606482015260840161083b565b61214a3385858403612a7a565b5060019392505050565b6000610b59338484612cec565b600060fe5482106121845760405162461bcd60e51b815260040161083b90613a5a565b6001600083815260fb602052604090206004015460ff1660028111156121ba57634e487b7160e01b600052602160045260246000fd5b146121d75760405162461bcd60e51b815260040161083b90613acc565b600082815260fb602090815260408083206007015480845260fc835292819020815160a08101835281548152600182015493810193909352600281015491830191909152600381015460608301819052600490910154608083015261224e5760405162461bcd60e51b815260040161083b90613a5a565b602081015161225e906003613bbd565b816040015182602001516122729190613b85565b61227d906002613bbd565b1115611556576020810151611524906003613bbd565b600081815260976020526040812061072390612f6e565b6122d47f8f4f2da22e8ac8f11e15f9fc141cddbb5deea8800186560abb6e68c5496619a933610590565b6123205760405162461bcd60e51b815260206004820152601d60248201527f596f75277265206e6f7420616c6c6f77656420746f206465706f736974000000604482015260640161083b565b600061232e828401846136f1565b90506108c8848261299a565b60008061234683611561565b915091506123513390565b600084815260fb60205260409020600101546001600160a01b0390811691161461238d5760405162461bcd60e51b815260040161083b90613a2e565b610e1081116123ae5760405162461bcd60e51b815260040161083b906139e0565b600082116123fe5760405162461bcd60e51b815260206004820152601f60248201527f4d4f453a20726577617264206d7573742067726561746572207468616e203000604482015260640161083b565b6124073361200c565b600083815260fb6020908152604080832060070154835260ff9091528120805442929061244457634e487b7160e01b600052603260045260246000fd5b906000526020600020906004020160030181905550505050565b60ff602052816000526040600020818154811061207957600080fd5b60008281526065602052604090206001015461249681336111bf565b6111ce8383612f40565b600081116124c05760405162461bcd60e51b815260040161083b906139a9565b60006124cb836113ee565b90508082101561251d5760405162461bcd60e51b815260206004820152601d60248201527f4d4f453a206c657373207468616e206d696e696d756d20616d6f756e74000000604482015260640161083b565b600083815260fb60205260408120600781015460049091015490919060ff16600281111561255b57634e487b7160e01b600052602160045260246000fd5b141561259657600084815260fb60209081526040808320600401805460ff1916600117905583835260fc909152902042600390910155612638565b600081815260fc6020908152604091829020825160a081018452815481526001820154928101929092526002810154928201929092526003820154606082018190526004909201546080820152906126005760405162461bcd60e51b815260040161083b90613a5a565b60008160600151426126129190613bdc565b9050610e1081106126355760405162461bcd60e51b815260040161083b90613acc565b50505b6126423384612b9e565b6101006000828152602001908152602001600020604051806080016040528086815260200161266e3390565b6001600160a01b039081168252602080830188905242604093840152845460018082018755600096875282872086516004909302019182558583015190820180546001600160a01b03191691909416179092558383015160028084019190915560609094015160039092019190915584845260fc905282200180548592906126f7908490613b85565b9091555050600081815260fc6020526040812060040180549161271983613c71565b919050555050505050565b60fd5482106127455760405162461bcd60e51b815260040161083b90613a5a565b60008281526101006020526040812080548390811061277457634e487b7160e01b600052603260045260246000fd5b60009182526020918290206040805160808101825260049093029091018054835260018101546001600160a01b0316938301939093526002830154908201819052600390920154606082015291506127de5760405162461bcd60e51b815260040161083b90613a5a565b60208101516001600160a01b0316336001600160a01b0316146128135760405162461bcd60e51b815260040161083b90613a2e565b600083815260fc6020908152604091829020825160a0810184528154815260018201549281019290925260028101549282019290925260038201546060820181905260049092015460808201529061287d5760405162461bcd60e51b815260040161083b90613a5a565b600081606001514261288f9190613bdc565b9050610e1081116128b25760405162461bcd60e51b815260040161083b90613b03565b6000826020015183604001516128c89190613b85565b90508260200151836040015111156128f3576128f3338460400151866040015184610aa19190613bbd565b600086815261010060205260408120805487908110610b0f57634e487b7160e01b600052603260045260246000fd5b60006001600160e01b03198216637965db0b60e01b148061072357506301ffc9a760e01b6001600160e01b0319831614610723565b600054610100900460ff1661297e5760405162461bcd60e51b815260040161083b90613b3a565b612986612f78565b61124d8282612fa1565b61124d8282612f1e565b6001600160a01b0382166129f05760405162461bcd60e51b815260206004820152601f60248201527f45524332303a206d696e7420746f20746865207a65726f206164647265737300604482015260640161083b565b8060cb6000828254612a029190613b85565b90915550506001600160a01b038216600090815260c9602052604081208054839290612a2f908490613b85565b90915550506040518181526001600160a01b038316906000907fddf252ad1be2c89b69c2b068fc378daa952ba7f163c4a11628f55a4df523b3ef9060200160405180910390a361124d565b6001600160a01b038316612adc5760405162461bcd60e51b8152602060048201526024808201527f45524332303a20617070726f76652066726f6d20746865207a65726f206164646044820152637265737360e01b606482015260840161083b565b6001600160a01b038216612b3d5760405162461bcd60e51b815260206004820152602260248201527f45524332303a20617070726f766520746f20746865207a65726f206164647265604482015261737360f01b606482015260840161083b565b6001600160a01b03838116600081815260ca602090815260408083209487168084529482529182902085905590518481527f8c5be1e5ebec7d5bd14f71427d1e84f3dd0314c0f7b2291e5b200ac8c7c3b925910160405180910390a3505050565b6001600160a01b038216612bfe5760405162461bcd60e51b815260206004820152602160248201527f45524332303a206275726e2066726f6d20746865207a65726f206164647265736044820152607360f81b606482015260840161083b565b6001600160a01b038216600090815260c9602052604090205481811015612c725760405162461bcd60e51b815260206004820152602260248201527f45524332303a206275726e20616d6f756e7420657863656564732062616c616e604482015261636560f01b606482015260840161083b565b6001600160a01b038316600090815260c960205260408120838303905560cb8054849290612ca1908490613bdc565b90915550506040518281526000906001600160a01b038516907fddf252ad1be2c89b69c2b068fc378daa952ba7f163c4a11628f55a4df523b3ef9060200160405180910390a36111ce565b6001600160a01b038316612d505760405162461bcd60e51b815260206004820152602560248201527f45524332303a207472616e736665722066726f6d20746865207a65726f206164604482015264647265737360d81b606482015260840161083b565b6001600160a01b038216612db25760405162461bcd60e51b815260206004820152602360248201527f45524332303a207472616e7366657220746f20746865207a65726f206164647260448201526265737360e81b606482015260840161083b565b6001600160a01b038316600090815260c9602052604090205481811015612e2a5760405162461bcd60e51b815260206004820152602660248201527f45524332303a207472616e7366657220616d6f756e7420657863656564732062604482015265616c616e636560d01b606482015260840161083b565b6001600160a01b03808516600090815260c96020526040808220858503905591851681529081208054849290612e61908490613b85565b92505081905550826001600160a01b0316846001600160a01b03167fddf252ad1be2c89b69c2b068fc378daa952ba7f163c4a11628f55a4df523b3ef84604051612ead91815260200190565b60405180910390a36108c8565b612ec48282612031565b61124d57612edc816001600160a01b03166014612fef565b612ee7836020612fef565b604051602001612ef8929190613894565b60408051601f198184030181529082905262461bcd60e51b825261083b91600401613909565b612f2882826131d1565b60008281526097602052604090206111ce9082613257565b612f4a828261326c565b60008281526097602052604090206111ce90826132d3565b600061202a83836132e8565b6000610723825490565b600054610100900460ff16612f9f5760405162461bcd60e51b815260040161083b90613b3a565b565b600054610100900460ff16612fc85760405162461bcd60e51b815260040161083b90613b3a565b8151612fdb9060cc90602085019061348c565b5080516111ce9060cd90602084019061348c565b60606000612ffe836002613bbd565b613009906002613b85565b67ffffffffffffffff81111561302f57634e487b7160e01b600052604160045260246000fd5b6040519080825280601f01601f191660200182016040528015613059576020820181803683370190505b509050600360fc1b8160008151811061308257634e487b7160e01b600052603260045260246000fd5b60200101906001600160f81b031916908160001a905350600f60fb1b816001815181106130bf57634e487b7160e01b600052603260045260246000fd5b60200101906001600160f81b031916908160001a90535060006130e3846002613bbd565b6130ee906001613b85565b90505b6001811115613182576f181899199a1a9b1b9c1cb0b131b232b360811b85600f166010811061313057634e487b7160e01b600052603260045260246000fd5b1a60f81b82828151811061315457634e487b7160e01b600052603260045260246000fd5b60200101906001600160f81b031916908160001a90535060049490941c9361317b81613c1f565b90506130f1565b50831561202a5760405162461bcd60e51b815260206004820181905260248201527f537472696e67733a20686578206c656e67746820696e73756666696369656e74604482015260640161083b565b6131db8282612031565b61124d5760008281526065602090815260408083206001600160a01b03851684529091529020805460ff191660011790556132133390565b6001600160a01b0316816001600160a01b0316837f2f8788117e7eff1d82e926ec794901d17c78024a50270940304540a733656f0d60405160405180910390a45050565b600061202a836001600160a01b038416613320565b6132768282612031565b1561124d5760008281526065602090815260408083206001600160a01b0385168085529252808320805460ff1916905551339285917ff6391f5c32d9c69d2a47ea670b442974b53935d1edc7fd64eb21e047a839171b9190a45050565b600061202a836001600160a01b03841661336f565b600082600001828154811061330d57634e487b7160e01b600052603260045260246000fd5b9060005260206000200154905092915050565b600081815260018301602052604081205461336757508154600181810184556000848152602080822090930184905584548482528286019093526040902091909155610b5d565b506000610b5d565b60008181526001830160205260408120548015613482576000613393600183613bdc565b85549091506000906133a790600190613bdc565b90508181146134285760008660000182815481106133d557634e487b7160e01b600052603260045260246000fd5b906000526020600020015490508087600001848154811061340657634e487b7160e01b600052603260045260246000fd5b6000918252602080832090910192909255918252600188019052604090208390555b855486908061344757634e487b7160e01b600052603160045260246000fd5b600190038181906000526020600020016000905590558560010160008681526020019081526020016000206000905560019350505050610b5d565b6000915050610b5d565b82805461349890613c36565b90600052602060002090601f0160209004810192826134ba5760008555613500565b82601f106134d357805160ff1916838001178555613500565b82800160010185558215613500579182015b828111156135005782518255916020019190600101906134e5565b5061350c929150613510565b5090565b5b8082111561350c5760008155600101613511565b80356001600160a01b038116811461072657600080fd5b600082601f83011261354c578081fd5b813567ffffffffffffffff8082111561356757613567613ca2565b604051601f8301601f19908116603f0116810190828211818310171561358f5761358f613ca2565b816040528381528660208588010111156135a7578485fd5b8360208701602083013792830160200193909352509392505050565b6000602082840312156135d4578081fd5b61202a82613525565b600080604083850312156135ef578081fd5b6135f883613525565b915061360660208401613525565b90509250929050565b600080600060608486031215613623578081fd5b61362c84613525565b925061363a60208501613525565b9150604084013590509250925092565b60008060006040848603121561365e578283fd5b61366784613525565b9250602084013567ffffffffffffffff80821115613683578384fd5b818601915086601f830112613696578384fd5b8135818111156136a4578485fd5b8760208285010111156136b5578485fd5b6020830194508093505050509250925092565b600080604083850312156136da578182fd5b6136e383613525565b946020939093013593505050565b600060208284031215613702578081fd5b5035919050565b6000806040838503121561371b578182fd5b8235915061360660208401613525565b6000806040838503121561373d578182fd5b50508035926020909101359150565b60006020828403121561375d578081fd5b81356001600160e01b03198116811461202a578182fd5b600080600080600060a0868803121561378b578081fd5b853567ffffffffffffffff8111156137a1578182fd5b6137ad8882890161353c565b9550506020860135935060408601356001600160f01b0319811681146137d1578182fd5b9250606086013560ff811681146137e6578182fd5b949793965091946080013592915050565b60008060006060848603121561380b578283fd5b833567ffffffffffffffff80821115613822578485fd5b61382e8783880161353c565b94506020860135915080821115613843578384fd5b506138508682870161353c565b92505061385f60408501613525565b90509250925092565b60008151808452613880816020860160208601613bf3565b601f01601f19169290920160200192915050565b60007f416363657373436f6e74726f6c3a206163636f756e7420000000000000000000825283516138cc816017850160208801613bf3565b7001034b99036b4b9b9b4b733903937b6329607d1b60179184019182015283516138fd816028840160208801613bf3565b01602801949350505050565b60006020825261202a6020830184613868565b60006101208083526139308184018b613868565b91505060018060a01b03881660208301528651604083015261ffff60f01b602088015116606083015260ff60408801511660808301526003861061398457634e487b7160e01b600052602160045260246000fd5b8560a08301528460c08301528360e08301528261010083015298975050505050505050565b6020808252601a908201527f4d4f453a20616d6f756e742063616e6e6f74206265207a65726f000000000000604082015260600190565b6020808252602e908201527f4d4f453a20726571756573742063616e206265206d616465206166746572206160408201526d3a103632b0b9ba1018903437bab960911b606082015260800190565b6020808252601290820152711353d14e881858d8d95cdcc819195b9a595960721b604082015260600190565b6020808252601690820152754d4f453a206e6f206461746120617661696c61626c6560501b604082015260600190565b60208082526022908201527f4d4f453a20726f756e64206973206e6f7420696e206e6f726d616c2073746174604082015261757360f01b606082015260800190565b6020808252601c908201527f4d4f453a20726f756e64206973206e6f7420696e206469737075746500000000604082015260600190565b6020808252601f908201527f4d4f453a20646973707574652077696e646f77206973206e6f74206f76657200604082015260600190565b6020808252602b908201527f496e697469616c697a61626c653a20636f6e7472616374206973206e6f74206960408201526a6e697469616c697a696e6760a81b606082015260800190565b60008219821115613b9857613b98613c8c565b500190565b600082613bb857634e487b7160e01b81526012600452602481fd5b500490565b6000816000190483118215151615613bd757613bd7613c8c565b500290565b600082821015613bee57613bee613c8c565b500390565b60005b83811015613c0e578181015183820152602001613bf6565b838111156108c85750506000910152565b600081613c2e57613c2e613c8c565b506000190190565b600281046001821680613c4a57607f821691505b60208210811415613c6b57634e487b7160e01b600052602260045260246000fd5b50919050565b6000600019821415613c8557613c85613c8c565b5060010190565b634e487b7160e01b600052601160045260246000fd5b634e487b7160e01b600052604160045260246000fdfea2646970667358221220d5582eeaaf043de562a004b93e092c13f7ad3040424979c80d9f7fef8013005264736f6c63430008020033",
  "immutableReferences": {},
  "source": "// SPDX-License-Identifier: MIT\npragma solidity ^0.8.2;\n\nimport \"./Library.sol\";\nimport \"./IMOEToken.sol\";\nimport \"@openzeppelin/contracts-upgradeable/token/ERC20/ERC20Upgradeable.sol\";\nimport \"@openzeppelin/contracts-upgradeable/access/AccessControlEnumerableUpgradeable.sol\";\nimport \"@openzeppelin/contracts-upgradeable/utils/ContextUpgradeable.sol\";\n\n// *** IMPORTANT ***\n//\n// BEFORE DEPLOY\n// --------------\n// erase _mint() line on initialize()\n// change duration require() function on voteForAttack()\n// change duration require() function on voteForDeffense()\n// change duration require() function on unstake()\n// change duration require() function on clearRound()\n// change duration require() function on resolveAttack()\n// change duration require() function on resolveDefense()\n\ncontract MOEToken is ContextUpgradeable, AccessControlEnumerableUpgradeable, IMOEToken, ERC20Upgradeable {\n\n    bytes32 public constant DEPOSITOR_ROLE = keccak256(\"DEPOSITOR_ROLE\"); // Polygon mapping\n\n    mapping(uint256 => Lib.Onnanoco) public onnanocos;\n    mapping(uint256 => Lib.Round) public rounds;\n\n    uint256 public totalRounds;\n    uint256 public totalOnnanocos;\n\n    mapping(uint256 => Lib.Vote[]) public defenseVotes;\n    mapping(uint256 => Lib.Vote[]) public attackVotes;\n    mapping(address => Lib.Stake[]) public stakes;\n\n    // Add onnanoco data\n    function add(string memory name, bytes32 hash, bytes2 hashFunction, uint8 hashSize, uint256 amount) public {\n        \n        require(amount > 0, 'MOE: amount cannot be zero');\n\n        _burn(_msgSender(), amount);\n\n        onnanocos[totalOnnanocos] = Lib.Onnanoco(name, _msgSender(), Lib.Multihash(hash, hashFunction, hashSize), Lib.Status.NORMAL, block.timestamp, 0, totalRounds);\n\n        rounds[totalRounds] = Lib.Round(totalOnnanocos, amount, 0, 0, 1);\n\n        Lib.Vote memory vote = Lib.Vote(totalOnnanocos, _msgSender(), amount, block.timestamp);\n        defenseVotes[totalRounds].push(vote);\n\n        totalOnnanocos++;\n        totalRounds++;\n    }\n\n    function getMinimumAttackAmount(uint256 id) public view returns (uint256 amount) {\n\n        require(id < totalOnnanocos, 'MOE: no data available');\n        require(onnanocos[id].status != Lib.Status.DEPRECATED, 'MOE: deprecated data');\n\n        uint256 roundId = onnanocos[id].roundId;\n        Lib.Round memory roundInfo = rounds[roundId];\n\n        if (((roundInfo.totalDefenseAmount + roundInfo.totalAttackAmount) * 2) > (roundInfo.totalAttackAmount * 3)) {\n            return ((roundInfo.totalDefenseAmount + roundInfo.totalAttackAmount) * 2) - (roundInfo.totalAttackAmount * 3);\n        } else {\n            return 0;\n        }\n    }\n\n    function attack(uint256 id, uint256 amount) public {\n\n        require(amount > 0, 'MOE: amount cannot be zero');\n        \n        uint256 minimumAmount = getMinimumAttackAmount(id);\n        require(amount >= minimumAmount, 'MOE: less than minimum amount');\n\n        uint256 roundId = onnanocos[id].roundId;\n\n        // 1st attack\n        if (onnanocos[id].status == Lib.Status.NORMAL) {\n\n            onnanocos[id].status = Lib.Status.IN_DISPUTE;\n            rounds[roundId].timestamp = block.timestamp;\n\n        } else {\n            \n            Lib.Round memory roundInfo = rounds[roundId];\n            require(roundInfo.timestamp > 0, 'MOE: no data available');\n\n            uint256 duration = block.timestamp - roundInfo.timestamp;\n            //require(duration < 60 * 60 * 24 * 7, 'MOE: round is not in dispute'); // deploy\n            require(duration < 60 * 60, 'MOE: round is not in dispute'); // dev\n        }\n\n        _burn(_msgSender(), amount);\n        attackVotes[roundId].push(Lib.Vote(id, _msgSender(), amount, block.timestamp));\n\n        rounds[roundId].totalAttackAmount += amount;\n        rounds[roundId].totalVotes++;\n    }\n\n    function getMinimumDefenseAmount(uint256 id) public view returns (uint256 amount) {\n\n        require (id < totalOnnanocos, 'MOE: no data available');\n        require (onnanocos[id].status == Lib.Status.IN_DISPUTE, 'MOE: round is not in dispute');\n\n        uint256 roundId = onnanocos[id].roundId;\n        Lib.Round memory roundInfo = rounds[roundId];\n        require(roundInfo.timestamp > 0, 'MOE: no data available');\n\n        if (((roundInfo.totalDefenseAmount + roundInfo.totalAttackAmount) * 2) > (roundInfo.totalDefenseAmount * 3)) {\n            return ((roundInfo.totalDefenseAmount + roundInfo.totalAttackAmount) * 2) - (roundInfo.totalDefenseAmount * 3);\n        } else {\n            return 0;\n        }\n    }\n\n    function defense(uint256 id, uint256 amount) public {\n\n        require(amount > 0, 'MOE: amount cannot be zero');\n\n        uint256 roundId = onnanocos[id].roundId;\n        Lib.Round memory roundInfo = rounds[roundId];\n\n        uint256 minimumAmount = getMinimumDefenseAmount(id);\n        require(amount >= minimumAmount, 'MOE: less than minimum amount');\n\n        uint256 duration = block.timestamp - roundInfo.timestamp;\n        //require(duration < 60 * 60 * 24 * 7, 'MOE: round is not in dispute'); // deploy\n        require(duration < 60 * 60 * 1, 'MOE: round is not in dispute'); // dev\n\n        _burn(_msgSender(), amount);\n        defenseVotes[roundId].push(Lib.Vote(id, _msgSender(), amount, block.timestamp));\n\n        rounds[roundId].totalDefenseAmount += amount;\n        rounds[roundId].totalVotes++;\n    }\n\n    function clearRound(uint256 roundId) public {\n\n        Lib.Round memory roundInfo = rounds[roundId];\n        require(roundInfo.totalVotes > 0, 'MOE: no data available');\n\n        Lib.Onnanoco storage onnanoco = onnanocos[roundInfo.onnanocoId];\n        require(onnanoco.roundId == roundId, 'MOE: no data available');\n        require(onnanoco.status == Lib.Status.IN_DISPUTE, 'MOE: round is not in dispute');\n\n        uint256 duration = block.timestamp - roundInfo.timestamp;\n\n        //require(duration > 60 * 60 * 24 * 7, 'MOE: dispute window is not over'); // deploy\n        require(duration > 60 * 60 * 1, 'MOE: dispute window is not over'); // dev\n\n        if (roundInfo.totalAttackAmount > roundInfo.totalDefenseAmount) { // Attackers win\n            _mint(_msgSender(), roundInfo.totalAttackAmount / 100 * 1);\n            onnanoco.status = Lib.Status.DEPRECATED;\n\n        } else if(roundInfo.totalAttackAmount < roundInfo.totalDefenseAmount) { // Attackers lose\n            _mint(_msgSender(), roundInfo.totalDefenseAmount / 100 * 1);\n            onnanoco.status = Lib.Status.NORMAL;\n\n            // 1st defender\n            Lib.Vote memory vote = defenseVotes[roundId][0];\n\n            // new round\n            rounds[totalRounds] = Lib.Round(roundInfo.onnanocoId, vote.amount, 0, 0, 1);\n            onnanoco.roundId = totalRounds;\n\n            Lib.Vote memory newVote = Lib.Vote(roundInfo.onnanocoId, vote.voter, vote.amount, block.timestamp);\n            defenseVotes[totalRounds].push(newVote);\n\n            // increase roundId\n            totalRounds++;\n        }\n        \n    }\n\n    function resolveAttack(uint256 roundId, uint256 voteId) public {\n\n        require(roundId < totalRounds, 'MOE: no data available');\n\n        Lib.Vote memory voteInfo = attackVotes[roundId][voteId];\n        require(voteInfo.amount > 0, 'MOE: no data available');\n        require(_msgSender() == voteInfo.voter, 'MOE: access denied');\n\n        Lib.Round memory roundInfo = rounds[roundId];\n        require(roundInfo.timestamp > 0, 'MOE: no data available');\n        \n        uint256 duration = block.timestamp - roundInfo.timestamp;\n\n        //require(duration > 60 * 60 * 24 * 7, 'MOE: dispute window is not over'); // deploy\n        require(duration > 60 * 60 * 1, 'MOE: dispute window is not over'); // dev\n\n        uint256 totalAmount = roundInfo.totalAttackAmount + roundInfo.totalDefenseAmount;\n\n        if (roundInfo.totalAttackAmount > roundInfo.totalDefenseAmount) {\n            _mint(_msgSender(), totalAmount * voteInfo.amount / roundInfo.totalAttackAmount);\n        }\n\n        attackVotes[roundId][voteId].voter = address(0);\n    }\n\n    function reolveDefense(uint256 roundId, uint256 voteId) public {\n\n        require(roundId < totalRounds, 'MOE: no data available');\n        \n        Lib.Vote memory voteInfo = defenseVotes[roundId][voteId];\n        require(voteInfo.amount > 0, 'MOE: no data available');\n        require(_msgSender() == voteInfo.voter, 'MOE: access denied');\n\n        Lib.Round memory roundInfo = rounds[roundId];\n        require(roundInfo.timestamp > 0, 'MOE: no data available');\n        \n        uint256 duration = block.timestamp - roundInfo.timestamp;\n\n        //require(duration > 60 * 60 * 24 * 7, 'MOE: dispute window is not over'); // deploy\n        require(duration > 60 * 60 * 1, 'MOE: dispute window is not over'); // dev\n\n        uint256 totalAmount = roundInfo.totalAttackAmount + roundInfo.totalDefenseAmount;\n\n        if (roundInfo.totalAttackAmount < roundInfo.totalDefenseAmount) {\n\n            if (voteId > 0) {\n                _mint(_msgSender(), totalAmount * voteInfo.amount / roundInfo.totalDefenseAmount);\n            } else { // 1st defender\n                _mint(_msgSender(), (totalAmount * voteInfo.amount / roundInfo.totalDefenseAmount) - voteInfo.amount);\n            }\n        }\n\n        defenseVotes[roundId][voteId].voter = address(0);\n    }\n    \n    function stake(uint256 id, uint256 amount) public {\n    \n        require(amount > 0, 'MOE: amount cannot be zero');\n        require(id < totalOnnanocos, 'MOE: no data available');\n        require(onnanocos[id].status == Lib.Status.NORMAL, 'MOE: round is not in normal status');\n\n        _burn(_msgSender(), amount);\n\n        stakes[_msgSender()].push(Lib.Stake(id, amount, block.timestamp));\n        onnanocos[id].totalStakingAmount += amount;\n    }\n    \n    function unstake(uint256 stakeId) public {\n\n        Lib.Stake memory stakeInfo = stakes[_msgSender()][stakeId];\n        \n        require(stakeInfo.timestamp > 0, 'MOE: no data available');\n        require(onnanocos[stakeInfo.id].status != Lib.Status.IN_DISPUTE, 'MOE: round is in dispute status');\n        \n        (uint256 reward, uint256 duration) = getStakeRewardAmount(_msgSender(), stakeId);\n\n        //require(duration > 60 * 60 * 24 * 100, 'MOE: request can be made after at least 100 days'); // Deploy\n        require(duration > 60 * 60 * 1, 'MOE: request can be made after at least 1 hour'); // Test\n\n        _mint(_msgSender(), stakeInfo.amount + reward);\n        onnanocos[stakeInfo.id].totalStakingAmount -= stakeInfo.amount;\n        delete stakes[_msgSender()][stakeId];\n    }\n\n    function getStakeRewardAmount(address staker, uint256 stakeId) public view returns(uint256 amount, uint256 duration) {\n\n        Lib.Stake memory stakeInfo = stakes[staker][stakeId];\n\n        require(stakeInfo.timestamp > 0, 'MOE: no data available');\n\n        duration = block.timestamp - stakeInfo.timestamp;\n        amount = stakeInfo.amount * duration / (60 * 60 * 24 * 100);\n\n        if (onnanocos[stakeInfo.id].status != Lib.Status.NORMAL) {\n            return (0, 0);\n        }\n\n        return (amount, duration);\n    }\n\n    function receiveStakeReward(uint256 stakeId) public {\n\n        Lib.Stake memory stakeInfo = stakes[_msgSender()][stakeId];\n        require(onnanocos[stakeInfo.id].status != Lib.Status.NORMAL, 'MOE: round is not in normal status');\n\n        (uint256 reward, uint256 duration) = getStakeRewardAmount(_msgSender(), stakeId);\n\n        require(reward > 0, 'MOE: reward must greater than 0');\n        //require(duration > 60 * 60 * 24 * 100, 'MOE: request can be made after at least 100 days'); // Deploy\n        require(duration > 60 * 60 * 1, 'MOE: request can be made after at least 1 hour'); // Test\n\n        stakes[_msgSender()][stakeId].timestamp = block.timestamp;\n        _mint(_msgSender(), reward);\n    }\n\n    function getOwnerRewardAmount(uint256 id) public view returns(uint256 amount, uint256 duration){\n\n        require(id < totalOnnanocos, 'MOE: no data available');\n\n        Lib.Onnanoco memory onnanocoInfo = onnanocos[id];\n        \n        require(onnanocoInfo.status == Lib.Status.NORMAL, 'MOE: round is not in normal status');\n\n        Lib.Vote memory voteInfo = defenseVotes[onnanocoInfo.roundId][0];\n\n        require(voteInfo.timestamp > 0, 'MOE: no data available');\n\n        duration = block.timestamp - voteInfo.timestamp;\n        amount = voteInfo.amount * duration / (60 * 60 * 24 * 50);\n\n        return (amount, duration);\n    }\n\n    function receiveOwnerReward(uint256 id) public {\n        \n        (uint256 reward, uint256 duration) = getOwnerRewardAmount(id);\n\n        require(onnanocos[id].owner == _msgSender(), 'MOE: access denied');\n\n        //require(duration > 60 * 60 * 24 * 50, 'MOE: request can be made after at least 50 days'); // Deploy\n        require(duration > 60 * 60 * 1, 'MOE: request can be made after at least 1 hour'); // Test\n\n        require(reward > 0, 'MOE: reward must greater than 0');\n\n        _mint(_msgSender(), reward);\n        defenseVotes[onnanocos[id].roundId][0].timestamp = block.timestamp;\n    }\n\n    function deposit(address user, bytes calldata depositData) external override {\n\n        require(hasRole(DEPOSITOR_ROLE, _msgSender()), \"You're not allowed to deposit\");\n        \n        uint256 amount = abi.decode(depositData, (uint256));\n        _mint(user, amount);\n    }\n\n    function withdraw(uint256 amount) external {\n\n        _burn(_msgSender(), amount);\n    }\n\n    // Initializer\n    function initialize(string memory name, string memory symbol, address childchangeProxy) public virtual initializer {\n        \n        __ERC20_init(name, symbol);\n        _setupRole(DEPOSITOR_ROLE, childchangeProxy);\n\n        _mint(_msgSender(), 10 ** 18 * 100); // dev faucet\n    }\n}",
  "sourcePath": "/Users/misskiwi/github/smartcontract-child/contracts/MOEToken.sol",
  "compiler": {
    "name": "solc",
    "version": "0.8.2+commit.661d1103.Emscripten.clang"
  },
  "schemaVersion": "3.4.4",
  "updatedAt": "2022-02-02T02:15:51.530Z",
  "devdoc": {
    "kind": "dev",
    "methods": {
      "allowance(address,address)": {
        "details": "See {IERC20-allowance}."
      },
      "approve(address,uint256)": {
        "details": "See {IERC20-approve}. Requirements: - `spender` cannot be the zero address."
      },
      "balanceOf(address)": {
        "details": "See {IERC20-balanceOf}."
      },
      "decimals()": {
        "details": "Returns the number of decimals used to get its user representation. For example, if `decimals` equals `2`, a balance of `505` tokens should be displayed to a user as `5.05` (`505 / 10 ** 2`). Tokens usually opt for a value of 18, imitating the relationship between Ether and Wei. This is the value {ERC20} uses, unless this function is overridden; NOTE: This information is only used for _display_ purposes: it in no way affects any of the arithmetic of the contract, including {IERC20-balanceOf} and {IERC20-transfer}."
      },
      "decreaseAllowance(address,uint256)": {
        "details": "Atomically decreases the allowance granted to `spender` by the caller. This is an alternative to {approve} that can be used as a mitigation for problems described in {IERC20-approve}. Emits an {Approval} event indicating the updated allowance. Requirements: - `spender` cannot be the zero address. - `spender` must have allowance for the caller of at least `subtractedValue`."
      },
      "getRoleAdmin(bytes32)": {
        "details": "Returns the admin role that controls `role`. See {grantRole} and {revokeRole}. To change a role's admin, use {_setRoleAdmin}."
      },
      "getRoleMember(bytes32,uint256)": {
        "details": "Returns one of the accounts that have `role`. `index` must be a value between 0 and {getRoleMemberCount}, non-inclusive. Role bearers are not sorted in any particular way, and their ordering may change at any point. WARNING: When using {getRoleMember} and {getRoleMemberCount}, make sure you perform all queries on the same block. See the following https://forum.openzeppelin.com/t/iterating-over-elements-on-enumerableset-in-openzeppelin-contracts/2296[forum post] for more information."
      },
      "getRoleMemberCount(bytes32)": {
        "details": "Returns the number of accounts that have `role`. Can be used together with {getRoleMember} to enumerate all bearers of a role."
      },
      "grantRole(bytes32,address)": {
        "details": "Grants `role` to `account`. If `account` had not been already granted `role`, emits a {RoleGranted} event. Requirements: - the caller must have ``role``'s admin role."
      },
      "hasRole(bytes32,address)": {
        "details": "Returns `true` if `account` has been granted `role`."
      },
      "increaseAllowance(address,uint256)": {
        "details": "Atomically increases the allowance granted to `spender` by the caller. This is an alternative to {approve} that can be used as a mitigation for problems described in {IERC20-approve}. Emits an {Approval} event indicating the updated allowance. Requirements: - `spender` cannot be the zero address."
      },
      "name()": {
        "details": "Returns the name of the token."
      },
      "renounceRole(bytes32,address)": {
        "details": "Revokes `role` from the calling account. Roles are often managed via {grantRole} and {revokeRole}: this function's purpose is to provide a mechanism for accounts to lose their privileges if they are compromised (such as when a trusted device is misplaced). If the calling account had been revoked `role`, emits a {RoleRevoked} event. Requirements: - the caller must be `account`."
      },
      "revokeRole(bytes32,address)": {
        "details": "Revokes `role` from `account`. If `account` had been granted `role`, emits a {RoleRevoked} event. Requirements: - the caller must have ``role``'s admin role."
      },
      "supportsInterface(bytes4)": {
        "details": "See {IERC165-supportsInterface}."
      },
      "symbol()": {
        "details": "Returns the symbol of the token, usually a shorter version of the name."
      },
      "totalSupply()": {
        "details": "See {IERC20-totalSupply}."
      },
      "transfer(address,uint256)": {
        "details": "See {IERC20-transfer}. Requirements: - `recipient` cannot be the zero address. - the caller must have a balance of at least `amount`."
      },
      "transferFrom(address,address,uint256)": {
        "details": "See {IERC20-transferFrom}. Emits an {Approval} event indicating the updated allowance. This is not required by the EIP. See the note at the beginning of {ERC20}. Requirements: - `sender` and `recipient` cannot be the zero address. - `sender` must have a balance of at least `amount`. - the caller must have allowance for ``sender``'s tokens of at least `amount`."
      }
    },
    "version": 1
  },
  "userdoc": {
    "kind": "user",
    "methods": {},
    "version": 1
  }
}