{
  "contractName": "MOEToken",
  "abi": [
    {
      "anonymous": false,
      "inputs": [
        {
          "indexed": true,
          "internalType": "address",
          "name": "owner",
          "type": "address"
        },
        {
          "indexed": true,
          "internalType": "address",
          "name": "spender",
          "type": "address"
        },
        {
          "indexed": false,
          "internalType": "uint256",
          "name": "value",
          "type": "uint256"
        }
      ],
      "name": "Approval",
      "type": "event"
    },
    {
      "anonymous": false,
      "inputs": [
        {
          "indexed": true,
          "internalType": "bytes32",
          "name": "role",
          "type": "bytes32"
        },
        {
          "indexed": true,
          "internalType": "bytes32",
          "name": "previousAdminRole",
          "type": "bytes32"
        },
        {
          "indexed": true,
          "internalType": "bytes32",
          "name": "newAdminRole",
          "type": "bytes32"
        }
      ],
      "name": "RoleAdminChanged",
      "type": "event"
    },
    {
      "anonymous": false,
      "inputs": [
        {
          "indexed": true,
          "internalType": "bytes32",
          "name": "role",
          "type": "bytes32"
        },
        {
          "indexed": true,
          "internalType": "address",
          "name": "account",
          "type": "address"
        },
        {
          "indexed": true,
          "internalType": "address",
          "name": "sender",
          "type": "address"
        }
      ],
      "name": "RoleGranted",
      "type": "event"
    },
    {
      "anonymous": false,
      "inputs": [
        {
          "indexed": true,
          "internalType": "bytes32",
          "name": "role",
          "type": "bytes32"
        },
        {
          "indexed": true,
          "internalType": "address",
          "name": "account",
          "type": "address"
        },
        {
          "indexed": true,
          "internalType": "address",
          "name": "sender",
          "type": "address"
        }
      ],
      "name": "RoleRevoked",
      "type": "event"
    },
    {
      "anonymous": false,
      "inputs": [
        {
          "indexed": true,
          "internalType": "address",
          "name": "from",
          "type": "address"
        },
        {
          "indexed": true,
          "internalType": "address",
          "name": "to",
          "type": "address"
        },
        {
          "indexed": false,
          "internalType": "uint256",
          "name": "value",
          "type": "uint256"
        }
      ],
      "name": "Transfer",
      "type": "event"
    },
    {
      "inputs": [],
      "name": "DEFAULT_ADMIN_ROLE",
      "outputs": [
        {
          "internalType": "bytes32",
          "name": "",
          "type": "bytes32"
        }
      ],
      "stateMutability": "view",
      "type": "function",
      "constant": true
    },
    {
      "inputs": [],
      "name": "DEPOSITOR_ROLE",
      "outputs": [
        {
          "internalType": "bytes32",
          "name": "",
          "type": "bytes32"
        }
      ],
      "stateMutability": "view",
      "type": "function",
      "constant": true
    },
    {
      "inputs": [
        {
          "internalType": "address",
          "name": "owner",
          "type": "address"
        },
        {
          "internalType": "address",
          "name": "spender",
          "type": "address"
        }
      ],
      "name": "allowance",
      "outputs": [
        {
          "internalType": "uint256",
          "name": "",
          "type": "uint256"
        }
      ],
      "stateMutability": "view",
      "type": "function",
      "constant": true
    },
    {
      "inputs": [
        {
          "internalType": "address",
          "name": "spender",
          "type": "address"
        },
        {
          "internalType": "uint256",
          "name": "amount",
          "type": "uint256"
        }
      ],
      "name": "approve",
      "outputs": [
        {
          "internalType": "bool",
          "name": "",
          "type": "bool"
        }
      ],
      "stateMutability": "nonpayable",
      "type": "function"
    },
    {
      "inputs": [
        {
          "internalType": "uint256",
          "name": "",
          "type": "uint256"
        },
        {
          "internalType": "uint256",
          "name": "",
          "type": "uint256"
        }
      ],
      "name": "attackVotes",
      "outputs": [
        {
          "internalType": "uint256",
          "name": "id",
          "type": "uint256"
        },
        {
          "internalType": "address",
          "name": "voter",
          "type": "address"
        },
        {
          "internalType": "uint256",
          "name": "amount",
          "type": "uint256"
        },
        {
          "internalType": "uint256",
          "name": "timestamp",
          "type": "uint256"
        }
      ],
      "stateMutability": "view",
      "type": "function",
      "constant": true
    },
    {
      "inputs": [
        {
          "internalType": "address",
          "name": "account",
          "type": "address"
        }
      ],
      "name": "balanceOf",
      "outputs": [
        {
          "internalType": "uint256",
          "name": "",
          "type": "uint256"
        }
      ],
      "stateMutability": "view",
      "type": "function",
      "constant": true
    },
    {
      "inputs": [],
      "name": "decimals",
      "outputs": [
        {
          "internalType": "uint8",
          "name": "",
          "type": "uint8"
        }
      ],
      "stateMutability": "view",
      "type": "function",
      "constant": true
    },
    {
      "inputs": [
        {
          "internalType": "address",
          "name": "spender",
          "type": "address"
        },
        {
          "internalType": "uint256",
          "name": "subtractedValue",
          "type": "uint256"
        }
      ],
      "name": "decreaseAllowance",
      "outputs": [
        {
          "internalType": "bool",
          "name": "",
          "type": "bool"
        }
      ],
      "stateMutability": "nonpayable",
      "type": "function"
    },
    {
      "inputs": [
        {
          "internalType": "uint256",
          "name": "",
          "type": "uint256"
        },
        {
          "internalType": "uint256",
          "name": "",
          "type": "uint256"
        }
      ],
      "name": "defenseVotes",
      "outputs": [
        {
          "internalType": "uint256",
          "name": "id",
          "type": "uint256"
        },
        {
          "internalType": "address",
          "name": "voter",
          "type": "address"
        },
        {
          "internalType": "uint256",
          "name": "amount",
          "type": "uint256"
        },
        {
          "internalType": "uint256",
          "name": "timestamp",
          "type": "uint256"
        }
      ],
      "stateMutability": "view",
      "type": "function",
      "constant": true
    },
    {
      "inputs": [
        {
          "internalType": "bytes32",
          "name": "role",
          "type": "bytes32"
        }
      ],
      "name": "getRoleAdmin",
      "outputs": [
        {
          "internalType": "bytes32",
          "name": "",
          "type": "bytes32"
        }
      ],
      "stateMutability": "view",
      "type": "function",
      "constant": true
    },
    {
      "inputs": [
        {
          "internalType": "bytes32",
          "name": "role",
          "type": "bytes32"
        },
        {
          "internalType": "uint256",
          "name": "index",
          "type": "uint256"
        }
      ],
      "name": "getRoleMember",
      "outputs": [
        {
          "internalType": "address",
          "name": "",
          "type": "address"
        }
      ],
      "stateMutability": "view",
      "type": "function",
      "constant": true
    },
    {
      "inputs": [
        {
          "internalType": "bytes32",
          "name": "role",
          "type": "bytes32"
        }
      ],
      "name": "getRoleMemberCount",
      "outputs": [
        {
          "internalType": "uint256",
          "name": "",
          "type": "uint256"
        }
      ],
      "stateMutability": "view",
      "type": "function",
      "constant": true
    },
    {
      "inputs": [
        {
          "internalType": "bytes32",
          "name": "role",
          "type": "bytes32"
        },
        {
          "internalType": "address",
          "name": "account",
          "type": "address"
        }
      ],
      "name": "grantRole",
      "outputs": [],
      "stateMutability": "nonpayable",
      "type": "function"
    },
    {
      "inputs": [
        {
          "internalType": "bytes32",
          "name": "role",
          "type": "bytes32"
        },
        {
          "internalType": "address",
          "name": "account",
          "type": "address"
        }
      ],
      "name": "hasRole",
      "outputs": [
        {
          "internalType": "bool",
          "name": "",
          "type": "bool"
        }
      ],
      "stateMutability": "view",
      "type": "function",
      "constant": true
    },
    {
      "inputs": [
        {
          "internalType": "address",
          "name": "spender",
          "type": "address"
        },
        {
          "internalType": "uint256",
          "name": "addedValue",
          "type": "uint256"
        }
      ],
      "name": "increaseAllowance",
      "outputs": [
        {
          "internalType": "bool",
          "name": "",
          "type": "bool"
        }
      ],
      "stateMutability": "nonpayable",
      "type": "function"
    },
    {
      "inputs": [],
      "name": "name",
      "outputs": [
        {
          "internalType": "string",
          "name": "",
          "type": "string"
        }
      ],
      "stateMutability": "view",
      "type": "function",
      "constant": true
    },
    {
      "inputs": [
        {
          "internalType": "uint256",
          "name": "",
          "type": "uint256"
        }
      ],
      "name": "onnanocos",
      "outputs": [
        {
          "internalType": "string",
          "name": "name",
          "type": "string"
        },
        {
          "internalType": "address",
          "name": "owner",
          "type": "address"
        },
        {
          "components": [
            {
              "internalType": "bytes32",
              "name": "hash",
              "type": "bytes32"
            },
            {
              "internalType": "bytes2",
              "name": "hashFunction",
              "type": "bytes2"
            },
            {
              "internalType": "uint8",
              "name": "size",
              "type": "uint8"
            }
          ],
          "internalType": "struct Lib.Multihash",
          "name": "multihash",
          "type": "tuple"
        },
        {
          "internalType": "enum Lib.Status",
          "name": "status",
          "type": "uint8"
        },
        {
          "internalType": "uint256",
          "name": "timestamp",
          "type": "uint256"
        },
        {
          "internalType": "uint256",
          "name": "totalStakingAmount",
          "type": "uint256"
        },
        {
          "internalType": "uint256",
          "name": "roundId",
          "type": "uint256"
        }
      ],
      "stateMutability": "view",
      "type": "function",
      "constant": true
    },
    {
      "inputs": [
        {
          "internalType": "bytes32",
          "name": "role",
          "type": "bytes32"
        },
        {
          "internalType": "address",
          "name": "account",
          "type": "address"
        }
      ],
      "name": "renounceRole",
      "outputs": [],
      "stateMutability": "nonpayable",
      "type": "function"
    },
    {
      "inputs": [
        {
          "internalType": "bytes32",
          "name": "role",
          "type": "bytes32"
        },
        {
          "internalType": "address",
          "name": "account",
          "type": "address"
        }
      ],
      "name": "revokeRole",
      "outputs": [],
      "stateMutability": "nonpayable",
      "type": "function"
    },
    {
      "inputs": [
        {
          "internalType": "uint256",
          "name": "",
          "type": "uint256"
        }
      ],
      "name": "rounds",
      "outputs": [
        {
          "internalType": "uint256",
          "name": "onnanocoId",
          "type": "uint256"
        },
        {
          "internalType": "uint256",
          "name": "totalDefenseAmount",
          "type": "uint256"
        },
        {
          "internalType": "uint256",
          "name": "totalAttackAmount",
          "type": "uint256"
        },
        {
          "internalType": "uint256",
          "name": "timestamp",
          "type": "uint256"
        },
        {
          "internalType": "uint256",
          "name": "totalVotes",
          "type": "uint256"
        }
      ],
      "stateMutability": "view",
      "type": "function",
      "constant": true
    },
    {
      "inputs": [
        {
          "internalType": "address",
          "name": "",
          "type": "address"
        },
        {
          "internalType": "uint256",
          "name": "",
          "type": "uint256"
        }
      ],
      "name": "stakes",
      "outputs": [
        {
          "internalType": "uint256",
          "name": "id",
          "type": "uint256"
        },
        {
          "internalType": "uint256",
          "name": "amount",
          "type": "uint256"
        },
        {
          "internalType": "uint256",
          "name": "timestamp",
          "type": "uint256"
        }
      ],
      "stateMutability": "view",
      "type": "function",
      "constant": true
    },
    {
      "inputs": [
        {
          "internalType": "bytes4",
          "name": "interfaceId",
          "type": "bytes4"
        }
      ],
      "name": "supportsInterface",
      "outputs": [
        {
          "internalType": "bool",
          "name": "",
          "type": "bool"
        }
      ],
      "stateMutability": "view",
      "type": "function",
      "constant": true
    },
    {
      "inputs": [],
      "name": "symbol",
      "outputs": [
        {
          "internalType": "string",
          "name": "",
          "type": "string"
        }
      ],
      "stateMutability": "view",
      "type": "function",
      "constant": true
    },
    {
      "inputs": [],
      "name": "totalOnnanocos",
      "outputs": [
        {
          "internalType": "uint256",
          "name": "",
          "type": "uint256"
        }
      ],
      "stateMutability": "view",
      "type": "function",
      "constant": true
    },
    {
      "inputs": [],
      "name": "totalRounds",
      "outputs": [
        {
          "internalType": "uint256",
          "name": "",
          "type": "uint256"
        }
      ],
      "stateMutability": "view",
      "type": "function",
      "constant": true
    },
    {
      "inputs": [],
      "name": "totalSupply",
      "outputs": [
        {
          "internalType": "uint256",
          "name": "",
          "type": "uint256"
        }
      ],
      "stateMutability": "view",
      "type": "function",
      "constant": true
    },
    {
      "inputs": [
        {
          "internalType": "address",
          "name": "recipient",
          "type": "address"
        },
        {
          "internalType": "uint256",
          "name": "amount",
          "type": "uint256"
        }
      ],
      "name": "transfer",
      "outputs": [
        {
          "internalType": "bool",
          "name": "",
          "type": "bool"
        }
      ],
      "stateMutability": "nonpayable",
      "type": "function"
    },
    {
      "inputs": [
        {
          "internalType": "address",
          "name": "sender",
          "type": "address"
        },
        {
          "internalType": "address",
          "name": "recipient",
          "type": "address"
        },
        {
          "internalType": "uint256",
          "name": "amount",
          "type": "uint256"
        }
      ],
      "name": "transferFrom",
      "outputs": [
        {
          "internalType": "bool",
          "name": "",
          "type": "bool"
        }
      ],
      "stateMutability": "nonpayable",
      "type": "function"
    },
    {
      "inputs": [
        {
          "internalType": "string",
          "name": "name",
          "type": "string"
        },
        {
          "internalType": "bytes32",
          "name": "hash",
          "type": "bytes32"
        },
        {
          "internalType": "bytes2",
          "name": "hashFunction",
          "type": "bytes2"
        },
        {
          "internalType": "uint8",
          "name": "hashSize",
          "type": "uint8"
        },
        {
          "internalType": "uint256",
          "name": "amount",
          "type": "uint256"
        }
      ],
      "name": "addOnnanoco",
      "outputs": [],
      "stateMutability": "nonpayable",
      "type": "function"
    },
    {
      "inputs": [
        {
          "internalType": "uint256",
          "name": "id",
          "type": "uint256"
        }
      ],
      "name": "getMinimumAttackAmount",
      "outputs": [
        {
          "internalType": "uint256",
          "name": "amount",
          "type": "uint256"
        }
      ],
      "stateMutability": "view",
      "type": "function",
      "constant": true
    },
    {
      "inputs": [
        {
          "internalType": "uint256",
          "name": "id",
          "type": "uint256"
        },
        {
          "internalType": "uint256",
          "name": "amount",
          "type": "uint256"
        }
      ],
      "name": "voteForAttack",
      "outputs": [],
      "stateMutability": "nonpayable",
      "type": "function"
    },
    {
      "inputs": [
        {
          "internalType": "uint256",
          "name": "id",
          "type": "uint256"
        }
      ],
      "name": "getMinimumDefenseAmount",
      "outputs": [
        {
          "internalType": "uint256",
          "name": "amount",
          "type": "uint256"
        }
      ],
      "stateMutability": "view",
      "type": "function",
      "constant": true
    },
    {
      "inputs": [
        {
          "internalType": "uint256",
          "name": "id",
          "type": "uint256"
        },
        {
          "internalType": "uint256",
          "name": "amount",
          "type": "uint256"
        }
      ],
      "name": "voteForDefense",
      "outputs": [],
      "stateMutability": "nonpayable",
      "type": "function"
    },
    {
      "inputs": [
        {
          "internalType": "uint256",
          "name": "roundId",
          "type": "uint256"
        }
      ],
      "name": "clearRound",
      "outputs": [],
      "stateMutability": "nonpayable",
      "type": "function"
    },
    {
      "inputs": [
        {
          "internalType": "uint256",
          "name": "roundId",
          "type": "uint256"
        },
        {
          "internalType": "uint256",
          "name": "voteId",
          "type": "uint256"
        }
      ],
      "name": "resolveAttack",
      "outputs": [],
      "stateMutability": "nonpayable",
      "type": "function"
    },
    {
      "inputs": [
        {
          "internalType": "uint256",
          "name": "roundId",
          "type": "uint256"
        },
        {
          "internalType": "uint256",
          "name": "voteId",
          "type": "uint256"
        }
      ],
      "name": "resolveDefense",
      "outputs": [],
      "stateMutability": "nonpayable",
      "type": "function"
    },
    {
      "inputs": [
        {
          "internalType": "uint256",
          "name": "id",
          "type": "uint256"
        },
        {
          "internalType": "uint256",
          "name": "amount",
          "type": "uint256"
        }
      ],
      "name": "stake",
      "outputs": [],
      "stateMutability": "nonpayable",
      "type": "function"
    },
    {
      "inputs": [
        {
          "internalType": "uint256",
          "name": "stakeId",
          "type": "uint256"
        }
      ],
      "name": "unstake",
      "outputs": [],
      "stateMutability": "nonpayable",
      "type": "function"
    },
    {
      "inputs": [
        {
          "internalType": "address",
          "name": "staker",
          "type": "address"
        },
        {
          "internalType": "uint256",
          "name": "stakeId",
          "type": "uint256"
        }
      ],
      "name": "getStakeRewardAmount",
      "outputs": [
        {
          "internalType": "uint256",
          "name": "",
          "type": "uint256"
        }
      ],
      "stateMutability": "view",
      "type": "function",
      "constant": true
    },
    {
      "inputs": [
        {
          "internalType": "uint256",
          "name": "stakeId",
          "type": "uint256"
        }
      ],
      "name": "receiveStakeReward",
      "outputs": [],
      "stateMutability": "nonpayable",
      "type": "function"
    },
    {
      "inputs": [
        {
          "internalType": "uint256",
          "name": "id",
          "type": "uint256"
        }
      ],
      "name": "getOwnerRewardAmount",
      "outputs": [
        {
          "internalType": "uint256",
          "name": "",
          "type": "uint256"
        }
      ],
      "stateMutability": "view",
      "type": "function",
      "constant": true
    },
    {
      "inputs": [
        {
          "internalType": "uint256",
          "name": "id",
          "type": "uint256"
        }
      ],
      "name": "receiveOwnerReward",
      "outputs": [],
      "stateMutability": "nonpayable",
      "type": "function"
    },
    {
      "inputs": [
        {
          "internalType": "address",
          "name": "user",
          "type": "address"
        },
        {
          "internalType": "bytes",
          "name": "depositData",
          "type": "bytes"
        }
      ],
      "name": "deposit",
      "outputs": [],
      "stateMutability": "nonpayable",
      "type": "function"
    },
    {
      "inputs": [
        {
          "internalType": "uint256",
          "name": "amount",
          "type": "uint256"
        }
      ],
      "name": "withdraw",
      "outputs": [],
      "stateMutability": "nonpayable",
      "type": "function"
    },
    {
      "inputs": [
        {
          "internalType": "string",
          "name": "name",
          "type": "string"
        },
        {
          "internalType": "string",
          "name": "symbol",
          "type": "string"
        },
        {
          "internalType": "address",
          "name": "childchangeProxy",
          "type": "address"
        }
      ],
      "name": "initialize",
      "outputs": [],
      "stateMutability": "nonpayable",
      "type": "function"
    }
  ],
  "bytecode": "0x608060405234801561001057600080fd5b50613d23806100206000396000f3fe608060405234801561001057600080fd5b506004361061027f5760003560e01c80637797d79f1161015c578063a217fddf116100ce578063cf2c52cb11610087578063cf2c52cb14610651578063d1cd59ea14610664578063d50c2c5014610677578063d547741f1461068a578063dd62ed3e1461069d578063fd75061f146106d65761027f565b8063a217fddf146105d6578063a3b0b5a3146105de578063a457c2d714610605578063a9059cbb14610618578063b4d039281461062b578063ca15c8731461063e5761027f565b80638a568299116101205780638a568299146104e75780638c65c81f146104f05780639010d07c1461055557806391d1485414610580578063946e94c41461059357806395d89b41146105ce5761027f565b80637797d79f146104885780637b0472f01461049b57806381a15af4146104ae578063867e1f55146104c1578063868b029d146104d45761027f565b80632e1a7d4d116101f557806339509351116101b957806339509351146103e5578063584b62a1146103f857806364d07acb146104265780636ad6c035146104395780636d13a9e61461044c57806370a082311461045f5761027f565b80632e1a7d4d1461038a5780632f2ff15d1461039d578063313ce567146103b057806335097ce3146103bf57806336568abe146103d25761027f565b80630fa214c9116102475780630fa214c91461030057806318160ddd146103135780632042f1c71461031b57806323b872dd14610341578063248a9ca3146103545780632e17de78146103775761027f565b806301ffc9a71461028457806306fdde03146102ac578063077f224a146102c1578063095ea7b3146102d65780630c6cc4a3146102e9575b600080fd5b6102976102923660046138b2565b6106e9565b60405190151581526020015b60405180910390f35b6102b4610716565b6040516102a39190613a6f565b6102d46102cf36600461395d565b6107a8565b005b6102976102e436600461382e565b6108b9565b6102f260fe5481565b6040519081526020016102a3565b6102d461030e366004613891565b6108d0565b60cb546102f2565b61032e610329366004613857565b610bea565b6040516102a39796959493929190613a82565b61029761034f366004613775565b610cf0565b6102f2610362366004613857565b60009081526065602052604090206001015490565b6102d4610385366004613857565b610d9a565b6102d4610398366004613857565b610fe1565b6102d46103ab36600461386f565b610fef565b604051601281526020016102a3565b6102d46103cd366004613891565b61101b565b6102d46103e036600461386f565b611398565b6102976103f336600461382e565b611416565b61040b61040636600461382e565b611452565b604080519384526020840192909252908201526060016102a3565b6102f261043436600461382e565b611495565b6102f2610447366004613857565b611592565b6102f261045a366004613857565b6116be565b6102f261046d366004613729565b6001600160a01b0316600090815260c9602052604090205490565b6102d4610496366004613891565b611949565b6102d46104a9366004613891565b611be3565b6102d46104bc366004613857565b611d7d565b6102d46104cf366004613857565b6120c2565b6102d46104e23660046138da565b612172565b6102f260fd5481565b61052d6104fe366004613857565b60fc60205260009081526040902080546001820154600283015460038401546004909401549293919290919085565b604080519586526020860194909452928401919091526060830152608082015260a0016102a3565b610568610563366004613891565b6123eb565b6040516001600160a01b0390911681526020016102a3565b61029761058e36600461386f565b61240a565b6105a66105a1366004613891565b612435565b604080519485526001600160a01b0390931660208501529183015260608201526080016102a3565b6102b4612485565b6102f2600081565b6102f27f8f4f2da22e8ac8f11e15f9fc141cddbb5deea8800186560abb6e68c5496619a981565b61029761061336600461382e565b612494565b61029761062636600461382e565b61252d565b6102f2610639366004613857565b61253a565b6102f261064c366004613857565b612629565b6102d461065f3660046137b0565b612640565b6102d4610672366004613857565b6126d0565b6105a6610685366004613891565b612827565b6102d461069836600461386f565b612843565b6102f26106ab366004613743565b6001600160a01b03918216600090815260ca6020908152604080832093909416825291909152205490565b6102d46106e4366004613891565b612869565b60006001600160e01b03198216635a05180f60e01b148061070e575061070e82612a88565b90505b919050565b606060cc805461072590613c6b565b80601f016020809104026020016040519081016040528092919081815260200182805461075190613c6b565b801561079e5780601f106107735761010080835404028352916020019161079e565b820191906000526020600020905b81548152906001019060200180831161078157829003601f168201915b5050505050905090565b600054610100900460ff166107c35760005460ff16156107c7565b303b155b61082f5760405162461bcd60e51b815260206004820152602e60248201527f496e697469616c697a61626c653a20636f6e747261637420697320616c72656160448201526d191e481a5b9a5d1a585b1a5e995960921b60648201526084015b60405180910390fd5b600054610100900460ff1615801561085a576000805460ff1961ff0019909116610100171660011790555b6108648484612abd565b61088e7f8f4f2da22e8ac8f11e15f9fc141cddbb5deea8800186560abb6e68c5496619a983612af6565b6108a13368056bc75e2d63100000612b00565b80156108b3576000805461ff00191690555b50505050565b60006108c6338484612be0565b5060015b92915050565b60fe54821061090e5760405162461bcd60e51b815260206004820152600a602482015269125b9d985b1a59081a5960b21b6044820152606401610826565b600081116109535760405162461bcd60e51b8152602060048201526012602482015271043616e6e6f7420766f7465207769746820360741b6044820152606401610826565b6001600083815260fb602052604090206004015460ff16600281111561098957634e487b7160e01b600052602160045260246000fd5b146109d65760405162461bcd60e51b815260206004820152601760248201527f526f756e64206973206e6f7420696e20646973707574650000000000000000006044820152606401610826565b600082815260fb602090815260408083206007015480845260fc835292819020815160a081018352815481526001820154938101939093526002810154918301919091526003810154606083018190526004909101546080830152610a6e5760405162461bcd60e51b815260206004820152600e60248201526d526f756e6420697320656d70747960901b6044820152606401610826565b6000610a798561253a565b905080841015610acb5760405162461bcd60e51b815260206004820152601c60248201527f4c657373207468616e204d494e20646566656e736520616d6f756e74000000006044820152606401610826565b6000826060015142610add9190613c11565b9050610e108110610b005760405162461bcd60e51b815260040161082690613b0f565b610b0a3386612d04565b60ff60008581526020019081526020016000206040518060800160405280888152602001610b353390565b6001600160a01b03908116825260208083018a905242604093840152845460018082018755600096875282872086516004909302019182558583015182820180546001600160a01b031916919095161790935584840151600282015560609094015160039094019390935587845260fc9092528220018054879290610bbb908490613bba565b9091555050600084815260fc60205260408120600401805491610bdd83613ca6565b9190505550505050505050565b60fb60205260009081526040902080548190610c0590613c6b565b80601f0160208091040260200160405190810160405280929190818152602001828054610c3190613c6b565b8015610c7e5780601f10610c5357610100808354040283529160200191610c7e565b820191906000526020600020905b815481529060010190602001808311610c6157829003601f168201915b5050505060018301546040805160608101825260028601548152600386015460f081901b6001600160f01b031916602083015262010000900460ff9081169282019290925260048601546005870154600688015460079098015496976001600160a01b03909516969295509216929087565b6000610cfd848484612e52565b6001600160a01b038416600090815260ca6020908152604080832033845290915290205482811015610d825760405162461bcd60e51b815260206004820152602860248201527f45524332303a207472616e7366657220616d6f756e74206578636565647320616044820152676c6c6f77616e636560c01b6064820152608401610826565b610d8f8533858403612be0565b506001949350505050565b33600090815261010160205260408120805483908110610dca57634e487b7160e01b600052603260045260246000fd5b9060005260206000209060030201604051806060016040529081600082015481526020016001820154815260200160028201548152505090506000816040015111610e495760405162461bcd60e51b815260206004820152600f60248201526e125b9d985b1a59081cdd185ad95259608a1b6044820152606401610826565b60018151600090815260fb602052604090206004015460ff166002811115610e8157634e487b7160e01b600052602160045260246000fd5b1415610ecf5760405162461bcd60e51b815260206004820152601a60248201527f526f756e6420697320696e2064697370757465207374617475730000000000006044820152606401610826565b6000816040015142610ee19190613c11565b9050610e108111610f345760405162461bcd60e51b815260206004820152601a60248201527f4d696e696d756d206475726174696f6e206973203120686f75720000000000006044820152606401610826565b6000610f403385611495565b9050610f5b33828560200151610f569190613bba565b612b00565b826020015160fb6000856000015181526020019081526020016000206006016000828254610f899190613c11565b909155505033600090815261010160205260409020805485908110610fbe57634e487b7160e01b600052603260045260246000fd5b600091825260208220600390910201818155600181018290556002015550505050565b610fec335b82612d04565b50565b60008281526065602052604090206001015461100c81335b613020565b6110168383613084565b505050565b60fe5482106110595760405162461bcd60e51b815260206004820152600a602482015269125b9d985b1a59081a5960b21b6044820152606401610826565b600081116110a25760405162461bcd60e51b815260206004820152601660248201527543616e6e6f7420766f746520776974682030204d4f4560501b6044820152606401610826565b6002600083815260fb602052604090206004015460ff1660028111156110d857634e487b7160e01b600052602160045260246000fd5b14156111135760405162461bcd60e51b815260206004820152600a60248201526911195c1c9958d85d195960b21b6044820152606401610826565b600061111e83611592565b9050808210156111705760405162461bcd60e51b815260206004820152601b60248201527f4c657373207468616e204d494e2061747461636b20616d6f756e7400000000006044820152606401610826565b600083815260fb60205260408120600781015460049091015490919060ff1660028111156111ae57634e487b7160e01b600052602160045260246000fd5b14156111e957600084815260fb60209081526040808320600401805460ff1916600117905583835260fc9091529020426003909101556112ac565b600081815260fc6020908152604091829020825160a081018452815481526001820154928101929092526002810154928201929092526003820154606082018190526004909201546080820152906112745760405162461bcd60e51b815260206004820152600e60248201526d526f756e6420697320656d70747960901b6044820152606401610826565b60008160600151426112869190613c11565b9050610e1081106112a95760405162461bcd60e51b815260040161082690613b0f565b50505b6112b63384612d04565b610100600082815260200190815260200160002060405180608001604052808681526020016112e23390565b6001600160a01b039081168252602080830188905242604093840152845460018082018755600096875282872086516004909302019182558583015190820180546001600160a01b03191691909416179092558383015160028084019190915560609094015160039092019190915584845260fc9052822001805485929061136b908490613bba565b9091555050600081815260fc6020526040812060040180549161138d83613ca6565b919050555050505050565b6001600160a01b03811633146114085760405162461bcd60e51b815260206004820152602f60248201527f416363657373436f6e74726f6c3a2063616e206f6e6c792072656e6f756e636560448201526e103937b632b9903337b91039b2b63360891b6064820152608401610826565b61141282826130a6565b5050565b33600081815260ca602090815260408083206001600160a01b038716845290915281205490916108c691859061144d908690613bba565b612be0565b610101602052816000526040600020818154811061146f57600080fd5b600091825260209091206003909102018054600182015460029092015490935090915083565b6001600160a01b0382166000908152610101602052604081208054829190849081106114d157634e487b7160e01b600052603260045260246000fd5b906000526020600020906003020160405180606001604052908160008201548152602001600182015481526020016002820154815250509050600081604001514261151c9190613c11565b905060006283d6008284602001516115349190613bf2565b61153e9190613bd2565b905060008351600090815260fb602052604090206004015460ff16600281111561157857634e487b7160e01b600052602160045260246000fd5b1461158957600093505050506108ca565b95945050505050565b600060fe5482106115a557506000610711565b6002600083815260fb602052604090206004015460ff1660028111156115db57634e487b7160e01b600052602160045260246000fd5b14156115e957506000610711565b600082815260fb602090815260408083206007015480845260fc835292819020815160a0810183528154815260018201549381019390935260028101549183018290526003808201546060850152600490910154608084015261164c9190613bf2565b816040015182602001516116609190613bba565b61166b906002613bf2565b11156116b3576040810151611681906003613bf2565b816040015182602001516116959190613bba565b6116a0906002613bf2565b6116aa9190613c11565b92505050610711565b600092505050610711565b600081815260fb6020526040808220815160e08101909252805483929190829082906116e990613c6b565b80601f016020809104026020016040519081016040528092919081815260200182805461171590613c6b565b80156117625780601f1061173757610100808354040283529160200191611762565b820191906000526020600020905b81548152906001019060200180831161174557829003601f168201915b505050918352505060018201546001600160a01b031660208083019190915260408051606080820183526002808701548352600387015460f081901b6001600160f01b031916958401959095526201000090940460ff9081168385015292850191909152600485015493019216908111156117ed57634e487b7160e01b600052602160045260246000fd5b600281111561180c57634e487b7160e01b600052602160045260246000fd5b815260200160058201548152602001600682015481526020016007820154815250509050806080015160001415611847576000915050610711565b60008160600151600281111561186d57634e487b7160e01b600052602160045260246000fd5b1461187c576000915050610711565b60c0810151600090815260ff60205260408120805482906118ad57634e487b7160e01b600052603260045260246000fd5b60009182526020918290206040805160808101825260049093029091018054835260018101546001600160a01b0316938301939093526002830154908201526003909101546060820181905290915061190b57600092505050610711565b600081606001514261191d9190613c11565b905060006241eb008284604001516119359190613bf2565b61193f9190613bd2565b9695505050505050565b600082815260ff6020526040812080548390811061197757634e487b7160e01b600052603260045260246000fd5b60009182526020918290206040805160808101825260049093029091018054835260018101546001600160a01b03169383019390935260028301549082015260039091015460608201819052909150611a035760405162461bcd60e51b815260206004820152600e60248201526d125b9d985b1a59081d9bdd19525960921b6044820152606401610826565b60208101516001600160a01b0316336001600160a01b031614611a585760405162461bcd60e51b815260206004820152600d60248201526c1058d8d95cdcc819195b9a5959609a1b6044820152606401610826565b600083815260fc6020908152604091829020825160a08101845281548152600182015492810192909252600281015492820192909252600382015460608201819052600490920154608082015290611ac25760405162461bcd60e51b815260040161082690613b46565b6000816060015142611ad49190613c11565b9050610e108111611af75760405162461bcd60e51b815260040161082690613b0f565b600082602001518360400151611b0d9190613bba565b9050826020015183604001511015611b78578415611b4c57611b473360208501516040870151611b3d9085613bf2565b610f569190613bd2565b611b78565b611b783360408601516020860151611b648286613bf2565b611b6e9190613bd2565b610f569190613c11565b600086815260ff60205260408120805487908110611ba657634e487b7160e01b600052603260045260246000fd5b906000526020600020906004020160010160006101000a8154816001600160a01b0302191690836001600160a01b03160217905550505050505050565b60008111611c245760405162461bcd60e51b815260206004820152600e60248201526d043616e6e6f74207374616b6520360941b6044820152606401610826565b60fe548210611c755760405162461bcd60e51b815260206004820152601760248201527f436861726163746572206461746120697320656d7074790000000000000000006044820152606401610826565b600082815260fb602052604081206004015460ff166002811115611ca957634e487b7160e01b600052602160045260246000fd5b14611cf65760405162461bcd60e51b815260206004820152601d60248201527f526f756e64206973206e6f7420696e206e6f726d616c207374617475730000006044820152606401610826565b611cff33610fe6565b3360009081526101016020908152604080832081516060810183528681528084018681524282850190815283546001808201865594885286882093516003909102909301928355905192820192909255905160029091015584835260fb90915281206006018054839290611d74908490613bba565b90915550505050565b600081815260fc6020908152604091829020825160a08101845281548152600182015492810192909252600281015492820192909252600382015460608201819052600490920154608082015290611de75760405162461bcd60e51b815260040161082690613b46565b8051600090815260fb6020526040902060078101548314611e1a5760405162461bcd60e51b815260040161082690613b46565b6000826060015142611e2c9190613c11565b9050610e108111611e7f5760405162461bcd60e51b815260206004820152601a60248201527f446973707574652077696e646f77206973206e6f74206f7665720000000000006044820152606401610826565b826020015183604001511115611ec357611eaf3360648560400151611ea49190613bd2565b610f56906001613bf2565b60048201805460ff191660021790556108b3565b8260200151836040015110156108b357611ee83360648560200151611ea49190613bd2565b6004828101805460ff191690556040805160a08101825285518152600060208083018281528385018381526060850184815260016080870181815260fd8054885260fc875289882098518955945191880191909155915160028701555160038601555193909501929092559254600786015586835260ff9052812080548290611f8157634e487b7160e01b600052603260045260246000fd5b9060005260206000209060040201604051806080016040529081600082015481526020016001820160009054906101000a90046001600160a01b03166001600160a01b03166001600160a01b03168152602001600282015481526020016003820154815250509050600060405180608001604052808660000151815260200183602001516001600160a01b031681526020018360400151815260200142815250905060ff600060fd5481526020019081526020016000208190806001815401808255809150506001900390600052602060002090600402016000909190919091506000820151816000015560208201518160010160006101000a8154816001600160a01b0302191690836001600160a01b031602179055506040820151816002015560608201518160030155505060fd6000815480929190610bdd90613ca6565b60006120ce3383611495565b9050600081116121205760405162461bcd60e51b815260206004820152601a60248201527f526577617264206d7573742067726561746572207468616e20300000000000006044820152606401610826565b3360009081526101016020526040902080544291908490811061215357634e487b7160e01b600052603260045260246000fd5b6000918252602090912060026003909202010155611412335b82612b00565b61217b33610fe6565b6040518060e001604052808681526020016121933390565b6001600160a01b03168152604080516060810182528781526001600160f01b0319871660208281019190915260ff87168284015283015201600081526020014281526020016000815260200160fd5481525060fb600060fe54815260200190815260200160002060008201518160000190805190602001906122169291906135f2565b50602082810151600180840180546001600160a01b039093166001600160a01b031990931692909217909155604080850151805160028087019190915593810151600386018054929093015160ff16620100000262ff00001960f09290921c61ffff19909316929092171617905560608401516004840180549193909260ff19909216919084908111156122ba57634e487b7160e01b600052602160045260246000fd5b0217905550608082810151600583015560a080840151600684015560c09093015160079092019190915560408051928301815260fe805484526020808501868152600086850181815260608801828152600189890181815260fd54855260fc87528885209a518b559451908a015590516002890155516003880155905160049096019590955582519384019092525482528101336001600160a01b03908116825260208083018690524260409384015260fd54600090815260ff825283812080546001808201835591835283832087516004909202019081559286015190830180546001600160a01b0319169190941617909255918301516002830155606083015160039092019190915560fe8054929350906123d683613ca6565b909155505060fd8054906000610bdd83613ca6565b600082815260976020526040812061240390836130c8565b9392505050565b60009182526065602090815260408084206001600160a01b0393909316845291905290205460ff1690565b610100602052816000526040600020818154811061245257600080fd5b600091825260209091206004909102018054600182015460028301546003909301549194506001600160a01b0316925084565b606060cd805461072590613c6b565b33600090815260ca602090815260408083206001600160a01b0386168452909152812054828110156125165760405162461bcd60e51b815260206004820152602560248201527f45524332303a2064656372656173656420616c6c6f77616e63652062656c6f77604482015264207a65726f60d81b6064820152608401610826565b6125233385858403612be0565b5060019392505050565b60006108c6338484612e52565b600060fe54821061254d57506000610711565b6001600083815260fb602052604090206004015460ff16600281111561258357634e487b7160e01b600052602160045260246000fd5b1461259057506000610711565b600082815260fb602090815260408083206007015480845260fc835292819020815160a0810183528154815260018201549381018490526002820154928101929092526003808201546060840152600490910154608083015290916125f491613bf2565b816040015182602001516126089190613bba565b612613906002613bf2565b11156116b3576020810151611681906003613bf2565b600081815260976020526040812061070e906130d4565b61266a7f8f4f2da22e8ac8f11e15f9fc141cddbb5deea8800186560abb6e68c5496619a93361058e565b6126b65760405162461bcd60e51b815260206004820152601d60248201527f596f75277265206e6f7420616c6c6f77656420746f206465706f7369740000006044820152606401610826565b60006126c482840184613857565b90506108b38482612b00565b600081815260fb6020908152604080832060070154835260ff9091528120805433929061270d57634e487b7160e01b600052603260045260246000fd5b60009182526020909120600160049092020101546001600160a01b03161461276b5760405162461bcd60e51b815260206004820152601160248201527014195c9b5a5cdcda5bdb8819195b9a5959607a1b6044820152606401610826565b6000612776826116be565b9050600081116127c85760405162461bcd60e51b815260206004820152601a60248201527f526577617264206d7573742067726561746572207468616e20300000000000006044820152606401610826565b6127d13361216c565b600082815260fb6020908152604080832060070154835260ff9091528120805442929061280e57634e487b7160e01b600052603260045260246000fd5b9060005260206000209060040201600301819055505050565b60ff602052816000526040600020818154811061245257600080fd5b60008281526065602052604090206001015461285f8133611007565b61101683836130a6565b60008281526101006020526040812080548390811061289857634e487b7160e01b600052603260045260246000fd5b60009182526020918290206040805160808101825260049093029091018054835260018101546001600160a01b031693830193909352600283015490820152600390910154606082018190529091506129245760405162461bcd60e51b815260206004820152600e60248201526d125b9d985b1a59081d9bdd19525960921b6044820152606401610826565b60208101516001600160a01b0316336001600160a01b0316146129795760405162461bcd60e51b815260206004820152600d60248201526c1058d8d95cdcc819195b9a5959609a1b6044820152606401610826565b600083815260fc6020908152604091829020825160a081018452815481526001820154928101929092526002810154928201929092526003820154606082018190526004909201546080820152906129e35760405162461bcd60e51b815260040161082690613b46565b60008160600151426129f59190613c11565b9050610e108111612a185760405162461bcd60e51b815260040161082690613b0f565b600082602001518360400151612a2e9190613bba565b9050826020015183604001511115612a5957612a59338460400151866040015184611b3d9190613bf2565b600086815261010060205260408120805487908110611ba657634e487b7160e01b600052603260045260246000fd5b60006001600160e01b03198216637965db0b60e01b148061070e57506301ffc9a760e01b6001600160e01b031983161461070e565b600054610100900460ff16612ae45760405162461bcd60e51b815260040161082690613b6f565b612aec6130de565b6114128282613107565b6114128282613084565b6001600160a01b038216612b565760405162461bcd60e51b815260206004820152601f60248201527f45524332303a206d696e7420746f20746865207a65726f2061646472657373006044820152606401610826565b8060cb6000828254612b689190613bba565b90915550506001600160a01b038216600090815260c9602052604081208054839290612b95908490613bba565b90915550506040518181526001600160a01b038316906000907fddf252ad1be2c89b69c2b068fc378daa952ba7f163c4a11628f55a4df523b3ef9060200160405180910390a3611412565b6001600160a01b038316612c425760405162461bcd60e51b8152602060048201526024808201527f45524332303a20617070726f76652066726f6d20746865207a65726f206164646044820152637265737360e01b6064820152608401610826565b6001600160a01b038216612ca35760405162461bcd60e51b815260206004820152602260248201527f45524332303a20617070726f766520746f20746865207a65726f206164647265604482015261737360f01b6064820152608401610826565b6001600160a01b03838116600081815260ca602090815260408083209487168084529482529182902085905590518481527f8c5be1e5ebec7d5bd14f71427d1e84f3dd0314c0f7b2291e5b200ac8c7c3b925910160405180910390a3505050565b6001600160a01b038216612d645760405162461bcd60e51b815260206004820152602160248201527f45524332303a206275726e2066726f6d20746865207a65726f206164647265736044820152607360f81b6064820152608401610826565b6001600160a01b038216600090815260c9602052604090205481811015612dd85760405162461bcd60e51b815260206004820152602260248201527f45524332303a206275726e20616d6f756e7420657863656564732062616c616e604482015261636560f01b6064820152608401610826565b6001600160a01b038316600090815260c960205260408120838303905560cb8054849290612e07908490613c11565b90915550506040518281526000906001600160a01b038516907fddf252ad1be2c89b69c2b068fc378daa952ba7f163c4a11628f55a4df523b3ef9060200160405180910390a3611016565b6001600160a01b038316612eb65760405162461bcd60e51b815260206004820152602560248201527f45524332303a207472616e736665722066726f6d20746865207a65726f206164604482015264647265737360d81b6064820152608401610826565b6001600160a01b038216612f185760405162461bcd60e51b815260206004820152602360248201527f45524332303a207472616e7366657220746f20746865207a65726f206164647260448201526265737360e81b6064820152608401610826565b6001600160a01b038316600090815260c9602052604090205481811015612f905760405162461bcd60e51b815260206004820152602660248201527f45524332303a207472616e7366657220616d6f756e7420657863656564732062604482015265616c616e636560d01b6064820152608401610826565b6001600160a01b03808516600090815260c96020526040808220858503905591851681529081208054849290612fc7908490613bba565b92505081905550826001600160a01b0316846001600160a01b03167fddf252ad1be2c89b69c2b068fc378daa952ba7f163c4a11628f55a4df523b3ef8460405161301391815260200190565b60405180910390a36108b3565b61302a828261240a565b61141257613042816001600160a01b03166014613155565b61304d836020613155565b60405160200161305e9291906139fa565b60408051601f198184030181529082905262461bcd60e51b825261082691600401613a6f565b61308e8282613337565b600082815260976020526040902061101690826133bd565b6130b082826133d2565b60008281526097602052604090206110169082613439565b6000612403838361344e565b600061070e825490565b600054610100900460ff166131055760405162461bcd60e51b815260040161082690613b6f565b565b600054610100900460ff1661312e5760405162461bcd60e51b815260040161082690613b6f565b81516131419060cc9060208501906135f2565b5080516110169060cd9060208401906135f2565b60606000613164836002613bf2565b61316f906002613bba565b67ffffffffffffffff81111561319557634e487b7160e01b600052604160045260246000fd5b6040519080825280601f01601f1916602001820160405280156131bf576020820181803683370190505b509050600360fc1b816000815181106131e857634e487b7160e01b600052603260045260246000fd5b60200101906001600160f81b031916908160001a905350600f60fb1b8160018151811061322557634e487b7160e01b600052603260045260246000fd5b60200101906001600160f81b031916908160001a9053506000613249846002613bf2565b613254906001613bba565b90505b60018111156132e8576f181899199a1a9b1b9c1cb0b131b232b360811b85600f166010811061329657634e487b7160e01b600052603260045260246000fd5b1a60f81b8282815181106132ba57634e487b7160e01b600052603260045260246000fd5b60200101906001600160f81b031916908160001a90535060049490941c936132e181613c54565b9050613257565b5083156124035760405162461bcd60e51b815260206004820181905260248201527f537472696e67733a20686578206c656e67746820696e73756666696369656e746044820152606401610826565b613341828261240a565b6114125760008281526065602090815260408083206001600160a01b03851684529091529020805460ff191660011790556133793390565b6001600160a01b0316816001600160a01b0316837f2f8788117e7eff1d82e926ec794901d17c78024a50270940304540a733656f0d60405160405180910390a45050565b6000612403836001600160a01b038416613486565b6133dc828261240a565b156114125760008281526065602090815260408083206001600160a01b0385168085529252808320805460ff1916905551339285917ff6391f5c32d9c69d2a47ea670b442974b53935d1edc7fd64eb21e047a839171b9190a45050565b6000612403836001600160a01b0384166134d5565b600082600001828154811061347357634e487b7160e01b600052603260045260246000fd5b9060005260206000200154905092915050565b60008181526001830160205260408120546134cd575081546001818101845560008481526020808220909301849055845484825282860190935260409020919091556108ca565b5060006108ca565b600081815260018301602052604081205480156135e85760006134f9600183613c11565b855490915060009061350d90600190613c11565b905081811461358e57600086600001828154811061353b57634e487b7160e01b600052603260045260246000fd5b906000526020600020015490508087600001848154811061356c57634e487b7160e01b600052603260045260246000fd5b6000918252602080832090910192909255918252600188019052604090208390555b85548690806135ad57634e487b7160e01b600052603160045260246000fd5b6001900381819060005260206000200160009055905585600101600086815260200190815260200160002060009055600193505050506108ca565b60009150506108ca565b8280546135fe90613c6b565b90600052602060002090601f0160209004810192826136205760008555613666565b82601f1061363957805160ff1916838001178555613666565b82800160010185558215613666579182015b8281111561366657825182559160200191906001019061364b565b50613672929150613676565b5090565b5b808211156136725760008155600101613677565b80356001600160a01b038116811461071157600080fd5b600082601f8301126136b2578081fd5b813567ffffffffffffffff808211156136cd576136cd613cd7565b604051601f8301601f19908116603f011681019082821181831017156136f5576136f5613cd7565b8160405283815286602085880101111561370d578485fd5b8360208701602083013792830160200193909352509392505050565b60006020828403121561373a578081fd5b6124038261368b565b60008060408385031215613755578081fd5b61375e8361368b565b915061376c6020840161368b565b90509250929050565b600080600060608486031215613789578081fd5b6137928461368b565b92506137a06020850161368b565b9150604084013590509250925092565b6000806000604084860312156137c4578283fd5b6137cd8461368b565b9250602084013567ffffffffffffffff808211156137e9578384fd5b818601915086601f8301126137fc578384fd5b81358181111561380a578485fd5b87602082850101111561381b578485fd5b6020830194508093505050509250925092565b60008060408385031215613840578182fd5b6138498361368b565b946020939093013593505050565b600060208284031215613868578081fd5b5035919050565b60008060408385031215613881578182fd5b8235915061376c6020840161368b565b600080604083850312156138a3578182fd5b50508035926020909101359150565b6000602082840312156138c3578081fd5b81356001600160e01b031981168114612403578182fd5b600080600080600060a086880312156138f1578081fd5b853567ffffffffffffffff811115613907578182fd5b613913888289016136a2565b9550506020860135935060408601356001600160f01b031981168114613937578182fd5b9250606086013560ff8116811461394c578182fd5b949793965091946080013592915050565b600080600060608486031215613971578283fd5b833567ffffffffffffffff80821115613988578485fd5b613994878388016136a2565b945060208601359150808211156139a9578384fd5b506139b6868287016136a2565b9250506139c56040850161368b565b90509250925092565b600081518084526139e6816020860160208601613c28565b601f01601f19169290920160200192915050565b60007f416363657373436f6e74726f6c3a206163636f756e742000000000000000000082528351613a32816017850160208801613c28565b7001034b99036b4b9b9b4b733903937b6329607d1b6017918401918201528351613a63816028840160208801613c28565b01602801949350505050565b60006020825261240360208301846139ce565b6000610120808352613a968184018b6139ce565b91505060018060a01b03881660208301528651604083015261ffff60f01b602088015116606083015260ff604088015116608083015260038610613aea57634e487b7160e01b600052602160045260246000fd5b8560a08301528460c08301528360e08301528261010083015298975050505050505050565b60208082526018908201527f446973707574652077696e646f77206973203120686f75720000000000000000604082015260600190565b6020808252600f908201526e125b9d985b1a59081c9bdd5b991259608a1b604082015260600190565b6020808252602b908201527f496e697469616c697a61626c653a20636f6e7472616374206973206e6f74206960408201526a6e697469616c697a696e6760a81b606082015260800190565b60008219821115613bcd57613bcd613cc1565b500190565b600082613bed57634e487b7160e01b81526012600452602481fd5b500490565b6000816000190483118215151615613c0c57613c0c613cc1565b500290565b600082821015613c2357613c23613cc1565b500390565b60005b83811015613c43578181015183820152602001613c2b565b838111156108b35750506000910152565b600081613c6357613c63613cc1565b506000190190565b600281046001821680613c7f57607f821691505b60208210811415613ca057634e487b7160e01b600052602260045260246000fd5b50919050565b6000600019821415613cba57613cba613cc1565b5060010190565b634e487b7160e01b600052601160045260246000fd5b634e487b7160e01b600052604160045260246000fdfea264697066735822122023ed91a194f0da72ae51ecbb16c521624b8069d5402b5a53838e93ed07a8f48f64736f6c63430008020033",
  "immutableReferences": {},
  "source": "// SPDX-License-Identifier: MIT\npragma solidity ^0.8.2;\n\nimport \"./Library.sol\";\nimport \"./IMOEToken.sol\";\nimport \"@openzeppelin/contracts-upgradeable/token/ERC20/ERC20Upgradeable.sol\";\nimport \"@openzeppelin/contracts-upgradeable/access/AccessControlEnumerableUpgradeable.sol\";\nimport \"@openzeppelin/contracts-upgradeable/utils/ContextUpgradeable.sol\";\n\n// *** IMPORTANT ***\n//\n// BEFORE DEPLOY\n// --------------\n// erase _mint() line on initialize()\n// change duration require() function on voteForAttack()\n// change duration require() function on voteForDeffense()\n// change duration require() function on unstake()\n// change duration require() function on clearRound()\n// change duration require() function on resolveAttack()\n// change duration require() function on resolveDefense()\n\ncontract MOEToken is ContextUpgradeable, AccessControlEnumerableUpgradeable, IMOEToken, ERC20Upgradeable {\n\n    bytes32 public constant DEPOSITOR_ROLE = keccak256(\"DEPOSITOR_ROLE\"); // Polygon mapping\n\n    mapping(uint256 => Lib.Onnanoco) public onnanocos;\n    mapping(uint256 => Lib.Round) public rounds;\n\n    uint256 public totalRounds;\n    uint256 public totalOnnanocos;\n\n    mapping(uint256 => Lib.Vote[]) public defenseVotes;\n    mapping(uint256 => Lib.Vote[]) public attackVotes;\n    mapping(address => Lib.Stake[]) public stakes;\n\n    // Add onnanoco data\n    function addOnnanoco(string memory name, bytes32 hash, bytes2 hashFunction, uint8 hashSize, uint256 amount) public {\n  \n        _burn(_msgSender(), amount);\n\n        onnanocos[totalOnnanocos] = Lib.Onnanoco(name, _msgSender(), Lib.Multihash(hash, hashFunction, hashSize), Lib.Status.NORMAL, block.timestamp, 0, totalRounds);\n\n        rounds[totalRounds] = Lib.Round(totalOnnanocos, amount, 0, 0, 1);\n\n        Lib.Vote memory vote = Lib.Vote(totalOnnanocos, _msgSender(), amount, block.timestamp);\n        defenseVotes[totalRounds].push(vote);\n\n        totalOnnanocos++;\n        totalRounds++;\n    }\n\n    function getMinimumAttackAmount(uint256 id) public view returns (uint256 amount) {\n\n        if (id >= totalOnnanocos) {\n            return 0;\n        }\n\n        if (onnanocos[id].status == Lib.Status.DEPRECATED) {\n            return 0;\n        }\n\n        uint256 roundId = onnanocos[id].roundId;\n        Lib.Round memory roundInfo = rounds[roundId];\n\n        if (((roundInfo.totalDefenseAmount + roundInfo.totalAttackAmount) * 2) > (roundInfo.totalAttackAmount * 3)) {\n            return ((roundInfo.totalDefenseAmount + roundInfo.totalAttackAmount) * 2) - (roundInfo.totalAttackAmount * 3);\n        } else {\n            return 0;\n        }\n    }\n\n    function voteForAttack(uint256 id, uint256 amount) public {\n\n        require(id < totalOnnanocos, 'Invalid id');\n        require(amount > 0, 'Cannot vote with 0 MOE');\n        require(onnanocos[id].status != Lib.Status.DEPRECATED, 'Deprecated');\n        \n        uint256 minimumAmount = getMinimumAttackAmount(id);\n        require(amount >= minimumAmount, 'Less than MIN attack amount');\n\n        uint256 roundId = onnanocos[id].roundId;\n\n        // 1st attack\n        if (onnanocos[id].status == Lib.Status.NORMAL) {\n\n            onnanocos[id].status = Lib.Status.IN_DISPUTE;\n            rounds[roundId].timestamp = block.timestamp;\n\n        } else {\n            \n            Lib.Round memory roundInfo = rounds[roundId];\n            require(roundInfo.timestamp > 0, 'Round is empty');\n\n            uint256 duration = block.timestamp - roundInfo.timestamp;\n            //require(duration < 60 * 60 * 24 * 7, 'Dispute window is 7 days'); // deploy\n            require(duration < 60 * 60, 'Dispute window is 1 hour'); // dev\n        }\n\n        _burn(_msgSender(), amount);\n        attackVotes[roundId].push(Lib.Vote(id, _msgSender(), amount, block.timestamp));\n\n        rounds[roundId].totalAttackAmount += amount;\n        rounds[roundId].totalVotes++;\n    }\n\n    function getMinimumDefenseAmount(uint256 id) public view returns (uint256 amount) {\n\n        if (id >= totalOnnanocos) {\n            return 0;\n        }\n\n        if (onnanocos[id].status != Lib.Status.IN_DISPUTE) {\n            return 0;\n        }\n\n        uint256 roundId = onnanocos[id].roundId;\n        Lib.Round memory roundInfo = rounds[roundId];\n\n        if (((roundInfo.totalDefenseAmount + roundInfo.totalAttackAmount) * 2) > (roundInfo.totalDefenseAmount * 3)) {\n            return ((roundInfo.totalDefenseAmount + roundInfo.totalAttackAmount) * 2) - (roundInfo.totalDefenseAmount * 3);\n        } else {\n            return 0;\n        }\n    }\n\n    function voteForDefense(uint256 id, uint256 amount) public {\n\n        require(id < totalOnnanocos, 'Invalid id');\n        require(amount > 0, 'Cannot vote with 0');\n        require(onnanocos[id].status == Lib.Status.IN_DISPUTE, 'Round is not in dispute');\n\n        uint256 roundId = onnanocos[id].roundId;\n        Lib.Round memory roundInfo = rounds[roundId];\n        require(roundInfo.timestamp > 0, 'Round is empty');\n\n        uint256 minimumAmount = getMinimumDefenseAmount(id);\n        require(amount >= minimumAmount, 'Less than MIN defense amount');\n\n        uint256 duration = block.timestamp - roundInfo.timestamp;\n        //require(duration < 60 * 60 * 24 * 7, 'Dispute window is 7 days'); // deploy\n        require(duration < 60 * 60 * 1, 'Dispute window is 1 hour'); // dev\n\n        _burn(_msgSender(), amount);\n        defenseVotes[roundId].push(Lib.Vote(id, _msgSender(), amount, block.timestamp));\n\n        rounds[roundId].totalDefenseAmount += amount;\n        rounds[roundId].totalVotes++;\n    }\n\n    function clearRound(uint256 roundId) public {\n\n        Lib.Round memory roundInfo = rounds[roundId];\n        require(roundInfo.timestamp > 0, 'Invalid roundId');\n\n        Lib.Onnanoco storage onnanoco = onnanocos[roundInfo.onnanocoId];\n        require(onnanoco.roundId == roundId, 'Invalid roundId');\n\n        uint256 duration = block.timestamp - roundInfo.timestamp;\n\n        //require(duration > 60 * 60 * 24 * 7, 'Dispute window is not over'); // deploy\n        require(duration > 60 * 60 * 1, 'Dispute window is not over'); // dev\n\n        if (roundInfo.totalAttackAmount > roundInfo.totalDefenseAmount) { // Attackers win\n            _mint(_msgSender(), roundInfo.totalAttackAmount / 100 * 1);\n            onnanoco.status = Lib.Status.DEPRECATED;\n\n        } else if(roundInfo.totalAttackAmount < roundInfo.totalDefenseAmount) { // Attackers lose\n            _mint(_msgSender(), roundInfo.totalDefenseAmount / 100 * 1);\n            onnanoco.status = Lib.Status.NORMAL;\n\n            // new round\n            rounds[totalRounds] = Lib.Round(roundInfo.onnanocoId, 0, 0, 0, 1);\n            onnanoco.roundId = totalRounds;\n\n            // new vote\n            Lib.Vote memory vote = defenseVotes[roundId][0];\n\n            Lib.Vote memory newVote = Lib.Vote(roundInfo.onnanocoId, vote.voter, vote.amount, block.timestamp);\n            defenseVotes[totalRounds].push(newVote);\n\n            // increase roundId\n            totalRounds++;\n        }\n        \n    }\n\n    function resolveAttack(uint256 roundId, uint256 voteId) public {\n\n        Lib.Vote memory voteInfo = attackVotes[roundId][voteId];\n        require(voteInfo.timestamp > 0, 'Invalid voteId');\n        require(_msgSender() == voteInfo.voter, 'Access denied');\n\n        Lib.Round memory roundInfo = rounds[roundId];\n        require(roundInfo.timestamp > 0, 'Invalid roundId');\n        \n        uint256 duration = block.timestamp - roundInfo.timestamp;\n\n        //require(duration > 60 * 60 * 24 * 7, 'Dispute window is 7 days'); // deploy\n        require(duration > 60 * 60 * 1, 'Dispute window is 1 hour'); // dev\n\n        uint256 totalAmount = roundInfo.totalAttackAmount + roundInfo.totalDefenseAmount;\n\n        if (roundInfo.totalAttackAmount > roundInfo.totalDefenseAmount) {\n            _mint(_msgSender(), totalAmount * voteInfo.amount / roundInfo.totalAttackAmount);\n        }\n\n        attackVotes[roundId][voteId].voter = address(0);\n    }\n\n    function resolveDefense(uint256 roundId, uint256 voteId) public {\n\n        Lib.Vote memory voteInfo = defenseVotes[roundId][voteId];\n        require(voteInfo.timestamp > 0, 'Invalid voteId');\n        require(_msgSender() == voteInfo.voter, 'Access denied');\n\n        Lib.Round memory roundInfo = rounds[roundId];\n        require(roundInfo.timestamp > 0, 'Invalid roundId');\n        \n        uint256 duration = block.timestamp - roundInfo.timestamp;\n\n        //require(duration > 60 * 60 * 24 * 7, 'Dispute window is 7 days'); // deploy\n        require(duration > 60 * 60 * 1, 'Dispute window is 1 hour'); // dev\n\n        uint256 totalAmount = roundInfo.totalAttackAmount + roundInfo.totalDefenseAmount;\n\n        if (roundInfo.totalAttackAmount < roundInfo.totalDefenseAmount) {\n\n            if (voteId > 0) {\n                _mint(_msgSender(), totalAmount * voteInfo.amount / roundInfo.totalDefenseAmount);\n            } else { // 1st defender\n                _mint(_msgSender(), (totalAmount * voteInfo.amount / roundInfo.totalDefenseAmount) - voteInfo.amount);\n            }\n        }\n\n        defenseVotes[roundId][voteId].voter = address(0);\n    }\n    \n    function stake(uint256 id, uint256 amount) public {\n    \n        require(amount > 0, 'Cannot stake 0');\n        require(id < totalOnnanocos, 'Character data is empty');\n        require(onnanocos[id].status == Lib.Status.NORMAL, 'Round is not in normal status');\n\n        _burn(_msgSender(), amount);\n\n        stakes[_msgSender()].push(Lib.Stake(id, amount, block.timestamp));\n        onnanocos[id].totalStakingAmount += amount;\n    }\n    \n    function unstake(uint256 stakeId) public {\n\n        Lib.Stake memory stakeInfo = stakes[_msgSender()][stakeId];\n        \n        require(stakeInfo.timestamp > 0, 'Invalid stakeId');\n        require(onnanocos[stakeInfo.id].status != Lib.Status.IN_DISPUTE, 'Round is in dispute status');\n        \n        uint256 duration = block.timestamp - stakeInfo.timestamp;\n\n        //require(duration > 60 * 60 * 24 * 50, 'Minimum duration is 50 days'); // Deploy\n        require(duration > 60 * 60 * 1, 'Minimum duration is 1 hour'); // Test\n\n        uint256 reward = getStakeRewardAmount(_msgSender(), stakeId);\n\n        _mint(_msgSender(), stakeInfo.amount + reward);\n        onnanocos[stakeInfo.id].totalStakingAmount -= stakeInfo.amount;\n        delete stakes[_msgSender()][stakeId];\n    }\n\n    function getStakeRewardAmount(address staker, uint256 stakeId) public view returns(uint256) {\n\n        Lib.Stake memory stakeInfo = stakes[staker][stakeId];\n\n        uint256 duration = block.timestamp - stakeInfo.timestamp;\n        uint256 reward = stakeInfo.amount * duration / (60 * 60 * 24 * 100);\n\n        if (onnanocos[stakeInfo.id].status != Lib.Status.NORMAL) {\n            return 0;\n        }\n\n        return reward;\n    }\n\n    function receiveStakeReward(uint256 stakeId) public {\n\n        uint256 reward = getStakeRewardAmount(_msgSender(), stakeId);\n\n        require(reward > 0, 'Reward must greater than 0');\n\n        stakes[_msgSender()][stakeId].timestamp = block.timestamp;\n        _mint(_msgSender(), reward);\n    }\n\n    function getOwnerRewardAmount(uint256 id) public view returns(uint256){\n\n        Lib.Onnanoco memory onnanocoInfo = onnanocos[id];\n        \n        if (onnanocoInfo.timestamp == 0) {\n            return 0;\n        }\n\n        if (onnanocoInfo.status != Lib.Status.NORMAL) {\n            return 0;\n        }\n\n        Lib.Vote memory voteInfo = defenseVotes[onnanocoInfo.roundId][0];\n\n        if (voteInfo.timestamp == 0) { // voteInfo is empty\n            return 0;\n        }\n\n        uint256 duration = block.timestamp - voteInfo.timestamp;\n        uint256 reward = voteInfo.amount * duration / (60 * 60 * 24 * 50);\n\n        return reward;\n    }\n\n    function receiveOwnerReward(uint256 id) public {\n        \n        require(defenseVotes[onnanocos[id].roundId][0].voter == _msgSender(), 'Permission denied');\n\n        uint256 reward = getOwnerRewardAmount(id);\n        require(reward > 0, 'Reward must greater than 0');\n\n        _mint(_msgSender(), reward);\n        defenseVotes[onnanocos[id].roundId][0].timestamp = block.timestamp;\n    }\n\n    function deposit(address user, bytes calldata depositData) external override {\n\n        require(hasRole(DEPOSITOR_ROLE, _msgSender()), \"You're not allowed to deposit\");\n        \n        uint256 amount = abi.decode(depositData, (uint256));\n        _mint(user, amount);\n    }\n\n    function withdraw(uint256 amount) external {\n\n        _burn(_msgSender(), amount);\n    }\n\n    // Initializer\n    function initialize(string memory name, string memory symbol, address childchangeProxy) public virtual initializer {\n        \n        __ERC20_init(name, symbol);\n        _setupRole(DEPOSITOR_ROLE, childchangeProxy);\n\n        _mint(_msgSender(), 10 ** 18 * 100); // dev faucet\n    }\n}",
  "sourcePath": "/Users/misskiwi/github/smartcontract-child/contracts/MOEToken.sol",
  "compiler": {
    "name": "solc",
    "version": "0.8.2+commit.661d1103.Emscripten.clang"
  },
  "schemaVersion": "3.4.4",
  "updatedAt": "2022-01-29T19:02:34.730Z",
  "networkType": "ethereum",
  "devdoc": {
    "kind": "dev",
    "methods": {
      "allowance(address,address)": {
        "details": "See {IERC20-allowance}."
      },
      "approve(address,uint256)": {
        "details": "See {IERC20-approve}. Requirements: - `spender` cannot be the zero address."
      },
      "balanceOf(address)": {
        "details": "See {IERC20-balanceOf}."
      },
      "decimals()": {
        "details": "Returns the number of decimals used to get its user representation. For example, if `decimals` equals `2`, a balance of `505` tokens should be displayed to a user as `5.05` (`505 / 10 ** 2`). Tokens usually opt for a value of 18, imitating the relationship between Ether and Wei. This is the value {ERC20} uses, unless this function is overridden; NOTE: This information is only used for _display_ purposes: it in no way affects any of the arithmetic of the contract, including {IERC20-balanceOf} and {IERC20-transfer}."
      },
      "decreaseAllowance(address,uint256)": {
        "details": "Atomically decreases the allowance granted to `spender` by the caller. This is an alternative to {approve} that can be used as a mitigation for problems described in {IERC20-approve}. Emits an {Approval} event indicating the updated allowance. Requirements: - `spender` cannot be the zero address. - `spender` must have allowance for the caller of at least `subtractedValue`."
      },
      "getRoleAdmin(bytes32)": {
        "details": "Returns the admin role that controls `role`. See {grantRole} and {revokeRole}. To change a role's admin, use {_setRoleAdmin}."
      },
      "getRoleMember(bytes32,uint256)": {
        "details": "Returns one of the accounts that have `role`. `index` must be a value between 0 and {getRoleMemberCount}, non-inclusive. Role bearers are not sorted in any particular way, and their ordering may change at any point. WARNING: When using {getRoleMember} and {getRoleMemberCount}, make sure you perform all queries on the same block. See the following https://forum.openzeppelin.com/t/iterating-over-elements-on-enumerableset-in-openzeppelin-contracts/2296[forum post] for more information."
      },
      "getRoleMemberCount(bytes32)": {
        "details": "Returns the number of accounts that have `role`. Can be used together with {getRoleMember} to enumerate all bearers of a role."
      },
      "grantRole(bytes32,address)": {
        "details": "Grants `role` to `account`. If `account` had not been already granted `role`, emits a {RoleGranted} event. Requirements: - the caller must have ``role``'s admin role."
      },
      "hasRole(bytes32,address)": {
        "details": "Returns `true` if `account` has been granted `role`."
      },
      "increaseAllowance(address,uint256)": {
        "details": "Atomically increases the allowance granted to `spender` by the caller. This is an alternative to {approve} that can be used as a mitigation for problems described in {IERC20-approve}. Emits an {Approval} event indicating the updated allowance. Requirements: - `spender` cannot be the zero address."
      },
      "name()": {
        "details": "Returns the name of the token."
      },
      "renounceRole(bytes32,address)": {
        "details": "Revokes `role` from the calling account. Roles are often managed via {grantRole} and {revokeRole}: this function's purpose is to provide a mechanism for accounts to lose their privileges if they are compromised (such as when a trusted device is misplaced). If the calling account had been revoked `role`, emits a {RoleRevoked} event. Requirements: - the caller must be `account`."
      },
      "revokeRole(bytes32,address)": {
        "details": "Revokes `role` from `account`. If `account` had been granted `role`, emits a {RoleRevoked} event. Requirements: - the caller must have ``role``'s admin role."
      },
      "supportsInterface(bytes4)": {
        "details": "See {IERC165-supportsInterface}."
      },
      "symbol()": {
        "details": "Returns the symbol of the token, usually a shorter version of the name."
      },
      "totalSupply()": {
        "details": "See {IERC20-totalSupply}."
      },
      "transfer(address,uint256)": {
        "details": "See {IERC20-transfer}. Requirements: - `recipient` cannot be the zero address. - the caller must have a balance of at least `amount`."
      },
      "transferFrom(address,address,uint256)": {
        "details": "See {IERC20-transferFrom}. Emits an {Approval} event indicating the updated allowance. This is not required by the EIP. See the note at the beginning of {ERC20}. Requirements: - `sender` and `recipient` cannot be the zero address. - `sender` must have a balance of at least `amount`. - the caller must have allowance for ``sender``'s tokens of at least `amount`."
      }
    },
    "version": 1
  },
  "userdoc": {
    "kind": "user",
    "methods": {},
    "version": 1
  }
}