{
  "contractName": "MOEToken",
  "abi": [
    {
      "anonymous": false,
      "inputs": [
        {
          "indexed": true,
          "internalType": "address",
          "name": "owner",
          "type": "address"
        },
        {
          "indexed": true,
          "internalType": "address",
          "name": "spender",
          "type": "address"
        },
        {
          "indexed": false,
          "internalType": "uint256",
          "name": "value",
          "type": "uint256"
        }
      ],
      "name": "Approval",
      "type": "event"
    },
    {
      "anonymous": false,
      "inputs": [
        {
          "indexed": false,
          "internalType": "address",
          "name": "userAddress",
          "type": "address"
        },
        {
          "indexed": false,
          "internalType": "address payable",
          "name": "relayerAddress",
          "type": "address"
        },
        {
          "indexed": false,
          "internalType": "bytes",
          "name": "functionSignature",
          "type": "bytes"
        }
      ],
      "name": "MetaTransactionExecuted",
      "type": "event"
    },
    {
      "anonymous": false,
      "inputs": [
        {
          "indexed": true,
          "internalType": "bytes32",
          "name": "role",
          "type": "bytes32"
        },
        {
          "indexed": true,
          "internalType": "bytes32",
          "name": "previousAdminRole",
          "type": "bytes32"
        },
        {
          "indexed": true,
          "internalType": "bytes32",
          "name": "newAdminRole",
          "type": "bytes32"
        }
      ],
      "name": "RoleAdminChanged",
      "type": "event"
    },
    {
      "anonymous": false,
      "inputs": [
        {
          "indexed": true,
          "internalType": "bytes32",
          "name": "role",
          "type": "bytes32"
        },
        {
          "indexed": true,
          "internalType": "address",
          "name": "account",
          "type": "address"
        },
        {
          "indexed": true,
          "internalType": "address",
          "name": "sender",
          "type": "address"
        }
      ],
      "name": "RoleGranted",
      "type": "event"
    },
    {
      "anonymous": false,
      "inputs": [
        {
          "indexed": true,
          "internalType": "bytes32",
          "name": "role",
          "type": "bytes32"
        },
        {
          "indexed": true,
          "internalType": "address",
          "name": "account",
          "type": "address"
        },
        {
          "indexed": true,
          "internalType": "address",
          "name": "sender",
          "type": "address"
        }
      ],
      "name": "RoleRevoked",
      "type": "event"
    },
    {
      "anonymous": false,
      "inputs": [
        {
          "indexed": true,
          "internalType": "address",
          "name": "from",
          "type": "address"
        },
        {
          "indexed": true,
          "internalType": "address",
          "name": "to",
          "type": "address"
        },
        {
          "indexed": false,
          "internalType": "uint256",
          "name": "value",
          "type": "uint256"
        }
      ],
      "name": "Transfer",
      "type": "event"
    },
    {
      "inputs": [],
      "name": "DEFAULT_ADMIN_ROLE",
      "outputs": [
        {
          "internalType": "bytes32",
          "name": "",
          "type": "bytes32"
        }
      ],
      "stateMutability": "view",
      "type": "function"
    },
    {
      "inputs": [],
      "name": "DEPOSITOR_ROLE",
      "outputs": [
        {
          "internalType": "bytes32",
          "name": "",
          "type": "bytes32"
        }
      ],
      "stateMutability": "view",
      "type": "function"
    },
    {
      "inputs": [],
      "name": "ERC712_VERSION",
      "outputs": [
        {
          "internalType": "string",
          "name": "",
          "type": "string"
        }
      ],
      "stateMutability": "view",
      "type": "function"
    },
    {
      "inputs": [
        {
          "internalType": "address",
          "name": "owner",
          "type": "address"
        },
        {
          "internalType": "address",
          "name": "spender",
          "type": "address"
        }
      ],
      "name": "allowance",
      "outputs": [
        {
          "internalType": "uint256",
          "name": "",
          "type": "uint256"
        }
      ],
      "stateMutability": "view",
      "type": "function"
    },
    {
      "inputs": [
        {
          "internalType": "address",
          "name": "spender",
          "type": "address"
        },
        {
          "internalType": "uint256",
          "name": "amount",
          "type": "uint256"
        }
      ],
      "name": "approve",
      "outputs": [
        {
          "internalType": "bool",
          "name": "",
          "type": "bool"
        }
      ],
      "stateMutability": "nonpayable",
      "type": "function"
    },
    {
      "inputs": [
        {
          "internalType": "uint256",
          "name": "",
          "type": "uint256"
        },
        {
          "internalType": "uint256",
          "name": "",
          "type": "uint256"
        }
      ],
      "name": "attackVotes",
      "outputs": [
        {
          "internalType": "uint256",
          "name": "id",
          "type": "uint256"
        },
        {
          "internalType": "address",
          "name": "voter",
          "type": "address"
        },
        {
          "internalType": "uint256",
          "name": "amount",
          "type": "uint256"
        },
        {
          "internalType": "uint256",
          "name": "timestamp",
          "type": "uint256"
        }
      ],
      "stateMutability": "view",
      "type": "function"
    },
    {
      "inputs": [
        {
          "internalType": "address",
          "name": "account",
          "type": "address"
        }
      ],
      "name": "balanceOf",
      "outputs": [
        {
          "internalType": "uint256",
          "name": "",
          "type": "uint256"
        }
      ],
      "stateMutability": "view",
      "type": "function"
    },
    {
      "inputs": [
        {
          "internalType": "string",
          "name": "name_",
          "type": "string"
        }
      ],
      "name": "changeName",
      "outputs": [],
      "stateMutability": "nonpayable",
      "type": "function"
    },
    {
      "inputs": [],
      "name": "decimals",
      "outputs": [
        {
          "internalType": "uint8",
          "name": "",
          "type": "uint8"
        }
      ],
      "stateMutability": "view",
      "type": "function"
    },
    {
      "inputs": [
        {
          "internalType": "address",
          "name": "spender",
          "type": "address"
        },
        {
          "internalType": "uint256",
          "name": "subtractedValue",
          "type": "uint256"
        }
      ],
      "name": "decreaseAllowance",
      "outputs": [
        {
          "internalType": "bool",
          "name": "",
          "type": "bool"
        }
      ],
      "stateMutability": "nonpayable",
      "type": "function"
    },
    {
      "inputs": [
        {
          "internalType": "uint256",
          "name": "",
          "type": "uint256"
        },
        {
          "internalType": "uint256",
          "name": "",
          "type": "uint256"
        }
      ],
      "name": "defenseVotes",
      "outputs": [
        {
          "internalType": "uint256",
          "name": "id",
          "type": "uint256"
        },
        {
          "internalType": "address",
          "name": "voter",
          "type": "address"
        },
        {
          "internalType": "uint256",
          "name": "amount",
          "type": "uint256"
        },
        {
          "internalType": "uint256",
          "name": "timestamp",
          "type": "uint256"
        }
      ],
      "stateMutability": "view",
      "type": "function"
    },
    {
      "inputs": [
        {
          "internalType": "address",
          "name": "user",
          "type": "address"
        },
        {
          "internalType": "bytes",
          "name": "depositData",
          "type": "bytes"
        }
      ],
      "name": "deposit",
      "outputs": [],
      "stateMutability": "nonpayable",
      "type": "function"
    },
    {
      "inputs": [
        {
          "internalType": "address",
          "name": "userAddress",
          "type": "address"
        },
        {
          "internalType": "bytes",
          "name": "functionSignature",
          "type": "bytes"
        },
        {
          "internalType": "bytes32",
          "name": "sigR",
          "type": "bytes32"
        },
        {
          "internalType": "bytes32",
          "name": "sigS",
          "type": "bytes32"
        },
        {
          "internalType": "uint8",
          "name": "sigV",
          "type": "uint8"
        }
      ],
      "name": "executeMetaTransaction",
      "outputs": [
        {
          "internalType": "bytes",
          "name": "",
          "type": "bytes"
        }
      ],
      "stateMutability": "payable",
      "type": "function"
    },
    {
      "inputs": [],
      "name": "getChainId",
      "outputs": [
        {
          "internalType": "uint256",
          "name": "",
          "type": "uint256"
        }
      ],
      "stateMutability": "pure",
      "type": "function"
    },
    {
      "inputs": [],
      "name": "getDomainSeperator",
      "outputs": [
        {
          "internalType": "bytes32",
          "name": "",
          "type": "bytes32"
        }
      ],
      "stateMutability": "view",
      "type": "function"
    },
    {
      "inputs": [
        {
          "internalType": "address",
          "name": "user",
          "type": "address"
        }
      ],
      "name": "getNonce",
      "outputs": [
        {
          "internalType": "uint256",
          "name": "nonce",
          "type": "uint256"
        }
      ],
      "stateMutability": "view",
      "type": "function"
    },
    {
      "inputs": [
        {
          "internalType": "bytes32",
          "name": "role",
          "type": "bytes32"
        }
      ],
      "name": "getRoleAdmin",
      "outputs": [
        {
          "internalType": "bytes32",
          "name": "",
          "type": "bytes32"
        }
      ],
      "stateMutability": "view",
      "type": "function"
    },
    {
      "inputs": [
        {
          "internalType": "bytes32",
          "name": "role",
          "type": "bytes32"
        },
        {
          "internalType": "uint256",
          "name": "index",
          "type": "uint256"
        }
      ],
      "name": "getRoleMember",
      "outputs": [
        {
          "internalType": "address",
          "name": "",
          "type": "address"
        }
      ],
      "stateMutability": "view",
      "type": "function"
    },
    {
      "inputs": [
        {
          "internalType": "bytes32",
          "name": "role",
          "type": "bytes32"
        }
      ],
      "name": "getRoleMemberCount",
      "outputs": [
        {
          "internalType": "uint256",
          "name": "",
          "type": "uint256"
        }
      ],
      "stateMutability": "view",
      "type": "function"
    },
    {
      "inputs": [
        {
          "internalType": "bytes32",
          "name": "role",
          "type": "bytes32"
        },
        {
          "internalType": "address",
          "name": "account",
          "type": "address"
        }
      ],
      "name": "grantRole",
      "outputs": [],
      "stateMutability": "nonpayable",
      "type": "function"
    },
    {
      "inputs": [
        {
          "internalType": "bytes32",
          "name": "role",
          "type": "bytes32"
        },
        {
          "internalType": "address",
          "name": "account",
          "type": "address"
        }
      ],
      "name": "hasRole",
      "outputs": [
        {
          "internalType": "bool",
          "name": "",
          "type": "bool"
        }
      ],
      "stateMutability": "view",
      "type": "function"
    },
    {
      "inputs": [
        {
          "internalType": "address",
          "name": "spender",
          "type": "address"
        },
        {
          "internalType": "uint256",
          "name": "addedValue",
          "type": "uint256"
        }
      ],
      "name": "increaseAllowance",
      "outputs": [
        {
          "internalType": "bool",
          "name": "",
          "type": "bool"
        }
      ],
      "stateMutability": "nonpayable",
      "type": "function"
    },
    {
      "inputs": [],
      "name": "name",
      "outputs": [
        {
          "internalType": "string",
          "name": "",
          "type": "string"
        }
      ],
      "stateMutability": "view",
      "type": "function"
    },
    {
      "inputs": [
        {
          "internalType": "uint256",
          "name": "",
          "type": "uint256"
        }
      ],
      "name": "onnanocos",
      "outputs": [
        {
          "internalType": "string",
          "name": "name",
          "type": "string"
        },
        {
          "internalType": "address",
          "name": "owner",
          "type": "address"
        },
        {
          "components": [
            {
              "internalType": "bytes32",
              "name": "hash",
              "type": "bytes32"
            },
            {
              "internalType": "bytes2",
              "name": "hashFunction",
              "type": "bytes2"
            },
            {
              "internalType": "uint8",
              "name": "size",
              "type": "uint8"
            }
          ],
          "internalType": "struct Lib.Multihash",
          "name": "multihash",
          "type": "tuple"
        },
        {
          "internalType": "enum Lib.Status",
          "name": "status",
          "type": "uint8"
        },
        {
          "internalType": "uint256",
          "name": "timestamp",
          "type": "uint256"
        },
        {
          "internalType": "uint256",
          "name": "totalStakingAmount",
          "type": "uint256"
        },
        {
          "internalType": "uint256",
          "name": "roundId",
          "type": "uint256"
        }
      ],
      "stateMutability": "view",
      "type": "function"
    },
    {
      "inputs": [
        {
          "internalType": "bytes32",
          "name": "role",
          "type": "bytes32"
        },
        {
          "internalType": "address",
          "name": "account",
          "type": "address"
        }
      ],
      "name": "renounceRole",
      "outputs": [],
      "stateMutability": "nonpayable",
      "type": "function"
    },
    {
      "inputs": [
        {
          "internalType": "bytes32",
          "name": "role",
          "type": "bytes32"
        },
        {
          "internalType": "address",
          "name": "account",
          "type": "address"
        }
      ],
      "name": "revokeRole",
      "outputs": [],
      "stateMutability": "nonpayable",
      "type": "function"
    },
    {
      "inputs": [
        {
          "internalType": "uint256",
          "name": "",
          "type": "uint256"
        }
      ],
      "name": "rounds",
      "outputs": [
        {
          "internalType": "uint256",
          "name": "onnanocoId",
          "type": "uint256"
        },
        {
          "internalType": "uint256",
          "name": "totalDefenseAmount",
          "type": "uint256"
        },
        {
          "internalType": "uint256",
          "name": "totalAttackAmount",
          "type": "uint256"
        },
        {
          "internalType": "uint256",
          "name": "timestamp",
          "type": "uint256"
        }
      ],
      "stateMutability": "view",
      "type": "function"
    },
    {
      "inputs": [
        {
          "internalType": "address",
          "name": "",
          "type": "address"
        },
        {
          "internalType": "uint256",
          "name": "",
          "type": "uint256"
        }
      ],
      "name": "stakes",
      "outputs": [
        {
          "internalType": "uint256",
          "name": "id",
          "type": "uint256"
        },
        {
          "internalType": "uint256",
          "name": "amount",
          "type": "uint256"
        },
        {
          "internalType": "uint256",
          "name": "timestamp",
          "type": "uint256"
        }
      ],
      "stateMutability": "view",
      "type": "function"
    },
    {
      "inputs": [],
      "name": "symbol",
      "outputs": [
        {
          "internalType": "string",
          "name": "",
          "type": "string"
        }
      ],
      "stateMutability": "view",
      "type": "function"
    },
    {
      "inputs": [],
      "name": "totalOnnanocos",
      "outputs": [
        {
          "internalType": "uint256",
          "name": "",
          "type": "uint256"
        }
      ],
      "stateMutability": "view",
      "type": "function"
    },
    {
      "inputs": [],
      "name": "totalRounds",
      "outputs": [
        {
          "internalType": "uint256",
          "name": "",
          "type": "uint256"
        }
      ],
      "stateMutability": "view",
      "type": "function"
    },
    {
      "inputs": [],
      "name": "totalSupply",
      "outputs": [
        {
          "internalType": "uint256",
          "name": "",
          "type": "uint256"
        }
      ],
      "stateMutability": "view",
      "type": "function"
    },
    {
      "inputs": [
        {
          "internalType": "address",
          "name": "recipient",
          "type": "address"
        },
        {
          "internalType": "uint256",
          "name": "amount",
          "type": "uint256"
        }
      ],
      "name": "transfer",
      "outputs": [
        {
          "internalType": "bool",
          "name": "",
          "type": "bool"
        }
      ],
      "stateMutability": "nonpayable",
      "type": "function"
    },
    {
      "inputs": [
        {
          "internalType": "address",
          "name": "sender",
          "type": "address"
        },
        {
          "internalType": "address",
          "name": "recipient",
          "type": "address"
        },
        {
          "internalType": "uint256",
          "name": "amount",
          "type": "uint256"
        }
      ],
      "name": "transferFrom",
      "outputs": [
        {
          "internalType": "bool",
          "name": "",
          "type": "bool"
        }
      ],
      "stateMutability": "nonpayable",
      "type": "function"
    },
    {
      "inputs": [
        {
          "internalType": "uint256",
          "name": "amount",
          "type": "uint256"
        }
      ],
      "name": "withdraw",
      "outputs": [],
      "stateMutability": "nonpayable",
      "type": "function"
    },
    {
      "inputs": [
        {
          "internalType": "string",
          "name": "name",
          "type": "string"
        },
        {
          "internalType": "bytes32",
          "name": "hash",
          "type": "bytes32"
        },
        {
          "internalType": "bytes2",
          "name": "hashFunction",
          "type": "bytes2"
        },
        {
          "internalType": "uint8",
          "name": "hashSize",
          "type": "uint8"
        },
        {
          "internalType": "uint256",
          "name": "amount",
          "type": "uint256"
        }
      ],
      "name": "addOnnanoco",
      "outputs": [],
      "stateMutability": "nonpayable",
      "type": "function"
    },
    {
      "inputs": [
        {
          "internalType": "uint256",
          "name": "id",
          "type": "uint256"
        }
      ],
      "name": "getMinimumAttackAmount",
      "outputs": [
        {
          "internalType": "uint256",
          "name": "amount",
          "type": "uint256"
        }
      ],
      "stateMutability": "view",
      "type": "function"
    },
    {
      "inputs": [
        {
          "internalType": "uint256",
          "name": "id",
          "type": "uint256"
        },
        {
          "internalType": "uint256",
          "name": "amount",
          "type": "uint256"
        }
      ],
      "name": "voteForAttack",
      "outputs": [],
      "stateMutability": "nonpayable",
      "type": "function"
    },
    {
      "inputs": [
        {
          "internalType": "uint256",
          "name": "id",
          "type": "uint256"
        }
      ],
      "name": "getMinimumDefenseAmount",
      "outputs": [
        {
          "internalType": "uint256",
          "name": "amount",
          "type": "uint256"
        }
      ],
      "stateMutability": "view",
      "type": "function"
    },
    {
      "inputs": [
        {
          "internalType": "uint256",
          "name": "id",
          "type": "uint256"
        },
        {
          "internalType": "uint256",
          "name": "amount",
          "type": "uint256"
        }
      ],
      "name": "voteForDefense",
      "outputs": [],
      "stateMutability": "nonpayable",
      "type": "function"
    },
    {
      "inputs": [
        {
          "internalType": "uint256",
          "name": "roundId",
          "type": "uint256"
        }
      ],
      "name": "clearRound",
      "outputs": [],
      "stateMutability": "nonpayable",
      "type": "function"
    },
    {
      "inputs": [
        {
          "internalType": "uint256",
          "name": "roundId",
          "type": "uint256"
        },
        {
          "internalType": "uint256",
          "name": "voteId",
          "type": "uint256"
        }
      ],
      "name": "resolveAttack",
      "outputs": [],
      "stateMutability": "nonpayable",
      "type": "function"
    },
    {
      "inputs": [
        {
          "internalType": "uint256",
          "name": "roundId",
          "type": "uint256"
        },
        {
          "internalType": "uint256",
          "name": "voteId",
          "type": "uint256"
        }
      ],
      "name": "resolveDefense",
      "outputs": [],
      "stateMutability": "nonpayable",
      "type": "function"
    },
    {
      "inputs": [
        {
          "internalType": "uint256",
          "name": "id",
          "type": "uint256"
        },
        {
          "internalType": "uint256",
          "name": "amount",
          "type": "uint256"
        }
      ],
      "name": "stake",
      "outputs": [],
      "stateMutability": "nonpayable",
      "type": "function"
    },
    {
      "inputs": [
        {
          "internalType": "uint256",
          "name": "stakeId",
          "type": "uint256"
        }
      ],
      "name": "unstake",
      "outputs": [],
      "stateMutability": "nonpayable",
      "type": "function"
    },
    {
      "inputs": [
        {
          "internalType": "string",
          "name": "name",
          "type": "string"
        },
        {
          "internalType": "string",
          "name": "symbol",
          "type": "string"
        },
        {
          "internalType": "uint256",
          "name": "decimals",
          "type": "uint256"
        },
        {
          "internalType": "address",
          "name": "childchangeProxy",
          "type": "address"
        }
      ],
      "name": "initialize",
      "outputs": [],
      "stateMutability": "nonpayable",
      "type": "function"
    },
    {
      "inputs": [
        {
          "internalType": "string",
          "name": "name_",
          "type": "string"
        },
        {
          "internalType": "string",
          "name": "symbol_",
          "type": "string"
        },
        {
          "internalType": "uint8",
          "name": "decimals_",
          "type": "uint8"
        },
        {
          "internalType": "address",
          "name": "childChainManager",
          "type": "address"
        }
      ],
      "name": "initialize",
      "outputs": [],
      "stateMutability": "nonpayable",
      "type": "function"
    },
    {
      "inputs": [
        {
          "internalType": "uint256",
          "name": "amount",
          "type": "uint256"
        }
      ],
      "name": "mintToken",
      "outputs": [],
      "stateMutability": "nonpayable",
      "type": "function"
    }
  ],
  "bytecode": "0x6008805460ff191690556000608081815260c060405260a082815290916200002c90600390839062000058565b5080516200004290600490602084019062000058565b50506005805460ff1916601217905550620000fd565b828054600181600116156101000203166002900490600052602060002090601f016020900481019282601f106200009b57805160ff1916838001178555620000cb565b82800160010185558215620000cb579182015b82811115620000cb578251825591602001919060010190620000ae565b50620000d9929150620000dd565b5090565b620000fa91905b80821115620000d95760008155600101620000e4565b90565b613fbd806200010d6000396000f3fe6080604052600436106102935760003560e01c80637797d79f1161015a578063a457c2d7116100c1578063cf2c52cb1161007a578063cf2c52cb146107e0578063d50c2c5014610800578063d547741f14610820578063dd62ed3e14610840578063de7ea79d14610860578063fd75061f1461088057610293565b8063a457c2d714610720578063a9059cbb14610740578063b4d0392814610760578063bd3a13f614610780578063c634d032146107a0578063ca15c873146107c057610293565b80639010d07c116101135780639010d07c1461066457806391d1485414610691578063946e94c4146106b157806395d89b41146106e1578063a217fddf146106f6578063a3b0b5a31461070b57610293565b80637797d79f1461059f5780637b0472f0146105bf57806381a15af4146105df578063868b029d146105ff5780638a5682991461061f5780638c65c81f1461063457610293565b80632e17de78116101fe57806336568abe116101b757806336568abe146104d057806339509351146104f05780635353a2d814610510578063584b62a1146105305780636ad6c0351461055f57806370a082311461057f57610293565b80632e17de78146104195780632e1a7d4d146104395780632f2ff15d14610459578063313ce567146104795780633408e4701461049b57806335097ce3146104b057610293565b806318160ddd1161025057806318160ddd1461035c57806320379ee5146103715780632042f1c71461038657806323b872dd146103b9578063248a9ca3146103d95780632d0335ab146103f957610293565b806306fdde0314610298578063095ea7b3146102c35780630c53c51c146102f05780630c6cc4a3146103035780630f7e5970146103255780630fa214c91461033a575b600080fd5b3480156102a457600080fd5b506102ad6108a0565b6040516102ba9190613590565b60405180910390f35b3480156102cf57600080fd5b506102e36102de366004613155565b610937565b6040516102ba919061350e565b6102ad6102fe3660046130e3565b610955565b34801561030f57600080fd5b50610318610aef565b6040516102ba9190613519565b34801561033157600080fd5b506102ad610af5565b34801561034657600080fd5b5061035a6103553660046131c6565b610b12565b005b34801561036857600080fd5b50610318610d40565b34801561037d57600080fd5b50610318610d46565b34801561039257600080fd5b506103a66103a136600461317f565b610d4c565b6040516102ba97969594939291906135a3565b3480156103c557600080fd5b506102e36103d4366004613050565b610e55565b3480156103e557600080fd5b506103186103f436600461317f565b610ee2565b34801561040557600080fd5b50610318610414366004613001565b610ef7565b34801561042557600080fd5b5061035a61043436600461317f565b610f12565b34801561044557600080fd5b5061035a61045436600461317f565b6110a4565b34801561046557600080fd5b5061035a610474366004613197565b6110b8565b34801561048557600080fd5b5061048e611100565b6040516102ba9190613e05565b3480156104a757600080fd5b50610318611109565b3480156104bc57600080fd5b5061035a6104cb3660046131c6565b61110d565b3480156104dc57600080fd5b5061035a6104eb366004613197565b611345565b3480156104fc57600080fd5b506102e361050b366004613155565b611387565b34801561051c57600080fd5b5061035a61052b3660046131e7565b6113db565b34801561053c57600080fd5b5061055061054b366004613155565b61148d565b6040516102ba93929190613dd4565b34801561056b57600080fd5b5061031861057a36600461317f565b6114cc565b34801561058b57600080fd5b5061031861059a366004613001565b611545565b3480156105ab57600080fd5b5061035a6105ba3660046131c6565b611560565b3480156105cb57600080fd5b5061035a6105da3660046131c6565b61179a565b3480156105eb57600080fd5b5061035a6105fa36600461317f565b61188f565b34801561060b57600080fd5b5061035a61061a3660046132be565b611b21565b34801561062b57600080fd5b50610318611d85565b34801561064057600080fd5b5061065461064f36600461317f565b611d8b565b6040516102ba9493929190613dea565b34801561067057600080fd5b5061068461067f3660046131c6565b611db2565b6040516102ba91906134ce565b34801561069d57600080fd5b506102e36106ac366004613197565b611dd7565b3480156106bd57600080fd5b506106d16106cc3660046131c6565b611df5565b6040516102ba9493929190613db0565b3480156106ed57600080fd5b506102ad611e41565b34801561070257600080fd5b50610318611ea2565b34801561071757600080fd5b50610318611ea7565b34801561072c57600080fd5b506102e361073b366004613155565b611ebe565b34801561074c57600080fd5b506102e361075b366004613155565b611f2c565b34801561076c57600080fd5b5061031861077b36600461317f565b611f40565b34801561078c57600080fd5b5061035a61079b36600461333b565b611fb1565b3480156107ac57600080fd5b5061035a6107bb36600461317f565b611fe7565b3480156107cc57600080fd5b506103186107db36600461317f565b611ff8565b3480156107ec57600080fd5b5061035a6107fb366004613090565b61200f565b34801561080c57600080fd5b506106d161081b3660046131c6565b61206a565b34801561082c57600080fd5b5061035a61083b366004613197565b612083565b34801561084c57600080fd5b5061031861085b36600461301c565b6120bd565b34801561086c57600080fd5b5061035a61087b366004613227565b6120e8565b34801561088c57600080fd5b5061035a61089b3660046131c6565b61223f565b60038054604080516020601f600260001961010060018816150201909516949094049384018190048102820181019092528281526060939092909183018282801561092c5780601f106109015761010080835404028352916020019161092c565b820191906000526020600020905b81548152906001019060200180831161090f57829003601f168201915b505050505090505b90565b600061094b6109446123f5565b8484612404565b5060015b92915050565b606061095f612dd8565b50604080516060810182526001600160a01b0388166000818152600a60209081529084902054835282015290810186905261099d87828787876124b8565b6109c25760405162461bcd60e51b81526004016109b990613b0e565b60405180910390fd5b6001600160a01b0387166000908152600a60205260409020546109ec90600163ffffffff61255e16565b6001600160a01b0388166000908152600a60205260409081902091909155517f5845892132946850460bff5a0083f71031bc5bf9aadcd40f1de79423eac9b10b90610a3c90899033908a906134e2565b60405180910390a160006060306001600160a01b0316888a604051602001610a65929190613400565b60408051601f1981840301815290829052610a7f916133e4565b6000604051808303816000865af19150503d8060008114610abc576040519150601f19603f3d011682016040523d82523d6000602084013e610ac1565b606091505b509150915081610ae35760405162461bcd60e51b81526004016109b990613856565b98975050505050505050565b600e5481565b604051806040016040528060018152602001603160f81b81525081565b60008111610b325760405162461bcd60e51b81526004016109b990613cfa565b60016000838152600b602052604090206004015460ff166002811115610b5457fe5b14610b715760405162461bcd60e51b81526004016109b9906137b1565b6000828152600b6020526040902060070154610b8b612e02565b506000818152600c6020908152604080832081516080810183528154815260018201549381018490526002820154928101929092526003908101546060830152909291610c1a91610be2919063ffffffff61258316565b610c0e6002610c028660400151876020015161255e90919063ffffffff16565b9063ffffffff61258316565b9063ffffffff6125bd16565b90506000610c358360600151426125bd90919063ffffffff16565b9050610e108111610c585760405162461bcd60e51b81526004016109b9906138fb565b81851015610c785760405162461bcd60e51b81526004016109b990613c9c565b610c89610c836123f5565b866125e5565b600f60008581526020019081526020016000206040518060800160405280888152602001610cb56123f5565b6001600160a01b03908116825260208083018a905242604093840152845460018082018755600096875282872086516004909302019182558583015182820180546001600160a01b0319169190951617909355848401516002820155606090940151600390940193909355878452600c9092529091200154610d37908661255e565b50505050505050565b60025490565b60095490565b600b6020908152600091825260409182902080548351601f60026000196101006001861615020190931692909204918201849004840281018401909452808452909291839190830182828015610de35780601f10610db857610100808354040283529160200191610de3565b820191906000526020600020905b815481529060010190602001808311610dc657829003601f168201915b5050505060018301546040805160608101825260028601548152600386015460f081901b6001600160f01b031916602083015262010000900460ff9081169282019290925260048601546005870154600688015460079098015496976001600160a01b03909516969295509216929087565b6000610e628484846126d3565b610ed884610e6e6123f5565b610ed385604051806060016040528060288152602001613f3b602891396001600160a01b038a16600090815260016020526040812090610eac6123f5565b6001600160a01b03168152602081019190915260400160002054919063ffffffff6127f416565b612404565b5060019392505050565b60009081526006602052604090206002015490565b6001600160a01b03166000908152600a602052604090205490565b610f1a612e2a565b60116000610f266123f5565b6001600160a01b03166001600160a01b031681526020019081526020016000208281548110610f5157fe5b600091825260209182902060408051606081018252600390930290910180548352600180820154948401949094526002015490820152915081516000908152600b602052604090206004015460ff166002811115610fab57fe5b1415610fc95760405162461bcd60e51b81526004016109b9906136e8565b60408101514203610e108111610ff15760405162461bcd60e51b81526004016109b990613a28565b600061101e630a4cb80061101284866020015161258390919063ffffffff16565b9063ffffffff61282016565b9050600283516000908152600b602052604090206004015460ff16600281111561104457fe5b141561104e575060005b6110736110596123f5565b602085015161106e908463ffffffff61255e16565b612852565b60208084015184516000908152600b90925260409091206006015461109d9163ffffffff6125bd16565b5050505050565b6110b56110af6123f5565b826125e5565b50565b6000828152600660205260409020600201546110d6906106ac6123f5565b6110f25760405162461bcd60e51b81526004016109b990613762565b6110fc8282612912565b5050565b60055460ff1690565b4690565b6000811161112d5760405162461bcd60e51b81526004016109b990613cfa565b60026000838152600b602052604090206004015460ff16600281111561114f57fe5b141561116d5760405162461bcd60e51b81526004016109b990613b90565b6000611178836114cc565b90508082101561119a5760405162461bcd60e51b81526004016109b990613c65565b6111ab6111a56123f5565b836125e5565b6000838152600b60205260408120600781015460049091015490919060ff1660028111156111d557fe5b141561127e576111e3612e02565b506000818152600c60209081526040808320815160808101835281548152600182015493810193909352600281015491830191909152600301546060820181905290919061123890429063ffffffff6125bd16565b9050610e10811061125b5760405162461bcd60e51b81526004016109b9906138fb565b50506000848152600b60205260409020600401805460ff19166001179055611294565b6000818152600c60205260409020426003909101555b6010600082815260200190815260200160002060405180608001604052808681526020016112c06123f5565b6001600160a01b039081168252602080830188905242604093840152845460018082018755600096875282872086516004909302019182558583015190820180546001600160a01b031916919094161790925583830151600280840191909155606090940151600390920191909155848452600c9052909120015461109d908461255e565b61134d6123f5565b6001600160a01b0316816001600160a01b03161461137d5760405162461bcd60e51b81526004016109b990613d2a565b6110fc8282612981565b600061094b6113946123f5565b84610ed385600160006113a56123f5565b6001600160a01b03908116825260208083019390935260409182016000908120918c16815292529020549063ffffffff61255e16565b60006113e9816106ac6123f5565b6007906114095760405162461bcd60e51b81526004016109b9919061361c565b5061144983838080601f0160208091040260200160405190810160405280939291908181526020018383808284376000920191909152506129f092505050565b61148883838080601f016020809104026020016040519081016040528093929190818152602001838380828437600092019190915250612a0392505050565b505050565b601160205281600052604060002081815481106114a657fe5b600091825260209091206003909102018054600182015460029092015490935090915083565b6000818152600b60205260408120600701546114e6612e02565b506000818152600c602090815260408083208151608081018352815481526001820154938101939093526002810154918301829052600390810154606084015291929161153c91610be29163ffffffff61258316565b95945050505050565b6001600160a01b031660009081526020819052604090205490565b611568612e4b565b6000838152600f6020526040902080548390811061158257fe5b60009182526020918290206040805160808101825260049093029091018054835260018101546001600160a01b031693830193909352600283015490820152600390910154606082015290506115d6612e02565b506000838152600c60209081526040918290208251608081018452815481526001820154818401526002820154938101939093526003015460608301528201516001600160a01b03166116276123f5565b6001600160a01b03161461164d5760405162461bcd60e51b81526004016109b990613cd3565b60006116668260600151426125bd90919063ffffffff16565b9050610e1081116116895760405162461bcd60e51b81526004016109b9906138fb565b60006116a68360200151846040015161255e90919063ffffffff16565b9050826020015183604001511080156116bf5750600085115b15611742576116ee6116cf6123f5565b61106e856020015161101288604001518661258390919063ffffffff16565b6000868152600f6020526040812080548790811061170857fe5b906000526020600020906004020160010160006101000a8154816001600160a01b0302191690836001600160a01b03160217905550611792565b6000868152600f6020526040812080548790811061175c57fe5b906000526020600020906004020160010160006101000a8154816001600160a01b0302191690836001600160a01b031602179055505b505050505050565b600081116117ba5760405162461bcd60e51b81526004016109b9906137e8565b6000828152600b602052604081206004015460ff1660028111156117da57fe5b146117f75760405162461bcd60e51b81526004016109b990613a5f565b6118026110af6123f5565b6011600061180e6123f5565b6001600160a01b0316815260208082019290925260409081016000908120825160608101845286815280850186815242828601908152835460018181018655948652878620935160039091029093019283559051928201929092559051600290910155848152600b909252902060060154611488908263ffffffff61255e16565b611897612e02565b506000818152600c60209081526040808320815160808101835281548082526001830154828601526002830154828501526003909201546060820152908452600b909252909120600781015483146119015760405162461bcd60e51b81526004016109b990613932565b600061191a8360600151426125bd90919063ffffffff16565b9050610e10811161193d5760405162461bcd60e51b81526004016109b990613a96565b8260200151836040015111156119825761196e6119586123f5565b604085015161106e90603263ffffffff61282016565b60048201805460ff19166002179055611b1b565b826020015183604001511015611b1b576119b361199d6123f5565b602085015161106e90603263ffffffff61282016565b60048201805460ff1916905560408051608081018252845181526000602080830182815283850183815260608501848152600d548552600c909352949092209251835590516001830155915160028201559051600390910155611a14612e4b565b6000858152600f602052604081208054909190611a2d57fe5b60009182526020918290206040805160808101825260049093029091018054835260018101546001600160a01b03169383019390935260028301549082015260039091015460608201529050611a81612e4b565b5060408051608081018252855181526020838101516001600160a01b03908116828401908152858501518486019081524260608601908152600d80546000908152600f8752978820805460018082018355918a52969098208751600490970201958655925185880180546001600160a01b03191691909516179093555160028401559051600390920191909155549091610d37919061255e565b50505050565b611b2c6110af6123f5565b6040518060e00160405280868152602001611b456123f5565b6001600160a01b03168152604080516060810182528781526001600160f01b0319871660208281019190915260ff871682840152830152016000815260200142815260200160008152602001600d54815250600b6000600e5481526020019081526020016000206000820151816000019080519060200190611bc8929190612e7c565b50602082810151600180840180546001600160a01b039093166001600160a01b031990931692909217909155604080850151805160028087019190915593810151600386018054929093015160ff16620100000262ff00001960f09290921c61ffff19909316929092171617905560608401516004840180549193909260ff1990921691908490811115611c5857fe5b0217905550608082810151600583015560a0830151600683015560c090920151600790910155604080519182018152600e5482526020808301848152600084840181815260608601828152600d548352600c909452939020935184555160018401559051600283015551600390910155611cd0612e4b565b6040518060800160405280600e548152602001611ceb6123f5565b6001600160a01b039081168252602080830186905242604093840152600d546000908152600f82528381208054600180820183559183529183902086516004909302019182559185015181830180546001600160a01b03191691909416179092559183015160028201556060830151600390910155600e54919250611d70919061255e565b50600d54610d3790600163ffffffff61255e16565b600d5481565b600c6020526000908152604090208054600182015460028301546003909301549192909184565b6000828152600660205260408120611dd0908363ffffffff612aa016565b9392505050565b6000828152600660205260408120611dd0908363ffffffff612aac16565b60106020528160005260406000208181548110611e0e57fe5b600091825260209091206004909102018054600182015460028301546003909301549194506001600160a01b0316925084565b60048054604080516020601f600260001961010060018816150201909516949094049384018190048102820181019092528281526060939092909183018282801561092c5780601f106109015761010080835404028352916020019161092c565b600081565b604051611eb3906134b4565b604051809103902081565b600061094b611ecb6123f5565b84610ed385604051806060016040528060258152602001613f636025913960016000611ef56123f5565b6001600160a01b03908116825260208083019390935260409182016000908120918d1681529252902054919063ffffffff6127f416565b600061094b611f396123f5565b84846126d3565b6000818152600b6020526040812060070154611f5a612e02565b506000818152600c602090815260408083208151608081018352815481526001820154938101849052600282015492810192909252600390810154606083015290929161153c91610be2919063ffffffff61258316565b60085460ff1615611fd45760405162461bcd60e51b81526004016109b990613bf9565b50506008805460ff191660011790555050565b6110b5611ff26123f5565b82612852565b600081815260066020526040812061094f90612ac1565b60405161201b906134b4565b604051809103902061202f816106ac6123f5565b60079061204f5760405162461bcd60e51b81526004016109b9919061361c565b50600061205e8385018561317f565b905061109d8582612852565b600f6020528160005260406000208181548110611e0e57fe5b6000828152600660205260409020600201546120a1906106ac6123f5565b61137d5760405162461bcd60e51b81526004016109b990613993565b6001600160a01b03918216600090815260016020908152604080832093909416825291909152205490565b60085460ff161561210b5760405162461bcd60e51b81526004016109b990613bf9565b61214a86868080601f0160208091040260200160405190810160405280939291908181526020018383808284376000920191909152506129f092505050565b61218984848080601f016020809104026020016040519081016040528093929190818152602001838380828437600092019190915250612acc92505050565b61219282612adf565b6121bc84846040516020016121a8929190613478565b604051602081830303815290604052612af5565b6121ce60006121c96123f5565b6110f2565b6121eb6040516121dd906134b4565b6040518091039020826110f2565b61222a86868080601f016020809104026020016040519081016040528093929190818152602001838380828437600092019190915250612b2a92505050565b50506008805460ff1916600117905550505050565b612247612e4b565b600083815260106020526040902080548390811061226157fe5b60009182526020918290206040805160808101825260049093029091018054835260018101546001600160a01b031693830193909352600283015490820152600390910154606082015290506122b5612e02565b506000838152600c60209081526040918290208251608081018452815481526001820154818401526002820154938101939093526003015460608301528201516001600160a01b03166123066123f5565b6001600160a01b03161461232c5760405162461bcd60e51b81526004016109b990613cd3565b60006123458260600151426125bd90919063ffffffff16565b9050610e1081116123685760405162461bcd60e51b81526004016109b9906138fb565b60006123858360200151846040015161255e90919063ffffffff16565b90508260200151836040015111156123db576123c16123a26123f5565b61106e856040015161101288604001518661258390919063ffffffff16565b600086815260106020526040812080548790811061170857fe5b600086815260106020526040812080548790811061175c57fe5b60006123ff612b66565b905090565b6001600160a01b03831661242a5760405162461bcd60e51b81526004016109b990613c21565b6001600160a01b0382166124505760405162461bcd60e51b81526004016109b990613814565b6001600160a01b0380841660008181526001602090815260408083209487168084529490915290819020849055517f8c5be1e5ebec7d5bd14f71427d1e84f3dd0314c0f7b2291e5b200ac8c7c3b925906124ab908590613519565b60405180910390a3505050565b60006001600160a01b0386166124e05760405162461bcd60e51b81526004016109b9906139e3565b60016124f36124ee87612bc3565b612c21565b838686604051600081526020016040526040516125139493929190613572565b6020604051602081039080840390855afa158015612535573d6000803e3d6000fd5b505050602060405103516001600160a01b0316866001600160a01b031614905095945050505050565b600082820183811015611dd05760405162461bcd60e51b81526004016109b99061388d565b6000826125925750600061094f565b8282028284828161259f57fe5b0414611dd05760405162461bcd60e51b81526004016109b990613acd565b6000828211156125df5760405162461bcd60e51b81526004016109b9906138c4565b50900390565b6001600160a01b03821661260b5760405162461bcd60e51b81526004016109b990613b4f565b61261782600083611488565b61265a81604051806060016040528060228152602001613e61602291396001600160a01b038516600090815260208190526040902054919063ffffffff6127f416565b6001600160a01b038316600090815260208190526040902055600254612686908263ffffffff6125bd16565b6002556040516000906001600160a01b038416907fddf252ad1be2c89b69c2b068fc378daa952ba7f163c4a11628f55a4df523b3ef906126c7908590613519565b60405180910390a35050565b6001600160a01b0383166126f95760405162461bcd60e51b81526004016109b990613bb4565b6001600160a01b03821661271f5760405162461bcd60e51b81526004016109b99061371f565b61272a838383611488565b61276d81604051806060016040528060268152602001613f15602691396001600160a01b038616600090815260208190526040902054919063ffffffff6127f416565b6001600160a01b0380851660009081526020819052604080822093909355908416815220546127a2908263ffffffff61255e16565b6001600160a01b0380841660008181526020819052604090819020939093559151908516907fddf252ad1be2c89b69c2b068fc378daa952ba7f163c4a11628f55a4df523b3ef906124ab908590613519565b600081848411156128185760405162461bcd60e51b81526004016109b99190613590565b505050900390565b60008082116128415760405162461bcd60e51b81526004016109b99061395c565b81838161284a57fe5b049392505050565b6001600160a01b0382166128785760405162461bcd60e51b81526004016109b990613d79565b61288460008383611488565b600254612897908263ffffffff61255e16565b6002556001600160a01b0382166000908152602081905260409020546128c3908263ffffffff61255e16565b6001600160a01b0383166000818152602081905260408082209390935591519091907fddf252ad1be2c89b69c2b068fc378daa952ba7f163c4a11628f55a4df523b3ef906126c7908590613519565b6000828152600660205260409020612930908263ffffffff612c3d16565b156110fc5761293d6123f5565b6001600160a01b0316816001600160a01b0316837f2f8788117e7eff1d82e926ec794901d17c78024a50270940304540a733656f0d60405160405180910390a45050565b600082815260066020526040902061299f908263ffffffff612c5216565b156110fc576129ac6123f5565b6001600160a01b0316816001600160a01b0316837ff6391f5c32d9c69d2a47ea670b442974b53935d1edc7fd64eb21e047a839171b60405160405180910390a45050565b80516110fc906003906020840190612e7c565b6040518060800160405280604f8152602001613ec6604f913980516020918201208251838301206040805180820190915260018152603160f81b930192909252907fc89efdaa54c0f20c7adf612882df0950f5a951637e0307cdcb4c672f298b8bc630612a6e611109565b604051612a82959493929190602001613522565b60408051601f19818403018152919052805160209091012060095550565b6000611dd08383612c67565b6000611dd0836001600160a01b038416612cac565b600061094f82612cc4565b80516110fc906004906020840190612e7c565b6005805460ff191660ff92909216919091179055565b80604051602001612b069190613437565b604051602081830303815290604052600790805190602001906110fc929190612e7c565b60085460ff1615612b4d5760405162461bcd60e51b81526004016109b990613bf9565b612b5681612a03565b506008805460ff19166001179055565b600033301415612bbe5760606000368080601f0160208091040260200160405190810160405280939291908181526020018383808284376000920191909152505050503601516001600160a01b031691506109349050565b503390565b6000604051806080016040528060438152602001613e836043913980516020918201208351848301516040808701518051908601209051612c04950161354e565b604051602081830303815290604052805190602001209050919050565b6000612c2b610d46565b82604051602001612c04929190613499565b6000611dd0836001600160a01b038416612cc8565b6000611dd0836001600160a01b038416612d12565b81546000908210612c8a5760405162461bcd60e51b81526004016109b9906136a6565b826000018281548110612c9957fe5b9060005260206000200154905092915050565b60009081526001919091016020526040902054151590565b5490565b6000612cd48383612cac565b612d0a5750815460018181018455600084815260208082209093018490558454848252828601909352604090209190915561094f565b50600061094f565b60008181526001830160205260408120548015612dce5783546000198083019190810190600090879083908110612d4557fe5b9060005260206000200154905080876000018481548110612d6257fe5b600091825260208083209091019290925582815260018981019092526040902090840190558654879080612d9257fe5b6001900381819060005260206000200160009055905586600101600087815260200190815260200160002060009055600194505050505061094f565b600091505061094f565b60405180606001604052806000815260200160006001600160a01b03168152602001606081525090565b6040518060800160405280600081526020016000815260200160008152602001600081525090565b60405180606001604052806000815260200160008152602001600081525090565b60405180608001604052806000815260200160006001600160a01b0316815260200160008152602001600081525090565b828054600181600116156101000203166002900490600052602060002090601f016020900481019282601f10612ebd57805160ff1916838001178555612eea565b82800160010185558215612eea579182015b82811115612eea578251825591602001919060010190612ecf565b50612ef6929150612efa565b5090565b61093491905b80821115612ef65760008155600101612f00565b80356001600160a01b038116811461094f57600080fd5b60008083601f840112612f3c578182fd5b50813567ffffffffffffffff811115612f53578182fd5b602083019150836020828501011115612f6b57600080fd5b9250929050565b600082601f830112612f82578081fd5b813567ffffffffffffffff80821115612f99578283fd5b604051601f8301601f191681016020018281118282101715612fb9578485fd5b604052828152925082848301602001861015612fd457600080fd5b8260208601602083013760006020848301015250505092915050565b803560ff8116811461094f57600080fd5b600060208284031215613012578081fd5b611dd08383612f14565b6000806040838503121561302e578081fd5b6130388484612f14565b91506130478460208501612f14565b90509250929050565b600080600060608486031215613064578081fd5b833561306f81613e4b565b9250602084013561307f81613e4b565b929592945050506040919091013590565b6000806000604084860312156130a4578283fd5b83356130af81613e4b565b9250602084013567ffffffffffffffff8111156130ca578283fd5b6130d686828701612f2b565b9497909650939450505050565b600080600080600060a086880312156130fa578081fd5b6131048787612f14565b9450602086013567ffffffffffffffff81111561311f578182fd5b61312b88828901612f72565b94505060408601359250606086013591506131498760808801612ff0565b90509295509295909350565b60008060408385031215613167578182fd5b6131718484612f14565b946020939093013593505050565b600060208284031215613190578081fd5b5035919050565b600080604083850312156131a9578182fd5b8235915060208301356131bb81613e4b565b809150509250929050565b600080604083850312156131d8578182fd5b50508035926020909101359150565b600080602083850312156131f9578182fd5b823567ffffffffffffffff81111561320f578283fd5b61321b85828601612f2b565b90969095509350505050565b6000806000806000806080878903121561323f578081fd5b863567ffffffffffffffff80821115613256578283fd5b6132628a838b01612f2b565b9098509650602089013591508082111561327a578283fd5b5061328789828a01612f2b565b909550935050604087013560ff811681146132a0578182fd5b915060608701356132b081613e4b565b809150509295509295509295565b600080600080600060a086880312156132d5578283fd5b853567ffffffffffffffff8111156132eb578384fd5b6132f788828901612f72565b9550506020860135935060408601356001600160f01b03198116811461331b578384fd5b925061332a8760608801612ff0565b949793965091946080013592915050565b60008060008060808587031215613350578182fd5b843567ffffffffffffffff80821115613367578384fd5b61337388838901612f72565b95506020870135915080821115613388578384fd5b5061339587828801612f72565b9350506040850135915060608501356133ad81613e4b565b939692955090935050565b600081518084526133d0816020860160208601613e1f565b601f01601f19169290920160200192915050565b600082516133f6818460208701613e1f565b9190910192915050565b60008351613412818460208801613e1f565b60609390931b6bffffffffffffffffffffffff19169190920190815260140192915050565b60008251613449818460208701613e1f565b7f3a20494e53554646494349454e545f5045524d495353494f4e53000000000000920191825250601a01919050565b60006410da1a5b1960da1b8252828460058401379101600501908152919050565b61190160f01b81526002810192909252602282015260420190565b6d4445504f5349544f525f524f4c4560901b8152600e0190565b6001600160a01b0391909116815260200190565b6001600160a01b0384811682528316602082015260606040820181905260009061153c908301846133b8565b901515815260200190565b90815260200190565b948552602085019390935260408401919091526001600160a01b03166060830152608082015260a00190565b93845260208401929092526001600160a01b03166040830152606082015260800190565b93845260ff9290921660208401526040830152606082015260800190565b600060208252611dd060208301846133b8565b60006101208083526135b78184018b6133b8565b91505060018060a01b03881660208301528651604083015261ffff60f01b602088015116606083015260ff6040880151166080830152600386106135f757fe5b8560a08301528460c08301528360e08301528261010083015298975050505050505050565b60006020808301818452828554600180821660008114613643576001811461366157613699565b60028304607f16855260ff1983166040890152606088019350613699565b600283048086526136718a613e13565b885b8281101561368f5781548b820160400152908401908801613673565b8a01604001955050505b5091979650505050505050565b60208082526022908201527f456e756d657261626c655365743a20696e646578206f7574206f6620626f756e604082015261647360f01b606082015260800190565b6020808252601a908201527f526f756e6420697320696e206469737075746520737461747573000000000000604082015260600190565b60208082526023908201527f45524332303a207472616e7366657220746f20746865207a65726f206164647260408201526265737360e81b606082015260800190565b6020808252602f908201527f416363657373436f6e74726f6c3a2073656e646572206d75737420626520616e60408201526e0818591b5a5b881d1bc819dc985b9d608a1b606082015260800190565b60208082526017908201527f526f756e64206973206e6f7420696e2064697370757465000000000000000000604082015260600190565b60208082526012908201527143616e6e6f74207374616b652030204d4f4560701b604082015260600190565b60208082526022908201527f45524332303a20617070726f766520746f20746865207a65726f206164647265604082015261737360f01b606082015260800190565b6020808252601c908201527f46756e6374696f6e2063616c6c206e6f74207375636365737366756c00000000604082015260600190565b6020808252601b908201527f536166654d6174683a206164646974696f6e206f766572666c6f770000000000604082015260600190565b6020808252601e908201527f536166654d6174683a207375627472616374696f6e206f766572666c6f770000604082015260600190565b60208082526018908201527f446973707574652077696e646f77206973203120686f75720000000000000000604082015260600190565b60208082526010908201526f125b9d985b1a59081c9bdd5b99081a5960821b604082015260600190565b6020808252601a908201527f536166654d6174683a206469766973696f6e206279207a65726f000000000000604082015260600190565b60208082526030908201527f416363657373436f6e74726f6c3a2073656e646572206d75737420626520616e60408201526f2061646d696e20746f207265766f6b6560801b606082015260800190565b60208082526025908201527f4e61746976654d6574615472616e73616374696f6e3a20494e56414c49445f5360408201526424a3a722a960d91b606082015260800190565b6020808252601a908201527f4d696e696d756d206475726174696f6e206973203120686f7572000000000000604082015260600190565b6020808252601d908201527f526f756e64206973206e6f7420696e206e6f726d616c20737461747573000000604082015260600190565b6020808252601a908201527f446973707574652077696e646f77206973206e6f74206f766572000000000000604082015260600190565b60208082526021908201527f536166654d6174683a206d756c7469706c69636174696f6e206f766572666c6f6040820152607760f81b606082015260800190565b60208082526021908201527f5369676e657220616e64207369676e617475726520646f206e6f74206d6174636040820152600d60fb1b606082015260800190565b60208082526021908201527f45524332303a206275726e2066726f6d20746865207a65726f206164647265736040820152607360f81b606082015260800190565b6020808252600a908201526911195c1c9958d85d195960b21b604082015260600190565b60208082526025908201527f45524332303a207472616e736665722066726f6d20746865207a65726f206164604082015264647265737360d81b606082015260800190565b6020808252600e908201526d185b1c9958591e481a5b9a5d195960921b604082015260600190565b60208082526024908201527f45524332303a20617070726f76652066726f6d20746865207a65726f206164646040820152637265737360e01b606082015260800190565b6020808252601b908201527f4c657373207468656e204d494e2061747461636b20616d6f756e740000000000604082015260600190565b6020808252601c908201527f4c657373207468656e204d494e20646566656e736520616d6f756e7400000000604082015260600190565b6020808252600d908201526c1058d8d95cdcc819195b9a5959609a1b604082015260600190565b60208082526016908201527543616e6e6f7420766f746520776974682030204d4f4560501b604082015260600190565b6020808252602f908201527f416363657373436f6e74726f6c3a2063616e206f6e6c792072656e6f756e636560408201526e103937b632b9903337b91039b2b63360891b606082015260800190565b6020808252601f908201527f45524332303a206d696e7420746f20746865207a65726f206164647265737300604082015260600190565b9384526001600160a01b039290921660208401526040830152606082015260800190565b9283526020830191909152604082015260600190565b93845260208401929092526040830152606082015260800190565b60ff91909116815260200190565b60009081526020902090565b60005b83811015613e3a578181015183820152602001613e22565b83811115611b1b5750506000910152565b6001600160a01b03811681146110b557600080fdfe45524332303a206275726e20616d6f756e7420657863656564732062616c616e63654d6574615472616e73616374696f6e2875696e74323536206e6f6e63652c616464726573732066726f6d2c62797465732066756e6374696f6e5369676e617475726529454950373132446f6d61696e28737472696e67206e616d652c737472696e672076657273696f6e2c6164647265737320766572696679696e67436f6e74726163742c627974657333322073616c742945524332303a207472616e7366657220616d6f756e7420657863656564732062616c616e636545524332303a207472616e7366657220616d6f756e74206578636565647320616c6c6f77616e636545524332303a2064656372656173656420616c6c6f77616e63652062656c6f77207a65726fa26469706673582212206805ea721555891539920eb142d1a77ad03972999465d0662a2bb0c518cc863b64736f6c63430006060033",
  "immutableReferences": {},
  "source": "// SPDX-License-Identifier: MIT\npragma solidity >=0.6.0;\npragma experimental ABIEncoderV2;\n\nimport \"./Library.sol\";\nimport \"@maticnetwork/pos-portal/contracts/child/ChildToken/UpgradeableChildERC20/UChildERC20.sol\";\n//import \"@openzeppelin/contracts-upgradeable/proxy/Initializable.sol\";\n//import \"@openzeppelin/contracts-upgradeable/token/ERC20/ERC20Upgradeable.sol\";\n//import \"@maticnetwork/pos-portal/contracts/child/ChildToken/UpgradeableChildERC20/UChildERC20Proxy.sol\";\n\n// *** IMPORTANT ***\n//\n// BEFORE DEPLOY\n// --------------\n// erase _mint() line on constructor function\n// change duration require() function on voteForAttack()\n// change duration require() function on voteForDeffense()\n// change duration require() function on unstake()\n// change duration require() function on clearRound()\n// change duration require() function on resolveAttack()\n// change duration require() function on resolveDefense()\n//\ncontract MOEToken is UChildERC20 {\n\n    //string public constant NAME = \"MOE Token\";\n    //string public constant SYMBOL = \"MOE\";\n    //uint8 public constant DECIMALS = 18;\n\n    mapping(uint256 => Lib.Onnanoco) public onnanocos;\n    mapping(uint256 => Lib.Round) public rounds;\n\n    uint256 public totalRounds;\n    uint256 public totalOnnanocos;\n\n    mapping(uint256 => Lib.Vote[]) public defenseVotes;\n    mapping(uint256 => Lib.Vote[]) public attackVotes;\n\n    mapping(address => Lib.Stake[]) public stakes;\n\n    //bytes32 public constant DEPOSITOR_ROLE = keccak256(\"DEPOSITOR_ROLE\"); // Polygon mapping\n\n    function addOnnanoco(string memory name, bytes32 hash, bytes2 hashFunction, uint8 hashSize, uint256 amount) public {\n  \n        _burn(_msgSender(), amount);\n\n        // add onnanoco base data\n        onnanocos[totalOnnanocos] = Lib.Onnanoco(name, _msgSender(), Lib.Multihash(hash, hashFunction, hashSize), Lib.Status.NORMAL, block.timestamp, 0, totalRounds);\n\n        // setup round\n        rounds[totalRounds] = Lib.Round(totalOnnanocos, amount, 0, 0);\n\n        // vote for defense\n        Lib.Vote memory vote = Lib.Vote(totalOnnanocos, _msgSender(), amount, block.timestamp);\n        defenseVotes[totalRounds].push(vote);\n\n        // increase onnanoco index\n        totalOnnanocos.add(1);\n        totalRounds.add(1);\n    }\n\n    // Get minimum attack amount\n    // id : id of the character\n    function getMinimumAttackAmount(uint256 id) public view returns (uint256 amount) {\n\n        uint256 roundId = onnanocos[id].roundId;\n        Lib.Round memory round = rounds[roundId];\n\n        uint256 minimumAmount = (round.totalDefenseAmount.add(round.totalAttackAmount).mul(2)).sub(round.totalAttackAmount.mul(3));\n\n        return minimumAmount;\n    }\n\n    // Vote for attack\n    // id: id of the character\n    // amount: defense amount\n    function voteForAttack(uint256 id, uint256 amount) public {\n\n        require(amount > 0, 'Cannot vote with 0 MOE');\n        require(onnanocos[id].status != Lib.Status.DEPRECATED, 'Deprecated');\n        \n        uint256 minimumAmount = getMinimumAttackAmount(id);\n\n        require(amount >= minimumAmount, 'Less then MIN attack amount');\n\n        _burn(_msgSender(), amount);\n\n        uint256 roundId = onnanocos[id].roundId;\n\n        // 1st attack\n        if (onnanocos[id].status == Lib.Status.NORMAL) {\n\n            Lib.Round memory round = rounds[roundId];\n\n            uint256 duration = block.timestamp.sub(round.timestamp);\n            //require(duration < 60 * 60 * 24 * 7, 'Dispute window is 7 days'); // deploy\n            require(duration < 60 * 60, 'Dispute window is 1 hour'); // dev\n\n            onnanocos[id].status = Lib.Status.IN_DISPUTE;\n        } else {\n            rounds[roundId].timestamp = block.timestamp;\n        }\n\n        attackVotes[roundId].push(Lib.Vote(id, _msgSender(), amount, block.timestamp));\n        rounds[roundId].totalAttackAmount.add(amount);\n    }\n\n    // Get minimum defense amount\n    // id : id of the character\n    function getMinimumDefenseAmount(uint256 id) public view returns (uint256 amount) {\n\n        uint256 roundId = onnanocos[id].roundId;\n        Lib.Round memory round = rounds[roundId];\n\n        uint256 minimumAmount = ((round.totalDefenseAmount.add(round.totalAttackAmount)).mul(2)).sub(round.totalDefenseAmount.mul(3));\n\n        return minimumAmount;\n    }\n\n    // Vote for defense\n    // id: id of the character\n    // amount: defense amount\n    function voteForDefense(uint256 id, uint256 amount) public {\n\n        require(amount > 0, 'Cannot vote with 0 MOE');\n        require(onnanocos[id].status == Lib.Status.IN_DISPUTE, 'Round is not in dispute');\n\n        uint256 roundId = onnanocos[id].roundId;\n        Lib.Round memory round = rounds[roundId];\n\n        uint256 minimumAmount = ((round.totalDefenseAmount.add(round.totalAttackAmount)).mul(2)).sub(round.totalDefenseAmount.mul(3));\n\n        uint256 duration = block.timestamp.sub(round.timestamp);\n\n        //require(duration > 60 * 60 * 24 * 7, 'Dispute window is 7 days'); // deploy\n        require(duration > 60 * 60 * 1, 'Dispute window is 1 hour'); // dev\n\n        require(amount >= minimumAmount, 'Less then MIN defense amount');\n        \n        _burn(_msgSender(), amount);\n        defenseVotes[roundId].push(Lib.Vote(id, _msgSender(), amount, block.timestamp));\n\n        rounds[roundId].totalDefenseAmount.add(amount);\n    }\n\n    // clearRound\n    // roundId : ID for the round\n    function clearRound(uint256 roundId) public {\n\n        Lib.Round memory round = rounds[roundId];\n        Lib.Onnanoco storage onnanoco = onnanocos[round.onnanocoId];\n\n        require(onnanoco.roundId == roundId, 'Invalid round id');\n\n        uint256 duration = block.timestamp.sub(round.timestamp);\n\n        //require(duration > 60 * 60 * 24 * 7, 'Dispute window is not over'); // deploy\n        require(duration > 60 * 60 * 1, 'Dispute window is not over'); // dev\n\n        if (round.totalAttackAmount > round.totalDefenseAmount) { // Attackers win\n            _mint(_msgSender(), round.totalAttackAmount.div(50));\n            onnanoco.status = Lib.Status.DEPRECATED;\n\n        } else if(round.totalAttackAmount < round.totalDefenseAmount) { // Attackeres lose\n            _mint(_msgSender(), round.totalDefenseAmount.div(50));\n            onnanoco.status = Lib.Status.NORMAL;\n\n            // new round\n            rounds[totalRounds] = Lib.Round(round.onnanocoId, 0, 0, 0);\n\n            Lib.Vote memory vote = defenseVotes[roundId][0];\n\n            Lib.Vote memory newVote = Lib.Vote(round.onnanocoId, vote.voter, vote.amount, block.timestamp);\n            defenseVotes[totalRounds].push(newVote);\n\n            totalRounds.add(1);\n        }\n        \n    }\n\n    function resolveAttack(uint256 roundId, uint256 voteId) public {\n\n        Lib.Vote memory vote = attackVotes[roundId][voteId];\n        Lib.Round memory round = rounds[roundId];\n\n        require(_msgSender() == vote.voter, 'Access denied');\n\n        uint256 duration = block.timestamp.sub(round.timestamp);\n\n        //require(duration > 60 * 60 * 24 * 7, 'Dispute window is 7 days'); // deploy\n        require(duration > 60 * 60 * 1, 'Dispute window is 1 hour'); // dev\n\n        uint256 totalAmount = round.totalAttackAmount.add(round.totalDefenseAmount);\n\n        if (round.totalAttackAmount > round.totalDefenseAmount) {\n            _mint(_msgSender(), totalAmount.mul(vote.amount).div(round.totalAttackAmount));\n            attackVotes[roundId][voteId].voter = address(0);\n\n        } else {\n            attackVotes[roundId][voteId].voter = address(0);\n        }\n\n    }\n\n    function resolveDefense(uint256 roundId, uint256 voteId) public {\n\n        Lib.Vote memory vote = defenseVotes[roundId][voteId];\n        Lib.Round memory round = rounds[roundId];\n\n        require(_msgSender() == vote.voter, 'Access denied');\n\n        uint256 duration = block.timestamp.sub(round.timestamp);\n\n        //require(duration > 60 * 60 * 24 * 7, 'Dispute window is 7 days'); // deploy\n        require(duration > 60 * 60 * 1, 'Dispute window is 1 hour'); // dev\n\n        uint256 totalAmount = round.totalAttackAmount.add(round.totalDefenseAmount);\n\n        if (round.totalAttackAmount < round.totalDefenseAmount && voteId > 0) {\n\n            _mint(_msgSender(), totalAmount.mul(vote.amount).div(round.totalDefenseAmount));\n            defenseVotes[roundId][voteId].voter = address(0);\n\n        } else {\n            defenseVotes[roundId][voteId].voter = address(0);\n        }\n    }\n    \n    // Stake MOE\n    function stake(uint256 id, uint256 amount) public {\n    \n        require(amount > 0, 'Cannot stake 0 MOE');\n        require(onnanocos[id].status == Lib.Status.NORMAL, 'Round is not in normal status');\n\n        _burn(_msgSender(), amount);\n\n        stakes[_msgSender()].push(Lib.Stake(id, amount, block.timestamp));\n        onnanocos[id].totalStakingAmount.add(amount);\n    }\n    \n    // Unstake MOE\n    function unstake(uint256 stakeId) public {\n\n        Lib.Stake memory stakeInfo = stakes[_msgSender()][stakeId];\n        \n        require(onnanocos[stakeInfo.id].status != Lib.Status.IN_DISPUTE, 'Round is in dispute status');\n        \n        uint256 duration = block.timestamp - stakeInfo.timestamp;\n\n        //require(duration > 60 * 60 * 24 * 100, 'Minimum duration is 100 days'); // Deploy\n        require(duration > 60 * 60 * 1, 'Minimum duration is 1 hour'); // Test\n\n        uint256 bonus = stakeInfo.amount.mul(duration).div(60 * 60 * 24 * 100 * 20);\n\n        if (onnanocos[stakeInfo.id].status == Lib.Status.DEPRECATED) {\n            bonus = 0;\n        }\n\n        _mint(_msgSender(), stakeInfo.amount.add(bonus));\n        onnanocos[stakeInfo.id].totalStakingAmount.sub(stakeInfo.amount);\n    }\n\n    function initialize(string memory name, string memory symbol, uint256 decimals, address childchangeProxy) public virtual initializer {\n    \n    }\n\n    // Test faucet\n    function mintToken(uint256 amount) public {\n        _mint(_msgSender(), amount);\n    }\n}",
  "sourcePath": "/Users/misskiwi/github/smartcontract-child/contracts/MOEToken.sol",
  "compiler": {
    "name": "solc",
    "version": "0.6.6+commit.6c089d02.Emscripten.clang"
  },
  "schemaVersion": "3.4.4",
  "updatedAt": "2022-01-23T06:22:11.259Z",
  "devdoc": {
    "methods": {
      "allowance(address,address)": {
        "details": "See {IERC20-allowance}."
      },
      "approve(address,uint256)": {
        "details": "See {IERC20-approve}.     * Requirements:     * - `spender` cannot be the zero address."
      },
      "balanceOf(address)": {
        "details": "See {IERC20-balanceOf}."
      },
      "decimals()": {
        "details": "Returns the number of decimals used to get its user representation. For example, if `decimals` equals `2`, a balance of `505` tokens should be displayed to a user as `5,05` (`505 / 10 ** 2`).     * Tokens usually opt for a value of 18, imitating the relationship between Ether and Wei. This is the value {ERC20} uses, unless {_setupDecimals} is called.     * NOTE: This information is only used for _display_ purposes: it in no way affects any of the arithmetic of the contract, including {IERC20-balanceOf} and {IERC20-transfer}."
      },
      "decreaseAllowance(address,uint256)": {
        "details": "Atomically decreases the allowance granted to `spender` by the caller.     * This is an alternative to {approve} that can be used as a mitigation for problems described in {IERC20-approve}.     * Emits an {Approval} event indicating the updated allowance.     * Requirements:     * - `spender` cannot be the zero address. - `spender` must have allowance for the caller of at least `subtractedValue`."
      },
      "deposit(address,bytes)": {
        "details": "Should be callable only by ChildChainManager Should handle deposit by minting the required amount for user Make sure minting is done only by this function",
        "params": {
          "depositData": "abi encoded amount",
          "user": "user address for whom deposit is being done"
        }
      },
      "getRoleAdmin(bytes32)": {
        "details": "Returns the admin role that controls `role`. See {grantRole} and {revokeRole}.     * To change a role's admin, use {_setRoleAdmin}."
      },
      "getRoleMember(bytes32,uint256)": {
        "details": "Returns one of the accounts that have `role`. `index` must be a value between 0 and {getRoleMemberCount}, non-inclusive.     * Role bearers are not sorted in any particular way, and their ordering may change at any point.     * WARNING: When using {getRoleMember} and {getRoleMemberCount}, make sure you perform all queries on the same block. See the following https://forum.openzeppelin.com/t/iterating-over-elements-on-enumerableset-in-openzeppelin-contracts/2296[forum post] for more information."
      },
      "getRoleMemberCount(bytes32)": {
        "details": "Returns the number of accounts that have `role`. Can be used together with {getRoleMember} to enumerate all bearers of a role."
      },
      "grantRole(bytes32,address)": {
        "details": "Grants `role` to `account`.     * If `account` had not been already granted `role`, emits a {RoleGranted} event.     * Requirements:     * - the caller must have ``role``'s admin role."
      },
      "hasRole(bytes32,address)": {
        "details": "Returns `true` if `account` has been granted `role`."
      },
      "increaseAllowance(address,uint256)": {
        "details": "Atomically increases the allowance granted to `spender` by the caller.     * This is an alternative to {approve} that can be used as a mitigation for problems described in {IERC20-approve}.     * Emits an {Approval} event indicating the updated allowance.     * Requirements:     * - `spender` cannot be the zero address."
      },
      "initialize(string,string,uint8,address)": {
        "details": "meant to be called once immediately after deployment"
      },
      "name()": {
        "details": "Returns the name of the token."
      },
      "renounceRole(bytes32,address)": {
        "details": "Revokes `role` from the calling account.     * Roles are often managed via {grantRole} and {revokeRole}: this function's purpose is to provide a mechanism for accounts to lose their privileges if they are compromised (such as when a trusted device is misplaced).     * If the calling account had been granted `role`, emits a {RoleRevoked} event.     * Requirements:     * - the caller must be `account`."
      },
      "revokeRole(bytes32,address)": {
        "details": "Revokes `role` from `account`.     * If `account` had been granted `role`, emits a {RoleRevoked} event.     * Requirements:     * - the caller must have ``role``'s admin role."
      },
      "symbol()": {
        "details": "Returns the symbol of the token, usually a shorter version of the name."
      },
      "totalSupply()": {
        "details": "See {IERC20-totalSupply}."
      },
      "transfer(address,uint256)": {
        "details": "See {IERC20-transfer}.     * Requirements:     * - `recipient` cannot be the zero address. - the caller must have a balance of at least `amount`."
      },
      "transferFrom(address,address,uint256)": {
        "details": "See {IERC20-transferFrom}.     * Emits an {Approval} event indicating the updated allowance. This is not required by the EIP. See the note at the beginning of {ERC20};     * Requirements: - `sender` and `recipient` cannot be the zero address. - `sender` must have a balance of at least `amount`. - the caller must have allowance for ``sender``'s tokens of at least `amount`."
      },
      "withdraw(uint256)": {
        "details": "Should burn user's tokens. This transaction will be verified when exiting on root chain",
        "params": {
          "amount": "amount of tokens to withdraw"
        }
      }
    }
  },
  "userdoc": {
    "methods": {
      "deposit(address,bytes)": {
        "notice": "called when token is deposited on root chain"
      },
      "initialize(string,string,uint8,address)": {
        "notice": "Initialize the contract after it has been proxified"
      },
      "withdraw(uint256)": {
        "notice": "called when user wants to withdraw tokens back to root chain"
      }
    }
  }
}