{
  "contractName": "MOEToken",
  "abi": [
    {
      "anonymous": false,
      "inputs": [
        {
          "indexed": true,
          "internalType": "address",
          "name": "owner",
          "type": "address"
        },
        {
          "indexed": true,
          "internalType": "address",
          "name": "spender",
          "type": "address"
        },
        {
          "indexed": false,
          "internalType": "uint256",
          "name": "value",
          "type": "uint256"
        }
      ],
      "name": "Approval",
      "type": "event"
    },
    {
      "anonymous": false,
      "inputs": [
        {
          "indexed": true,
          "internalType": "bytes32",
          "name": "role",
          "type": "bytes32"
        },
        {
          "indexed": true,
          "internalType": "bytes32",
          "name": "previousAdminRole",
          "type": "bytes32"
        },
        {
          "indexed": true,
          "internalType": "bytes32",
          "name": "newAdminRole",
          "type": "bytes32"
        }
      ],
      "name": "RoleAdminChanged",
      "type": "event"
    },
    {
      "anonymous": false,
      "inputs": [
        {
          "indexed": true,
          "internalType": "bytes32",
          "name": "role",
          "type": "bytes32"
        },
        {
          "indexed": true,
          "internalType": "address",
          "name": "account",
          "type": "address"
        },
        {
          "indexed": true,
          "internalType": "address",
          "name": "sender",
          "type": "address"
        }
      ],
      "name": "RoleGranted",
      "type": "event"
    },
    {
      "anonymous": false,
      "inputs": [
        {
          "indexed": true,
          "internalType": "bytes32",
          "name": "role",
          "type": "bytes32"
        },
        {
          "indexed": true,
          "internalType": "address",
          "name": "account",
          "type": "address"
        },
        {
          "indexed": true,
          "internalType": "address",
          "name": "sender",
          "type": "address"
        }
      ],
      "name": "RoleRevoked",
      "type": "event"
    },
    {
      "anonymous": false,
      "inputs": [
        {
          "indexed": true,
          "internalType": "address",
          "name": "from",
          "type": "address"
        },
        {
          "indexed": true,
          "internalType": "address",
          "name": "to",
          "type": "address"
        },
        {
          "indexed": false,
          "internalType": "uint256",
          "name": "value",
          "type": "uint256"
        }
      ],
      "name": "Transfer",
      "type": "event"
    },
    {
      "inputs": [],
      "name": "DEFAULT_ADMIN_ROLE",
      "outputs": [
        {
          "internalType": "bytes32",
          "name": "",
          "type": "bytes32"
        }
      ],
      "stateMutability": "view",
      "type": "function"
    },
    {
      "inputs": [],
      "name": "DEPOSITOR_ROLE",
      "outputs": [
        {
          "internalType": "bytes32",
          "name": "",
          "type": "bytes32"
        }
      ],
      "stateMutability": "view",
      "type": "function"
    },
    {
      "inputs": [
        {
          "internalType": "address",
          "name": "owner",
          "type": "address"
        },
        {
          "internalType": "address",
          "name": "spender",
          "type": "address"
        }
      ],
      "name": "allowance",
      "outputs": [
        {
          "internalType": "uint256",
          "name": "",
          "type": "uint256"
        }
      ],
      "stateMutability": "view",
      "type": "function"
    },
    {
      "inputs": [
        {
          "internalType": "address",
          "name": "spender",
          "type": "address"
        },
        {
          "internalType": "uint256",
          "name": "amount",
          "type": "uint256"
        }
      ],
      "name": "approve",
      "outputs": [
        {
          "internalType": "bool",
          "name": "",
          "type": "bool"
        }
      ],
      "stateMutability": "nonpayable",
      "type": "function"
    },
    {
      "inputs": [
        {
          "internalType": "uint256",
          "name": "",
          "type": "uint256"
        },
        {
          "internalType": "uint256",
          "name": "",
          "type": "uint256"
        }
      ],
      "name": "attackVotes",
      "outputs": [
        {
          "internalType": "uint256",
          "name": "id",
          "type": "uint256"
        },
        {
          "internalType": "address",
          "name": "voter",
          "type": "address"
        },
        {
          "internalType": "uint256",
          "name": "amount",
          "type": "uint256"
        },
        {
          "internalType": "uint256",
          "name": "timestamp",
          "type": "uint256"
        }
      ],
      "stateMutability": "view",
      "type": "function"
    },
    {
      "inputs": [
        {
          "internalType": "address",
          "name": "account",
          "type": "address"
        }
      ],
      "name": "balanceOf",
      "outputs": [
        {
          "internalType": "uint256",
          "name": "",
          "type": "uint256"
        }
      ],
      "stateMutability": "view",
      "type": "function"
    },
    {
      "inputs": [],
      "name": "decimals",
      "outputs": [
        {
          "internalType": "uint8",
          "name": "",
          "type": "uint8"
        }
      ],
      "stateMutability": "view",
      "type": "function"
    },
    {
      "inputs": [
        {
          "internalType": "address",
          "name": "spender",
          "type": "address"
        },
        {
          "internalType": "uint256",
          "name": "subtractedValue",
          "type": "uint256"
        }
      ],
      "name": "decreaseAllowance",
      "outputs": [
        {
          "internalType": "bool",
          "name": "",
          "type": "bool"
        }
      ],
      "stateMutability": "nonpayable",
      "type": "function"
    },
    {
      "inputs": [
        {
          "internalType": "uint256",
          "name": "",
          "type": "uint256"
        },
        {
          "internalType": "uint256",
          "name": "",
          "type": "uint256"
        }
      ],
      "name": "defenseVotes",
      "outputs": [
        {
          "internalType": "uint256",
          "name": "id",
          "type": "uint256"
        },
        {
          "internalType": "address",
          "name": "voter",
          "type": "address"
        },
        {
          "internalType": "uint256",
          "name": "amount",
          "type": "uint256"
        },
        {
          "internalType": "uint256",
          "name": "timestamp",
          "type": "uint256"
        }
      ],
      "stateMutability": "view",
      "type": "function"
    },
    {
      "inputs": [
        {
          "internalType": "bytes32",
          "name": "role",
          "type": "bytes32"
        }
      ],
      "name": "getRoleAdmin",
      "outputs": [
        {
          "internalType": "bytes32",
          "name": "",
          "type": "bytes32"
        }
      ],
      "stateMutability": "view",
      "type": "function"
    },
    {
      "inputs": [
        {
          "internalType": "bytes32",
          "name": "role",
          "type": "bytes32"
        },
        {
          "internalType": "uint256",
          "name": "index",
          "type": "uint256"
        }
      ],
      "name": "getRoleMember",
      "outputs": [
        {
          "internalType": "address",
          "name": "",
          "type": "address"
        }
      ],
      "stateMutability": "view",
      "type": "function"
    },
    {
      "inputs": [
        {
          "internalType": "bytes32",
          "name": "role",
          "type": "bytes32"
        }
      ],
      "name": "getRoleMemberCount",
      "outputs": [
        {
          "internalType": "uint256",
          "name": "",
          "type": "uint256"
        }
      ],
      "stateMutability": "view",
      "type": "function"
    },
    {
      "inputs": [
        {
          "internalType": "bytes32",
          "name": "role",
          "type": "bytes32"
        },
        {
          "internalType": "address",
          "name": "account",
          "type": "address"
        }
      ],
      "name": "grantRole",
      "outputs": [],
      "stateMutability": "nonpayable",
      "type": "function"
    },
    {
      "inputs": [
        {
          "internalType": "bytes32",
          "name": "role",
          "type": "bytes32"
        },
        {
          "internalType": "address",
          "name": "account",
          "type": "address"
        }
      ],
      "name": "hasRole",
      "outputs": [
        {
          "internalType": "bool",
          "name": "",
          "type": "bool"
        }
      ],
      "stateMutability": "view",
      "type": "function"
    },
    {
      "inputs": [
        {
          "internalType": "address",
          "name": "spender",
          "type": "address"
        },
        {
          "internalType": "uint256",
          "name": "addedValue",
          "type": "uint256"
        }
      ],
      "name": "increaseAllowance",
      "outputs": [
        {
          "internalType": "bool",
          "name": "",
          "type": "bool"
        }
      ],
      "stateMutability": "nonpayable",
      "type": "function"
    },
    {
      "inputs": [],
      "name": "name",
      "outputs": [
        {
          "internalType": "string",
          "name": "",
          "type": "string"
        }
      ],
      "stateMutability": "view",
      "type": "function"
    },
    {
      "inputs": [
        {
          "internalType": "uint256",
          "name": "",
          "type": "uint256"
        }
      ],
      "name": "onnanocos",
      "outputs": [
        {
          "internalType": "string",
          "name": "name",
          "type": "string"
        },
        {
          "internalType": "address",
          "name": "owner",
          "type": "address"
        },
        {
          "components": [
            {
              "internalType": "bytes32",
              "name": "hash",
              "type": "bytes32"
            },
            {
              "internalType": "bytes2",
              "name": "hashFunction",
              "type": "bytes2"
            },
            {
              "internalType": "uint8",
              "name": "size",
              "type": "uint8"
            }
          ],
          "internalType": "struct Lib.Multihash",
          "name": "multihash",
          "type": "tuple"
        },
        {
          "internalType": "enum Lib.Status",
          "name": "status",
          "type": "uint8"
        },
        {
          "internalType": "uint256",
          "name": "timestamp",
          "type": "uint256"
        },
        {
          "internalType": "uint256",
          "name": "totalStakingAmount",
          "type": "uint256"
        },
        {
          "internalType": "uint256",
          "name": "roundId",
          "type": "uint256"
        }
      ],
      "stateMutability": "view",
      "type": "function"
    },
    {
      "inputs": [
        {
          "internalType": "bytes32",
          "name": "role",
          "type": "bytes32"
        },
        {
          "internalType": "address",
          "name": "account",
          "type": "address"
        }
      ],
      "name": "renounceRole",
      "outputs": [],
      "stateMutability": "nonpayable",
      "type": "function"
    },
    {
      "inputs": [
        {
          "internalType": "bytes32",
          "name": "role",
          "type": "bytes32"
        },
        {
          "internalType": "address",
          "name": "account",
          "type": "address"
        }
      ],
      "name": "revokeRole",
      "outputs": [],
      "stateMutability": "nonpayable",
      "type": "function"
    },
    {
      "inputs": [
        {
          "internalType": "uint256",
          "name": "",
          "type": "uint256"
        }
      ],
      "name": "rounds",
      "outputs": [
        {
          "internalType": "uint256",
          "name": "onnanocoId",
          "type": "uint256"
        },
        {
          "internalType": "uint256",
          "name": "totalDefenseAmount",
          "type": "uint256"
        },
        {
          "internalType": "uint256",
          "name": "totalAttackAmount",
          "type": "uint256"
        },
        {
          "internalType": "uint256",
          "name": "timestamp",
          "type": "uint256"
        }
      ],
      "stateMutability": "view",
      "type": "function"
    },
    {
      "inputs": [
        {
          "internalType": "address",
          "name": "",
          "type": "address"
        },
        {
          "internalType": "uint256",
          "name": "",
          "type": "uint256"
        }
      ],
      "name": "stakes",
      "outputs": [
        {
          "internalType": "uint256",
          "name": "id",
          "type": "uint256"
        },
        {
          "internalType": "uint256",
          "name": "amount",
          "type": "uint256"
        },
        {
          "internalType": "uint256",
          "name": "timestamp",
          "type": "uint256"
        }
      ],
      "stateMutability": "view",
      "type": "function"
    },
    {
      "inputs": [
        {
          "internalType": "bytes4",
          "name": "interfaceId",
          "type": "bytes4"
        }
      ],
      "name": "supportsInterface",
      "outputs": [
        {
          "internalType": "bool",
          "name": "",
          "type": "bool"
        }
      ],
      "stateMutability": "view",
      "type": "function"
    },
    {
      "inputs": [],
      "name": "symbol",
      "outputs": [
        {
          "internalType": "string",
          "name": "",
          "type": "string"
        }
      ],
      "stateMutability": "view",
      "type": "function"
    },
    {
      "inputs": [],
      "name": "totalOnnanocos",
      "outputs": [
        {
          "internalType": "uint256",
          "name": "",
          "type": "uint256"
        }
      ],
      "stateMutability": "view",
      "type": "function"
    },
    {
      "inputs": [],
      "name": "totalRounds",
      "outputs": [
        {
          "internalType": "uint256",
          "name": "",
          "type": "uint256"
        }
      ],
      "stateMutability": "view",
      "type": "function"
    },
    {
      "inputs": [],
      "name": "totalSupply",
      "outputs": [
        {
          "internalType": "uint256",
          "name": "",
          "type": "uint256"
        }
      ],
      "stateMutability": "view",
      "type": "function"
    },
    {
      "inputs": [
        {
          "internalType": "address",
          "name": "recipient",
          "type": "address"
        },
        {
          "internalType": "uint256",
          "name": "amount",
          "type": "uint256"
        }
      ],
      "name": "transfer",
      "outputs": [
        {
          "internalType": "bool",
          "name": "",
          "type": "bool"
        }
      ],
      "stateMutability": "nonpayable",
      "type": "function"
    },
    {
      "inputs": [
        {
          "internalType": "address",
          "name": "sender",
          "type": "address"
        },
        {
          "internalType": "address",
          "name": "recipient",
          "type": "address"
        },
        {
          "internalType": "uint256",
          "name": "amount",
          "type": "uint256"
        }
      ],
      "name": "transferFrom",
      "outputs": [
        {
          "internalType": "bool",
          "name": "",
          "type": "bool"
        }
      ],
      "stateMutability": "nonpayable",
      "type": "function"
    },
    {
      "inputs": [
        {
          "internalType": "string",
          "name": "name",
          "type": "string"
        },
        {
          "internalType": "bytes32",
          "name": "hash",
          "type": "bytes32"
        },
        {
          "internalType": "bytes2",
          "name": "hashFunction",
          "type": "bytes2"
        },
        {
          "internalType": "uint8",
          "name": "hashSize",
          "type": "uint8"
        },
        {
          "internalType": "uint256",
          "name": "amount",
          "type": "uint256"
        }
      ],
      "name": "addOnnanoco",
      "outputs": [],
      "stateMutability": "nonpayable",
      "type": "function"
    },
    {
      "inputs": [
        {
          "internalType": "uint256",
          "name": "id",
          "type": "uint256"
        }
      ],
      "name": "getMinimumAttackAmount",
      "outputs": [
        {
          "internalType": "uint256",
          "name": "amount",
          "type": "uint256"
        }
      ],
      "stateMutability": "view",
      "type": "function"
    },
    {
      "inputs": [
        {
          "internalType": "uint256",
          "name": "id",
          "type": "uint256"
        },
        {
          "internalType": "uint256",
          "name": "amount",
          "type": "uint256"
        }
      ],
      "name": "voteForAttack",
      "outputs": [],
      "stateMutability": "nonpayable",
      "type": "function"
    },
    {
      "inputs": [
        {
          "internalType": "uint256",
          "name": "id",
          "type": "uint256"
        }
      ],
      "name": "getMinimumDefenseAmount",
      "outputs": [
        {
          "internalType": "uint256",
          "name": "amount",
          "type": "uint256"
        }
      ],
      "stateMutability": "view",
      "type": "function"
    },
    {
      "inputs": [
        {
          "internalType": "uint256",
          "name": "id",
          "type": "uint256"
        },
        {
          "internalType": "uint256",
          "name": "amount",
          "type": "uint256"
        }
      ],
      "name": "voteForDefense",
      "outputs": [],
      "stateMutability": "nonpayable",
      "type": "function"
    },
    {
      "inputs": [
        {
          "internalType": "uint256",
          "name": "roundId",
          "type": "uint256"
        }
      ],
      "name": "clearRound",
      "outputs": [],
      "stateMutability": "nonpayable",
      "type": "function"
    },
    {
      "inputs": [
        {
          "internalType": "uint256",
          "name": "roundId",
          "type": "uint256"
        },
        {
          "internalType": "uint256",
          "name": "voteId",
          "type": "uint256"
        }
      ],
      "name": "resolveAttack",
      "outputs": [],
      "stateMutability": "nonpayable",
      "type": "function"
    },
    {
      "inputs": [
        {
          "internalType": "uint256",
          "name": "roundId",
          "type": "uint256"
        },
        {
          "internalType": "uint256",
          "name": "voteId",
          "type": "uint256"
        }
      ],
      "name": "resolveDefense",
      "outputs": [],
      "stateMutability": "nonpayable",
      "type": "function"
    },
    {
      "inputs": [
        {
          "internalType": "uint256",
          "name": "id",
          "type": "uint256"
        },
        {
          "internalType": "uint256",
          "name": "amount",
          "type": "uint256"
        }
      ],
      "name": "stake",
      "outputs": [],
      "stateMutability": "nonpayable",
      "type": "function"
    },
    {
      "inputs": [
        {
          "internalType": "uint256",
          "name": "stakeId",
          "type": "uint256"
        }
      ],
      "name": "unstake",
      "outputs": [],
      "stateMutability": "nonpayable",
      "type": "function"
    },
    {
      "inputs": [
        {
          "internalType": "address",
          "name": "user",
          "type": "address"
        },
        {
          "internalType": "bytes",
          "name": "depositData",
          "type": "bytes"
        }
      ],
      "name": "deposit",
      "outputs": [],
      "stateMutability": "nonpayable",
      "type": "function"
    },
    {
      "inputs": [
        {
          "internalType": "uint256",
          "name": "amount",
          "type": "uint256"
        }
      ],
      "name": "withdraw",
      "outputs": [],
      "stateMutability": "nonpayable",
      "type": "function"
    },
    {
      "inputs": [
        {
          "internalType": "string",
          "name": "name",
          "type": "string"
        },
        {
          "internalType": "string",
          "name": "symbol",
          "type": "string"
        },
        {
          "internalType": "address",
          "name": "childchangeProxy",
          "type": "address"
        }
      ],
      "name": "initialize",
      "outputs": [],
      "stateMutability": "nonpayable",
      "type": "function"
    }
  ],
  "bytecode": "0x608060405234801561001057600080fd5b5061384d806100206000396000f3fe608060405234801561001057600080fd5b50600436106102d35760003560e01c80637797d79f11610186578063a217fddf116100e3578063ca15c87311610097578063d547741f11610071578063d547741f146106a8578063dd62ed3e146106bb578063fd75061f146106f4576102d3565b8063ca15c8731461066f578063cf2c52cb14610682578063d50c2c5014610695576102d3565b8063a457c2d7116100c8578063a457c2d714610636578063a9059cbb14610649578063b4d039281461065c576102d3565b8063a217fddf14610607578063a3b0b5a31461060f576102d3565b80638c65c81f1161013a57806391d148541161011f57806391d148541461058b578063946e94c4146105c457806395d89b41146105ff576102d3565b80638c65c81f1461050b5780639010d07c14610560576102d3565b806381a15af41161016b57806381a15af4146104dc578063868b029d146104ef5780638a56829914610502576102d3565b80637797d79f146104b65780637b0472f0146104c9576102d3565b80632e17de781161023457806336568abe116101e8578063584b62a1116101cd578063584b62a11461044c5780636ad6c0351461047a57806370a082311461048d576102d3565b806336568abe146104265780633950935114610439576102d3565b80632f2ff15d116102195780632f2ff15d146103f1578063313ce5671461040457806335097ce314610413576102d3565b80632e17de78146103cb5780632e1a7d4d146103de576102d3565b80630fa214c91161028b5780632042f1c7116102705780632042f1c71461036f57806323b872dd14610395578063248a9ca3146103a8576102d3565b80630fa214c91461035457806318160ddd14610367576102d3565b8063077f224a116102bc578063077f224a14610315578063095ea7b31461032a5780630c6cc4a31461033d576102d3565b806301ffc9a7146102d857806306fdde0314610300575b600080fd5b6102eb6102e636600461342f565b610707565b60405190151581526020015b60405180910390f35b610308610765565b6040516102f79190613628565b61032861032336600461350a565b6107f7565b005b6102eb6103383660046133ab565b610917565b61034660fe5481565b6040519081526020016102f7565b61032861036236600461340e565b61092e565b60cb54610346565b61038261037d3660046133d4565b610c10565b6040516102f7979695949392919061363b565b6102eb6103a33660046132f2565b610d2e565b6103466103b63660046133d4565b60009081526065602052604090206001015490565b6103286103d93660046133d4565b610ded565b6103286103ec3660046133d4565b610ff5565b6103286103ff3660046133ec565b611003565b604051601281526020016102f7565b61032861042136600461340e565b61102f565b6103286104343660046133ec565b611349565b6102eb6104473660046133ab565b6113d5565b61045f61045a3660046133ab565b611411565b604080519384526020840192909252908201526060016102f7565b6103466104883660046133d4565b611454565b61034661049b3660046132a6565b6001600160a01b0316600090815260c9602052604090205490565b6103286104c436600461340e565b6114e2565b6103286104d736600461340e565b61178a565b6103286104ea3660046133d4565b6118e2565b6103286104fd36600461346f565b611c18565b61034660fd5481565b6105406105193660046133d4565b60fc6020526000908152604090208054600182015460028301546003909301549192909184565b6040805194855260208501939093529183015260608201526080016102f7565b61057361056e36600461340e565b611ea4565b6040516001600160a01b0390911681526020016102f7565b6102eb6105993660046133ec565b60009182526065602090815260408084206001600160a01b0393909316845291905290205460ff1690565b6105d76105d236600461340e565b611ec3565b604080519485526001600160a01b0390931660208501529183015260608201526080016102f7565b610308611f13565b610346600081565b6103467f8f4f2da22e8ac8f11e15f9fc141cddbb5deea8800186560abb6e68c5496619a981565b6102eb6106443660046133ab565b611f22565b6102eb6106573660046133ab565b611fd3565b61034661066a3660046133d4565b611fe0565b61034661067d3660046133d4565b61203b565b61032861069036600461332d565b612052565b6105d76106a336600461340e565b6120e2565b6103286106b63660046133ec565b6120fe565b6103466106c93660046132c0565b6001600160a01b03918216600090815260ca6020908152604080832093909416825291909152205490565b61032861070236600461340e565b612124565b60007fffffffff0000000000000000000000000000000000000000000000000000000082167f5a05180f00000000000000000000000000000000000000000000000000000000148061075d575061075d82612342565b90505b919050565b606060cc805461077490613795565b80601f01602080910402602001604051908101604052809291908181526020018280546107a090613795565b80156107ed5780601f106107c2576101008083540402835291602001916107ed565b820191906000526020600020905b8154815290600101906020018083116107d057829003601f168201915b5050505050905090565b600054610100900460ff166108125760005460ff1615610816565b303b155b61088d5760405162461bcd60e51b815260206004820152602e60248201527f496e697469616c697a61626c653a20636f6e747261637420697320616c72656160448201527f647920696e697469616c697a656400000000000000000000000000000000000060648201526084015b60405180910390fd5b600054610100900460ff161580156108b8576000805460ff1961ff0019909116610100171660011790555b6108c284846123d9565b6108ec7f8f4f2da22e8ac8f11e15f9fc141cddbb5deea8800186560abb6e68c5496619a983612456565b6108ff3368056bc75e2d63100000612460565b8015610911576000805461ff00191690555b50505050565b6000610924338484612540565b5060015b92915050565b6000811161097e5760405162461bcd60e51b815260206004820152601660248201527f43616e6e6f7420766f746520776974682030204d4f45000000000000000000006044820152606401610884565b6001600083815260fb602052604090206004015460ff1660028111156109b457634e487b7160e01b600052602160045260246000fd5b14610a015760405162461bcd60e51b815260206004820152601760248201527f526f756e64206973206e6f7420696e20646973707574650000000000000000006044820152606401610884565b600082815260fb602090815260408083206007015480845260fc83528184208251608081018452815481526001820154948101859052600282015493810193909352600390810154606084015290939192610a5b9161371c565b82604001518360200151610a6f91906136e4565b610a7a90600261371c565b610a84919061373b565b90506000826060015142610a98919061373b565b9050610e108111610aeb5760405162461bcd60e51b815260206004820152601860248201527f446973707574652077696e646f77206973203120686f757200000000000000006044820152606401610884565b81851015610b3b5760405162461bcd60e51b815260206004820152601c60248201527f4c657373207468656e204d494e20646566656e736520616d6f756e74000000006044820152606401610884565b610b453386612698565b60ff60008581526020019081526020016000206040518060800160405280888152602001610b703390565b6001600160a01b03908116825260208083018a9052426040938401528454600180820187556000968752828720865160049093020191825585830151828201805473ffffffffffffffffffffffffffffffffffffffff1916919095161790935584840151600282015560609094015160039094019390935587845260fc9092528220018054879290610c039084906136e4565b9091555050505050505050565b60fb60205260009081526040902080548190610c2b90613795565b80601f0160208091040260200160405190810160405280929190818152602001828054610c5790613795565b8015610ca45780601f10610c7957610100808354040283529160200191610ca4565b820191906000526020600020905b815481529060010190602001808311610c8757829003601f168201915b5050505060018301546040805160608101825260028601548152600386015460f081901b7fffff00000000000000000000000000000000000000000000000000000000000016602083015262010000900460ff9081169282019290925260048601546005870154600688015460079098015496976001600160a01b03909516969295509216929087565b6000610d3b84848461281d565b6001600160a01b038416600090815260ca6020908152604080832033845290915290205482811015610dd55760405162461bcd60e51b815260206004820152602860248201527f45524332303a207472616e7366657220616d6f756e742065786365656473206160448201527f6c6c6f77616e63650000000000000000000000000000000000000000000000006064820152608401610884565b610de28533858403612540565b506001949350505050565b33600090815261010160205260408120805483908110610e1d57634e487b7160e01b600052603260045260246000fd5b60009182526020918290206040805160608101825260039093029091018054835260018082015494840194909452600201549082015291508151600090815260fb602052604090206004015460ff166002811115610e8b57634e487b7160e01b600052602160045260246000fd5b1415610ed95760405162461bcd60e51b815260206004820152601a60248201527f526f756e6420697320696e2064697370757465207374617475730000000000006044820152606401610884565b6000816040015142610eeb919061373b565b9050610e108111610f3e5760405162461bcd60e51b815260206004820152601a60248201527f4d696e696d756d206475726174696f6e206973203120686f75720000000000006044820152606401610884565b6000630a4cb800828460200151610f55919061371c565b610f5f91906136fc565b905060028351600090815260fb602052604090206004015460ff166002811115610f9957634e487b7160e01b600052602160045260246000fd5b1415610fa3575060005b610fbc33828560200151610fb791906136e4565b612460565b826020015160fb6000856000015181526020019081526020016000206006016000828254610fea919061373b565b909155505050505050565b611000335b82612698565b50565b60008281526065602052604090206001015461102081335b612a34565b61102a8383612ab4565b505050565b6000811161107f5760405162461bcd60e51b815260206004820152601660248201527f43616e6e6f7420766f746520776974682030204d4f45000000000000000000006044820152606401610884565b6002600083815260fb602052604090206004015460ff1660028111156110b557634e487b7160e01b600052602160045260246000fd5b14156111035760405162461bcd60e51b815260206004820152600a60248201527f44657072656361746564000000000000000000000000000000000000000000006044820152606401610884565b600061110e83611454565b9050808210156111605760405162461bcd60e51b815260206004820152601b60248201527f4c657373207468656e204d494e2061747461636b20616d6f756e7400000000006044820152606401610884565b61116a3383612698565b600083815260fb60205260408120600781015460049091015490919060ff1660028111156111a857634e487b7160e01b600052602160045260246000fd5b141561127157600081815260fc6020908152604080832081516080810183528154815260018201549381019390935260028101549183019190915260030154606082018190529091906111fb904261373b565b9050610e10811061124e5760405162461bcd60e51b815260206004820152601860248201527f446973707574652077696e646f77206973203120686f757200000000000000006044820152606401610884565b5050600084815260fb60205260409020600401805460ff19166001179055611287565b600081815260fc60205260409020426003909101555b610100600082815260200190815260200160002060405180608001604052808681526020016112b33390565b6001600160a01b0390811682526020808301889052426040938401528454600180820187556000968752828720865160049093020191825585830151908201805473ffffffffffffffffffffffffffffffffffffffff191691909416179092558383015160028084019190915560609094015160039092019190915584845260fc90528220018054859290610fea9084906136e4565b6001600160a01b03811633146113c75760405162461bcd60e51b815260206004820152602f60248201527f416363657373436f6e74726f6c3a2063616e206f6e6c792072656e6f756e636560448201527f20726f6c657320666f722073656c6600000000000000000000000000000000006064820152608401610884565b6113d18282612ad6565b5050565b33600081815260ca602090815260408083206001600160a01b0387168452909152812054909161092491859061140c9086906136e4565b612540565b610101602052816000526040600020818154811061142e57600080fd5b600091825260209091206003909102018054600182015460029092015490935090915083565b600081815260fb602090815260408083206007015480845260fc83528184208251608081018452815481526001820154948101949094526002810154928401839052600390810154606085015290929184916114b0919061371c565b826040015183602001516114c491906136e4565b6114cf90600261371c565b6114d9919061373b565b95945050505050565b600082815260ff6020526040812080548390811061151057634e487b7160e01b600052603260045260246000fd5b6000918252602080832060408051608080820183526004909502909201805483526001808201546001600160a01b03908116858701908152600280850154878701526003948501546060808901919091528d8b5260fc8952998690208651998a01875280548a529384015497890197909752958201549387019390935201549484019490945290519093509091166115a53390565b6001600160a01b0316146115fb5760405162461bcd60e51b815260206004820152600d60248201527f4163636573732064656e696564000000000000000000000000000000000000006044820152606401610884565b600081606001514261160d919061373b565b9050610e1081116116605760405162461bcd60e51b815260206004820152601860248201527f446973707574652077696e646f77206973203120686f757200000000000000006044820152606401610884565b60008260200151836040015161167691906136e4565b90508260200151836040015110801561168f5750600085115b1561171e576116b633602085015160408701516116ac908561371c565b610fb791906136fc565b600086815260ff602052604081208054879081106116e457634e487b7160e01b600052603260045260246000fd5b906000526020600020906004020160010160006101000a8154816001600160a01b0302191690836001600160a01b03160217905550611782565b600086815260ff6020526040812080548790811061174c57634e487b7160e01b600052603260045260246000fd5b906000526020600020906004020160010160006101000a8154816001600160a01b0302191690836001600160a01b031602179055505b505050505050565b600081116117da5760405162461bcd60e51b815260206004820152601260248201527f43616e6e6f74207374616b652030204d4f4500000000000000000000000000006044820152606401610884565b600082815260fb602052604081206004015460ff16600281111561180e57634e487b7160e01b600052602160045260246000fd5b1461185b5760405162461bcd60e51b815260206004820152601d60248201527f526f756e64206973206e6f7420696e206e6f726d616c207374617475730000006044820152606401610884565b61186433610ffa565b3360009081526101016020908152604080832081516060810183528681528084018681524282850190815283546001808201865594885286882093516003909102909301928355905192820192909255905160029091015584835260fb909152812060060180548392906118d99084906136e4565b90915550505050565b600081815260fc6020908152604080832081516080810183528154808252600183015482860152600283015482850152600390920154606082015290845260fb9092529091206007810154831461197b5760405162461bcd60e51b815260206004820152601060248201527f496e76616c696420726f756e64206964000000000000000000000000000000006044820152606401610884565b600082606001514261198d919061373b565b9050610e1081116119e05760405162461bcd60e51b815260206004820152601a60248201527f446973707574652077696e646f77206973206e6f74206f7665720000000000006044820152606401610884565b826020015183604001511115611a2457611a103360648560400151611a0591906136fc565b610fb790600261371c565b60048201805460ff19166002179055610911565b82602001518360400151101561091157611a493360648560200151611a0591906136fc565b60048201805460ff191690556040805160808101825284518152600060208083018281528385018381526060850184815260fd54855260fc845286852095518655915160018601555160028501555160039093019290925586815260ff90915290812080548290611aca57634e487b7160e01b600052603260045260246000fd5b9060005260206000209060040201604051806080016040529081600082015481526020016001820160009054906101000a90046001600160a01b03166001600160a01b03166001600160a01b03168152602001600282015481526020016003820154815250509050600060405180608001604052808660000151815260200183602001516001600160a01b031681526020018360400151815260200142815250905060ff600060fd5481526020019081526020016000208190806001815401808255809150506001900390600052602060002090600402016000909190919091506000820151816000015560208201518160010160006101000a8154816001600160a01b0302191690836001600160a01b031602179055506040820151816002015560608201518160030155505060fd6000815480929190611c0b906137d0565b9190505550505050505050565b611c2133610ffa565b6040518060e00160405280868152602001611c393390565b6001600160a01b03168152604080516060810182528781527fffff000000000000000000000000000000000000000000000000000000000000871660208281019190915260ff87168284015283015201600081526020014281526020016000815260200160fd5481525060fb600060fe5481526020019081526020016000206000820151816000019080519060200190611cd492919061316f565b50602082810151600180840180546001600160a01b0390931673ffffffffffffffffffffffffffffffffffffffff1990931692909217909155604080850151805160028087019190915593810151600386018054929093015160ff16620100000262ff00001960f09290921c61ffff19909316929092171617905560608401516004840180549193909260ff1990921691908490811115611d8557634e487b7160e01b600052602160045260246000fd5b0217905550608082810151600583015560a0830151600683015560c09092015160079091015560408051808301825260fe8054825260208083018681526000848601818152606080870183815260fd8054855260fc87528985209851895594516001808a019190915592516002808a019190915590516003988901558851998a01895286548a52338a87019081528a8a018c815242938c019384529554855260ff8752988420805480850182559085529584208a516004909702019586559751918501805473ffffffffffffffffffffffffffffffffffffffff19166001600160a01b039093169290921790915591519583019590955551920191909155805491611e8f836137d0565b909155505060fd8054906000611c0b836137d0565b6000828152609760205260408120611ebc9083612af8565b9392505050565b6101006020528160005260406000208181548110611ee057600080fd5b600091825260209091206004909102018054600182015460028301546003909301549194506001600160a01b0316925084565b606060cd805461077490613795565b33600090815260ca602090815260408083206001600160a01b038616845290915281205482811015611fbc5760405162461bcd60e51b815260206004820152602560248201527f45524332303a2064656372656173656420616c6c6f77616e63652062656c6f7760448201527f207a65726f0000000000000000000000000000000000000000000000000000006064820152608401610884565b611fc93385858403612540565b5060019392505050565b600061092433848461281d565b600081815260fb602090815260408083206007015480845260fc835281842082516080810184528154815260018201549481018590526002820154938101939093526003908101546060840152909284916114b0919061371c565b600081815260976020526040812061075d90612b04565b61207c7f8f4f2da22e8ac8f11e15f9fc141cddbb5deea8800186560abb6e68c5496619a933610599565b6120c85760405162461bcd60e51b815260206004820152601d60248201527f596f75277265206e6f7420616c6c6f77656420746f206465706f7369740000006044820152606401610884565b60006120d6828401846133d4565b90506109118482612460565b60ff6020528160005260406000208181548110611ee057600080fd5b60008281526065602052604090206001015461211a813361101b565b61102a8383612ad6565b60008281526101006020526040812080548390811061215357634e487b7160e01b600052603260045260246000fd5b6000918252602080832060408051608080820183526004909502909201805483526001808201546001600160a01b03908116858701908152600280850154878701526003948501546060808901919091528d8b5260fc8952998690208651998a01875280548a529384015497890197909752958201549387019390935201549484019490945290519093509091166121e83390565b6001600160a01b03161461223e5760405162461bcd60e51b815260206004820152600d60248201527f4163636573732064656e696564000000000000000000000000000000000000006044820152606401610884565b6000816060015142612250919061373b565b9050610e1081116122a35760405162461bcd60e51b815260206004820152601860248201527f446973707574652077696e646f77206973203120686f757200000000000000006044820152606401610884565b6000826020015183604001516122b991906136e4565b9050826020015183604001511115612313576122e43384604001518660400151846116ac919061371c565b6000868152610100602052604081208054879081106116e457634e487b7160e01b600052603260045260246000fd5b60008681526101006020526040812080548790811061174c57634e487b7160e01b600052603260045260246000fd5b60007fffffffff0000000000000000000000000000000000000000000000000000000082167f7965db0b00000000000000000000000000000000000000000000000000000000148061075d57507f01ffc9a7000000000000000000000000000000000000000000000000000000007fffffffff0000000000000000000000000000000000000000000000000000000083161461075d565b600054610100900460ff166124445760405162461bcd60e51b815260206004820152602b60248201527f496e697469616c697a61626c653a20636f6e7472616374206973206e6f74206960448201526a6e697469616c697a696e6760a81b6064820152608401610884565b61244c612b0e565b6113d18282612b7b565b6113d18282612ab4565b6001600160a01b0382166124b65760405162461bcd60e51b815260206004820152601f60248201527f45524332303a206d696e7420746f20746865207a65726f2061646472657373006044820152606401610884565b8060cb60008282546124c891906136e4565b90915550506001600160a01b038216600090815260c96020526040812080548392906124f59084906136e4565b90915550506040518181526001600160a01b038316906000907fddf252ad1be2c89b69c2b068fc378daa952ba7f163c4a11628f55a4df523b3ef9060200160405180910390a36113d1565b6001600160a01b0383166125bb5760405162461bcd60e51b8152602060048201526024808201527f45524332303a20617070726f76652066726f6d20746865207a65726f2061646460448201527f72657373000000000000000000000000000000000000000000000000000000006064820152608401610884565b6001600160a01b0382166126375760405162461bcd60e51b815260206004820152602260248201527f45524332303a20617070726f766520746f20746865207a65726f20616464726560448201527f73730000000000000000000000000000000000000000000000000000000000006064820152608401610884565b6001600160a01b03838116600081815260ca602090815260408083209487168084529482529182902085905590518481527f8c5be1e5ebec7d5bd14f71427d1e84f3dd0314c0f7b2291e5b200ac8c7c3b925910160405180910390a3505050565b6001600160a01b0382166127145760405162461bcd60e51b815260206004820152602160248201527f45524332303a206275726e2066726f6d20746865207a65726f2061646472657360448201527f73000000000000000000000000000000000000000000000000000000000000006064820152608401610884565b6001600160a01b038216600090815260c96020526040902054818110156127a35760405162461bcd60e51b815260206004820152602260248201527f45524332303a206275726e20616d6f756e7420657863656564732062616c616e60448201527f63650000000000000000000000000000000000000000000000000000000000006064820152608401610884565b6001600160a01b038316600090815260c960205260408120838303905560cb80548492906127d290849061373b565b90915550506040518281526000906001600160a01b038516907fddf252ad1be2c89b69c2b068fc378daa952ba7f163c4a11628f55a4df523b3ef9060200160405180910390a361102a565b6001600160a01b0383166128995760405162461bcd60e51b815260206004820152602560248201527f45524332303a207472616e736665722066726f6d20746865207a65726f20616460448201527f64726573730000000000000000000000000000000000000000000000000000006064820152608401610884565b6001600160a01b0382166129155760405162461bcd60e51b815260206004820152602360248201527f45524332303a207472616e7366657220746f20746865207a65726f206164647260448201527f65737300000000000000000000000000000000000000000000000000000000006064820152608401610884565b6001600160a01b038316600090815260c96020526040902054818110156129a45760405162461bcd60e51b815260206004820152602660248201527f45524332303a207472616e7366657220616d6f756e742065786365656473206260448201527f616c616e636500000000000000000000000000000000000000000000000000006064820152608401610884565b6001600160a01b03808516600090815260c960205260408082208585039055918516815290812080548492906129db9084906136e4565b92505081905550826001600160a01b0316846001600160a01b03167fddf252ad1be2c89b69c2b068fc378daa952ba7f163c4a11628f55a4df523b3ef84604051612a2791815260200190565b60405180910390a3610911565b60008281526065602090815260408083206001600160a01b038516845290915290205460ff166113d157612a72816001600160a01b03166014612c0d565b612a7d836020612c0d565b604051602001612a8e9291906135a7565b60408051601f198184030181529082905262461bcd60e51b825261088491600401613628565b612abe8282612e7c565b600082815260976020526040902061102a9082612f1e565b612ae08282612f33565b600082815260976020526040902061102a9082612fb6565b6000611ebc8383612fcb565b600061075d825490565b600054610100900460ff16612b795760405162461bcd60e51b815260206004820152602b60248201527f496e697469616c697a61626c653a20636f6e7472616374206973206e6f74206960448201526a6e697469616c697a696e6760a81b6064820152608401610884565b565b600054610100900460ff16612be65760405162461bcd60e51b815260206004820152602b60248201527f496e697469616c697a61626c653a20636f6e7472616374206973206e6f74206960448201526a6e697469616c697a696e6760a81b6064820152608401610884565b8151612bf99060cc90602085019061316f565b50805161102a9060cd90602084019061316f565b60606000612c1c83600261371c565b612c279060026136e4565b67ffffffffffffffff811115612c4d57634e487b7160e01b600052604160045260246000fd5b6040519080825280601f01601f191660200182016040528015612c77576020820181803683370190505b5090507f300000000000000000000000000000000000000000000000000000000000000081600081518110612cbc57634e487b7160e01b600052603260045260246000fd5b60200101907effffffffffffffffffffffffffffffffffffffffffffffffffffffffffffff1916908160001a9053507f780000000000000000000000000000000000000000000000000000000000000081600181518110612d2d57634e487b7160e01b600052603260045260246000fd5b60200101907effffffffffffffffffffffffffffffffffffffffffffffffffffffffffffff1916908160001a9053506000612d6984600261371c565b612d749060016136e4565b90505b6001811115612e2d577f303132333435363738396162636465660000000000000000000000000000000085600f1660108110612dc357634e487b7160e01b600052603260045260246000fd5b1a60f81b828281518110612de757634e487b7160e01b600052603260045260246000fd5b60200101907effffffffffffffffffffffffffffffffffffffffffffffffffffffffffffff1916908160001a90535060049490941c93612e268161377e565b9050612d77565b508315611ebc5760405162461bcd60e51b815260206004820181905260248201527f537472696e67733a20686578206c656e67746820696e73756666696369656e746044820152606401610884565b60008281526065602090815260408083206001600160a01b038516845290915290205460ff166113d15760008281526065602090815260408083206001600160a01b03851684529091529020805460ff19166001179055612eda3390565b6001600160a01b0316816001600160a01b0316837f2f8788117e7eff1d82e926ec794901d17c78024a50270940304540a733656f0d60405160405180910390a45050565b6000611ebc836001600160a01b038416613003565b60008281526065602090815260408083206001600160a01b038516845290915290205460ff16156113d15760008281526065602090815260408083206001600160a01b0385168085529252808320805460ff1916905551339285917ff6391f5c32d9c69d2a47ea670b442974b53935d1edc7fd64eb21e047a839171b9190a45050565b6000611ebc836001600160a01b038416613052565b6000826000018281548110612ff057634e487b7160e01b600052603260045260246000fd5b9060005260206000200154905092915050565b600081815260018301602052604081205461304a57508154600181810184556000848152602080822090930184905584548482528286019093526040902091909155610928565b506000610928565b6000818152600183016020526040812054801561316557600061307660018361373b565b855490915060009061308a9060019061373b565b905081811461310b5760008660000182815481106130b857634e487b7160e01b600052603260045260246000fd5b90600052602060002001549050808760000184815481106130e957634e487b7160e01b600052603260045260246000fd5b6000918252602080832090910192909255918252600188019052604090208390555b855486908061312a57634e487b7160e01b600052603160045260246000fd5b600190038181906000526020600020016000905590558560010160008681526020019081526020016000206000905560019350505050610928565b6000915050610928565b82805461317b90613795565b90600052602060002090601f01602090048101928261319d57600085556131e3565b82601f106131b657805160ff19168380011785556131e3565b828001600101855582156131e3579182015b828111156131e35782518255916020019190600101906131c8565b506131ef9291506131f3565b5090565b5b808211156131ef57600081556001016131f4565b80356001600160a01b038116811461076057600080fd5b600082601f83011261322f578081fd5b813567ffffffffffffffff8082111561324a5761324a613801565b604051601f8301601f19908116603f0116810190828211818310171561327257613272613801565b8160405283815286602085880101111561328a578485fd5b8360208701602083013792830160200193909352509392505050565b6000602082840312156132b7578081fd5b611ebc82613208565b600080604083850312156132d2578081fd5b6132db83613208565b91506132e960208401613208565b90509250929050565b600080600060608486031215613306578081fd5b61330f84613208565b925061331d60208501613208565b9150604084013590509250925092565b600080600060408486031215613341578283fd5b61334a84613208565b9250602084013567ffffffffffffffff80821115613366578384fd5b818601915086601f830112613379578384fd5b813581811115613387578485fd5b876020828501011115613398578485fd5b6020830194508093505050509250925092565b600080604083850312156133bd578182fd5b6133c683613208565b946020939093013593505050565b6000602082840312156133e5578081fd5b5035919050565b600080604083850312156133fe578182fd5b823591506132e960208401613208565b60008060408385031215613420578182fd5b50508035926020909101359150565b600060208284031215613440578081fd5b81357fffffffff0000000000000000000000000000000000000000000000000000000081168114611ebc578182fd5b600080600080600060a08688031215613486578081fd5b853567ffffffffffffffff81111561349c578182fd5b6134a88882890161321f565b9550506020860135935060408601357fffff000000000000000000000000000000000000000000000000000000000000811681146134e4578182fd5b9250606086013560ff811681146134f9578182fd5b949793965091946080013592915050565b60008060006060848603121561351e578283fd5b833567ffffffffffffffff80821115613535578485fd5b6135418783880161321f565b94506020860135915080821115613556578384fd5b506135638682870161321f565b92505061357260408501613208565b90509250925092565b60008151808452613593816020860160208601613752565b601f01601f19169290920160200192915050565b60007f416363657373436f6e74726f6c3a206163636f756e7420000000000000000000825283516135df816017850160208801613752565b7f206973206d697373696e6720726f6c6520000000000000000000000000000000601791840191820152835161361c816028840160208801613752565b01602801949350505050565b600060208252611ebc602083018461357b565b600061012080835261364f8184018b61357b565b9150506001600160a01b0388166020830152865160408301527fffff000000000000000000000000000000000000000000000000000000000000602088015116606083015260ff6040880151166080830152600386106136bf57634e487b7160e01b600052602160045260246000fd5b8560a08301528460c08301528360e08301528261010083015298975050505050505050565b600082198211156136f7576136f76137eb565b500190565b60008261371757634e487b7160e01b81526012600452602481fd5b500490565b6000816000190483118215151615613736576137366137eb565b500290565b60008282101561374d5761374d6137eb565b500390565b60005b8381101561376d578181015183820152602001613755565b838111156109115750506000910152565b60008161378d5761378d6137eb565b506000190190565b6002810460018216806137a957607f821691505b602082108114156137ca57634e487b7160e01b600052602260045260246000fd5b50919050565b60006000198214156137e4576137e46137eb565b5060010190565b634e487b7160e01b600052601160045260246000fd5b634e487b7160e01b600052604160045260246000fdfea2646970667358221220c1036fb8007c60941f877db7927fc20e350dc0b62559bb7c6151171761780fa664736f6c63430008020033",
  "immutableReferences": {},
  "source": "// SPDX-License-Identifier: MIT\npragma solidity ^0.8.2;\n\nimport \"./Library.sol\";\nimport \"./IMOEToken.sol\";\nimport \"@openzeppelin/contracts-upgradeable/token/ERC20/ERC20Upgradeable.sol\";\nimport \"@openzeppelin/contracts-upgradeable/access/AccessControlEnumerableUpgradeable.sol\";\nimport \"@openzeppelin/contracts-upgradeable/utils/ContextUpgradeable.sol\";\n\n// *** IMPORTANT ***\n//\n// BEFORE DEPLOY\n// --------------\n// erase _mint() line on initialize()\n// change duration require() function on voteForAttack()\n// change duration require() function on voteForDeffense()\n// change duration require() function on unstake()\n// change duration require() function on clearRound()\n// change duration require() function on resolveAttack()\n// change duration require() function on resolveDefense()\n\ncontract MOEToken is ContextUpgradeable, AccessControlEnumerableUpgradeable, IMOEToken, ERC20Upgradeable {\n\n    bytes32 public constant DEPOSITOR_ROLE = keccak256(\"DEPOSITOR_ROLE\"); // Polygon mapping\n\n    mapping(uint256 => Lib.Onnanoco) public onnanocos;\n    mapping(uint256 => Lib.Round) public rounds;\n\n    uint256 public totalRounds;\n    uint256 public totalOnnanocos;\n\n    mapping(uint256 => Lib.Vote[]) public defenseVotes;\n    mapping(uint256 => Lib.Vote[]) public attackVotes;\n    mapping(address => Lib.Stake[]) public stakes;\n\n    // Add onnanoco data\n    function addOnnanoco(string memory name, bytes32 hash, bytes2 hashFunction, uint8 hashSize, uint256 amount) public {\n  \n        _burn(_msgSender(), amount);\n\n        // add onnanoco base data\n        onnanocos[totalOnnanocos] = Lib.Onnanoco(name, _msgSender(), Lib.Multihash(hash, hashFunction, hashSize), Lib.Status.NORMAL, block.timestamp, 0, totalRounds);\n\n        // setup round\n        rounds[totalRounds] = Lib.Round(totalOnnanocos, amount, 0, 0);\n\n        // vote for defense\n        Lib.Vote memory vote = Lib.Vote(totalOnnanocos, _msgSender(), amount, block.timestamp);\n        defenseVotes[totalRounds].push(vote);\n\n        // increase onnanoco index\n        totalOnnanocos++;\n        totalRounds++;\n    }\n\n    // Get minimum attack amount\n    function getMinimumAttackAmount(uint256 id) public view returns (uint256 amount) {\n\n        uint256 roundId = onnanocos[id].roundId;\n        Lib.Round memory round = rounds[roundId];\n\n        uint256 minimumAmount = ((round.totalDefenseAmount + round.totalAttackAmount) * 2) - (round.totalAttackAmount * 3);\n\n        return minimumAmount;\n    }\n\n    // Vote for attack\n    // id: id of the character\n    // amount: defense amount\n    function voteForAttack(uint256 id, uint256 amount) public {\n\n        require(amount > 0, 'Cannot vote with 0 MOE');\n        require(onnanocos[id].status != Lib.Status.DEPRECATED, 'Deprecated');\n        \n        uint256 minimumAmount = getMinimumAttackAmount(id);\n\n        require(amount >= minimumAmount, 'Less then MIN attack amount');\n\n        _burn(_msgSender(), amount);\n\n        uint256 roundId = onnanocos[id].roundId;\n\n        // 1st attack\n        if (onnanocos[id].status == Lib.Status.NORMAL) {\n\n            Lib.Round memory round = rounds[roundId];\n\n            uint256 duration = block.timestamp - round.timestamp;\n            //require(duration < 60 * 60 * 24 * 7, 'Dispute window is 7 days'); // deploy\n            require(duration < 60 * 60, 'Dispute window is 1 hour'); // dev\n\n            onnanocos[id].status = Lib.Status.IN_DISPUTE;\n        } else {\n            rounds[roundId].timestamp = block.timestamp;\n        }\n\n        attackVotes[roundId].push(Lib.Vote(id, _msgSender(), amount, block.timestamp));\n        rounds[roundId].totalAttackAmount += amount;\n    }\n\n    // Get minimum defense amount\n    // id : id of the character\n    function getMinimumDefenseAmount(uint256 id) public view returns (uint256 amount) {\n\n        uint256 roundId = onnanocos[id].roundId;\n        Lib.Round memory round = rounds[roundId];\n\n        uint256 minimumAmount = ((round.totalDefenseAmount + round.totalAttackAmount) * 2) - (round.totalDefenseAmount * 3);\n\n        return minimumAmount;\n    }\n\n    // Vote for defense\n    // id: id of the character\n    // amount: defense amount\n    function voteForDefense(uint256 id, uint256 amount) public {\n\n        require(amount > 0, 'Cannot vote with 0 MOE');\n        require(onnanocos[id].status == Lib.Status.IN_DISPUTE, 'Round is not in dispute');\n\n        uint256 roundId = onnanocos[id].roundId;\n        Lib.Round memory round = rounds[roundId];\n\n        uint256 minimumAmount = ((round.totalDefenseAmount + round.totalAttackAmount) * 2) - (round.totalDefenseAmount * 3);\n\n        uint256 duration = block.timestamp - round.timestamp;\n\n        //require(duration > 60 * 60 * 24 * 7, 'Dispute window is 7 days'); // deploy\n        require(duration > 60 * 60 * 1, 'Dispute window is 1 hour'); // dev\n\n        require(amount >= minimumAmount, 'Less then MIN defense amount');\n        \n        _burn(_msgSender(), amount);\n        defenseVotes[roundId].push(Lib.Vote(id, _msgSender(), amount, block.timestamp));\n\n        rounds[roundId].totalDefenseAmount += amount;\n    }\n\n    // clearRound\n    // roundId : ID for the round\n    function clearRound(uint256 roundId) public {\n\n        Lib.Round memory round = rounds[roundId];\n        Lib.Onnanoco storage onnanoco = onnanocos[round.onnanocoId];\n\n        require(onnanoco.roundId == roundId, 'Invalid round id');\n\n        uint256 duration = block.timestamp - round.timestamp;\n\n        //require(duration > 60 * 60 * 24 * 7, 'Dispute window is not over'); // deploy\n        require(duration > 60 * 60 * 1, 'Dispute window is not over'); // dev\n\n        if (round.totalAttackAmount > round.totalDefenseAmount) { // Attackers win\n            _mint(_msgSender(), round.totalAttackAmount / 100 * 2);\n            onnanoco.status = Lib.Status.DEPRECATED;\n\n        } else if(round.totalAttackAmount < round.totalDefenseAmount) { // Attackeres lose\n            _mint(_msgSender(), round.totalDefenseAmount / 100 * 2);\n            onnanoco.status = Lib.Status.NORMAL;\n\n            // new round\n            rounds[totalRounds] = Lib.Round(round.onnanocoId, 0, 0, 0);\n\n            Lib.Vote memory vote = defenseVotes[roundId][0];\n\n            Lib.Vote memory newVote = Lib.Vote(round.onnanocoId, vote.voter, vote.amount, block.timestamp);\n            defenseVotes[totalRounds].push(newVote);\n\n            totalRounds++;\n        }\n        \n    }\n\n    function resolveAttack(uint256 roundId, uint256 voteId) public {\n\n        Lib.Vote memory vote = attackVotes[roundId][voteId];\n        Lib.Round memory round = rounds[roundId];\n\n        require(_msgSender() == vote.voter, 'Access denied');\n\n        uint256 duration = block.timestamp - round.timestamp;\n\n        //require(duration > 60 * 60 * 24 * 7, 'Dispute window is 7 days'); // deploy\n        require(duration > 60 * 60 * 1, 'Dispute window is 1 hour'); // dev\n\n        uint256 totalAmount = round.totalAttackAmount + round.totalDefenseAmount;\n\n        if (round.totalAttackAmount > round.totalDefenseAmount) {\n            _mint(_msgSender(), totalAmount * vote.amount / round.totalAttackAmount);\n            attackVotes[roundId][voteId].voter = address(0);\n\n        } else {\n            attackVotes[roundId][voteId].voter = address(0);\n        }\n\n    }\n\n    function resolveDefense(uint256 roundId, uint256 voteId) public {\n\n        Lib.Vote memory vote = defenseVotes[roundId][voteId];\n        Lib.Round memory round = rounds[roundId];\n\n        require(_msgSender() == vote.voter, 'Access denied');\n\n        uint256 duration = block.timestamp - round.timestamp;\n\n        //require(duration > 60 * 60 * 24 * 7, 'Dispute window is 7 days'); // deploy\n        require(duration > 60 * 60 * 1, 'Dispute window is 1 hour'); // dev\n\n        uint256 totalAmount = round.totalAttackAmount + round.totalDefenseAmount;\n\n        if (round.totalAttackAmount < round.totalDefenseAmount && voteId > 0) {\n\n            _mint(_msgSender(), totalAmount * vote.amount / round.totalDefenseAmount);\n            defenseVotes[roundId][voteId].voter = address(0);\n\n        } else {\n            defenseVotes[roundId][voteId].voter = address(0);\n        }\n    }\n    \n    // Stake MOE\n    function stake(uint256 id, uint256 amount) public {\n    \n        require(amount > 0, 'Cannot stake 0 MOE');\n        require(onnanocos[id].status == Lib.Status.NORMAL, 'Round is not in normal status');\n\n        _burn(_msgSender(), amount);\n\n        stakes[_msgSender()].push(Lib.Stake(id, amount, block.timestamp));\n        onnanocos[id].totalStakingAmount += amount;\n    }\n    \n    // Unstake MOE\n    function unstake(uint256 stakeId) public {\n\n        Lib.Stake memory stakeInfo = stakes[_msgSender()][stakeId];\n        \n        require(onnanocos[stakeInfo.id].status != Lib.Status.IN_DISPUTE, 'Round is in dispute status');\n        \n        uint256 duration = block.timestamp - stakeInfo.timestamp;\n\n        //require(duration > 60 * 60 * 24 * 100, 'Minimum duration is 100 days'); // Deploy\n        require(duration > 60 * 60 * 1, 'Minimum duration is 1 hour'); // Test\n\n        uint256 bonus = stakeInfo.amount * duration / (60 * 60 * 24 * 100 * 20);\n\n        if (onnanocos[stakeInfo.id].status == Lib.Status.DEPRECATED) {\n            bonus = 0;\n        }\n\n        _mint(_msgSender(), stakeInfo.amount + bonus);\n        onnanocos[stakeInfo.id].totalStakingAmount -= stakeInfo.amount;\n    }\n\n    // Polygon mapping : deposit\n    function deposit(address user, bytes calldata depositData) external override {\n        require(hasRole(DEPOSITOR_ROLE, _msgSender()), \"You're not allowed to deposit\");\n        uint256 amount = abi.decode(depositData, (uint256));\n        _mint(user, amount);\n    }\n\n    // Polygon mapping : withdraw\n    function withdraw(uint256 amount) external {\n        _burn(_msgSender(), amount);\n    }\n\n    // Initializer\n    function initialize(string memory name, string memory symbol, address childchangeProxy) public virtual initializer {\n        \n        __ERC20_init(name, symbol);\n        _setupRole(DEPOSITOR_ROLE, childchangeProxy);\n\n        _mint(_msgSender(), 10 ** 18 * 100); // dev faucet\n    }\n}",
  "sourcePath": "/Users/misskiwi/github/smartcontract-child/contracts/MOEToken.sol",
  "compiler": {
    "name": "solc",
    "version": "0.8.2+commit.661d1103.Emscripten.clang"
  },
  "schemaVersion": "3.4.4",
  "updatedAt": "2022-01-24T00:20:43.404Z",
  "devdoc": {
    "kind": "dev",
    "methods": {
      "allowance(address,address)": {
        "details": "See {IERC20-allowance}."
      },
      "approve(address,uint256)": {
        "details": "See {IERC20-approve}. Requirements: - `spender` cannot be the zero address."
      },
      "balanceOf(address)": {
        "details": "See {IERC20-balanceOf}."
      },
      "decimals()": {
        "details": "Returns the number of decimals used to get its user representation. For example, if `decimals` equals `2`, a balance of `505` tokens should be displayed to a user as `5.05` (`505 / 10 ** 2`). Tokens usually opt for a value of 18, imitating the relationship between Ether and Wei. This is the value {ERC20} uses, unless this function is overridden; NOTE: This information is only used for _display_ purposes: it in no way affects any of the arithmetic of the contract, including {IERC20-balanceOf} and {IERC20-transfer}."
      },
      "decreaseAllowance(address,uint256)": {
        "details": "Atomically decreases the allowance granted to `spender` by the caller. This is an alternative to {approve} that can be used as a mitigation for problems described in {IERC20-approve}. Emits an {Approval} event indicating the updated allowance. Requirements: - `spender` cannot be the zero address. - `spender` must have allowance for the caller of at least `subtractedValue`."
      },
      "getRoleAdmin(bytes32)": {
        "details": "Returns the admin role that controls `role`. See {grantRole} and {revokeRole}. To change a role's admin, use {_setRoleAdmin}."
      },
      "getRoleMember(bytes32,uint256)": {
        "details": "Returns one of the accounts that have `role`. `index` must be a value between 0 and {getRoleMemberCount}, non-inclusive. Role bearers are not sorted in any particular way, and their ordering may change at any point. WARNING: When using {getRoleMember} and {getRoleMemberCount}, make sure you perform all queries on the same block. See the following https://forum.openzeppelin.com/t/iterating-over-elements-on-enumerableset-in-openzeppelin-contracts/2296[forum post] for more information."
      },
      "getRoleMemberCount(bytes32)": {
        "details": "Returns the number of accounts that have `role`. Can be used together with {getRoleMember} to enumerate all bearers of a role."
      },
      "grantRole(bytes32,address)": {
        "details": "Grants `role` to `account`. If `account` had not been already granted `role`, emits a {RoleGranted} event. Requirements: - the caller must have ``role``'s admin role."
      },
      "hasRole(bytes32,address)": {
        "details": "Returns `true` if `account` has been granted `role`."
      },
      "increaseAllowance(address,uint256)": {
        "details": "Atomically increases the allowance granted to `spender` by the caller. This is an alternative to {approve} that can be used as a mitigation for problems described in {IERC20-approve}. Emits an {Approval} event indicating the updated allowance. Requirements: - `spender` cannot be the zero address."
      },
      "name()": {
        "details": "Returns the name of the token."
      },
      "renounceRole(bytes32,address)": {
        "details": "Revokes `role` from the calling account. Roles are often managed via {grantRole} and {revokeRole}: this function's purpose is to provide a mechanism for accounts to lose their privileges if they are compromised (such as when a trusted device is misplaced). If the calling account had been revoked `role`, emits a {RoleRevoked} event. Requirements: - the caller must be `account`."
      },
      "revokeRole(bytes32,address)": {
        "details": "Revokes `role` from `account`. If `account` had been granted `role`, emits a {RoleRevoked} event. Requirements: - the caller must have ``role``'s admin role."
      },
      "supportsInterface(bytes4)": {
        "details": "See {IERC165-supportsInterface}."
      },
      "symbol()": {
        "details": "Returns the symbol of the token, usually a shorter version of the name."
      },
      "totalSupply()": {
        "details": "See {IERC20-totalSupply}."
      },
      "transfer(address,uint256)": {
        "details": "See {IERC20-transfer}. Requirements: - `recipient` cannot be the zero address. - the caller must have a balance of at least `amount`."
      },
      "transferFrom(address,address,uint256)": {
        "details": "See {IERC20-transferFrom}. Emits an {Approval} event indicating the updated allowance. This is not required by the EIP. See the note at the beginning of {ERC20}. Requirements: - `sender` and `recipient` cannot be the zero address. - `sender` must have a balance of at least `amount`. - the caller must have allowance for ``sender``'s tokens of at least `amount`."
      }
    },
    "version": 1
  },
  "userdoc": {
    "kind": "user",
    "methods": {},
    "version": 1
  }
}