{
  "contractName": "MOEToken",
  "abi": [
    {
      "anonymous": false,
      "inputs": [
        {
          "indexed": true,
          "internalType": "address",
          "name": "owner",
          "type": "address"
        },
        {
          "indexed": true,
          "internalType": "address",
          "name": "spender",
          "type": "address"
        },
        {
          "indexed": false,
          "internalType": "uint256",
          "name": "value",
          "type": "uint256"
        }
      ],
      "name": "Approval",
      "type": "event"
    },
    {
      "anonymous": false,
      "inputs": [
        {
          "indexed": true,
          "internalType": "bytes32",
          "name": "role",
          "type": "bytes32"
        },
        {
          "indexed": true,
          "internalType": "bytes32",
          "name": "previousAdminRole",
          "type": "bytes32"
        },
        {
          "indexed": true,
          "internalType": "bytes32",
          "name": "newAdminRole",
          "type": "bytes32"
        }
      ],
      "name": "RoleAdminChanged",
      "type": "event"
    },
    {
      "anonymous": false,
      "inputs": [
        {
          "indexed": true,
          "internalType": "bytes32",
          "name": "role",
          "type": "bytes32"
        },
        {
          "indexed": true,
          "internalType": "address",
          "name": "account",
          "type": "address"
        },
        {
          "indexed": true,
          "internalType": "address",
          "name": "sender",
          "type": "address"
        }
      ],
      "name": "RoleGranted",
      "type": "event"
    },
    {
      "anonymous": false,
      "inputs": [
        {
          "indexed": true,
          "internalType": "bytes32",
          "name": "role",
          "type": "bytes32"
        },
        {
          "indexed": true,
          "internalType": "address",
          "name": "account",
          "type": "address"
        },
        {
          "indexed": true,
          "internalType": "address",
          "name": "sender",
          "type": "address"
        }
      ],
      "name": "RoleRevoked",
      "type": "event"
    },
    {
      "anonymous": false,
      "inputs": [
        {
          "indexed": true,
          "internalType": "address",
          "name": "from",
          "type": "address"
        },
        {
          "indexed": true,
          "internalType": "address",
          "name": "to",
          "type": "address"
        },
        {
          "indexed": false,
          "internalType": "uint256",
          "name": "value",
          "type": "uint256"
        }
      ],
      "name": "Transfer",
      "type": "event"
    },
    {
      "inputs": [],
      "name": "DEFAULT_ADMIN_ROLE",
      "outputs": [
        {
          "internalType": "bytes32",
          "name": "",
          "type": "bytes32"
        }
      ],
      "stateMutability": "view",
      "type": "function",
      "constant": true
    },
    {
      "inputs": [],
      "name": "DEPOSITOR_ROLE",
      "outputs": [
        {
          "internalType": "bytes32",
          "name": "",
          "type": "bytes32"
        }
      ],
      "stateMutability": "view",
      "type": "function",
      "constant": true
    },
    {
      "inputs": [
        {
          "internalType": "address",
          "name": "owner",
          "type": "address"
        },
        {
          "internalType": "address",
          "name": "spender",
          "type": "address"
        }
      ],
      "name": "allowance",
      "outputs": [
        {
          "internalType": "uint256",
          "name": "",
          "type": "uint256"
        }
      ],
      "stateMutability": "view",
      "type": "function",
      "constant": true
    },
    {
      "inputs": [
        {
          "internalType": "address",
          "name": "spender",
          "type": "address"
        },
        {
          "internalType": "uint256",
          "name": "amount",
          "type": "uint256"
        }
      ],
      "name": "approve",
      "outputs": [
        {
          "internalType": "bool",
          "name": "",
          "type": "bool"
        }
      ],
      "stateMutability": "nonpayable",
      "type": "function"
    },
    {
      "inputs": [
        {
          "internalType": "uint256",
          "name": "",
          "type": "uint256"
        },
        {
          "internalType": "uint256",
          "name": "",
          "type": "uint256"
        }
      ],
      "name": "attackVotes",
      "outputs": [
        {
          "internalType": "uint256",
          "name": "id",
          "type": "uint256"
        },
        {
          "internalType": "address",
          "name": "voter",
          "type": "address"
        },
        {
          "internalType": "uint256",
          "name": "amount",
          "type": "uint256"
        },
        {
          "internalType": "uint256",
          "name": "timestamp",
          "type": "uint256"
        }
      ],
      "stateMutability": "view",
      "type": "function",
      "constant": true
    },
    {
      "inputs": [
        {
          "internalType": "address",
          "name": "account",
          "type": "address"
        }
      ],
      "name": "balanceOf",
      "outputs": [
        {
          "internalType": "uint256",
          "name": "",
          "type": "uint256"
        }
      ],
      "stateMutability": "view",
      "type": "function",
      "constant": true
    },
    {
      "inputs": [],
      "name": "decimals",
      "outputs": [
        {
          "internalType": "uint8",
          "name": "",
          "type": "uint8"
        }
      ],
      "stateMutability": "view",
      "type": "function",
      "constant": true
    },
    {
      "inputs": [
        {
          "internalType": "address",
          "name": "spender",
          "type": "address"
        },
        {
          "internalType": "uint256",
          "name": "subtractedValue",
          "type": "uint256"
        }
      ],
      "name": "decreaseAllowance",
      "outputs": [
        {
          "internalType": "bool",
          "name": "",
          "type": "bool"
        }
      ],
      "stateMutability": "nonpayable",
      "type": "function"
    },
    {
      "inputs": [
        {
          "internalType": "uint256",
          "name": "",
          "type": "uint256"
        },
        {
          "internalType": "uint256",
          "name": "",
          "type": "uint256"
        }
      ],
      "name": "defenseVotes",
      "outputs": [
        {
          "internalType": "uint256",
          "name": "id",
          "type": "uint256"
        },
        {
          "internalType": "address",
          "name": "voter",
          "type": "address"
        },
        {
          "internalType": "uint256",
          "name": "amount",
          "type": "uint256"
        },
        {
          "internalType": "uint256",
          "name": "timestamp",
          "type": "uint256"
        }
      ],
      "stateMutability": "view",
      "type": "function",
      "constant": true
    },
    {
      "inputs": [
        {
          "internalType": "bytes32",
          "name": "role",
          "type": "bytes32"
        }
      ],
      "name": "getRoleAdmin",
      "outputs": [
        {
          "internalType": "bytes32",
          "name": "",
          "type": "bytes32"
        }
      ],
      "stateMutability": "view",
      "type": "function",
      "constant": true
    },
    {
      "inputs": [
        {
          "internalType": "bytes32",
          "name": "role",
          "type": "bytes32"
        },
        {
          "internalType": "uint256",
          "name": "index",
          "type": "uint256"
        }
      ],
      "name": "getRoleMember",
      "outputs": [
        {
          "internalType": "address",
          "name": "",
          "type": "address"
        }
      ],
      "stateMutability": "view",
      "type": "function",
      "constant": true
    },
    {
      "inputs": [
        {
          "internalType": "bytes32",
          "name": "role",
          "type": "bytes32"
        }
      ],
      "name": "getRoleMemberCount",
      "outputs": [
        {
          "internalType": "uint256",
          "name": "",
          "type": "uint256"
        }
      ],
      "stateMutability": "view",
      "type": "function",
      "constant": true
    },
    {
      "inputs": [
        {
          "internalType": "bytes32",
          "name": "role",
          "type": "bytes32"
        },
        {
          "internalType": "address",
          "name": "account",
          "type": "address"
        }
      ],
      "name": "grantRole",
      "outputs": [],
      "stateMutability": "nonpayable",
      "type": "function"
    },
    {
      "inputs": [
        {
          "internalType": "bytes32",
          "name": "role",
          "type": "bytes32"
        },
        {
          "internalType": "address",
          "name": "account",
          "type": "address"
        }
      ],
      "name": "hasRole",
      "outputs": [
        {
          "internalType": "bool",
          "name": "",
          "type": "bool"
        }
      ],
      "stateMutability": "view",
      "type": "function",
      "constant": true
    },
    {
      "inputs": [
        {
          "internalType": "address",
          "name": "spender",
          "type": "address"
        },
        {
          "internalType": "uint256",
          "name": "addedValue",
          "type": "uint256"
        }
      ],
      "name": "increaseAllowance",
      "outputs": [
        {
          "internalType": "bool",
          "name": "",
          "type": "bool"
        }
      ],
      "stateMutability": "nonpayable",
      "type": "function"
    },
    {
      "inputs": [],
      "name": "name",
      "outputs": [
        {
          "internalType": "string",
          "name": "",
          "type": "string"
        }
      ],
      "stateMutability": "view",
      "type": "function",
      "constant": true
    },
    {
      "inputs": [
        {
          "internalType": "uint256",
          "name": "",
          "type": "uint256"
        }
      ],
      "name": "onnanocos",
      "outputs": [
        {
          "internalType": "string",
          "name": "name",
          "type": "string"
        },
        {
          "internalType": "address",
          "name": "owner",
          "type": "address"
        },
        {
          "components": [
            {
              "internalType": "bytes32",
              "name": "hash",
              "type": "bytes32"
            },
            {
              "internalType": "bytes2",
              "name": "hashFunction",
              "type": "bytes2"
            },
            {
              "internalType": "uint8",
              "name": "size",
              "type": "uint8"
            }
          ],
          "internalType": "struct Lib.Multihash",
          "name": "multihash",
          "type": "tuple"
        },
        {
          "internalType": "enum Lib.Status",
          "name": "status",
          "type": "uint8"
        },
        {
          "internalType": "uint256",
          "name": "timestamp",
          "type": "uint256"
        },
        {
          "internalType": "uint256",
          "name": "totalStakingAmount",
          "type": "uint256"
        },
        {
          "internalType": "uint256",
          "name": "roundId",
          "type": "uint256"
        }
      ],
      "stateMutability": "view",
      "type": "function",
      "constant": true
    },
    {
      "inputs": [
        {
          "internalType": "bytes32",
          "name": "role",
          "type": "bytes32"
        },
        {
          "internalType": "address",
          "name": "account",
          "type": "address"
        }
      ],
      "name": "renounceRole",
      "outputs": [],
      "stateMutability": "nonpayable",
      "type": "function"
    },
    {
      "inputs": [
        {
          "internalType": "bytes32",
          "name": "role",
          "type": "bytes32"
        },
        {
          "internalType": "address",
          "name": "account",
          "type": "address"
        }
      ],
      "name": "revokeRole",
      "outputs": [],
      "stateMutability": "nonpayable",
      "type": "function"
    },
    {
      "inputs": [
        {
          "internalType": "uint256",
          "name": "",
          "type": "uint256"
        }
      ],
      "name": "rounds",
      "outputs": [
        {
          "internalType": "uint256",
          "name": "onnanocoId",
          "type": "uint256"
        },
        {
          "internalType": "uint256",
          "name": "totalDefenseAmount",
          "type": "uint256"
        },
        {
          "internalType": "uint256",
          "name": "totalAttackAmount",
          "type": "uint256"
        },
        {
          "internalType": "uint256",
          "name": "timestamp",
          "type": "uint256"
        },
        {
          "internalType": "uint256",
          "name": "totalVotes",
          "type": "uint256"
        }
      ],
      "stateMutability": "view",
      "type": "function",
      "constant": true
    },
    {
      "inputs": [
        {
          "internalType": "address",
          "name": "",
          "type": "address"
        },
        {
          "internalType": "uint256",
          "name": "",
          "type": "uint256"
        }
      ],
      "name": "stakes",
      "outputs": [
        {
          "internalType": "uint256",
          "name": "id",
          "type": "uint256"
        },
        {
          "internalType": "uint256",
          "name": "amount",
          "type": "uint256"
        },
        {
          "internalType": "uint256",
          "name": "timestamp",
          "type": "uint256"
        }
      ],
      "stateMutability": "view",
      "type": "function",
      "constant": true
    },
    {
      "inputs": [
        {
          "internalType": "bytes4",
          "name": "interfaceId",
          "type": "bytes4"
        }
      ],
      "name": "supportsInterface",
      "outputs": [
        {
          "internalType": "bool",
          "name": "",
          "type": "bool"
        }
      ],
      "stateMutability": "view",
      "type": "function",
      "constant": true
    },
    {
      "inputs": [],
      "name": "symbol",
      "outputs": [
        {
          "internalType": "string",
          "name": "",
          "type": "string"
        }
      ],
      "stateMutability": "view",
      "type": "function",
      "constant": true
    },
    {
      "inputs": [],
      "name": "totalOnnanocos",
      "outputs": [
        {
          "internalType": "uint256",
          "name": "",
          "type": "uint256"
        }
      ],
      "stateMutability": "view",
      "type": "function",
      "constant": true
    },
    {
      "inputs": [],
      "name": "totalRounds",
      "outputs": [
        {
          "internalType": "uint256",
          "name": "",
          "type": "uint256"
        }
      ],
      "stateMutability": "view",
      "type": "function",
      "constant": true
    },
    {
      "inputs": [],
      "name": "totalSupply",
      "outputs": [
        {
          "internalType": "uint256",
          "name": "",
          "type": "uint256"
        }
      ],
      "stateMutability": "view",
      "type": "function",
      "constant": true
    },
    {
      "inputs": [
        {
          "internalType": "address",
          "name": "recipient",
          "type": "address"
        },
        {
          "internalType": "uint256",
          "name": "amount",
          "type": "uint256"
        }
      ],
      "name": "transfer",
      "outputs": [
        {
          "internalType": "bool",
          "name": "",
          "type": "bool"
        }
      ],
      "stateMutability": "nonpayable",
      "type": "function"
    },
    {
      "inputs": [
        {
          "internalType": "address",
          "name": "sender",
          "type": "address"
        },
        {
          "internalType": "address",
          "name": "recipient",
          "type": "address"
        },
        {
          "internalType": "uint256",
          "name": "amount",
          "type": "uint256"
        }
      ],
      "name": "transferFrom",
      "outputs": [
        {
          "internalType": "bool",
          "name": "",
          "type": "bool"
        }
      ],
      "stateMutability": "nonpayable",
      "type": "function"
    },
    {
      "inputs": [
        {
          "internalType": "string",
          "name": "name",
          "type": "string"
        },
        {
          "internalType": "bytes32",
          "name": "hash",
          "type": "bytes32"
        },
        {
          "internalType": "bytes2",
          "name": "hashFunction",
          "type": "bytes2"
        },
        {
          "internalType": "uint8",
          "name": "hashSize",
          "type": "uint8"
        },
        {
          "internalType": "uint256",
          "name": "amount",
          "type": "uint256"
        }
      ],
      "name": "add",
      "outputs": [],
      "stateMutability": "nonpayable",
      "type": "function"
    },
    {
      "inputs": [
        {
          "internalType": "uint256",
          "name": "id",
          "type": "uint256"
        }
      ],
      "name": "getMinimumAttackAmount",
      "outputs": [
        {
          "internalType": "uint256",
          "name": "amount",
          "type": "uint256"
        }
      ],
      "stateMutability": "view",
      "type": "function",
      "constant": true
    },
    {
      "inputs": [
        {
          "internalType": "uint256",
          "name": "id",
          "type": "uint256"
        },
        {
          "internalType": "uint256",
          "name": "amount",
          "type": "uint256"
        }
      ],
      "name": "attack",
      "outputs": [],
      "stateMutability": "nonpayable",
      "type": "function"
    },
    {
      "inputs": [
        {
          "internalType": "uint256",
          "name": "id",
          "type": "uint256"
        }
      ],
      "name": "getMinimumDefenseAmount",
      "outputs": [
        {
          "internalType": "uint256",
          "name": "amount",
          "type": "uint256"
        }
      ],
      "stateMutability": "view",
      "type": "function",
      "constant": true
    },
    {
      "inputs": [
        {
          "internalType": "uint256",
          "name": "id",
          "type": "uint256"
        },
        {
          "internalType": "uint256",
          "name": "amount",
          "type": "uint256"
        }
      ],
      "name": "defense",
      "outputs": [],
      "stateMutability": "nonpayable",
      "type": "function"
    },
    {
      "inputs": [
        {
          "internalType": "uint256",
          "name": "roundId",
          "type": "uint256"
        }
      ],
      "name": "clearRound",
      "outputs": [],
      "stateMutability": "nonpayable",
      "type": "function"
    },
    {
      "inputs": [
        {
          "internalType": "uint256",
          "name": "roundId",
          "type": "uint256"
        },
        {
          "internalType": "uint256",
          "name": "voteId",
          "type": "uint256"
        }
      ],
      "name": "resolveAttack",
      "outputs": [],
      "stateMutability": "nonpayable",
      "type": "function"
    },
    {
      "inputs": [
        {
          "internalType": "uint256",
          "name": "roundId",
          "type": "uint256"
        },
        {
          "internalType": "uint256",
          "name": "voteId",
          "type": "uint256"
        }
      ],
      "name": "resolveDefense",
      "outputs": [],
      "stateMutability": "nonpayable",
      "type": "function"
    },
    {
      "inputs": [
        {
          "internalType": "uint256",
          "name": "id",
          "type": "uint256"
        },
        {
          "internalType": "uint256",
          "name": "amount",
          "type": "uint256"
        }
      ],
      "name": "stake",
      "outputs": [],
      "stateMutability": "nonpayable",
      "type": "function"
    },
    {
      "inputs": [
        {
          "internalType": "uint256",
          "name": "stakeId",
          "type": "uint256"
        }
      ],
      "name": "unstake",
      "outputs": [],
      "stateMutability": "nonpayable",
      "type": "function"
    },
    {
      "inputs": [
        {
          "internalType": "address",
          "name": "staker",
          "type": "address"
        },
        {
          "internalType": "uint256",
          "name": "stakeId",
          "type": "uint256"
        }
      ],
      "name": "getStakeRewardAmount",
      "outputs": [
        {
          "internalType": "uint256",
          "name": "amount",
          "type": "uint256"
        },
        {
          "internalType": "uint256",
          "name": "duration",
          "type": "uint256"
        }
      ],
      "stateMutability": "view",
      "type": "function",
      "constant": true
    },
    {
      "inputs": [
        {
          "internalType": "uint256",
          "name": "stakeId",
          "type": "uint256"
        }
      ],
      "name": "receiveStakeReward",
      "outputs": [],
      "stateMutability": "nonpayable",
      "type": "function"
    },
    {
      "inputs": [
        {
          "internalType": "uint256",
          "name": "id",
          "type": "uint256"
        }
      ],
      "name": "getOwnerRewardAmount",
      "outputs": [
        {
          "internalType": "uint256",
          "name": "amount",
          "type": "uint256"
        },
        {
          "internalType": "uint256",
          "name": "duration",
          "type": "uint256"
        }
      ],
      "stateMutability": "view",
      "type": "function",
      "constant": true
    },
    {
      "inputs": [
        {
          "internalType": "uint256",
          "name": "id",
          "type": "uint256"
        }
      ],
      "name": "receiveOwnerReward",
      "outputs": [],
      "stateMutability": "nonpayable",
      "type": "function"
    },
    {
      "inputs": [
        {
          "internalType": "address",
          "name": "user",
          "type": "address"
        },
        {
          "internalType": "bytes",
          "name": "depositData",
          "type": "bytes"
        }
      ],
      "name": "deposit",
      "outputs": [],
      "stateMutability": "nonpayable",
      "type": "function"
    },
    {
      "inputs": [
        {
          "internalType": "uint256",
          "name": "amount",
          "type": "uint256"
        }
      ],
      "name": "withdraw",
      "outputs": [],
      "stateMutability": "nonpayable",
      "type": "function"
    },
    {
      "inputs": [
        {
          "internalType": "string",
          "name": "name",
          "type": "string"
        },
        {
          "internalType": "string",
          "name": "symbol",
          "type": "string"
        },
        {
          "internalType": "address",
          "name": "childchangeProxy",
          "type": "address"
        }
      ],
      "name": "initialize",
      "outputs": [],
      "stateMutability": "nonpayable",
      "type": "function"
    }
  ],
  "bytecode": "0x608060405234801561001057600080fd5b50613e58806100206000396000f3fe608060405234801561001057600080fd5b506004361061027f5760003560e01c80637b0472f01161015c578063a3b0b5a3116100ce578063d1cd59ea11610087578063d1cd59ea14610666578063d50c2c5014610679578063d547741f1461068c578063dd62ed3e1461069f578063e1fa7638146106d8578063fd75061f146106eb5761027f565b8063a3b0b5a3146105e0578063a457c2d714610607578063a9059cbb1461061a578063b4d039281461062d578063ca15c87314610640578063cf2c52cb146106535761027f565b80638c65c81f116101205780638c65c81f146104f25780639010d07c1461055757806391d1485414610582578063946e94c41461059557806395d89b41146105d0578063a217fddf146105d85761027f565b80637b0472f01461049d57806381a15af4146104b0578063860909c4146104c3578063867e1f55146104d65780638a568299146104e95761027f565b80632e1a7d4d116101f5578063584b62a1116101b9578063584b62a1146103e557806364d07acb146104135780636ad6c0351461043b5780636d13a9e61461044e57806370a08231146104615780637797d79f1461048a5761027f565b80632e1a7d4d1461038a5780632f2ff15d1461039d578063313ce567146103b057806336568abe146103bf57806339509351146103d25761027f565b8063111bf50b11610247578063111bf50b1461030057806318160ddd146103135780632042f1c71461031b57806323b872dd14610341578063248a9ca3146103545780632e17de78146103775761027f565b806301ffc9a71461028457806306fdde03146102ac578063077f224a146102c1578063095ea7b3146102d65780630c6cc4a3146102e9575b600080fd5b610297610292366004613878565b6106fe565b60405190151581526020015b60405180910390f35b6102b461072b565b6040516102a39190613a35565b6102d46102cf366004613923565b6107bd565b005b6102976102e43660046137f4565b6108ce565b6102f260fe5481565b6040519081526020016102a3565b6102d461030e3660046138a0565b6108e5565b60cb546102f2565b61032e61032936600461381d565b610b8c565b6040516102a39796959493929190613a48565b61029761034f36600461373b565b610c92565b6102f261036236600461381d565b60009081526065602052604090206001015490565b6102d461038536600461381d565b610d3c565b6102d461039836600461381d565b611013565b6102d46103ab366004613835565b61101f565b604051601281526020016102a3565b6102d46103cd366004613835565b61104b565b6102976103e03660046137f4565b6110c9565b6103f86103f33660046137f4565b611105565b604080519384526020840192909252908201526060016102a3565b6104266104213660046137f4565b611148565b604080519283526020830191909152016102a3565b6102f261044936600461381d565b6112a0565b61042661045c36600461381d565b611413565b6102f261046f3660046136ef565b6001600160a01b0316600090815260c9602052604090205490565b6102d4610498366004613857565b61169b565b6102d46104ab366004613857565b611928565b6102d46104be36600461381d565b611a41565b6102d46104d1366004613857565b611d90565b6102d46104e436600461381d565b611f83565b6102f260fd5481565b61052f61050036600461381d565b60fc60205260009081526040902080546001820154600283015460038401546004909401549293919290919085565b604080519586526020860194909452928401919091526060830152608082015260a0016102a3565b61056a610565366004613857565b612128565b6040516001600160a01b0390911681526020016102a3565b610297610590366004613835565b612147565b6105a86105a3366004613857565b612172565b604080519485526001600160a01b0390931660208501529183015260608201526080016102a3565b6102b46121c2565b6102f2600081565b6102f27f8f4f2da22e8ac8f11e15f9fc141cddbb5deea8800186560abb6e68c5496619a981565b6102976106153660046137f4565b6121d1565b6102976106283660046137f4565b61226a565b6102f261063b36600461381d565b612277565b6102f261064e36600461381d565b6123a9565b6102d4610661366004613776565b6123c0565b6102d461067436600461381d565b612450565b6105a8610687366004613857565b612575565b6102d461069a366004613835565b612591565b6102f26106ad366004613709565b6001600160a01b03918216600090815260ca6020908152604080832093909416825291909152205490565b6102d46106e6366004613857565b6125b7565b6102d46106f9366004613857565b61283b565b60006001600160e01b03198216635a05180f60e01b1480610723575061072382612a4e565b90505b919050565b606060cc805461073a90613da0565b80601f016020809104026020016040519081016040528092919081815260200182805461076690613da0565b80156107b35780601f10610788576101008083540402835291602001916107b3565b820191906000526020600020905b81548152906001019060200180831161079657829003601f168201915b5050505050905090565b600054610100900460ff166107d85760005460ff16156107dc565b303b155b6108445760405162461bcd60e51b815260206004820152602e60248201527f496e697469616c697a61626c653a20636f6e747261637420697320616c72656160448201526d191e481a5b9a5d1a585b1a5e995960921b60648201526084015b60405180910390fd5b600054610100900460ff1615801561086f576000805460ff1961ff0019909116610100171660011790555b6108798484612a83565b6108a37f8f4f2da22e8ac8f11e15f9fc141cddbb5deea8800186560abb6e68c5496619a983612abc565b6108b63368056bc75e2d63100000612ac6565b80156108c8576000805461ff00191690555b50505050565b60006108db338484612ba6565b5060015b92915050565b600081116109055760405162461bcd60e51b815260040161083b90613ad5565b610910335b82612cca565b6040518060e001604052808681526020016109283390565b6001600160a01b03168152604080516060810182528781526001600160f01b0319871660208281019190915260ff87168284015283015201600081526020014281526020016000815260200160fd5481525060fb600060fe54815260200190815260200160002060008201518160000190805190602001906109ab9291906135b8565b50602082810151600180840180546001600160a01b039093166001600160a01b031990931692909217909155604080850151805160028087019190915593810151600386018054929093015160ff16620100000262ff00001960f09290921c61ffff19909316929092171617905560608401516004840180549193909260ff1990921691908490811115610a4f57634e487b7160e01b600052602160045260246000fd5b0217905550608082810151600583015560a080840151600684015560c09093015160079092019190915560408051928301815260fe805484526020808501868152600086850181815260608801828152600189890181815260fd8054865260fc88528986209b518c559551918b0191909155915160028a01555160038901555160049097019690965554855260ff8152938290208251938401909252548252918101336001600160a01b039081168252602080830186905242604093840152845460018082018755600096875282872086516004909302019182559185015191810180546001600160a01b031916929093169190911790915590820151600282015560609091015160039091015560fe805491610b6b83613ddb565b909155505060fd8054906000610b8083613ddb565b91905055505050505050565b60fb60205260009081526040902080548190610ba790613da0565b80601f0160208091040260200160405190810160405280929190818152602001828054610bd390613da0565b8015610c205780601f10610bf557610100808354040283529160200191610c20565b820191906000526020600020905b815481529060010190602001808311610c0357829003601f168201915b5050505060018301546040805160608101825260028601548152600386015460f081901b6001600160f01b031916602083015262010000900460ff9081169282019290925260048601546005870154600688015460079098015496976001600160a01b03909516969295509216929087565b6000610c9f848484612e18565b6001600160a01b038416600090815260ca6020908152604080832033845290915290205482811015610d245760405162461bcd60e51b815260206004820152602860248201527f45524332303a207472616e7366657220616d6f756e74206578636565647320616044820152676c6c6f77616e636560c01b606482015260840161083b565b610d318533858403612ba6565b506001949350505050565b600080610d4a335b84611148565b9150915060006101016000610d5c3390565b6001600160a01b03166001600160a01b031681526020019081526020016000208481548110610d9b57634e487b7160e01b600052603260045260246000fd5b60009182526020918290206040805160608101825260039093029091018054835260018082015494840194909452600201549082015291508151600090815260fb602052604090206004015460ff166002811115610e0957634e487b7160e01b600052602160045260246000fd5b1415610e575760405162461bcd60e51b815260206004820152601f60248201527f4d4f453a20726f756e6420697320696e20646973707574652073746174757300604482015260640161083b565b610e108211610e785760405162461bcd60e51b815260040161083b90613b0c565b610e9133848360200151610e8c9190613cef565b612ac6565b806020015160fb6000836000015181526020019081526020016000206006016000828254610ebf9190613d46565b909155508490505b3360009081526101016020526040902054610ee490600190613d46565b81101561100c5733600090815261010160205260409020610f06826001613cef565b81548110610f2457634e487b7160e01b600052603260045260246000fd5b90600052602060002090600302016101016000610f3e3390565b6001600160a01b03166001600160a01b031681526020019081526020016000208281548110610f7d57634e487b7160e01b600052603260045260246000fd5b6000918252602080832084546003939093020191825560018085015490830155600293840154939091019290925533815261010190915260409020805480610fd557634e487b7160e01b600052603160045260246000fd5b600082815260208120600360001990930192830201818155600181018290556002015590558061100481613ddb565b915050610ec7565b5050505050565b61101c3361090a565b50565b60008281526065602052604090206001015461103c81335b612fe6565b611046838361304a565b505050565b6001600160a01b03811633146110bb5760405162461bcd60e51b815260206004820152602f60248201527f416363657373436f6e74726f6c3a2063616e206f6e6c792072656e6f756e636560448201526e103937b632b9903337b91039b2b63360891b606482015260840161083b565b6110c5828261306c565b5050565b33600081815260ca602090815260408083206001600160a01b038716845290915281205490916108db918590611100908690613cef565b612ba6565b610101602052816000526040600020818154811061112257600080fd5b600091825260209091206003909102018054600182015460029092015490935090915083565b3360009081526101016020526040812054819083106111a95760405162461bcd60e51b815260206004820152601e60248201527f4d4f453a206e6f207374616b696e67206461746120617661696c61626c650000604482015260640161083b565b6001600160a01b0384166000908152610101602052604081208054859081106111e257634e487b7160e01b600052603260045260246000fd5b90600052602060002090600302016040518060600160405290816000820154815260200160018201548152602001600282015481525050905080604001514261122b9190613d46565b91506283d6008282602001516112419190613d27565b61124b9190613d07565b925060008151600090815260fb602052604090206004015460ff16600281111561128557634e487b7160e01b600052602160045260246000fd5b14611297576000809250925050611299565b505b9250929050565b600060fe5482106112c35760405162461bcd60e51b815260040161083b90613b86565b6002600083815260fb602052604090206004015460ff1660028111156112f957634e487b7160e01b600052602160045260246000fd5b141561133e5760405162461bcd60e51b81526020600482015260146024820152734d4f453a2064657072656361746564206461746160601b604482015260640161083b565b600082815260fb602090815260408083206007015480845260fc835292819020815160a081018352815481526001820154938101939093526002810154918301829052600380820154606085015260049091015460808401526113a19190613d27565b816040015182602001516113b59190613cef565b6113c0906002613d27565b11156114085760408101516113d6906003613d27565b816040015182602001516113ea9190613cef565b6113f5906002613d27565b6113ff9190613d46565b92505050610726565b600092505050610726565b60008060fe5483106114375760405162461bcd60e51b815260040161083b90613b86565b600083815260fb6020526040808220815160e0810190925280548290829061145e90613da0565b80601f016020809104026020016040519081016040528092919081815260200182805461148a90613da0565b80156114d75780601f106114ac576101008083540402835291602001916114d7565b820191906000526020600020905b8154815290600101906020018083116114ba57829003601f168201915b505050918352505060018201546001600160a01b031660208083019190915260408051606080820183526002808701548352600387015460f081901b6001600160f01b031916958401959095526201000090940460ff90811683850152928501919091526004850154930192169081111561156257634e487b7160e01b600052602160045260246000fd5b600281111561158157634e487b7160e01b600052602160045260246000fd5b8152600582015460208201526006820154604082015260079091015460609091015290506000816060015160028111156115cb57634e487b7160e01b600052602160045260246000fd5b146115e85760405162461bcd60e51b815260040161083b90613bbd565b60c0810151600090815260ff602052604081208054829061161957634e487b7160e01b600052603260045260246000fd5b60009182526020918290206040805160808101825260049093029091018054835260018101546001600160a01b031693830193909352600283015490820152600390910154606082018190529091506116729042613d46565b92506241eb008382604001516116889190613d27565b6116929190613d07565b93505050915091565b60fd5482106116bc5760405162461bcd60e51b815260040161083b90613c6d565b600082815260ff602052604090205481106117195760405162461bcd60e51b815260206004820152601e60248201527f4d4f453a206e6f20646566656e7365206461746120617661696c61626c650000604482015260640161083b565b600082815260ff6020526040812080548390811061174757634e487b7160e01b600052603260045260246000fd5b60009182526020918290206040805160808101825260049093029091018054835260018101546001600160a01b0316938301849052600281015491830191909152600301546060820152915061179a3390565b6001600160a01b0316146117c05760405162461bcd60e51b815260040161083b90613b5a565b600083815260fc60209081526040808320815160a0810183528154815260018201549381019390935260028101549183019190915260038101546060830181905260049091015460808301529091906118199042613d46565b9050610e10811161183c5760405162461bcd60e51b815260040161083b90613c36565b6000826020015183604001516118529190613cef565b90508260200151836040015110156118bd5784156118915761188c33602085015160408701516118829085613d27565b610e8c9190613d07565b6118bd565b6118bd33604086015160208601516118a98286613d27565b6118b39190613d07565b610e8c9190613d46565b600086815260ff602052604081208054879081106118eb57634e487b7160e01b600052603260045260246000fd5b906000526020600020906004020160010160006101000a8154816001600160a01b0302191690836001600160a01b03160217905550505050505050565b600081116119485760405162461bcd60e51b815260040161083b90613ad5565b60fe5482106119695760405162461bcd60e51b815260040161083b90613b86565b600082815260fb602052604081206004015460ff16600281111561199d57634e487b7160e01b600052602160045260246000fd5b146119ba5760405162461bcd60e51b815260040161083b90613bbd565b6119c33361090a565b3360009081526101016020908152604080832081516060810183528681528084018681524282850190815283546001808201865594885286882093516003909102909301928355905192820192909255905160029091015584835260fb90915281206006018054839290611a38908490613cef565b90915550505050565b60fd548110611a625760405162461bcd60e51b815260040161083b90613c6d565b600081815260fc60209081526040808320815160a081018352815480825260018084015483870152600284015483860152600384015460608401526004909301546080830152855260fb90935292209091600482015460ff166002811115611ada57634e487b7160e01b600052602160045260246000fd5b14611af75760405162461bcd60e51b815260040161083b90613bff565b6000826060015142611b099190613d46565b9050610e108111611b2c5760405162461bcd60e51b815260040161083b90613c36565b826020015183604001511115611b7057611b5c3360648560400151611b519190613d07565b610e8c906001613d27565b60048201805460ff191660021790556108c8565b8260200151836040015110156108c857611b953360648560200151611b519190613d07565b60048201805460ff19169055600084815260ff6020526040812080548290611bcd57634e487b7160e01b600052603260045260246000fd5b9060005260206000209060040201604051806080016040529081600082015481526020016001820160009054906101000a90046001600160a01b03166001600160a01b03166001600160a01b031681526020016002820154815260200160038201548152505090506040518060a0016040528085600001518152602001826040015181526020016000815260200160008152602001600181525060fc600060fd548152602001908152602001600020600082015181600001556020820151816001015560408201518160020155606082015181600301556080820151816004015590505060fd54836007018190555060ff600060fd54815260200190815260200160002060405180608001604052808660000151815260200183602001516001600160a01b03168152602001836040015181526020014281525090806001815401808255809150506001900390600052602060002090600402016000909190919091506000820151816000015560208201518160010160006101000a8154816001600160a01b0302191690836001600160a01b031602179055506040820151816002015560608201518160030155505060fd6000815480929190610b8090613ddb565b60008111611db05760405162461bcd60e51b815260040161083b90613ad5565b600082815260fb602090815260408083206007015480845260fc8352818420825160a0810184528154815260018201549481019490945260028101549284019290925260038201546060840152600490910154608083015291611e1285612277565b905080841015611e645760405162461bcd60e51b815260206004820152601d60248201527f4d4f453a206c657373207468616e206d696e696d756d20616d6f756e74000000604482015260640161083b565b6000826060015142611e769190613d46565b9050610e108110611e995760405162461bcd60e51b815260040161083b90613bff565b611ea33386612cca565b60ff60008581526020019081526020016000206040518060800160405280888152602001611ece3390565b6001600160a01b03908116825260208083018a905242604093840152845460018082018755600096875282872086516004909302019182558583015182820180546001600160a01b031916919095161790935584840151600282015560609094015160039094019390935587845260fc9092528220018054879290611f54908490613cef565b9091555050600084815260fc60205260408120600401805491611f7683613ddb565b9190505550505050505050565b600080611f8f33610d44565b9150915060006101016000611fa13390565b6001600160a01b03166001600160a01b031681526020019081526020016000208481548110611fe057634e487b7160e01b600052603260045260246000fd5b6000918252602080832060408051606081018252600394909402909101805480855260018201548585015260029182015485840152855260fb90925283206004015491935060ff9091169081111561204857634e487b7160e01b600052602160045260246000fd5b14156120665760405162461bcd60e51b815260040161083b90613bbd565b600083116120b65760405162461bcd60e51b815260206004820152601f60248201527f4d4f453a20726577617264206d7573742067726561746572207468616e203000604482015260640161083b565b610e1082116120d75760405162461bcd60e51b815260040161083b90613b0c565b3360009081526101016020526040902080544291908690811061210a57634e487b7160e01b600052603260045260246000fd5b60009182526020909120600260039092020101556108c83384612ac6565b6000828152609760205260408120612140908361308e565b9392505050565b60009182526065602090815260408084206001600160a01b0393909316845291905290205460ff1690565b610100602052816000526040600020818154811061218f57600080fd5b600091825260209091206004909102018054600182015460028301546003909301549194506001600160a01b0316925084565b606060cd805461073a90613da0565b33600090815260ca602090815260408083206001600160a01b0386168452909152812054828110156122535760405162461bcd60e51b815260206004820152602560248201527f45524332303a2064656372656173656420616c6c6f77616e63652062656c6f77604482015264207a65726f60d81b606482015260840161083b565b6122603385858403612ba6565b5060019392505050565b60006108db338484612e18565b600060fe54821061229a5760405162461bcd60e51b815260040161083b90613b86565b6001600083815260fb602052604090206004015460ff1660028111156122d057634e487b7160e01b600052602160045260246000fd5b146122ed5760405162461bcd60e51b815260040161083b90613bff565b600082815260fb602090815260408083206007015480845260fc835292819020815160a0810183528154815260018201549381019390935260028101549183019190915260038101546060830181905260049091015460808301526123645760405162461bcd60e51b815260040161083b90613c6d565b6020810151612374906003613d27565b816040015182602001516123889190613cef565b612393906002613d27565b11156114085760208101516113d6906003613d27565b60008181526097602052604081206107239061309a565b6123ea7f8f4f2da22e8ac8f11e15f9fc141cddbb5deea8800186560abb6e68c5496619a933610590565b6124365760405162461bcd60e51b815260206004820152601d60248201527f596f75277265206e6f7420616c6c6f77656420746f206465706f736974000000604482015260640161083b565b60006124448284018461381d565b90506108c88482612ac6565b60008061245c83611413565b915091506124673390565b600084815260fb60205260409020600101546001600160a01b039081169116146124a35760405162461bcd60e51b815260040161083b90613b5a565b610e1081116124c45760405162461bcd60e51b815260040161083b90613b0c565b600082116125145760405162461bcd60e51b815260206004820152601f60248201527f4d4f453a20726577617264206d7573742067726561746572207468616e203000604482015260640161083b565b61251e3383612ac6565b600083815260fb6020908152604080832060070154835260ff9091528120805442929061255b57634e487b7160e01b600052603260045260246000fd5b906000526020600020906004020160030181905550505050565b60ff602052816000526040600020818154811061218f57600080fd5b6000828152606560205260409020600101546125ad8133611037565b611046838361306c565b600081116125d75760405162461bcd60e51b815260040161083b90613ad5565b60006125e2836112a0565b9050808210156126345760405162461bcd60e51b815260206004820152601d60248201527f4d4f453a206c657373207468616e206d696e696d756d20616d6f756e74000000604482015260640161083b565b600083815260fb60205260408120600781015460049091015490919060ff16600281111561267257634e487b7160e01b600052602160045260246000fd5b14156126ad57600084815260fb60209081526040808320600401805460ff1916600117905583835260fc90915290204260039091015561274f565b600081815260fc6020908152604091829020825160a081018452815481526001820154928101929092526002810154928201929092526003820154606082018190526004909201546080820152906127175760405162461bcd60e51b815260040161083b90613c6d565b60008160600151426127299190613d46565b9050610e10811061274c5760405162461bcd60e51b815260040161083b90613bff565b50505b6127593384612cca565b610100600082815260200190815260200160002060405180608001604052808681526020016127853390565b6001600160a01b039081168252602080830188905242604093840152845460018082018755600096875282872086516004909302019182558583015190820180546001600160a01b03191691909416179092558383015160028084019190915560609094015160039092019190915584845260fc9052822001805485929061280e908490613cef565b9091555050600081815260fc6020526040812060040180549161283083613ddb565b919050555050505050565b60fd54821061285c5760405162461bcd60e51b815260040161083b90613c6d565b6000828152610100602052604090205481106128ba5760405162461bcd60e51b815260206004820152601d60248201527f4d4f453a206e6f2061747461636b206461746120617661696c61626c65000000604482015260640161083b565b6000828152610100602052604081208054839081106128e957634e487b7160e01b600052603260045260246000fd5b60009182526020918290206040805160808101825260049093029091018054835260018101546001600160a01b0316938301849052600281015491830191909152600301546060820152915061293c3390565b6001600160a01b0316146129625760405162461bcd60e51b815260040161083b90613b5a565b600083815260fc60209081526040808320815160a0810183528154815260018201549381019390935260028101549183019190915260038101546060830181905260049091015460808301529091906129bb9042613d46565b9050610e1081116129de5760405162461bcd60e51b815260040161083b90613c36565b6000826020015183604001516129f49190613cef565b9050826020015183604001511115612a1f57612a1f3384604001518660400151846118829190613d27565b6000868152610100602052604081208054879081106118eb57634e487b7160e01b600052603260045260246000fd5b60006001600160e01b03198216637965db0b60e01b148061072357506301ffc9a760e01b6001600160e01b0319831614610723565b600054610100900460ff16612aaa5760405162461bcd60e51b815260040161083b90613ca4565b612ab26130a4565b6110c582826130cd565b6110c5828261304a565b6001600160a01b038216612b1c5760405162461bcd60e51b815260206004820152601f60248201527f45524332303a206d696e7420746f20746865207a65726f206164647265737300604482015260640161083b565b8060cb6000828254612b2e9190613cef565b90915550506001600160a01b038216600090815260c9602052604081208054839290612b5b908490613cef565b90915550506040518181526001600160a01b038316906000907fddf252ad1be2c89b69c2b068fc378daa952ba7f163c4a11628f55a4df523b3ef9060200160405180910390a36110c5565b6001600160a01b038316612c085760405162461bcd60e51b8152602060048201526024808201527f45524332303a20617070726f76652066726f6d20746865207a65726f206164646044820152637265737360e01b606482015260840161083b565b6001600160a01b038216612c695760405162461bcd60e51b815260206004820152602260248201527f45524332303a20617070726f766520746f20746865207a65726f206164647265604482015261737360f01b606482015260840161083b565b6001600160a01b03838116600081815260ca602090815260408083209487168084529482529182902085905590518481527f8c5be1e5ebec7d5bd14f71427d1e84f3dd0314c0f7b2291e5b200ac8c7c3b925910160405180910390a3505050565b6001600160a01b038216612d2a5760405162461bcd60e51b815260206004820152602160248201527f45524332303a206275726e2066726f6d20746865207a65726f206164647265736044820152607360f81b606482015260840161083b565b6001600160a01b038216600090815260c9602052604090205481811015612d9e5760405162461bcd60e51b815260206004820152602260248201527f45524332303a206275726e20616d6f756e7420657863656564732062616c616e604482015261636560f01b606482015260840161083b565b6001600160a01b038316600090815260c960205260408120838303905560cb8054849290612dcd908490613d46565b90915550506040518281526000906001600160a01b038516907fddf252ad1be2c89b69c2b068fc378daa952ba7f163c4a11628f55a4df523b3ef9060200160405180910390a3611046565b6001600160a01b038316612e7c5760405162461bcd60e51b815260206004820152602560248201527f45524332303a207472616e736665722066726f6d20746865207a65726f206164604482015264647265737360d81b606482015260840161083b565b6001600160a01b038216612ede5760405162461bcd60e51b815260206004820152602360248201527f45524332303a207472616e7366657220746f20746865207a65726f206164647260448201526265737360e81b606482015260840161083b565b6001600160a01b038316600090815260c9602052604090205481811015612f565760405162461bcd60e51b815260206004820152602660248201527f45524332303a207472616e7366657220616d6f756e7420657863656564732062604482015265616c616e636560d01b606482015260840161083b565b6001600160a01b03808516600090815260c96020526040808220858503905591851681529081208054849290612f8d908490613cef565b92505081905550826001600160a01b0316846001600160a01b03167fddf252ad1be2c89b69c2b068fc378daa952ba7f163c4a11628f55a4df523b3ef84604051612fd991815260200190565b60405180910390a36108c8565b612ff08282612147565b6110c557613008816001600160a01b0316601461311b565b61301383602061311b565b6040516020016130249291906139c0565b60408051601f198184030181529082905262461bcd60e51b825261083b91600401613a35565b61305482826132fd565b60008281526097602052604090206110469082613383565b6130768282613398565b600082815260976020526040902061104690826133ff565b60006121408383613414565b6000610723825490565b600054610100900460ff166130cb5760405162461bcd60e51b815260040161083b90613ca4565b565b600054610100900460ff166130f45760405162461bcd60e51b815260040161083b90613ca4565b81516131079060cc9060208501906135b8565b5080516110469060cd9060208401906135b8565b6060600061312a836002613d27565b613135906002613cef565b67ffffffffffffffff81111561315b57634e487b7160e01b600052604160045260246000fd5b6040519080825280601f01601f191660200182016040528015613185576020820181803683370190505b509050600360fc1b816000815181106131ae57634e487b7160e01b600052603260045260246000fd5b60200101906001600160f81b031916908160001a905350600f60fb1b816001815181106131eb57634e487b7160e01b600052603260045260246000fd5b60200101906001600160f81b031916908160001a905350600061320f846002613d27565b61321a906001613cef565b90505b60018111156132ae576f181899199a1a9b1b9c1cb0b131b232b360811b85600f166010811061325c57634e487b7160e01b600052603260045260246000fd5b1a60f81b82828151811061328057634e487b7160e01b600052603260045260246000fd5b60200101906001600160f81b031916908160001a90535060049490941c936132a781613d89565b905061321d565b5083156121405760405162461bcd60e51b815260206004820181905260248201527f537472696e67733a20686578206c656e67746820696e73756666696369656e74604482015260640161083b565b6133078282612147565b6110c55760008281526065602090815260408083206001600160a01b03851684529091529020805460ff1916600117905561333f3390565b6001600160a01b0316816001600160a01b0316837f2f8788117e7eff1d82e926ec794901d17c78024a50270940304540a733656f0d60405160405180910390a45050565b6000612140836001600160a01b03841661344c565b6133a28282612147565b156110c55760008281526065602090815260408083206001600160a01b0385168085529252808320805460ff1916905551339285917ff6391f5c32d9c69d2a47ea670b442974b53935d1edc7fd64eb21e047a839171b9190a45050565b6000612140836001600160a01b03841661349b565b600082600001828154811061343957634e487b7160e01b600052603260045260246000fd5b9060005260206000200154905092915050565b6000818152600183016020526040812054613493575081546001818101845560008481526020808220909301849055845484825282860190935260409020919091556108df565b5060006108df565b600081815260018301602052604081205480156135ae5760006134bf600183613d46565b85549091506000906134d390600190613d46565b905081811461355457600086600001828154811061350157634e487b7160e01b600052603260045260246000fd5b906000526020600020015490508087600001848154811061353257634e487b7160e01b600052603260045260246000fd5b6000918252602080832090910192909255918252600188019052604090208390555b855486908061357357634e487b7160e01b600052603160045260246000fd5b6001900381819060005260206000200160009055905585600101600086815260200190815260200160002060009055600193505050506108df565b60009150506108df565b8280546135c490613da0565b90600052602060002090601f0160209004810192826135e6576000855561362c565b82601f106135ff57805160ff191683800117855561362c565b8280016001018555821561362c579182015b8281111561362c578251825591602001919060010190613611565b5061363892915061363c565b5090565b5b80821115613638576000815560010161363d565b80356001600160a01b038116811461072657600080fd5b600082601f830112613678578081fd5b813567ffffffffffffffff8082111561369357613693613e0c565b604051601f8301601f19908116603f011681019082821181831017156136bb576136bb613e0c565b816040528381528660208588010111156136d3578485fd5b8360208701602083013792830160200193909352509392505050565b600060208284031215613700578081fd5b61214082613651565b6000806040838503121561371b578081fd5b61372483613651565b915061373260208401613651565b90509250929050565b60008060006060848603121561374f578081fd5b61375884613651565b925061376660208501613651565b9150604084013590509250925092565b60008060006040848603121561378a578283fd5b61379384613651565b9250602084013567ffffffffffffffff808211156137af578384fd5b818601915086601f8301126137c2578384fd5b8135818111156137d0578485fd5b8760208285010111156137e1578485fd5b6020830194508093505050509250925092565b60008060408385031215613806578182fd5b61380f83613651565b946020939093013593505050565b60006020828403121561382e578081fd5b5035919050565b60008060408385031215613847578182fd5b8235915061373260208401613651565b60008060408385031215613869578182fd5b50508035926020909101359150565b600060208284031215613889578081fd5b81356001600160e01b031981168114612140578182fd5b600080600080600060a086880312156138b7578081fd5b853567ffffffffffffffff8111156138cd578182fd5b6138d988828901613668565b9550506020860135935060408601356001600160f01b0319811681146138fd578182fd5b9250606086013560ff81168114613912578182fd5b949793965091946080013592915050565b600080600060608486031215613937578283fd5b833567ffffffffffffffff8082111561394e578485fd5b61395a87838801613668565b9450602086013591508082111561396f578384fd5b5061397c86828701613668565b92505061398b60408501613651565b90509250925092565b600081518084526139ac816020860160208601613d5d565b601f01601f19169290920160200192915050565b60007f416363657373436f6e74726f6c3a206163636f756e7420000000000000000000825283516139f8816017850160208801613d5d565b7001034b99036b4b9b9b4b733903937b6329607d1b6017918401918201528351613a29816028840160208801613d5d565b01602801949350505050565b6000602082526121406020830184613994565b6000610120808352613a5c8184018b613994565b91505060018060a01b03881660208301528651604083015261ffff60f01b602088015116606083015260ff604088015116608083015260038610613ab057634e487b7160e01b600052602160045260246000fd5b8560a08301528460c08301528360e08301528261010083015298975050505050505050565b6020808252601a908201527f4d4f453a20616d6f756e742063616e6e6f74206265207a65726f000000000000604082015260600190565b6020808252602e908201527f4d4f453a20726571756573742063616e206265206d616465206166746572206160408201526d3a103632b0b9ba1018903437bab960911b606082015260800190565b6020808252601290820152711353d14e881858d8d95cdcc819195b9a595960721b604082015260600190565b6020808252601f908201527f4d4f453a206e6f206f6e6e616e6f636f206461746120617661696c61626c6500604082015260600190565b60208082526022908201527f4d4f453a20726f756e64206973206e6f7420696e206e6f726d616c2073746174604082015261757360f01b606082015260800190565b6020808252601c908201527f4d4f453a20726f756e64206973206e6f7420696e206469737075746500000000604082015260600190565b6020808252601f908201527f4d4f453a20646973707574652077696e646f77206973206e6f74206f76657200604082015260600190565b6020808252601c908201527f4d4f453a206e6f20726f756e64206461746120617661696c61626c6500000000604082015260600190565b6020808252602b908201527f496e697469616c697a61626c653a20636f6e7472616374206973206e6f74206960408201526a6e697469616c697a696e6760a81b606082015260800190565b60008219821115613d0257613d02613df6565b500190565b600082613d2257634e487b7160e01b81526012600452602481fd5b500490565b6000816000190483118215151615613d4157613d41613df6565b500290565b600082821015613d5857613d58613df6565b500390565b60005b83811015613d78578181015183820152602001613d60565b838111156108c85750506000910152565b600081613d9857613d98613df6565b506000190190565b600281046001821680613db457607f821691505b60208210811415613dd557634e487b7160e01b600052602260045260246000fd5b50919050565b6000600019821415613def57613def613df6565b5060010190565b634e487b7160e01b600052601160045260246000fd5b634e487b7160e01b600052604160045260246000fdfea26469706673582212207b6ec53a2f718f80a3372a80a66f3309a55a07a737e0e841991965e65071b4af64736f6c63430008020033",
  "immutableReferences": {},
  "source": "// SPDX-License-Identifier: MIT\npragma solidity ^0.8.2;\n\nimport \"./Library.sol\";\nimport \"./IMOEToken.sol\";\nimport \"@openzeppelin/contracts-upgradeable/token/ERC20/ERC20Upgradeable.sol\";\nimport \"@openzeppelin/contracts-upgradeable/access/AccessControlEnumerableUpgradeable.sol\";\nimport \"@openzeppelin/contracts-upgradeable/utils/ContextUpgradeable.sol\";\n\n// *** IMPORTANT ***\n//\n// BEFORE DEPLOY\n// --------------\n// erase _mint() line on initialize()\n// change duration require() function on voteForAttack()\n// change duration require() function on voteForDeffense()\n// change duration require() function on unstake()\n// change duration require() function on clearRound()\n// change duration require() function on resolveAttack()\n// change duration require() function on resolveDefense()\n\ncontract MOEToken is ContextUpgradeable, AccessControlEnumerableUpgradeable, IMOEToken, ERC20Upgradeable {\n\n    bytes32 public constant DEPOSITOR_ROLE = keccak256(\"DEPOSITOR_ROLE\"); // Polygon mapping\n\n    mapping(uint256 => Lib.Onnanoco) public onnanocos;\n    mapping(uint256 => Lib.Round) public rounds;\n\n    uint256 public totalRounds;\n    uint256 public totalOnnanocos;\n\n    mapping(uint256 => Lib.Vote[]) public defenseVotes;\n    mapping(uint256 => Lib.Vote[]) public attackVotes;\n    mapping(address => Lib.Stake[]) public stakes;\n\n    // Add onnanoco data\n    function add(string memory name, bytes32 hash, bytes2 hashFunction, uint8 hashSize, uint256 amount) public {\n        \n        require(amount > 0, 'MOE: amount cannot be zero');\n\n        _burn(_msgSender(), amount);\n\n        onnanocos[totalOnnanocos] = Lib.Onnanoco(name, _msgSender(), Lib.Multihash(hash, hashFunction, hashSize), Lib.Status.NORMAL, block.timestamp, 0, totalRounds);\n\n        rounds[totalRounds] = Lib.Round(totalOnnanocos, amount, 0, 0, 1);\n\n        defenseVotes[totalRounds].push(Lib.Vote(totalOnnanocos, _msgSender(), amount, block.timestamp));\n\n        totalOnnanocos++;\n        totalRounds++;\n    }\n\n    function getMinimumAttackAmount(uint256 id) public view returns (uint256 amount) {\n\n        require(id < totalOnnanocos, 'MOE: no onnanoco data available');\n        require(onnanocos[id].status != Lib.Status.DEPRECATED, 'MOE: deprecated data');\n\n        uint256 roundId = onnanocos[id].roundId;\n        Lib.Round memory roundInfo = rounds[roundId];\n\n        if (((roundInfo.totalDefenseAmount + roundInfo.totalAttackAmount) * 2) > (roundInfo.totalAttackAmount * 3)) {\n            return ((roundInfo.totalDefenseAmount + roundInfo.totalAttackAmount) * 2) - (roundInfo.totalAttackAmount * 3);\n        } else {\n            return 0;\n        }\n    }\n\n    function attack(uint256 id, uint256 amount) public {\n\n        require(amount > 0, 'MOE: amount cannot be zero');\n        \n        uint256 minimumAmount = getMinimumAttackAmount(id);\n        require(amount >= minimumAmount, 'MOE: less than minimum amount');\n\n        uint256 roundId = onnanocos[id].roundId;\n        \n        // 1st attack\n        if (onnanocos[id].status == Lib.Status.NORMAL) {\n\n            onnanocos[id].status = Lib.Status.IN_DISPUTE;\n            rounds[roundId].timestamp = block.timestamp;\n\n        } else {\n            \n            Lib.Round memory roundInfo = rounds[roundId];\n            require(roundInfo.timestamp > 0, 'MOE: no round data available');\n\n            uint256 duration = block.timestamp - roundInfo.timestamp;\n            //require(duration < 60 * 60 * 24 * 7, 'MOE: round is not in dispute'); // deploy\n            require(duration < 60 * 60, 'MOE: round is not in dispute'); // dev\n        }\n\n        _burn(_msgSender(), amount);\n        attackVotes[roundId].push(Lib.Vote(id, _msgSender(), amount, block.timestamp));\n\n        rounds[roundId].totalAttackAmount += amount;\n        rounds[roundId].totalVotes++;\n    }\n\n    function getMinimumDefenseAmount(uint256 id) public view returns (uint256 amount) {\n\n        require (id < totalOnnanocos, 'MOE: no onnanoco data available');\n        require (onnanocos[id].status == Lib.Status.IN_DISPUTE, 'MOE: round is not in dispute');\n\n        uint256 roundId = onnanocos[id].roundId;\n        Lib.Round memory roundInfo = rounds[roundId];\n        require(roundInfo.timestamp > 0, 'MOE: no round data available');\n\n        if (((roundInfo.totalDefenseAmount + roundInfo.totalAttackAmount) * 2) > (roundInfo.totalDefenseAmount * 3)) {\n            return ((roundInfo.totalDefenseAmount + roundInfo.totalAttackAmount) * 2) - (roundInfo.totalDefenseAmount * 3);\n        } else {\n            return 0;\n        }\n    }\n\n    function defense(uint256 id, uint256 amount) public {\n\n        require(amount > 0, 'MOE: amount cannot be zero');\n\n        uint256 roundId = onnanocos[id].roundId;\n        Lib.Round memory roundInfo = rounds[roundId];\n\n        uint256 minimumAmount = getMinimumDefenseAmount(id);\n        require(amount >= minimumAmount, 'MOE: less than minimum amount');\n\n        uint256 duration = block.timestamp - roundInfo.timestamp;\n        //require(duration < 60 * 60 * 24 * 7, 'MOE: round is not in dispute'); // deploy\n        require(duration < 60 * 60 * 1, 'MOE: round is not in dispute'); // dev\n\n        _burn(_msgSender(), amount);\n        defenseVotes[roundId].push(Lib.Vote(id, _msgSender(), amount, block.timestamp));\n\n        rounds[roundId].totalDefenseAmount += amount;\n        rounds[roundId].totalVotes++;\n    }\n\n    function clearRound(uint256 roundId) public {\n        \n        require(roundId < totalRounds, 'MOE: no round data available');\n\n        Lib.Round memory roundInfo = rounds[roundId];\n        Lib.Onnanoco storage onnanoco = onnanocos[roundInfo.onnanocoId];\n        require(onnanoco.status == Lib.Status.IN_DISPUTE, 'MOE: round is not in dispute');\n\n        uint256 duration = block.timestamp - roundInfo.timestamp;\n\n        //require(duration > 60 * 60 * 24 * 7, 'MOE: dispute window is not over'); // deploy\n        require(duration > 60 * 60 * 1, 'MOE: dispute window is not over'); // dev\n\n        if (roundInfo.totalAttackAmount > roundInfo.totalDefenseAmount) { // Attackers win\n            _mint(_msgSender(), roundInfo.totalAttackAmount / 100 * 1);\n            onnanoco.status = Lib.Status.DEPRECATED;\n\n        } else if(roundInfo.totalAttackAmount < roundInfo.totalDefenseAmount) { // Attackers lose\n            _mint(_msgSender(), roundInfo.totalDefenseAmount / 100 * 1);\n            onnanoco.status = Lib.Status.NORMAL;\n\n            Lib.Vote memory vote = defenseVotes[roundId][0];\n\n            rounds[totalRounds] = Lib.Round(roundInfo.onnanocoId, vote.amount, 0, 0, 1);\n            onnanoco.roundId = totalRounds;\n\n            defenseVotes[totalRounds].push(Lib.Vote(roundInfo.onnanocoId, vote.voter, vote.amount, block.timestamp));\n\n            totalRounds++;\n        }\n    }\n\n    function resolveAttack(uint256 roundId, uint256 voteId) public {\n\n        require(roundId < totalRounds, 'MOE: no round data available');\n        require(voteId < attackVotes[roundId].length, 'MOE: no attack data available');\n\n        Lib.Vote memory voteInfo = attackVotes[roundId][voteId];\n        require(_msgSender() == voteInfo.voter, 'MOE: access denied');\n\n        Lib.Round memory roundInfo = rounds[roundId];\n        uint256 duration = block.timestamp - roundInfo.timestamp;\n\n        //require(duration > 60 * 60 * 24 * 7, 'MOE: dispute window is not over'); // deploy\n        require(duration > 60 * 60 * 1, 'MOE: dispute window is not over'); // dev\n\n        uint256 totalAmount = roundInfo.totalAttackAmount + roundInfo.totalDefenseAmount;\n\n        if (roundInfo.totalAttackAmount > roundInfo.totalDefenseAmount) {\n            _mint(_msgSender(), totalAmount * voteInfo.amount / roundInfo.totalAttackAmount);\n        }\n\n        attackVotes[roundId][voteId].voter = address(0);\n    }\n\n    function resolveDefense(uint256 roundId, uint256 voteId) public {\n\n        require(roundId < totalRounds, 'MOE: no round data available');\n        require(voteId < defenseVotes[roundId].length, 'MOE: no defense data available');\n\n        Lib.Vote memory voteInfo = defenseVotes[roundId][voteId];\n        require(_msgSender() == voteInfo.voter, 'MOE: access denied');\n\n        Lib.Round memory roundInfo = rounds[roundId];\n        uint256 duration = block.timestamp - roundInfo.timestamp;\n\n        //require(duration > 60 * 60 * 24 * 7, 'MOE: dispute window is not over'); // deploy\n        require(duration > 60 * 60 * 1, 'MOE: dispute window is not over'); // dev\n\n        uint256 totalAmount = roundInfo.totalAttackAmount + roundInfo.totalDefenseAmount;\n\n        if (roundInfo.totalAttackAmount < roundInfo.totalDefenseAmount) {\n\n            if (voteId > 0) {\n                _mint(_msgSender(), totalAmount * voteInfo.amount / roundInfo.totalDefenseAmount);\n            } else { // 1st defender\n                _mint(_msgSender(), (totalAmount * voteInfo.amount / roundInfo.totalDefenseAmount) - voteInfo.amount);\n            }\n        }\n\n        defenseVotes[roundId][voteId].voter = address(0);\n    }\n    \n    function stake(uint256 id, uint256 amount) public {\n    \n        require(amount > 0, 'MOE: amount cannot be zero');\n        require(id < totalOnnanocos, 'MOE: no onnanoco data available');\n        require(onnanocos[id].status == Lib.Status.NORMAL, 'MOE: round is not in normal status');\n\n        _burn(_msgSender(), amount);\n\n        stakes[_msgSender()].push(Lib.Stake(id, amount, block.timestamp));\n        onnanocos[id].totalStakingAmount += amount;\n    }\n    \n    function unstake(uint256 stakeId) public {\n\n        (uint256 reward, uint256 duration) = getStakeRewardAmount(_msgSender(), stakeId);\n\n        Lib.Stake memory stakeInfo = stakes[_msgSender()][stakeId];\n        require(onnanocos[stakeInfo.id].status != Lib.Status.IN_DISPUTE, 'MOE: round is in dispute status');\n        \n        //require(duration > 60 * 60 * 24 * 100, 'MOE: request can be made after at least 100 days'); // Deploy\n        require(duration > 60 * 60 * 1, 'MOE: request can be made after at least 1 hour'); // Test\n\n        _mint(_msgSender(), stakeInfo.amount + reward);\n        onnanocos[stakeInfo.id].totalStakingAmount -= stakeInfo.amount;\n\n        for (uint256 i = stakeId; i < stakes[_msgSender()].length - 1; i++) {\n            stakes[_msgSender()][i] = stakes[_msgSender()][i + 1];\n            stakes[_msgSender()].pop();\n        }\n    }\n\n    function getStakeRewardAmount(address staker, uint256 stakeId) public view returns(uint256 amount, uint256 duration) {\n\n        require(stakes[_msgSender()].length > stakeId, 'MOE: no staking data available');\n\n        Lib.Stake memory stakeInfo = stakes[staker][stakeId];\n\n        duration = block.timestamp - stakeInfo.timestamp;\n        amount = stakeInfo.amount * duration / (60 * 60 * 24 * 100);\n\n        if (onnanocos[stakeInfo.id].status != Lib.Status.NORMAL) {\n            return (0, 0);\n        }\n\n        return (amount, duration);\n    }\n\n    function receiveStakeReward(uint256 stakeId) public {\n\n        (uint256 reward, uint256 duration) = getStakeRewardAmount(_msgSender(), stakeId);\n\n        Lib.Stake memory stakeInfo = stakes[_msgSender()][stakeId];\n        require(onnanocos[stakeInfo.id].status != Lib.Status.NORMAL, 'MOE: round is not in normal status');\n\n        require(reward > 0, 'MOE: reward must greater than 0');\n        //require(duration > 60 * 60 * 24 * 100, 'MOE: request can be made after at least 100 days'); // Deploy\n        require(duration > 60 * 60 * 1, 'MOE: request can be made after at least 1 hour'); // Test\n\n        stakes[_msgSender()][stakeId].timestamp = block.timestamp;\n        _mint(_msgSender(), reward);\n    }\n\n    function getOwnerRewardAmount(uint256 id) public view returns(uint256 amount, uint256 duration){\n\n        require(id < totalOnnanocos, 'MOE: no onnanoco data available');\n\n        Lib.Onnanoco memory onnanocoInfo = onnanocos[id];\n        require(onnanocoInfo.status == Lib.Status.NORMAL, 'MOE: round is not in normal status');\n\n        Lib.Vote memory voteInfo = defenseVotes[onnanocoInfo.roundId][0];\n\n        duration = block.timestamp - voteInfo.timestamp;\n        amount = voteInfo.amount * duration / (60 * 60 * 24 * 50);\n\n        return (amount, duration);\n    }\n\n    function receiveOwnerReward(uint256 id) public {\n        \n        (uint256 reward, uint256 duration) = getOwnerRewardAmount(id);\n\n        require(onnanocos[id].owner == _msgSender(), 'MOE: access denied');\n\n        //require(duration > 60 * 60 * 24 * 50, 'MOE: request can be made after at least 50 days'); // Deploy\n        require(duration > 60 * 60 * 1, 'MOE: request can be made after at least 1 hour'); // Test\n\n        require(reward > 0, 'MOE: reward must greater than 0');\n\n        _mint(_msgSender(), reward);\n        defenseVotes[onnanocos[id].roundId][0].timestamp = block.timestamp;\n    }\n\n    function deposit(address user, bytes calldata depositData) external override {\n\n        require(hasRole(DEPOSITOR_ROLE, _msgSender()), \"You're not allowed to deposit\");\n        \n        uint256 amount = abi.decode(depositData, (uint256));\n        _mint(user, amount);\n    }\n\n    function withdraw(uint256 amount) external {\n\n        _burn(_msgSender(), amount);\n    }\n\n    // Initializer\n    function initialize(string memory name, string memory symbol, address childchangeProxy) public virtual initializer {\n        \n        __ERC20_init(name, symbol);\n        _setupRole(DEPOSITOR_ROLE, childchangeProxy);\n\n        _mint(_msgSender(), 10 ** 18 * 100); // dev faucet\n    }\n}",
  "sourcePath": "/Users/misskiwi/github/smartcontract-child/contracts/MOEToken.sol",
  "compiler": {
    "name": "solc",
    "version": "0.8.2+commit.661d1103.Emscripten.clang"
  },
  "schemaVersion": "3.4.4",
  "updatedAt": "2022-02-03T07:41:13.687Z",
  "networkType": "ethereum",
  "devdoc": {
    "kind": "dev",
    "methods": {
      "allowance(address,address)": {
        "details": "See {IERC20-allowance}."
      },
      "approve(address,uint256)": {
        "details": "See {IERC20-approve}. Requirements: - `spender` cannot be the zero address."
      },
      "balanceOf(address)": {
        "details": "See {IERC20-balanceOf}."
      },
      "decimals()": {
        "details": "Returns the number of decimals used to get its user representation. For example, if `decimals` equals `2`, a balance of `505` tokens should be displayed to a user as `5.05` (`505 / 10 ** 2`). Tokens usually opt for a value of 18, imitating the relationship between Ether and Wei. This is the value {ERC20} uses, unless this function is overridden; NOTE: This information is only used for _display_ purposes: it in no way affects any of the arithmetic of the contract, including {IERC20-balanceOf} and {IERC20-transfer}."
      },
      "decreaseAllowance(address,uint256)": {
        "details": "Atomically decreases the allowance granted to `spender` by the caller. This is an alternative to {approve} that can be used as a mitigation for problems described in {IERC20-approve}. Emits an {Approval} event indicating the updated allowance. Requirements: - `spender` cannot be the zero address. - `spender` must have allowance for the caller of at least `subtractedValue`."
      },
      "getRoleAdmin(bytes32)": {
        "details": "Returns the admin role that controls `role`. See {grantRole} and {revokeRole}. To change a role's admin, use {_setRoleAdmin}."
      },
      "getRoleMember(bytes32,uint256)": {
        "details": "Returns one of the accounts that have `role`. `index` must be a value between 0 and {getRoleMemberCount}, non-inclusive. Role bearers are not sorted in any particular way, and their ordering may change at any point. WARNING: When using {getRoleMember} and {getRoleMemberCount}, make sure you perform all queries on the same block. See the following https://forum.openzeppelin.com/t/iterating-over-elements-on-enumerableset-in-openzeppelin-contracts/2296[forum post] for more information."
      },
      "getRoleMemberCount(bytes32)": {
        "details": "Returns the number of accounts that have `role`. Can be used together with {getRoleMember} to enumerate all bearers of a role."
      },
      "grantRole(bytes32,address)": {
        "details": "Grants `role` to `account`. If `account` had not been already granted `role`, emits a {RoleGranted} event. Requirements: - the caller must have ``role``'s admin role."
      },
      "hasRole(bytes32,address)": {
        "details": "Returns `true` if `account` has been granted `role`."
      },
      "increaseAllowance(address,uint256)": {
        "details": "Atomically increases the allowance granted to `spender` by the caller. This is an alternative to {approve} that can be used as a mitigation for problems described in {IERC20-approve}. Emits an {Approval} event indicating the updated allowance. Requirements: - `spender` cannot be the zero address."
      },
      "name()": {
        "details": "Returns the name of the token."
      },
      "renounceRole(bytes32,address)": {
        "details": "Revokes `role` from the calling account. Roles are often managed via {grantRole} and {revokeRole}: this function's purpose is to provide a mechanism for accounts to lose their privileges if they are compromised (such as when a trusted device is misplaced). If the calling account had been revoked `role`, emits a {RoleRevoked} event. Requirements: - the caller must be `account`."
      },
      "revokeRole(bytes32,address)": {
        "details": "Revokes `role` from `account`. If `account` had been granted `role`, emits a {RoleRevoked} event. Requirements: - the caller must have ``role``'s admin role."
      },
      "supportsInterface(bytes4)": {
        "details": "See {IERC165-supportsInterface}."
      },
      "symbol()": {
        "details": "Returns the symbol of the token, usually a shorter version of the name."
      },
      "totalSupply()": {
        "details": "See {IERC20-totalSupply}."
      },
      "transfer(address,uint256)": {
        "details": "See {IERC20-transfer}. Requirements: - `recipient` cannot be the zero address. - the caller must have a balance of at least `amount`."
      },
      "transferFrom(address,address,uint256)": {
        "details": "See {IERC20-transferFrom}. Emits an {Approval} event indicating the updated allowance. This is not required by the EIP. See the note at the beginning of {ERC20}. Requirements: - `sender` and `recipient` cannot be the zero address. - `sender` must have a balance of at least `amount`. - the caller must have allowance for ``sender``'s tokens of at least `amount`."
      }
    },
    "version": 1
  },
  "userdoc": {
    "kind": "user",
    "methods": {},
    "version": 1
  }
}