{
  "contractName": "MOEToken",
  "abi": [
    {
      "anonymous": false,
      "inputs": [
        {
          "indexed": true,
          "internalType": "address",
          "name": "owner",
          "type": "address"
        },
        {
          "indexed": true,
          "internalType": "address",
          "name": "spender",
          "type": "address"
        },
        {
          "indexed": false,
          "internalType": "uint256",
          "name": "value",
          "type": "uint256"
        }
      ],
      "name": "Approval",
      "type": "event"
    },
    {
      "anonymous": false,
      "inputs": [
        {
          "indexed": true,
          "internalType": "bytes32",
          "name": "role",
          "type": "bytes32"
        },
        {
          "indexed": true,
          "internalType": "bytes32",
          "name": "previousAdminRole",
          "type": "bytes32"
        },
        {
          "indexed": true,
          "internalType": "bytes32",
          "name": "newAdminRole",
          "type": "bytes32"
        }
      ],
      "name": "RoleAdminChanged",
      "type": "event"
    },
    {
      "anonymous": false,
      "inputs": [
        {
          "indexed": true,
          "internalType": "bytes32",
          "name": "role",
          "type": "bytes32"
        },
        {
          "indexed": true,
          "internalType": "address",
          "name": "account",
          "type": "address"
        },
        {
          "indexed": true,
          "internalType": "address",
          "name": "sender",
          "type": "address"
        }
      ],
      "name": "RoleGranted",
      "type": "event"
    },
    {
      "anonymous": false,
      "inputs": [
        {
          "indexed": true,
          "internalType": "bytes32",
          "name": "role",
          "type": "bytes32"
        },
        {
          "indexed": true,
          "internalType": "address",
          "name": "account",
          "type": "address"
        },
        {
          "indexed": true,
          "internalType": "address",
          "name": "sender",
          "type": "address"
        }
      ],
      "name": "RoleRevoked",
      "type": "event"
    },
    {
      "anonymous": false,
      "inputs": [
        {
          "indexed": true,
          "internalType": "address",
          "name": "from",
          "type": "address"
        },
        {
          "indexed": true,
          "internalType": "address",
          "name": "to",
          "type": "address"
        },
        {
          "indexed": false,
          "internalType": "uint256",
          "name": "value",
          "type": "uint256"
        }
      ],
      "name": "Transfer",
      "type": "event"
    },
    {
      "inputs": [],
      "name": "DEFAULT_ADMIN_ROLE",
      "outputs": [
        {
          "internalType": "bytes32",
          "name": "",
          "type": "bytes32"
        }
      ],
      "stateMutability": "view",
      "type": "function",
      "constant": true
    },
    {
      "inputs": [],
      "name": "DEPOSITOR_ROLE",
      "outputs": [
        {
          "internalType": "bytes32",
          "name": "",
          "type": "bytes32"
        }
      ],
      "stateMutability": "view",
      "type": "function",
      "constant": true
    },
    {
      "inputs": [
        {
          "internalType": "address",
          "name": "owner",
          "type": "address"
        },
        {
          "internalType": "address",
          "name": "spender",
          "type": "address"
        }
      ],
      "name": "allowance",
      "outputs": [
        {
          "internalType": "uint256",
          "name": "",
          "type": "uint256"
        }
      ],
      "stateMutability": "view",
      "type": "function",
      "constant": true
    },
    {
      "inputs": [
        {
          "internalType": "address",
          "name": "spender",
          "type": "address"
        },
        {
          "internalType": "uint256",
          "name": "amount",
          "type": "uint256"
        }
      ],
      "name": "approve",
      "outputs": [
        {
          "internalType": "bool",
          "name": "",
          "type": "bool"
        }
      ],
      "stateMutability": "nonpayable",
      "type": "function"
    },
    {
      "inputs": [
        {
          "internalType": "uint256",
          "name": "",
          "type": "uint256"
        },
        {
          "internalType": "uint256",
          "name": "",
          "type": "uint256"
        }
      ],
      "name": "attackVotes",
      "outputs": [
        {
          "internalType": "uint256",
          "name": "id",
          "type": "uint256"
        },
        {
          "internalType": "address",
          "name": "voter",
          "type": "address"
        },
        {
          "internalType": "uint256",
          "name": "amount",
          "type": "uint256"
        },
        {
          "internalType": "uint256",
          "name": "timestamp",
          "type": "uint256"
        }
      ],
      "stateMutability": "view",
      "type": "function",
      "constant": true
    },
    {
      "inputs": [
        {
          "internalType": "address",
          "name": "account",
          "type": "address"
        }
      ],
      "name": "balanceOf",
      "outputs": [
        {
          "internalType": "uint256",
          "name": "",
          "type": "uint256"
        }
      ],
      "stateMutability": "view",
      "type": "function",
      "constant": true
    },
    {
      "inputs": [],
      "name": "decimals",
      "outputs": [
        {
          "internalType": "uint8",
          "name": "",
          "type": "uint8"
        }
      ],
      "stateMutability": "view",
      "type": "function",
      "constant": true
    },
    {
      "inputs": [
        {
          "internalType": "address",
          "name": "spender",
          "type": "address"
        },
        {
          "internalType": "uint256",
          "name": "subtractedValue",
          "type": "uint256"
        }
      ],
      "name": "decreaseAllowance",
      "outputs": [
        {
          "internalType": "bool",
          "name": "",
          "type": "bool"
        }
      ],
      "stateMutability": "nonpayable",
      "type": "function"
    },
    {
      "inputs": [
        {
          "internalType": "uint256",
          "name": "",
          "type": "uint256"
        },
        {
          "internalType": "uint256",
          "name": "",
          "type": "uint256"
        }
      ],
      "name": "defenseVotes",
      "outputs": [
        {
          "internalType": "uint256",
          "name": "id",
          "type": "uint256"
        },
        {
          "internalType": "address",
          "name": "voter",
          "type": "address"
        },
        {
          "internalType": "uint256",
          "name": "amount",
          "type": "uint256"
        },
        {
          "internalType": "uint256",
          "name": "timestamp",
          "type": "uint256"
        }
      ],
      "stateMutability": "view",
      "type": "function",
      "constant": true
    },
    {
      "inputs": [
        {
          "internalType": "bytes32",
          "name": "role",
          "type": "bytes32"
        }
      ],
      "name": "getRoleAdmin",
      "outputs": [
        {
          "internalType": "bytes32",
          "name": "",
          "type": "bytes32"
        }
      ],
      "stateMutability": "view",
      "type": "function",
      "constant": true
    },
    {
      "inputs": [
        {
          "internalType": "bytes32",
          "name": "role",
          "type": "bytes32"
        },
        {
          "internalType": "uint256",
          "name": "index",
          "type": "uint256"
        }
      ],
      "name": "getRoleMember",
      "outputs": [
        {
          "internalType": "address",
          "name": "",
          "type": "address"
        }
      ],
      "stateMutability": "view",
      "type": "function",
      "constant": true
    },
    {
      "inputs": [
        {
          "internalType": "bytes32",
          "name": "role",
          "type": "bytes32"
        }
      ],
      "name": "getRoleMemberCount",
      "outputs": [
        {
          "internalType": "uint256",
          "name": "",
          "type": "uint256"
        }
      ],
      "stateMutability": "view",
      "type": "function",
      "constant": true
    },
    {
      "inputs": [
        {
          "internalType": "bytes32",
          "name": "role",
          "type": "bytes32"
        },
        {
          "internalType": "address",
          "name": "account",
          "type": "address"
        }
      ],
      "name": "grantRole",
      "outputs": [],
      "stateMutability": "nonpayable",
      "type": "function"
    },
    {
      "inputs": [
        {
          "internalType": "bytes32",
          "name": "role",
          "type": "bytes32"
        },
        {
          "internalType": "address",
          "name": "account",
          "type": "address"
        }
      ],
      "name": "hasRole",
      "outputs": [
        {
          "internalType": "bool",
          "name": "",
          "type": "bool"
        }
      ],
      "stateMutability": "view",
      "type": "function",
      "constant": true
    },
    {
      "inputs": [
        {
          "internalType": "address",
          "name": "spender",
          "type": "address"
        },
        {
          "internalType": "uint256",
          "name": "addedValue",
          "type": "uint256"
        }
      ],
      "name": "increaseAllowance",
      "outputs": [
        {
          "internalType": "bool",
          "name": "",
          "type": "bool"
        }
      ],
      "stateMutability": "nonpayable",
      "type": "function"
    },
    {
      "inputs": [],
      "name": "name",
      "outputs": [
        {
          "internalType": "string",
          "name": "",
          "type": "string"
        }
      ],
      "stateMutability": "view",
      "type": "function",
      "constant": true
    },
    {
      "inputs": [
        {
          "internalType": "uint256",
          "name": "",
          "type": "uint256"
        }
      ],
      "name": "onnanocos",
      "outputs": [
        {
          "internalType": "string",
          "name": "name",
          "type": "string"
        },
        {
          "internalType": "address",
          "name": "owner",
          "type": "address"
        },
        {
          "components": [
            {
              "internalType": "bytes32",
              "name": "hash",
              "type": "bytes32"
            },
            {
              "internalType": "bytes2",
              "name": "hashFunction",
              "type": "bytes2"
            },
            {
              "internalType": "uint8",
              "name": "size",
              "type": "uint8"
            }
          ],
          "internalType": "struct Lib.Multihash",
          "name": "multihash",
          "type": "tuple"
        },
        {
          "internalType": "enum Lib.Status",
          "name": "status",
          "type": "uint8"
        },
        {
          "internalType": "uint256",
          "name": "timestamp",
          "type": "uint256"
        },
        {
          "internalType": "uint256",
          "name": "totalStakingAmount",
          "type": "uint256"
        },
        {
          "internalType": "uint256",
          "name": "roundId",
          "type": "uint256"
        }
      ],
      "stateMutability": "view",
      "type": "function",
      "constant": true
    },
    {
      "inputs": [
        {
          "internalType": "bytes32",
          "name": "role",
          "type": "bytes32"
        },
        {
          "internalType": "address",
          "name": "account",
          "type": "address"
        }
      ],
      "name": "renounceRole",
      "outputs": [],
      "stateMutability": "nonpayable",
      "type": "function"
    },
    {
      "inputs": [
        {
          "internalType": "bytes32",
          "name": "role",
          "type": "bytes32"
        },
        {
          "internalType": "address",
          "name": "account",
          "type": "address"
        }
      ],
      "name": "revokeRole",
      "outputs": [],
      "stateMutability": "nonpayable",
      "type": "function"
    },
    {
      "inputs": [
        {
          "internalType": "uint256",
          "name": "",
          "type": "uint256"
        }
      ],
      "name": "rounds",
      "outputs": [
        {
          "internalType": "uint256",
          "name": "onnanocoId",
          "type": "uint256"
        },
        {
          "internalType": "uint256",
          "name": "totalDefenseAmount",
          "type": "uint256"
        },
        {
          "internalType": "uint256",
          "name": "totalAttackAmount",
          "type": "uint256"
        },
        {
          "internalType": "uint256",
          "name": "timestamp",
          "type": "uint256"
        }
      ],
      "stateMutability": "view",
      "type": "function",
      "constant": true
    },
    {
      "inputs": [
        {
          "internalType": "address",
          "name": "",
          "type": "address"
        },
        {
          "internalType": "uint256",
          "name": "",
          "type": "uint256"
        }
      ],
      "name": "stakes",
      "outputs": [
        {
          "internalType": "uint256",
          "name": "id",
          "type": "uint256"
        },
        {
          "internalType": "uint256",
          "name": "amount",
          "type": "uint256"
        },
        {
          "internalType": "uint256",
          "name": "timestamp",
          "type": "uint256"
        }
      ],
      "stateMutability": "view",
      "type": "function",
      "constant": true
    },
    {
      "inputs": [
        {
          "internalType": "bytes4",
          "name": "interfaceId",
          "type": "bytes4"
        }
      ],
      "name": "supportsInterface",
      "outputs": [
        {
          "internalType": "bool",
          "name": "",
          "type": "bool"
        }
      ],
      "stateMutability": "view",
      "type": "function",
      "constant": true
    },
    {
      "inputs": [],
      "name": "symbol",
      "outputs": [
        {
          "internalType": "string",
          "name": "",
          "type": "string"
        }
      ],
      "stateMutability": "view",
      "type": "function",
      "constant": true
    },
    {
      "inputs": [],
      "name": "totalOnnanocos",
      "outputs": [
        {
          "internalType": "uint256",
          "name": "",
          "type": "uint256"
        }
      ],
      "stateMutability": "view",
      "type": "function",
      "constant": true
    },
    {
      "inputs": [],
      "name": "totalRounds",
      "outputs": [
        {
          "internalType": "uint256",
          "name": "",
          "type": "uint256"
        }
      ],
      "stateMutability": "view",
      "type": "function",
      "constant": true
    },
    {
      "inputs": [],
      "name": "totalSupply",
      "outputs": [
        {
          "internalType": "uint256",
          "name": "",
          "type": "uint256"
        }
      ],
      "stateMutability": "view",
      "type": "function",
      "constant": true
    },
    {
      "inputs": [
        {
          "internalType": "address",
          "name": "recipient",
          "type": "address"
        },
        {
          "internalType": "uint256",
          "name": "amount",
          "type": "uint256"
        }
      ],
      "name": "transfer",
      "outputs": [
        {
          "internalType": "bool",
          "name": "",
          "type": "bool"
        }
      ],
      "stateMutability": "nonpayable",
      "type": "function"
    },
    {
      "inputs": [
        {
          "internalType": "address",
          "name": "sender",
          "type": "address"
        },
        {
          "internalType": "address",
          "name": "recipient",
          "type": "address"
        },
        {
          "internalType": "uint256",
          "name": "amount",
          "type": "uint256"
        }
      ],
      "name": "transferFrom",
      "outputs": [
        {
          "internalType": "bool",
          "name": "",
          "type": "bool"
        }
      ],
      "stateMutability": "nonpayable",
      "type": "function"
    },
    {
      "inputs": [
        {
          "internalType": "string",
          "name": "name",
          "type": "string"
        },
        {
          "internalType": "bytes32",
          "name": "hash",
          "type": "bytes32"
        },
        {
          "internalType": "bytes2",
          "name": "hashFunction",
          "type": "bytes2"
        },
        {
          "internalType": "uint8",
          "name": "hashSize",
          "type": "uint8"
        },
        {
          "internalType": "uint256",
          "name": "amount",
          "type": "uint256"
        }
      ],
      "name": "addOnnanoco",
      "outputs": [],
      "stateMutability": "nonpayable",
      "type": "function"
    },
    {
      "inputs": [
        {
          "internalType": "uint256",
          "name": "id",
          "type": "uint256"
        }
      ],
      "name": "getMinimumAttackAmount",
      "outputs": [
        {
          "internalType": "uint256",
          "name": "amount",
          "type": "uint256"
        }
      ],
      "stateMutability": "view",
      "type": "function",
      "constant": true
    },
    {
      "inputs": [
        {
          "internalType": "uint256",
          "name": "id",
          "type": "uint256"
        },
        {
          "internalType": "uint256",
          "name": "amount",
          "type": "uint256"
        }
      ],
      "name": "voteForAttack",
      "outputs": [],
      "stateMutability": "nonpayable",
      "type": "function"
    },
    {
      "inputs": [
        {
          "internalType": "uint256",
          "name": "id",
          "type": "uint256"
        }
      ],
      "name": "getMinimumDefenseAmount",
      "outputs": [
        {
          "internalType": "uint256",
          "name": "amount",
          "type": "uint256"
        }
      ],
      "stateMutability": "view",
      "type": "function",
      "constant": true
    },
    {
      "inputs": [
        {
          "internalType": "uint256",
          "name": "id",
          "type": "uint256"
        },
        {
          "internalType": "uint256",
          "name": "amount",
          "type": "uint256"
        }
      ],
      "name": "voteForDefense",
      "outputs": [],
      "stateMutability": "nonpayable",
      "type": "function"
    },
    {
      "inputs": [
        {
          "internalType": "uint256",
          "name": "roundId",
          "type": "uint256"
        }
      ],
      "name": "clearRound",
      "outputs": [],
      "stateMutability": "nonpayable",
      "type": "function"
    },
    {
      "inputs": [
        {
          "internalType": "uint256",
          "name": "roundId",
          "type": "uint256"
        },
        {
          "internalType": "uint256",
          "name": "voteId",
          "type": "uint256"
        }
      ],
      "name": "resolveAttack",
      "outputs": [],
      "stateMutability": "nonpayable",
      "type": "function"
    },
    {
      "inputs": [
        {
          "internalType": "uint256",
          "name": "roundId",
          "type": "uint256"
        },
        {
          "internalType": "uint256",
          "name": "voteId",
          "type": "uint256"
        }
      ],
      "name": "resolveDefense",
      "outputs": [],
      "stateMutability": "nonpayable",
      "type": "function"
    },
    {
      "inputs": [
        {
          "internalType": "uint256",
          "name": "id",
          "type": "uint256"
        },
        {
          "internalType": "uint256",
          "name": "amount",
          "type": "uint256"
        }
      ],
      "name": "stake",
      "outputs": [],
      "stateMutability": "nonpayable",
      "type": "function"
    },
    {
      "inputs": [
        {
          "internalType": "uint256",
          "name": "stakeId",
          "type": "uint256"
        }
      ],
      "name": "unstake",
      "outputs": [],
      "stateMutability": "nonpayable",
      "type": "function"
    },
    {
      "inputs": [
        {
          "internalType": "address",
          "name": "user",
          "type": "address"
        },
        {
          "internalType": "bytes",
          "name": "depositData",
          "type": "bytes"
        }
      ],
      "name": "deposit",
      "outputs": [],
      "stateMutability": "nonpayable",
      "type": "function"
    },
    {
      "inputs": [
        {
          "internalType": "uint256",
          "name": "amount",
          "type": "uint256"
        }
      ],
      "name": "withdraw",
      "outputs": [],
      "stateMutability": "nonpayable",
      "type": "function"
    },
    {
      "inputs": [
        {
          "internalType": "string",
          "name": "name",
          "type": "string"
        },
        {
          "internalType": "string",
          "name": "symbol",
          "type": "string"
        },
        {
          "internalType": "address",
          "name": "childchangeProxy",
          "type": "address"
        }
      ],
      "name": "initialize",
      "outputs": [],
      "stateMutability": "nonpayable",
      "type": "function"
    }
  ],
  "bytecode": "0x608060405234801561001057600080fd5b506133b8806100206000396000f3fe608060405234801561001057600080fd5b50600436106102535760003560e01c80637797d79f11610146578063a217fddf116100c3578063ca15c87311610087578063ca15c873146105c9578063cf2c52cb146105dc578063d50c2c50146105ef578063d547741f14610602578063dd62ed3e14610615578063fd75061f1461064e57610253565b8063a217fddf14610561578063a3b0b5a314610569578063a457c2d714610590578063a9059cbb146105a3578063b4d03928146105b657610253565b80638c65c81f1161010a5780638c65c81f1461048b5780639010d07c146104e057806391d148541461050b578063946e94c41461051e57806395d89b411461055957610253565b80637797d79f146104365780637b0472f01461044957806381a15af41461045c578063868b029d1461046f5780638a5682991461048257610253565b80632e17de78116101d457806336568abe1161019857806336568abe146103a657806339509351146103b9578063584b62a1146103cc5780636ad6c035146103fa57806370a082311461040d57610253565b80632e17de781461034b5780632e1a7d4d1461035e5780632f2ff15d14610371578063313ce5671461038457806335097ce31461039357610253565b80630fa214c91161021b5780630fa214c9146102d457806318160ddd146102e75780632042f1c7146102ef57806323b872dd14610315578063248a9ca31461032857610253565b806301ffc9a71461025857806306fdde0314610280578063077f224a14610295578063095ea7b3146102aa5780630c6cc4a3146102bd575b600080fd5b61026b610266366004612f70565b610661565b60405190151581526020015b60405180910390f35b61028861068e565b604051610277919061312d565b6102a86102a336600461301b565b610720565b005b61026b6102b8366004612eec565b610831565b6102c660fe5481565b604051908152602001610277565b6102a86102e2366004612f4f565b610848565b60cb546102c6565b6103026102fd366004612f15565b610ae0565b6040516102779796959493929190613140565b61026b610323366004612e33565b610be6565b6102c6610336366004612f15565b60009081526065602052604090206001015490565b6102a8610359366004612f15565b610c90565b6102a861036c366004612f15565b610e98565b6102a861037f366004612f2d565b610ea6565b60405160128152602001610277565b6102a86103a1366004612f4f565b610ed2565b6102a86103b4366004612f2d565b611194565b61026b6103c7366004612eec565b611212565b6103df6103da366004612eec565b61124e565b60408051938452602084019290925290820152606001610277565b6102c6610408366004612f15565b611291565b6102c661041b366004612de7565b6001600160a01b0316600090815260c9602052604090205490565b6102a8610444366004612f4f565b61131f565b6102a8610457366004612f4f565b611587565b6102a861046a366004612f15565b6116d4565b6102a861047d366004612f98565b6119fd565b6102c660fd5481565b6104c0610499366004612f15565b60fc6020526000908152604090208054600182015460028301546003909301549192909184565b604080519485526020850193909352918301526060820152608001610277565b6104f36104ee366004612f4f565b611c57565b6040516001600160a01b039091168152602001610277565b61026b610519366004612f2d565b611c76565b61053161052c366004612f4f565b611ca1565b604080519485526001600160a01b039093166020850152918301526060820152608001610277565b610288611cf1565b6102c6600081565b6102c67f8f4f2da22e8ac8f11e15f9fc141cddbb5deea8800186560abb6e68c5496619a981565b61026b61059e366004612eec565b611d00565b61026b6105b1366004612eec565b611d99565b6102c66105c4366004612f15565b611da6565b6102c66105d7366004612f15565b611e7f565b6102a86105ea366004612e6e565b611e96565b6105316105fd366004612f4f565b611f26565b6102a8610610366004612f2d565b611f42565b6102c6610623366004612e01565b6001600160a01b03918216600090815260ca6020908152604080832093909416825291909152205490565b6102a861065c366004612f4f565b611f68565b60006001600160e01b03198216635a05180f60e01b1480610686575061068682612146565b90505b919050565b606060cc805461069d90613300565b80601f01602080910402602001604051908101604052809291908181526020018280546106c990613300565b80156107165780601f106106eb57610100808354040283529160200191610716565b820191906000526020600020905b8154815290600101906020018083116106f957829003601f168201915b5050505050905090565b600054610100900460ff1661073b5760005460ff161561073f565b303b155b6107a75760405162461bcd60e51b815260206004820152602e60248201527f496e697469616c697a61626c653a20636f6e747261637420697320616c72656160448201526d191e481a5b9a5d1a585b1a5e995960921b60648201526084015b60405180910390fd5b600054610100900460ff161580156107d2576000805460ff1961ff0019909116610100171660011790555b6107dc848461217b565b6108067f8f4f2da22e8ac8f11e15f9fc141cddbb5deea8800186560abb6e68c5496619a9836121b4565b6108193368056bc75e2d631000006121be565b801561082b576000805461ff00191690555b50505050565b600061083e33848461229e565b5060015b92915050565b600081116108915760405162461bcd60e51b815260206004820152601660248201527543616e6e6f7420766f746520776974682030204d4f4560501b604482015260640161079e565b6001600083815260fb602052604090206004015460ff1660028111156108c757634e487b7160e01b600052602160045260246000fd5b1461090e5760405162461bcd60e51b8152602060048201526017602482015276526f756e64206973206e6f7420696e206469737075746560481b604482015260640161079e565b600082815260fb602090815260408083206007015480845260fc8352818420825160808101845281548152600182015494810185905260028201549381019390935260039081015460608401529093919261096891613287565b8260400151836020015161097c919061324f565b610987906002613287565b61099191906132a6565b905060008260600151426109a591906132a6565b9050610e1081106109c85760405162461bcd60e51b815260040161079e906131cd565b81851015610a185760405162461bcd60e51b815260206004820152601c60248201527f4c657373207468656e204d494e20646566656e736520616d6f756e7400000000604482015260640161079e565b610a2233866123c2565b60ff60008581526020019081526020016000206040518060800160405280888152602001610a4d3390565b6001600160a01b03908116825260208083018a905242604093840152845460018082018755600096875282872086516004909302019182558583015182820180546001600160a01b031916919095161790935584840151600282015560609094015160039094019390935587845260fc9092528220018054879290610ad390849061324f565b9091555050505050505050565b60fb60205260009081526040902080548190610afb90613300565b80601f0160208091040260200160405190810160405280929190818152602001828054610b2790613300565b8015610b745780601f10610b4957610100808354040283529160200191610b74565b820191906000526020600020905b815481529060010190602001808311610b5757829003601f168201915b5050505060018301546040805160608101825260028601548152600386015460f081901b6001600160f01b031916602083015262010000900460ff9081169282019290925260048601546005870154600688015460079098015496976001600160a01b03909516969295509216929087565b6000610bf3848484612510565b6001600160a01b038416600090815260ca6020908152604080832033845290915290205482811015610c785760405162461bcd60e51b815260206004820152602860248201527f45524332303a207472616e7366657220616d6f756e74206578636565647320616044820152676c6c6f77616e636560c01b606482015260840161079e565b610c85853385840361229e565b506001949350505050565b33600090815261010160205260408120805483908110610cc057634e487b7160e01b600052603260045260246000fd5b60009182526020918290206040805160608101825260039093029091018054835260018082015494840194909452600201549082015291508151600090815260fb602052604090206004015460ff166002811115610d2e57634e487b7160e01b600052602160045260246000fd5b1415610d7c5760405162461bcd60e51b815260206004820152601a60248201527f526f756e6420697320696e206469737075746520737461747573000000000000604482015260640161079e565b6000816040015142610d8e91906132a6565b9050610e108111610de15760405162461bcd60e51b815260206004820152601a60248201527f4d696e696d756d206475726174696f6e206973203120686f7572000000000000604482015260640161079e565b6000630a4cb800828460200151610df89190613287565b610e029190613267565b905060028351600090815260fb602052604090206004015460ff166002811115610e3c57634e487b7160e01b600052602160045260246000fd5b1415610e46575060005b610e5f33828560200151610e5a919061324f565b6121be565b826020015160fb6000856000015181526020019081526020016000206006016000828254610e8d91906132a6565b909155505050505050565b610ea3335b826123c2565b50565b600082815260656020526040902060010154610ec381335b6126de565b610ecd8383612742565b505050565b60008111610f1b5760405162461bcd60e51b815260206004820152601660248201527543616e6e6f7420766f746520776974682030204d4f4560501b604482015260640161079e565b6002600083815260fb602052604090206004015460ff166002811115610f5157634e487b7160e01b600052602160045260246000fd5b1415610f8c5760405162461bcd60e51b815260206004820152600a60248201526911195c1c9958d85d195960b21b604482015260640161079e565b6000610f9783611291565b905080821015610fe95760405162461bcd60e51b815260206004820152601b60248201527f4c657373207468656e204d494e2061747461636b20616d6f756e740000000000604482015260640161079e565b610ff333836123c2565b600083815260fb60205260408120600781015460049091015490919060ff16600281111561103157634e487b7160e01b600052602160045260246000fd5b141561106c57600084815260fb60209081526040808320600401805460ff1916600117905583835260fc9091529020426003909101556110df565b600081815260fc6020908152604080832081516080810183528154815260018201549381019390935260028101549183019190915260030154606082018190529091906110b990426132a6565b9050610e1081106110dc5760405162461bcd60e51b815260040161079e906131cd565b50505b6101006000828152602001908152602001600020604051806080016040528086815260200161110b3390565b6001600160a01b039081168252602080830188905242604093840152845460018082018755600096875282872086516004909302019182558583015190820180546001600160a01b03191691909416179092558383015160028084019190915560609094015160039092019190915584845260fc90528220018054859290610e8d90849061324f565b6001600160a01b03811633146112045760405162461bcd60e51b815260206004820152602f60248201527f416363657373436f6e74726f6c3a2063616e206f6e6c792072656e6f756e636560448201526e103937b632b9903337b91039b2b63360891b606482015260840161079e565b61120e8282612764565b5050565b33600081815260ca602090815260408083206001600160a01b0387168452909152812054909161083e91859061124990869061324f565b61229e565b610101602052816000526040600020818154811061126b57600080fd5b600091825260209091206003909102018054600182015460029092015490935090915083565b600081815260fb602090815260408083206007015480845260fc83528184208251608081018452815481526001820154948101949094526002810154928401839052600390810154606085015290929184916112ed9190613287565b82604001518360200151611301919061324f565b61130c906002613287565b61131691906132a6565b95945050505050565b600082815260ff6020526040812080548390811061134d57634e487b7160e01b600052603260045260246000fd5b6000918252602080832060408051608080820183526004909502909201805483526001808201546001600160a01b03908116858701908152600280850154878701526003948501546060808901919091528d8b5260fc8952998690208651998a01875280548a529384015497890197909752958201549387019390935201549484019490945290519093509091166113e23390565b6001600160a01b0316146114285760405162461bcd60e51b815260206004820152600d60248201526c1058d8d95cdcc819195b9a5959609a1b604482015260640161079e565b600081606001514261143a91906132a6565b9050610e10811161145d5760405162461bcd60e51b815260040161079e906131cd565b600082602001518360400151611473919061324f565b90508260200151836040015110801561148c5750600085115b1561151b576114b333602085015160408701516114a99085613287565b610e5a9190613267565b600086815260ff602052604081208054879081106114e157634e487b7160e01b600052603260045260246000fd5b906000526020600020906004020160010160006101000a8154816001600160a01b0302191690836001600160a01b0316021790555061157f565b600086815260ff6020526040812080548790811061154957634e487b7160e01b600052603260045260246000fd5b906000526020600020906004020160010160006101000a8154816001600160a01b0302191690836001600160a01b031602179055505b505050505050565b600081116115cc5760405162461bcd60e51b815260206004820152601260248201527143616e6e6f74207374616b652030204d4f4560701b604482015260640161079e565b600082815260fb602052604081206004015460ff16600281111561160057634e487b7160e01b600052602160045260246000fd5b1461164d5760405162461bcd60e51b815260206004820152601d60248201527f526f756e64206973206e6f7420696e206e6f726d616c20737461747573000000604482015260640161079e565b61165633610e9d565b3360009081526101016020908152604080832081516060810183528681528084018681524282850190815283546001808201865594885286882093516003909102909301928355905192820192909255905160029091015584835260fb909152812060060180548392906116cb90849061324f565b90915550505050565b600081815260fc6020908152604080832081516080810183528154808252600183015482860152600283015482850152600390920154606082015290845260fb909252909120600781015483146117605760405162461bcd60e51b815260206004820152601060248201526f125b9d985b1a59081c9bdd5b99081a5960821b604482015260640161079e565b600082606001514261177291906132a6565b9050610e1081116117c55760405162461bcd60e51b815260206004820152601a60248201527f446973707574652077696e646f77206973206e6f74206f766572000000000000604482015260640161079e565b826020015183604001511115611809576117f533606485604001516117ea9190613267565b610e5a906002613287565b60048201805460ff1916600217905561082b565b82602001518360400151101561082b5761182e33606485602001516117ea9190613267565b60048201805460ff191690556040805160808101825284518152600060208083018281528385018381526060850184815260fd54855260fc845286852095518655915160018601555160028501555160039093019290925586815260ff909152908120805482906118af57634e487b7160e01b600052603260045260246000fd5b9060005260206000209060040201604051806080016040529081600082015481526020016001820160009054906101000a90046001600160a01b03166001600160a01b03166001600160a01b03168152602001600282015481526020016003820154815250509050600060405180608001604052808660000151815260200183602001516001600160a01b031681526020018360400151815260200142815250905060ff600060fd5481526020019081526020016000208190806001815401808255809150506001900390600052602060002090600402016000909190919091506000820151816000015560208201518160010160006101000a8154816001600160a01b0302191690836001600160a01b031602179055506040820151816002015560608201518160030155505060fd60008154809291906119f09061333b565b9190505550505050505050565b611a0633610e9d565b6040518060e00160405280868152602001611a1e3390565b6001600160a01b03168152604080516060810182528781526001600160f01b0319871660208281019190915260ff87168284015283015201600081526020014281526020016000815260200160fd5481525060fb600060fe5481526020019081526020016000206000820151816000019080519060200190611aa1929190612cb0565b50602082810151600180840180546001600160a01b039093166001600160a01b031990931692909217909155604080850151805160028087019190915593810151600386018054929093015160ff16620100000262ff00001960f09290921c61ffff19909316929092171617905560608401516004840180549193909260ff1990921691908490811115611b4557634e487b7160e01b600052602160045260246000fd5b0217905550608082810151600583015560a0830151600683015560c09092015160079091015560408051808301825260fe8054825260208083018681526000848601818152606080870183815260fd8054855260fc87528985209851895594516001808a019190915592516002808a019190915590516003988901558851998a01895286548a52338a87019081528a8a018c815242938c019384529554855260ff8752988420805480850182559085529584208a51600490970201958655975191850180546001600160a01b0319166001600160a01b039093169290921790915591519583019590955551920191909155805491611c428361333b565b909155505060fd80549060006119f08361333b565b6000828152609760205260408120611c6f9083612786565b9392505050565b60009182526065602090815260408084206001600160a01b0393909316845291905290205460ff1690565b6101006020528160005260406000208181548110611cbe57600080fd5b600091825260209091206004909102018054600182015460028301546003909301549194506001600160a01b0316925084565b606060cd805461069d90613300565b33600090815260ca602090815260408083206001600160a01b038616845290915281205482811015611d825760405162461bcd60e51b815260206004820152602560248201527f45524332303a2064656372656173656420616c6c6f77616e63652062656c6f77604482015264207a65726f60d81b606482015260840161079e565b611d8f338585840361229e565b5060019392505050565b600061083e338484612510565b60006001600083815260fb602052604090206004015460ff166002811115611dde57634e487b7160e01b600052602160045260246000fd5b14611e255760405162461bcd60e51b8152602060048201526017602482015276526f756e64206973206e6f7420696e206469737075746560481b604482015260640161079e565b600082815260fb602090815260408083206007015480845260fc835281842082516080810184528154815260018201549481018590526002820154938101939093526003908101546060840152909391926112ed91613287565b600081815260976020526040812061068690612792565b611ec07f8f4f2da22e8ac8f11e15f9fc141cddbb5deea8800186560abb6e68c5496619a933610519565b611f0c5760405162461bcd60e51b815260206004820152601d60248201527f596f75277265206e6f7420616c6c6f77656420746f206465706f736974000000604482015260640161079e565b6000611f1a82840184612f15565b905061082b84826121be565b60ff6020528160005260406000208181548110611cbe57600080fd5b600082815260656020526040902060010154611f5e8133610ebe565b610ecd8383612764565b600082815261010060205260408120805483908110611f9757634e487b7160e01b600052603260045260246000fd5b6000918252602080832060408051608080820183526004909502909201805483526001808201546001600160a01b03908116858701908152600280850154878701526003948501546060808901919091528d8b5260fc8952998690208651998a01875280548a5293840154978901979097529582015493870193909352015494840194909452905190935090911661202c3390565b6001600160a01b0316146120725760405162461bcd60e51b815260206004820152600d60248201526c1058d8d95cdcc819195b9a5959609a1b604482015260640161079e565b600081606001514261208491906132a6565b9050610e1081116120a75760405162461bcd60e51b815260040161079e906131cd565b6000826020015183604001516120bd919061324f565b9050826020015183604001511115612117576120e83384604001518660400151846114a99190613287565b6000868152610100602052604081208054879081106114e157634e487b7160e01b600052603260045260246000fd5b60008681526101006020526040812080548790811061154957634e487b7160e01b600052603260045260246000fd5b60006001600160e01b03198216637965db0b60e01b148061068657506301ffc9a760e01b6001600160e01b0319831614610686565b600054610100900460ff166121a25760405162461bcd60e51b815260040161079e90613204565b6121aa61279c565b61120e82826127c5565b61120e8282612742565b6001600160a01b0382166122145760405162461bcd60e51b815260206004820152601f60248201527f45524332303a206d696e7420746f20746865207a65726f206164647265737300604482015260640161079e565b8060cb6000828254612226919061324f565b90915550506001600160a01b038216600090815260c960205260408120805483929061225390849061324f565b90915550506040518181526001600160a01b038316906000907fddf252ad1be2c89b69c2b068fc378daa952ba7f163c4a11628f55a4df523b3ef9060200160405180910390a361120e565b6001600160a01b0383166123005760405162461bcd60e51b8152602060048201526024808201527f45524332303a20617070726f76652066726f6d20746865207a65726f206164646044820152637265737360e01b606482015260840161079e565b6001600160a01b0382166123615760405162461bcd60e51b815260206004820152602260248201527f45524332303a20617070726f766520746f20746865207a65726f206164647265604482015261737360f01b606482015260840161079e565b6001600160a01b03838116600081815260ca602090815260408083209487168084529482529182902085905590518481527f8c5be1e5ebec7d5bd14f71427d1e84f3dd0314c0f7b2291e5b200ac8c7c3b925910160405180910390a3505050565b6001600160a01b0382166124225760405162461bcd60e51b815260206004820152602160248201527f45524332303a206275726e2066726f6d20746865207a65726f206164647265736044820152607360f81b606482015260840161079e565b6001600160a01b038216600090815260c96020526040902054818110156124965760405162461bcd60e51b815260206004820152602260248201527f45524332303a206275726e20616d6f756e7420657863656564732062616c616e604482015261636560f01b606482015260840161079e565b6001600160a01b038316600090815260c960205260408120838303905560cb80548492906124c59084906132a6565b90915550506040518281526000906001600160a01b038516907fddf252ad1be2c89b69c2b068fc378daa952ba7f163c4a11628f55a4df523b3ef9060200160405180910390a3610ecd565b6001600160a01b0383166125745760405162461bcd60e51b815260206004820152602560248201527f45524332303a207472616e736665722066726f6d20746865207a65726f206164604482015264647265737360d81b606482015260840161079e565b6001600160a01b0382166125d65760405162461bcd60e51b815260206004820152602360248201527f45524332303a207472616e7366657220746f20746865207a65726f206164647260448201526265737360e81b606482015260840161079e565b6001600160a01b038316600090815260c960205260409020548181101561264e5760405162461bcd60e51b815260206004820152602660248201527f45524332303a207472616e7366657220616d6f756e7420657863656564732062604482015265616c616e636560d01b606482015260840161079e565b6001600160a01b03808516600090815260c9602052604080822085850390559185168152908120805484929061268590849061324f565b92505081905550826001600160a01b0316846001600160a01b03167fddf252ad1be2c89b69c2b068fc378daa952ba7f163c4a11628f55a4df523b3ef846040516126d191815260200190565b60405180910390a361082b565b6126e88282611c76565b61120e57612700816001600160a01b03166014612813565b61270b836020612813565b60405160200161271c9291906130b8565b60408051601f198184030181529082905262461bcd60e51b825261079e9160040161312d565b61274c82826129f5565b6000828152609760205260409020610ecd9082612a7b565b61276e8282612a90565b6000828152609760205260409020610ecd9082612af7565b6000611c6f8383612b0c565b6000610686825490565b600054610100900460ff166127c35760405162461bcd60e51b815260040161079e90613204565b565b600054610100900460ff166127ec5760405162461bcd60e51b815260040161079e90613204565b81516127ff9060cc906020850190612cb0565b508051610ecd9060cd906020840190612cb0565b60606000612822836002613287565b61282d90600261324f565b67ffffffffffffffff81111561285357634e487b7160e01b600052604160045260246000fd5b6040519080825280601f01601f19166020018201604052801561287d576020820181803683370190505b509050600360fc1b816000815181106128a657634e487b7160e01b600052603260045260246000fd5b60200101906001600160f81b031916908160001a905350600f60fb1b816001815181106128e357634e487b7160e01b600052603260045260246000fd5b60200101906001600160f81b031916908160001a9053506000612907846002613287565b61291290600161324f565b90505b60018111156129a6576f181899199a1a9b1b9c1cb0b131b232b360811b85600f166010811061295457634e487b7160e01b600052603260045260246000fd5b1a60f81b82828151811061297857634e487b7160e01b600052603260045260246000fd5b60200101906001600160f81b031916908160001a90535060049490941c9361299f816132e9565b9050612915565b508315611c6f5760405162461bcd60e51b815260206004820181905260248201527f537472696e67733a20686578206c656e67746820696e73756666696369656e74604482015260640161079e565b6129ff8282611c76565b61120e5760008281526065602090815260408083206001600160a01b03851684529091529020805460ff19166001179055612a373390565b6001600160a01b0316816001600160a01b0316837f2f8788117e7eff1d82e926ec794901d17c78024a50270940304540a733656f0d60405160405180910390a45050565b6000611c6f836001600160a01b038416612b44565b612a9a8282611c76565b1561120e5760008281526065602090815260408083206001600160a01b0385168085529252808320805460ff1916905551339285917ff6391f5c32d9c69d2a47ea670b442974b53935d1edc7fd64eb21e047a839171b9190a45050565b6000611c6f836001600160a01b038416612b93565b6000826000018281548110612b3157634e487b7160e01b600052603260045260246000fd5b9060005260206000200154905092915050565b6000818152600183016020526040812054612b8b57508154600181810184556000848152602080822090930184905584548482528286019093526040902091909155610842565b506000610842565b60008181526001830160205260408120548015612ca6576000612bb76001836132a6565b8554909150600090612bcb906001906132a6565b9050818114612c4c576000866000018281548110612bf957634e487b7160e01b600052603260045260246000fd5b9060005260206000200154905080876000018481548110612c2a57634e487b7160e01b600052603260045260246000fd5b6000918252602080832090910192909255918252600188019052604090208390555b8554869080612c6b57634e487b7160e01b600052603160045260246000fd5b600190038181906000526020600020016000905590558560010160008681526020019081526020016000206000905560019350505050610842565b6000915050610842565b828054612cbc90613300565b90600052602060002090601f016020900481019282612cde5760008555612d24565b82601f10612cf757805160ff1916838001178555612d24565b82800160010185558215612d24579182015b82811115612d24578251825591602001919060010190612d09565b50612d30929150612d34565b5090565b5b80821115612d305760008155600101612d35565b80356001600160a01b038116811461068957600080fd5b600082601f830112612d70578081fd5b813567ffffffffffffffff80821115612d8b57612d8b61336c565b604051601f8301601f19908116603f01168101908282118183101715612db357612db361336c565b81604052838152866020858801011115612dcb578485fd5b8360208701602083013792830160200193909352509392505050565b600060208284031215612df8578081fd5b611c6f82612d49565b60008060408385031215612e13578081fd5b612e1c83612d49565b9150612e2a60208401612d49565b90509250929050565b600080600060608486031215612e47578081fd5b612e5084612d49565b9250612e5e60208501612d49565b9150604084013590509250925092565b600080600060408486031215612e82578283fd5b612e8b84612d49565b9250602084013567ffffffffffffffff80821115612ea7578384fd5b818601915086601f830112612eba578384fd5b813581811115612ec8578485fd5b876020828501011115612ed9578485fd5b6020830194508093505050509250925092565b60008060408385031215612efe578182fd5b612f0783612d49565b946020939093013593505050565b600060208284031215612f26578081fd5b5035919050565b60008060408385031215612f3f578182fd5b82359150612e2a60208401612d49565b60008060408385031215612f61578182fd5b50508035926020909101359150565b600060208284031215612f81578081fd5b81356001600160e01b031981168114611c6f578182fd5b600080600080600060a08688031215612faf578081fd5b853567ffffffffffffffff811115612fc5578182fd5b612fd188828901612d60565b9550506020860135935060408601356001600160f01b031981168114612ff5578182fd5b9250606086013560ff8116811461300a578182fd5b949793965091946080013592915050565b60008060006060848603121561302f578283fd5b833567ffffffffffffffff80821115613046578485fd5b61305287838801612d60565b94506020860135915080821115613067578384fd5b5061307486828701612d60565b92505061308360408501612d49565b90509250925092565b600081518084526130a48160208601602086016132bd565b601f01601f19169290920160200192915050565b60007f416363657373436f6e74726f6c3a206163636f756e7420000000000000000000825283516130f08160178501602088016132bd565b7001034b99036b4b9b9b4b733903937b6329607d1b60179184019182015283516131218160288401602088016132bd565b01602801949350505050565b600060208252611c6f602083018461308c565b60006101208083526131548184018b61308c565b91505060018060a01b03881660208301528651604083015261ffff60f01b602088015116606083015260ff6040880151166080830152600386106131a857634e487b7160e01b600052602160045260246000fd5b8560a08301528460c08301528360e08301528261010083015298975050505050505050565b60208082526018908201527f446973707574652077696e646f77206973203120686f75720000000000000000604082015260600190565b6020808252602b908201527f496e697469616c697a61626c653a20636f6e7472616374206973206e6f74206960408201526a6e697469616c697a696e6760a81b606082015260800190565b6000821982111561326257613262613356565b500190565b60008261328257634e487b7160e01b81526012600452602481fd5b500490565b60008160001904831182151516156132a1576132a1613356565b500290565b6000828210156132b8576132b8613356565b500390565b60005b838110156132d85781810151838201526020016132c0565b8381111561082b5750506000910152565b6000816132f8576132f8613356565b506000190190565b60028104600182168061331457607f821691505b6020821081141561333557634e487b7160e01b600052602260045260246000fd5b50919050565b600060001982141561334f5761334f613356565b5060010190565b634e487b7160e01b600052601160045260246000fd5b634e487b7160e01b600052604160045260246000fdfea2646970667358221220e9918575129f5151b67292d296df7290d8503213c3d775ff2ed81c192215a99f64736f6c63430008020033",
  "immutableReferences": {},
  "source": "// SPDX-License-Identifier: MIT\npragma solidity ^0.8.2;\n\nimport \"./Library.sol\";\nimport \"./IMOEToken.sol\";\nimport \"@openzeppelin/contracts-upgradeable/token/ERC20/ERC20Upgradeable.sol\";\nimport \"@openzeppelin/contracts-upgradeable/access/AccessControlEnumerableUpgradeable.sol\";\nimport \"@openzeppelin/contracts-upgradeable/utils/ContextUpgradeable.sol\";\n\n// *** IMPORTANT ***\n//\n// BEFORE DEPLOY\n// --------------\n// erase _mint() line on initialize()\n// change duration require() function on voteForAttack()\n// change duration require() function on voteForDeffense()\n// change duration require() function on unstake()\n// change duration require() function on clearRound()\n// change duration require() function on resolveAttack()\n// change duration require() function on resolveDefense()\n\ncontract MOEToken is ContextUpgradeable, AccessControlEnumerableUpgradeable, IMOEToken, ERC20Upgradeable {\n\n    bytes32 public constant DEPOSITOR_ROLE = keccak256(\"DEPOSITOR_ROLE\"); // Polygon mapping\n\n    mapping(uint256 => Lib.Onnanoco) public onnanocos;\n    mapping(uint256 => Lib.Round) public rounds;\n\n    uint256 public totalRounds;\n    uint256 public totalOnnanocos;\n\n    mapping(uint256 => Lib.Vote[]) public defenseVotes;\n    mapping(uint256 => Lib.Vote[]) public attackVotes;\n    mapping(address => Lib.Stake[]) public stakes;\n\n    // Add onnanoco data\n    function addOnnanoco(string memory name, bytes32 hash, bytes2 hashFunction, uint8 hashSize, uint256 amount) public {\n  \n        _burn(_msgSender(), amount);\n\n        // add onnanoco base data\n        onnanocos[totalOnnanocos] = Lib.Onnanoco(name, _msgSender(), Lib.Multihash(hash, hashFunction, hashSize), Lib.Status.NORMAL, block.timestamp, 0, totalRounds);\n\n        // setup round\n        rounds[totalRounds] = Lib.Round(totalOnnanocos, amount, 0, 0);\n\n        // vote for defense\n        Lib.Vote memory vote = Lib.Vote(totalOnnanocos, _msgSender(), amount, block.timestamp);\n        defenseVotes[totalRounds].push(vote);\n\n        // increase onnanoco index\n        totalOnnanocos++;\n        totalRounds++;\n    }\n\n    // Get minimum attack amount\n    function getMinimumAttackAmount(uint256 id) public view returns (uint256 amount) {\n\n        uint256 roundId = onnanocos[id].roundId;\n        Lib.Round memory round = rounds[roundId];\n\n        uint256 minimumAmount = ((round.totalDefenseAmount + round.totalAttackAmount) * 2) - (round.totalAttackAmount * 3);\n\n        return minimumAmount;\n    }\n\n    // Vote for attack\n    // id: id of the character\n    // amount: defense amount\n    function voteForAttack(uint256 id, uint256 amount) public {\n\n        require(amount > 0, 'Cannot vote with 0 MOE');\n        require(onnanocos[id].status != Lib.Status.DEPRECATED, 'Deprecated');\n        \n        uint256 minimumAmount = getMinimumAttackAmount(id);\n\n        require(amount >= minimumAmount, 'Less then MIN attack amount');\n\n        _burn(_msgSender(), amount);\n\n        uint256 roundId = onnanocos[id].roundId;\n\n        // 1st attack\n        if (onnanocos[id].status == Lib.Status.NORMAL) {\n\n            onnanocos[id].status = Lib.Status.IN_DISPUTE;\n            rounds[roundId].timestamp = block.timestamp;\n\n        } else {\n            \n            Lib.Round memory round = rounds[roundId];\n\n            uint256 duration = block.timestamp - round.timestamp;\n            //require(duration < 60 * 60 * 24 * 7, 'Dispute window is 7 days'); // deploy\n            require(duration < 60 * 60, 'Dispute window is 1 hour'); // dev\n        }\n\n        attackVotes[roundId].push(Lib.Vote(id, _msgSender(), amount, block.timestamp));\n        rounds[roundId].totalAttackAmount += amount;\n    }\n\n    // Get minimum defense amount\n    // id : id of the character\n    function getMinimumDefenseAmount(uint256 id) public view returns (uint256 amount) {\n\n        require(onnanocos[id].status == Lib.Status.IN_DISPUTE, 'Round is not in dispute');\n\n        uint256 roundId = onnanocos[id].roundId;\n        Lib.Round memory round = rounds[roundId];\n\n        uint256 minimumAmount = ((round.totalDefenseAmount + round.totalAttackAmount) * 2) - (round.totalDefenseAmount * 3);\n\n        return minimumAmount;\n    }\n\n    // Vote for defense\n    // id: id of the character\n    // amount: defense amount\n    function voteForDefense(uint256 id, uint256 amount) public {\n\n        require(amount > 0, 'Cannot vote with 0 MOE');\n        require(onnanocos[id].status == Lib.Status.IN_DISPUTE, 'Round is not in dispute');\n\n        uint256 roundId = onnanocos[id].roundId;\n        Lib.Round memory round = rounds[roundId];\n\n        uint256 minimumAmount = ((round.totalDefenseAmount + round.totalAttackAmount) * 2) - (round.totalDefenseAmount * 3);\n\n        uint256 duration = block.timestamp - round.timestamp;\n\n        //require(duration < 60 * 60 * 24 * 7, 'Dispute window is 7 days'); // deploy\n        require(duration < 60 * 60 * 1, 'Dispute window is 1 hour'); // dev\n\n        require(amount >= minimumAmount, 'Less then MIN defense amount');\n        \n        _burn(_msgSender(), amount);\n        defenseVotes[roundId].push(Lib.Vote(id, _msgSender(), amount, block.timestamp));\n\n        rounds[roundId].totalDefenseAmount += amount;\n    }\n\n    // clearRound\n    // roundId : ID for the round\n    function clearRound(uint256 roundId) public {\n\n        Lib.Round memory round = rounds[roundId];\n        Lib.Onnanoco storage onnanoco = onnanocos[round.onnanocoId];\n\n        require(onnanoco.roundId == roundId, 'Invalid round id');\n\n        uint256 duration = block.timestamp - round.timestamp;\n\n        //require(duration > 60 * 60 * 24 * 7, 'Dispute window is not over'); // deploy\n        require(duration > 60 * 60 * 1, 'Dispute window is not over'); // dev\n\n        if (round.totalAttackAmount > round.totalDefenseAmount) { // Attackers win\n            _mint(_msgSender(), round.totalAttackAmount / 100 * 2);\n            onnanoco.status = Lib.Status.DEPRECATED;\n\n        } else if(round.totalAttackAmount < round.totalDefenseAmount) { // Attackeres lose\n            _mint(_msgSender(), round.totalDefenseAmount / 100 * 2);\n            onnanoco.status = Lib.Status.NORMAL;\n\n            // new round\n            rounds[totalRounds] = Lib.Round(round.onnanocoId, 0, 0, 0);\n\n            Lib.Vote memory vote = defenseVotes[roundId][0];\n\n            Lib.Vote memory newVote = Lib.Vote(round.onnanocoId, vote.voter, vote.amount, block.timestamp);\n            defenseVotes[totalRounds].push(newVote);\n\n            totalRounds++;\n        }\n        \n    }\n\n    function resolveAttack(uint256 roundId, uint256 voteId) public {\n\n        Lib.Vote memory vote = attackVotes[roundId][voteId];\n        Lib.Round memory round = rounds[roundId];\n\n        require(_msgSender() == vote.voter, 'Access denied');\n\n        uint256 duration = block.timestamp - round.timestamp;\n\n        //require(duration > 60 * 60 * 24 * 7, 'Dispute window is 7 days'); // deploy\n        require(duration > 60 * 60 * 1, 'Dispute window is 1 hour'); // dev\n\n        uint256 totalAmount = round.totalAttackAmount + round.totalDefenseAmount;\n\n        if (round.totalAttackAmount > round.totalDefenseAmount) {\n            _mint(_msgSender(), totalAmount * vote.amount / round.totalAttackAmount);\n            attackVotes[roundId][voteId].voter = address(0);\n\n        } else {\n            attackVotes[roundId][voteId].voter = address(0);\n        }\n\n    }\n\n    function resolveDefense(uint256 roundId, uint256 voteId) public {\n\n        Lib.Vote memory vote = defenseVotes[roundId][voteId];\n        Lib.Round memory round = rounds[roundId];\n\n        require(_msgSender() == vote.voter, 'Access denied');\n\n        uint256 duration = block.timestamp - round.timestamp;\n\n        //require(duration > 60 * 60 * 24 * 7, 'Dispute window is 7 days'); // deploy\n        require(duration > 60 * 60 * 1, 'Dispute window is 1 hour'); // dev\n\n        uint256 totalAmount = round.totalAttackAmount + round.totalDefenseAmount;\n\n        if (round.totalAttackAmount < round.totalDefenseAmount && voteId > 0) {\n\n            _mint(_msgSender(), totalAmount * vote.amount / round.totalDefenseAmount);\n            defenseVotes[roundId][voteId].voter = address(0);\n\n        } else {\n            defenseVotes[roundId][voteId].voter = address(0);\n        }\n    }\n    \n    // Stake MOE\n    function stake(uint256 id, uint256 amount) public {\n    \n        require(amount > 0, 'Cannot stake 0 MOE');\n        require(onnanocos[id].status == Lib.Status.NORMAL, 'Round is not in normal status');\n\n        _burn(_msgSender(), amount);\n\n        stakes[_msgSender()].push(Lib.Stake(id, amount, block.timestamp));\n        onnanocos[id].totalStakingAmount += amount;\n    }\n    \n    // Unstake MOE\n    function unstake(uint256 stakeId) public {\n\n        Lib.Stake memory stakeInfo = stakes[_msgSender()][stakeId];\n        \n        require(onnanocos[stakeInfo.id].status != Lib.Status.IN_DISPUTE, 'Round is in dispute status');\n        \n        uint256 duration = block.timestamp - stakeInfo.timestamp;\n\n        //require(duration > 60 * 60 * 24 * 100, 'Minimum duration is 100 days'); // Deploy\n        require(duration > 60 * 60 * 1, 'Minimum duration is 1 hour'); // Test\n\n        uint256 bonus = stakeInfo.amount * duration / (60 * 60 * 24 * 100 * 20);\n\n        if (onnanocos[stakeInfo.id].status == Lib.Status.DEPRECATED) {\n            bonus = 0;\n        }\n\n        _mint(_msgSender(), stakeInfo.amount + bonus);\n        onnanocos[stakeInfo.id].totalStakingAmount -= stakeInfo.amount;\n    }\n\n    // Polygon mapping : deposit\n    function deposit(address user, bytes calldata depositData) external override {\n        require(hasRole(DEPOSITOR_ROLE, _msgSender()), \"You're not allowed to deposit\");\n        uint256 amount = abi.decode(depositData, (uint256));\n        _mint(user, amount);\n    }\n\n    // Polygon mapping : withdraw\n    function withdraw(uint256 amount) external {\n        _burn(_msgSender(), amount);\n    }\n\n    // Initializer\n    function initialize(string memory name, string memory symbol, address childchangeProxy) public virtual initializer {\n        \n        __ERC20_init(name, symbol);\n        _setupRole(DEPOSITOR_ROLE, childchangeProxy);\n\n        _mint(_msgSender(), 10 ** 18 * 100); // dev faucet\n    }\n}",
  "sourcePath": "/Users/misskiwi/github/smartcontract-child/contracts/MOEToken.sol",
  "compiler": {
    "name": "solc",
    "version": "0.8.2+commit.661d1103.Emscripten.clang"
  },
  "schemaVersion": "3.4.4",
  "updatedAt": "2022-01-27T20:11:24.703Z",
  "networkType": "ethereum",
  "devdoc": {
    "kind": "dev",
    "methods": {
      "allowance(address,address)": {
        "details": "See {IERC20-allowance}."
      },
      "approve(address,uint256)": {
        "details": "See {IERC20-approve}. Requirements: - `spender` cannot be the zero address."
      },
      "balanceOf(address)": {
        "details": "See {IERC20-balanceOf}."
      },
      "decimals()": {
        "details": "Returns the number of decimals used to get its user representation. For example, if `decimals` equals `2`, a balance of `505` tokens should be displayed to a user as `5.05` (`505 / 10 ** 2`). Tokens usually opt for a value of 18, imitating the relationship between Ether and Wei. This is the value {ERC20} uses, unless this function is overridden; NOTE: This information is only used for _display_ purposes: it in no way affects any of the arithmetic of the contract, including {IERC20-balanceOf} and {IERC20-transfer}."
      },
      "decreaseAllowance(address,uint256)": {
        "details": "Atomically decreases the allowance granted to `spender` by the caller. This is an alternative to {approve} that can be used as a mitigation for problems described in {IERC20-approve}. Emits an {Approval} event indicating the updated allowance. Requirements: - `spender` cannot be the zero address. - `spender` must have allowance for the caller of at least `subtractedValue`."
      },
      "getRoleAdmin(bytes32)": {
        "details": "Returns the admin role that controls `role`. See {grantRole} and {revokeRole}. To change a role's admin, use {_setRoleAdmin}."
      },
      "getRoleMember(bytes32,uint256)": {
        "details": "Returns one of the accounts that have `role`. `index` must be a value between 0 and {getRoleMemberCount}, non-inclusive. Role bearers are not sorted in any particular way, and their ordering may change at any point. WARNING: When using {getRoleMember} and {getRoleMemberCount}, make sure you perform all queries on the same block. See the following https://forum.openzeppelin.com/t/iterating-over-elements-on-enumerableset-in-openzeppelin-contracts/2296[forum post] for more information."
      },
      "getRoleMemberCount(bytes32)": {
        "details": "Returns the number of accounts that have `role`. Can be used together with {getRoleMember} to enumerate all bearers of a role."
      },
      "grantRole(bytes32,address)": {
        "details": "Grants `role` to `account`. If `account` had not been already granted `role`, emits a {RoleGranted} event. Requirements: - the caller must have ``role``'s admin role."
      },
      "hasRole(bytes32,address)": {
        "details": "Returns `true` if `account` has been granted `role`."
      },
      "increaseAllowance(address,uint256)": {
        "details": "Atomically increases the allowance granted to `spender` by the caller. This is an alternative to {approve} that can be used as a mitigation for problems described in {IERC20-approve}. Emits an {Approval} event indicating the updated allowance. Requirements: - `spender` cannot be the zero address."
      },
      "name()": {
        "details": "Returns the name of the token."
      },
      "renounceRole(bytes32,address)": {
        "details": "Revokes `role` from the calling account. Roles are often managed via {grantRole} and {revokeRole}: this function's purpose is to provide a mechanism for accounts to lose their privileges if they are compromised (such as when a trusted device is misplaced). If the calling account had been revoked `role`, emits a {RoleRevoked} event. Requirements: - the caller must be `account`."
      },
      "revokeRole(bytes32,address)": {
        "details": "Revokes `role` from `account`. If `account` had been granted `role`, emits a {RoleRevoked} event. Requirements: - the caller must have ``role``'s admin role."
      },
      "supportsInterface(bytes4)": {
        "details": "See {IERC165-supportsInterface}."
      },
      "symbol()": {
        "details": "Returns the symbol of the token, usually a shorter version of the name."
      },
      "totalSupply()": {
        "details": "See {IERC20-totalSupply}."
      },
      "transfer(address,uint256)": {
        "details": "See {IERC20-transfer}. Requirements: - `recipient` cannot be the zero address. - the caller must have a balance of at least `amount`."
      },
      "transferFrom(address,address,uint256)": {
        "details": "See {IERC20-transferFrom}. Emits an {Approval} event indicating the updated allowance. This is not required by the EIP. See the note at the beginning of {ERC20}. Requirements: - `sender` and `recipient` cannot be the zero address. - `sender` must have a balance of at least `amount`. - the caller must have allowance for ``sender``'s tokens of at least `amount`."
      }
    },
    "version": 1
  },
  "userdoc": {
    "kind": "user",
    "methods": {},
    "version": 1
  }
}