{
  "contractName": "MOEToken",
  "abi": [
    {
      "anonymous": false,
      "inputs": [
        {
          "indexed": true,
          "internalType": "address",
          "name": "owner",
          "type": "address"
        },
        {
          "indexed": true,
          "internalType": "address",
          "name": "spender",
          "type": "address"
        },
        {
          "indexed": false,
          "internalType": "uint256",
          "name": "value",
          "type": "uint256"
        }
      ],
      "name": "Approval",
      "type": "event"
    },
    {
      "anonymous": false,
      "inputs": [
        {
          "indexed": true,
          "internalType": "bytes32",
          "name": "role",
          "type": "bytes32"
        },
        {
          "indexed": true,
          "internalType": "bytes32",
          "name": "previousAdminRole",
          "type": "bytes32"
        },
        {
          "indexed": true,
          "internalType": "bytes32",
          "name": "newAdminRole",
          "type": "bytes32"
        }
      ],
      "name": "RoleAdminChanged",
      "type": "event"
    },
    {
      "anonymous": false,
      "inputs": [
        {
          "indexed": true,
          "internalType": "bytes32",
          "name": "role",
          "type": "bytes32"
        },
        {
          "indexed": true,
          "internalType": "address",
          "name": "account",
          "type": "address"
        },
        {
          "indexed": true,
          "internalType": "address",
          "name": "sender",
          "type": "address"
        }
      ],
      "name": "RoleGranted",
      "type": "event"
    },
    {
      "anonymous": false,
      "inputs": [
        {
          "indexed": true,
          "internalType": "bytes32",
          "name": "role",
          "type": "bytes32"
        },
        {
          "indexed": true,
          "internalType": "address",
          "name": "account",
          "type": "address"
        },
        {
          "indexed": true,
          "internalType": "address",
          "name": "sender",
          "type": "address"
        }
      ],
      "name": "RoleRevoked",
      "type": "event"
    },
    {
      "anonymous": false,
      "inputs": [
        {
          "indexed": true,
          "internalType": "address",
          "name": "from",
          "type": "address"
        },
        {
          "indexed": true,
          "internalType": "address",
          "name": "to",
          "type": "address"
        },
        {
          "indexed": false,
          "internalType": "uint256",
          "name": "value",
          "type": "uint256"
        }
      ],
      "name": "Transfer",
      "type": "event"
    },
    {
      "inputs": [],
      "name": "DEFAULT_ADMIN_ROLE",
      "outputs": [
        {
          "internalType": "bytes32",
          "name": "",
          "type": "bytes32"
        }
      ],
      "stateMutability": "view",
      "type": "function",
      "constant": true
    },
    {
      "inputs": [],
      "name": "DEPOSITOR_ROLE",
      "outputs": [
        {
          "internalType": "bytes32",
          "name": "",
          "type": "bytes32"
        }
      ],
      "stateMutability": "view",
      "type": "function",
      "constant": true
    },
    {
      "inputs": [
        {
          "internalType": "address",
          "name": "owner",
          "type": "address"
        },
        {
          "internalType": "address",
          "name": "spender",
          "type": "address"
        }
      ],
      "name": "allowance",
      "outputs": [
        {
          "internalType": "uint256",
          "name": "",
          "type": "uint256"
        }
      ],
      "stateMutability": "view",
      "type": "function",
      "constant": true
    },
    {
      "inputs": [
        {
          "internalType": "address",
          "name": "spender",
          "type": "address"
        },
        {
          "internalType": "uint256",
          "name": "amount",
          "type": "uint256"
        }
      ],
      "name": "approve",
      "outputs": [
        {
          "internalType": "bool",
          "name": "",
          "type": "bool"
        }
      ],
      "stateMutability": "nonpayable",
      "type": "function"
    },
    {
      "inputs": [
        {
          "internalType": "uint256",
          "name": "",
          "type": "uint256"
        },
        {
          "internalType": "uint256",
          "name": "",
          "type": "uint256"
        }
      ],
      "name": "attackVotes",
      "outputs": [
        {
          "internalType": "uint256",
          "name": "id",
          "type": "uint256"
        },
        {
          "internalType": "address",
          "name": "voter",
          "type": "address"
        },
        {
          "internalType": "uint256",
          "name": "amount",
          "type": "uint256"
        },
        {
          "internalType": "uint256",
          "name": "timestamp",
          "type": "uint256"
        }
      ],
      "stateMutability": "view",
      "type": "function",
      "constant": true
    },
    {
      "inputs": [
        {
          "internalType": "address",
          "name": "account",
          "type": "address"
        }
      ],
      "name": "balanceOf",
      "outputs": [
        {
          "internalType": "uint256",
          "name": "",
          "type": "uint256"
        }
      ],
      "stateMutability": "view",
      "type": "function",
      "constant": true
    },
    {
      "inputs": [],
      "name": "decimals",
      "outputs": [
        {
          "internalType": "uint8",
          "name": "",
          "type": "uint8"
        }
      ],
      "stateMutability": "view",
      "type": "function",
      "constant": true
    },
    {
      "inputs": [
        {
          "internalType": "address",
          "name": "spender",
          "type": "address"
        },
        {
          "internalType": "uint256",
          "name": "subtractedValue",
          "type": "uint256"
        }
      ],
      "name": "decreaseAllowance",
      "outputs": [
        {
          "internalType": "bool",
          "name": "",
          "type": "bool"
        }
      ],
      "stateMutability": "nonpayable",
      "type": "function"
    },
    {
      "inputs": [
        {
          "internalType": "uint256",
          "name": "",
          "type": "uint256"
        },
        {
          "internalType": "uint256",
          "name": "",
          "type": "uint256"
        }
      ],
      "name": "defenseVotes",
      "outputs": [
        {
          "internalType": "uint256",
          "name": "id",
          "type": "uint256"
        },
        {
          "internalType": "address",
          "name": "voter",
          "type": "address"
        },
        {
          "internalType": "uint256",
          "name": "amount",
          "type": "uint256"
        },
        {
          "internalType": "uint256",
          "name": "timestamp",
          "type": "uint256"
        }
      ],
      "stateMutability": "view",
      "type": "function",
      "constant": true
    },
    {
      "inputs": [
        {
          "internalType": "bytes32",
          "name": "role",
          "type": "bytes32"
        }
      ],
      "name": "getRoleAdmin",
      "outputs": [
        {
          "internalType": "bytes32",
          "name": "",
          "type": "bytes32"
        }
      ],
      "stateMutability": "view",
      "type": "function",
      "constant": true
    },
    {
      "inputs": [
        {
          "internalType": "bytes32",
          "name": "role",
          "type": "bytes32"
        },
        {
          "internalType": "uint256",
          "name": "index",
          "type": "uint256"
        }
      ],
      "name": "getRoleMember",
      "outputs": [
        {
          "internalType": "address",
          "name": "",
          "type": "address"
        }
      ],
      "stateMutability": "view",
      "type": "function",
      "constant": true
    },
    {
      "inputs": [
        {
          "internalType": "bytes32",
          "name": "role",
          "type": "bytes32"
        }
      ],
      "name": "getRoleMemberCount",
      "outputs": [
        {
          "internalType": "uint256",
          "name": "",
          "type": "uint256"
        }
      ],
      "stateMutability": "view",
      "type": "function",
      "constant": true
    },
    {
      "inputs": [
        {
          "internalType": "bytes32",
          "name": "role",
          "type": "bytes32"
        },
        {
          "internalType": "address",
          "name": "account",
          "type": "address"
        }
      ],
      "name": "grantRole",
      "outputs": [],
      "stateMutability": "nonpayable",
      "type": "function"
    },
    {
      "inputs": [
        {
          "internalType": "bytes32",
          "name": "role",
          "type": "bytes32"
        },
        {
          "internalType": "address",
          "name": "account",
          "type": "address"
        }
      ],
      "name": "hasRole",
      "outputs": [
        {
          "internalType": "bool",
          "name": "",
          "type": "bool"
        }
      ],
      "stateMutability": "view",
      "type": "function",
      "constant": true
    },
    {
      "inputs": [
        {
          "internalType": "address",
          "name": "spender",
          "type": "address"
        },
        {
          "internalType": "uint256",
          "name": "addedValue",
          "type": "uint256"
        }
      ],
      "name": "increaseAllowance",
      "outputs": [
        {
          "internalType": "bool",
          "name": "",
          "type": "bool"
        }
      ],
      "stateMutability": "nonpayable",
      "type": "function"
    },
    {
      "inputs": [],
      "name": "name",
      "outputs": [
        {
          "internalType": "string",
          "name": "",
          "type": "string"
        }
      ],
      "stateMutability": "view",
      "type": "function",
      "constant": true
    },
    {
      "inputs": [
        {
          "internalType": "uint256",
          "name": "",
          "type": "uint256"
        }
      ],
      "name": "onnanocos",
      "outputs": [
        {
          "internalType": "string",
          "name": "name",
          "type": "string"
        },
        {
          "internalType": "address",
          "name": "owner",
          "type": "address"
        },
        {
          "components": [
            {
              "internalType": "bytes32",
              "name": "hash",
              "type": "bytes32"
            },
            {
              "internalType": "bytes2",
              "name": "hashFunction",
              "type": "bytes2"
            },
            {
              "internalType": "uint8",
              "name": "size",
              "type": "uint8"
            }
          ],
          "internalType": "struct Lib.Multihash",
          "name": "multihash",
          "type": "tuple"
        },
        {
          "internalType": "enum Lib.Status",
          "name": "status",
          "type": "uint8"
        },
        {
          "internalType": "uint256",
          "name": "timestamp",
          "type": "uint256"
        },
        {
          "internalType": "uint256",
          "name": "totalStakingAmount",
          "type": "uint256"
        },
        {
          "internalType": "uint256",
          "name": "roundId",
          "type": "uint256"
        }
      ],
      "stateMutability": "view",
      "type": "function",
      "constant": true
    },
    {
      "inputs": [
        {
          "internalType": "bytes32",
          "name": "role",
          "type": "bytes32"
        },
        {
          "internalType": "address",
          "name": "account",
          "type": "address"
        }
      ],
      "name": "renounceRole",
      "outputs": [],
      "stateMutability": "nonpayable",
      "type": "function"
    },
    {
      "inputs": [
        {
          "internalType": "bytes32",
          "name": "role",
          "type": "bytes32"
        },
        {
          "internalType": "address",
          "name": "account",
          "type": "address"
        }
      ],
      "name": "revokeRole",
      "outputs": [],
      "stateMutability": "nonpayable",
      "type": "function"
    },
    {
      "inputs": [
        {
          "internalType": "uint256",
          "name": "",
          "type": "uint256"
        }
      ],
      "name": "rounds",
      "outputs": [
        {
          "internalType": "uint256",
          "name": "onnanocoId",
          "type": "uint256"
        },
        {
          "internalType": "uint256",
          "name": "totalDefenseAmount",
          "type": "uint256"
        },
        {
          "internalType": "uint256",
          "name": "totalAttackAmount",
          "type": "uint256"
        },
        {
          "internalType": "uint256",
          "name": "timestamp",
          "type": "uint256"
        },
        {
          "internalType": "uint256",
          "name": "totalVotes",
          "type": "uint256"
        }
      ],
      "stateMutability": "view",
      "type": "function",
      "constant": true
    },
    {
      "inputs": [
        {
          "internalType": "address",
          "name": "",
          "type": "address"
        },
        {
          "internalType": "uint256",
          "name": "",
          "type": "uint256"
        }
      ],
      "name": "stakes",
      "outputs": [
        {
          "internalType": "uint256",
          "name": "id",
          "type": "uint256"
        },
        {
          "internalType": "uint256",
          "name": "amount",
          "type": "uint256"
        },
        {
          "internalType": "uint256",
          "name": "timestamp",
          "type": "uint256"
        }
      ],
      "stateMutability": "view",
      "type": "function",
      "constant": true
    },
    {
      "inputs": [
        {
          "internalType": "bytes4",
          "name": "interfaceId",
          "type": "bytes4"
        }
      ],
      "name": "supportsInterface",
      "outputs": [
        {
          "internalType": "bool",
          "name": "",
          "type": "bool"
        }
      ],
      "stateMutability": "view",
      "type": "function",
      "constant": true
    },
    {
      "inputs": [],
      "name": "symbol",
      "outputs": [
        {
          "internalType": "string",
          "name": "",
          "type": "string"
        }
      ],
      "stateMutability": "view",
      "type": "function",
      "constant": true
    },
    {
      "inputs": [],
      "name": "totalOnnanocos",
      "outputs": [
        {
          "internalType": "uint256",
          "name": "",
          "type": "uint256"
        }
      ],
      "stateMutability": "view",
      "type": "function",
      "constant": true
    },
    {
      "inputs": [],
      "name": "totalRounds",
      "outputs": [
        {
          "internalType": "uint256",
          "name": "",
          "type": "uint256"
        }
      ],
      "stateMutability": "view",
      "type": "function",
      "constant": true
    },
    {
      "inputs": [],
      "name": "totalSupply",
      "outputs": [
        {
          "internalType": "uint256",
          "name": "",
          "type": "uint256"
        }
      ],
      "stateMutability": "view",
      "type": "function",
      "constant": true
    },
    {
      "inputs": [
        {
          "internalType": "address",
          "name": "recipient",
          "type": "address"
        },
        {
          "internalType": "uint256",
          "name": "amount",
          "type": "uint256"
        }
      ],
      "name": "transfer",
      "outputs": [
        {
          "internalType": "bool",
          "name": "",
          "type": "bool"
        }
      ],
      "stateMutability": "nonpayable",
      "type": "function"
    },
    {
      "inputs": [
        {
          "internalType": "address",
          "name": "sender",
          "type": "address"
        },
        {
          "internalType": "address",
          "name": "recipient",
          "type": "address"
        },
        {
          "internalType": "uint256",
          "name": "amount",
          "type": "uint256"
        }
      ],
      "name": "transferFrom",
      "outputs": [
        {
          "internalType": "bool",
          "name": "",
          "type": "bool"
        }
      ],
      "stateMutability": "nonpayable",
      "type": "function"
    },
    {
      "inputs": [
        {
          "internalType": "string",
          "name": "name",
          "type": "string"
        },
        {
          "internalType": "bytes32",
          "name": "hash",
          "type": "bytes32"
        },
        {
          "internalType": "bytes2",
          "name": "hashFunction",
          "type": "bytes2"
        },
        {
          "internalType": "uint8",
          "name": "hashSize",
          "type": "uint8"
        },
        {
          "internalType": "uint256",
          "name": "amount",
          "type": "uint256"
        }
      ],
      "name": "add",
      "outputs": [],
      "stateMutability": "nonpayable",
      "type": "function"
    },
    {
      "inputs": [
        {
          "internalType": "uint256",
          "name": "id",
          "type": "uint256"
        }
      ],
      "name": "getMinimumAttackAmount",
      "outputs": [
        {
          "internalType": "uint256",
          "name": "amount",
          "type": "uint256"
        }
      ],
      "stateMutability": "view",
      "type": "function",
      "constant": true
    },
    {
      "inputs": [
        {
          "internalType": "uint256",
          "name": "id",
          "type": "uint256"
        },
        {
          "internalType": "uint256",
          "name": "amount",
          "type": "uint256"
        }
      ],
      "name": "attack",
      "outputs": [],
      "stateMutability": "nonpayable",
      "type": "function"
    },
    {
      "inputs": [
        {
          "internalType": "uint256",
          "name": "id",
          "type": "uint256"
        }
      ],
      "name": "getMinimumDefenseAmount",
      "outputs": [
        {
          "internalType": "uint256",
          "name": "amount",
          "type": "uint256"
        }
      ],
      "stateMutability": "view",
      "type": "function",
      "constant": true
    },
    {
      "inputs": [
        {
          "internalType": "uint256",
          "name": "id",
          "type": "uint256"
        },
        {
          "internalType": "uint256",
          "name": "amount",
          "type": "uint256"
        }
      ],
      "name": "defense",
      "outputs": [],
      "stateMutability": "nonpayable",
      "type": "function"
    },
    {
      "inputs": [
        {
          "internalType": "uint256",
          "name": "roundId",
          "type": "uint256"
        }
      ],
      "name": "clearRound",
      "outputs": [],
      "stateMutability": "nonpayable",
      "type": "function"
    },
    {
      "inputs": [
        {
          "internalType": "uint256",
          "name": "roundId",
          "type": "uint256"
        },
        {
          "internalType": "uint256",
          "name": "voteId",
          "type": "uint256"
        }
      ],
      "name": "receiveAttackReward",
      "outputs": [],
      "stateMutability": "nonpayable",
      "type": "function"
    },
    {
      "inputs": [
        {
          "internalType": "uint256",
          "name": "roundId",
          "type": "uint256"
        },
        {
          "internalType": "uint256",
          "name": "voteId",
          "type": "uint256"
        }
      ],
      "name": "receiveDefenseReward",
      "outputs": [],
      "stateMutability": "nonpayable",
      "type": "function"
    },
    {
      "inputs": [
        {
          "internalType": "uint256",
          "name": "id",
          "type": "uint256"
        },
        {
          "internalType": "uint256",
          "name": "amount",
          "type": "uint256"
        }
      ],
      "name": "stake",
      "outputs": [],
      "stateMutability": "nonpayable",
      "type": "function"
    },
    {
      "inputs": [
        {
          "internalType": "uint256",
          "name": "stakeId",
          "type": "uint256"
        }
      ],
      "name": "unstake",
      "outputs": [],
      "stateMutability": "nonpayable",
      "type": "function"
    },
    {
      "inputs": [
        {
          "internalType": "address",
          "name": "staker",
          "type": "address"
        },
        {
          "internalType": "uint256",
          "name": "stakeId",
          "type": "uint256"
        }
      ],
      "name": "getStakeRewardAmount",
      "outputs": [
        {
          "internalType": "uint256",
          "name": "amount",
          "type": "uint256"
        },
        {
          "internalType": "uint256",
          "name": "duration",
          "type": "uint256"
        }
      ],
      "stateMutability": "view",
      "type": "function",
      "constant": true
    },
    {
      "inputs": [
        {
          "internalType": "uint256",
          "name": "stakeId",
          "type": "uint256"
        }
      ],
      "name": "receiveStakeReward",
      "outputs": [],
      "stateMutability": "nonpayable",
      "type": "function"
    },
    {
      "inputs": [
        {
          "internalType": "uint256",
          "name": "id",
          "type": "uint256"
        }
      ],
      "name": "getOwnerRewardAmount",
      "outputs": [
        {
          "internalType": "uint256",
          "name": "amount",
          "type": "uint256"
        },
        {
          "internalType": "uint256",
          "name": "duration",
          "type": "uint256"
        }
      ],
      "stateMutability": "view",
      "type": "function",
      "constant": true
    },
    {
      "inputs": [
        {
          "internalType": "uint256",
          "name": "id",
          "type": "uint256"
        }
      ],
      "name": "receiveOwnerReward",
      "outputs": [],
      "stateMutability": "nonpayable",
      "type": "function"
    },
    {
      "inputs": [
        {
          "internalType": "address",
          "name": "user",
          "type": "address"
        },
        {
          "internalType": "bytes",
          "name": "depositData",
          "type": "bytes"
        }
      ],
      "name": "deposit",
      "outputs": [],
      "stateMutability": "nonpayable",
      "type": "function"
    },
    {
      "inputs": [
        {
          "internalType": "uint256",
          "name": "amount",
          "type": "uint256"
        }
      ],
      "name": "withdraw",
      "outputs": [],
      "stateMutability": "nonpayable",
      "type": "function"
    },
    {
      "inputs": [
        {
          "internalType": "string",
          "name": "name",
          "type": "string"
        },
        {
          "internalType": "string",
          "name": "symbol",
          "type": "string"
        },
        {
          "internalType": "address",
          "name": "childchangeProxy",
          "type": "address"
        }
      ],
      "name": "initialize",
      "outputs": [],
      "stateMutability": "nonpayable",
      "type": "function"
    }
  ],
  "bytecode": "0x608060405234801561001057600080fd5b50613c80806100206000396000f3fe608060405234801561001057600080fd5b506004361061027f5760003560e01c80637b0472f01161015c578063a3b0b5a3116100ce578063d1cd59ea11610087578063d1cd59ea14610666578063d50c2c5014610679578063d547741f1461068c578063dd62ed3e1461069f578063e1fa7638146106d8578063f9c96766146106eb5761027f565b8063a3b0b5a3146105e0578063a457c2d714610607578063a9059cbb1461061a578063b4d039281461062d578063ca15c87314610640578063cf2c52cb146106535761027f565b80638c65c81f116101205780638c65c81f146104f25780639010d07c1461055757806391d1485414610582578063946e94c41461059557806395d89b41146105d0578063a217fddf146105d85761027f565b80637b0472f01461049d57806381a15af4146104b0578063860909c4146104c3578063867e1f55146104d65780638a568299146104e95761027f565b80632e17de78116101f557806339509351116101b957806339509351146103e5578063584b62a1146103f857806364d07acb146104265780636ad6c0351461044e5780636d13a9e61461046157806370a08231146104745761027f565b80632e17de781461038a5780632e1a7d4d1461039d5780632f2ff15d146103b0578063313ce567146103c357806336568abe146103d25761027f565b80630c6cc4a3116102475780630c6cc4a3146102fc578063111bf50b1461031357806318160ddd146103265780632042f1c71461032e57806323b872dd14610354578063248a9ca3146103675761027f565b806301ffc9a71461028457806306d5dcc2146102ac57806306fdde03146102c1578063077f224a146102d6578063095ea7b3146102e9575b600080fd5b61029761029236600461370a565b6106fe565b60405190151581526020015b60405180910390f35b6102bf6102ba3660046136e9565b61072b565b005b6102c96109b7565b6040516102a391906138c7565b6102bf6102e43660046137b5565b610a49565b6102976102f7366004613686565b610b55565b61030560fe5481565b6040519081526020016102a3565b6102bf610321366004613732565b610b6c565b60cb54610305565b61034161033c3660046136af565b610e14565b6040516102a397969594939291906138da565b6102976103623660046135cd565b610f1a565b6103056103753660046136af565b60009081526065602052604090206001015490565b6102bf6103983660046136af565b610fc4565b6102bf6103ab3660046136af565b6111a3565b6102bf6103be3660046136c7565b6111af565b604051601281526020016102a3565b6102bf6103e03660046136c7565b6111db565b6102976103f3366004613686565b611259565b61040b610406366004613686565b611295565b604080519384526020840192909252908201526060016102a3565b610439610434366004613686565b6112d8565b604080519283526020830191909152016102a3565b61030561045c3660046136af565b6113f6565b61043961046f3660046136af565b611569565b610305610482366004613581565b6001600160a01b0316600090815260c9602052604090205490565b6102bf6104ab3660046136e9565b61181e565b6102bf6104be3660046136af565b611937565b6102bf6104d13660046136e9565b611cb8565b6102bf6104e43660046136af565b611e9e565b61030560fd5481565b61052f6105003660046136af565b60fc60205260009081526040902080546001820154600283015460038401546004909401549293919290919085565b604080519586526020860194909452928401919091526060830152608082015260a0016102a3565b61056a6105653660046136e9565b611f72565b6040516001600160a01b0390911681526020016102a3565b6102976105903660046136c7565b611f91565b6105a86105a33660046136e9565b611fbc565b604080519485526001600160a01b0390931660208501529183015260608201526080016102a3565b6102c961200c565b610305600081565b6103057f8f4f2da22e8ac8f11e15f9fc141cddbb5deea8800186560abb6e68c5496619a981565b610297610615366004613686565b61201b565b610297610628366004613686565b6120b4565b61030561063b3660046136af565b6120c1565b61030561064e3660046136af565b6121f3565b6102bf610661366004613608565b61220a565b6102bf6106743660046136af565b61229a565b6105a86106873660046136e9565b612417565b6102bf61069a3660046136c7565b612433565b6103056106ad36600461359b565b6001600160a01b03918216600090815260ca6020908152604080832093909416825291909152205490565b6102bf6106e63660046136e9565b612459565b6102bf6106f93660046136e9565b6126dd565b60006001600160e01b03198216635a05180f60e01b14806107235750610723826128e0565b90505b919050565b600082815260ff6020526040812080548390811061075957634e487b7160e01b600052603260045260246000fd5b60009182526020918290206040805160808101825260049093029091018054835260018101546001600160a01b031693830193909352600283015490820152600390910154606082018190529091506107cd5760405162461bcd60e51b81526004016107c4906139ec565b60405180910390fd5b60208101516001600160a01b0316336001600160a01b0316146108275760405162461bcd60e51b81526020600482015260126024820152711353d148881858d8d95cdcc819195b9a595960721b60448201526064016107c4565b600083815260fc6020908152604091829020825160a081018452815481526001820154928101929092526002810154928201929092526003820154606082018190526004909201546080820152906108915760405162461bcd60e51b81526004016107c4906139ec565b60008160600151426108a39190613b6e565b9050610e1081116108c65760405162461bcd60e51b81526004016107c490613a95565b6000826020015183604001516108dc9190613b17565b905082602001518360400151101561094c5784156109205761091b336020850151604087015161090c9085613b4f565b6109169190613b2f565b612915565b61094c565b61094c33604086015160208601516109388286613b4f565b6109429190613b2f565b6109169190613b6e565b600086815260ff6020526040812080548790811061097a57634e487b7160e01b600052603260045260246000fd5b906000526020600020906004020160010160006101000a8154816001600160a01b0302191690836001600160a01b03160217905550505050505050565b606060cc80546109c690613bc8565b80601f01602080910402602001604051908101604052809291908181526020018280546109f290613bc8565b8015610a3f5780601f10610a1457610100808354040283529160200191610a3f565b820191906000526020600020905b815481529060010190602001808311610a2257829003601f168201915b5050505050905090565b600054610100900460ff16610a645760005460ff1615610a68565b303b155b610acb5760405162461bcd60e51b815260206004820152602e60248201527f496e697469616c697a61626c653a20636f6e747261637420697320616c72656160448201526d191e481a5b9a5d1a585b1a5e995960921b60648201526084016107c4565b600054610100900460ff16158015610af6576000805460ff1961ff0019909116610100171660011790555b610b0084846129f5565b610b2a7f8f4f2da22e8ac8f11e15f9fc141cddbb5deea8800186560abb6e68c5496619a983612a2e565b610b3d3368056bc75e2d63100000612915565b8015610b4f576000805461ff00191690555b50505050565b6000610b62338484612a38565b5060015b92915050565b60008111610b8c5760405162461bcd60e51b81526004016107c490613967565b610b97335b82612b5c565b6040518060e00160405280868152602001610baf3390565b6001600160a01b03168152604080516060810182528781526001600160f01b0319871660208281019190915260ff87168284015283015201600081526020014281526020016000815260200160fd5481525060fb600060fe5481526020019081526020016000206000820151816000019080519060200190610c3292919061344a565b50602082810151600180840180546001600160a01b039093166001600160a01b031990931692909217909155604080850151805160028087019190915593810151600386018054929093015160ff16620100000262ff00001960f09290921c61ffff19909316929092171617905560608401516004840180549193909260ff1990921691908490811115610cd657634e487b7160e01b600052602160045260246000fd5b0217905550608082810151600583015560a080840151600684015560c09093015160079092019190915560408051928301815260fe805484526020808501868152600086850181815260608801828152600189890181815260fd54855260fc87528885209a518b559451908a015590516002890155516003880155905160049096019590955582519384019092525482528101336001600160a01b03908116825260208083018690524260409384015260fd54600090815260ff825283812080546001808201835591835283832087516004909202019081559286015190830180546001600160a01b0319169190941617909255918301516002830155606083015160039092019190915560fe805492935090610df283613c03565b909155505060fd8054906000610e0783613c03565b9190505550505050505050565b60fb60205260009081526040902080548190610e2f90613bc8565b80601f0160208091040260200160405190810160405280929190818152602001828054610e5b90613bc8565b8015610ea85780601f10610e7d57610100808354040283529160200191610ea8565b820191906000526020600020905b815481529060010190602001808311610e8b57829003601f168201915b5050505060018301546040805160608101825260028601548152600386015460f081901b6001600160f01b031916602083015262010000900460ff9081169282019290925260048601546005870154600688015460079098015496976001600160a01b03909516969295509216929087565b6000610f27848484612caa565b6001600160a01b038416600090815260ca6020908152604080832033845290915290205482811015610fac5760405162461bcd60e51b815260206004820152602860248201527f45524332303a207472616e7366657220616d6f756e74206578636565647320616044820152676c6c6f77616e636560c01b60648201526084016107c4565b610fb98533858403612a38565b506001949350505050565b33600090815261010160205260408120805483908110610ff457634e487b7160e01b600052603260045260246000fd5b90600052602060002090600302016040518060600160405290816000820154815260200160018201548152602001600282015481525050905060008160400151116110515760405162461bcd60e51b81526004016107c4906139ec565b60018151600090815260fb602052604090206004015460ff16600281111561108957634e487b7160e01b600052602160045260246000fd5b14156110d75760405162461bcd60e51b815260206004820152601f60248201527f4d4f453a20726f756e6420697320696e2064697370757465207374617475730060448201526064016107c4565b6000806110e433856112d8565b91509150610e1081116111095760405162461bcd60e51b81526004016107c49061399e565b61111d338385602001516109169190613b17565b826020015160fb600085600001518152602001908152602001600020600601600082825461114b9190613b6e565b90915550503360009081526101016020526040902080548590811061118057634e487b7160e01b600052603260045260246000fd5b600091825260208220600390910201818155600181018290556002015550505050565b6111ac33610b91565b50565b6000828152606560205260409020600101546111cc81335b612e78565b6111d68383612edc565b505050565b6001600160a01b038116331461124b5760405162461bcd60e51b815260206004820152602f60248201527f416363657373436f6e74726f6c3a2063616e206f6e6c792072656e6f756e636560448201526e103937b632b9903337b91039b2b63360891b60648201526084016107c4565b6112558282612efe565b5050565b33600081815260ca602090815260408083206001600160a01b03871684529091528120549091610b62918590611290908690613b17565b612a38565b61010160205281600052604060002081815481106112b257600080fd5b600091825260209091206003909102018054600182015460029092015490935090915083565b6001600160a01b0382166000908152610101602052604081208054829182918590811061131557634e487b7160e01b600052603260045260246000fd5b90600052602060002090600302016040518060600160405290816000820154815260200160018201548152602001600282015481525050905060008160400151116113725760405162461bcd60e51b81526004016107c4906139ec565b60408101516113819042613b6e565b91506283d6008282602001516113979190613b4f565b6113a19190613b2f565b925060008151600090815260fb602052604090206004015460ff1660028111156113db57634e487b7160e01b600052602160045260246000fd5b146113ed5760008092509250506113ef565b505b9250929050565b600060fe5482106114195760405162461bcd60e51b81526004016107c4906139ec565b6002600083815260fb602052604090206004015460ff16600281111561144f57634e487b7160e01b600052602160045260246000fd5b14156114945760405162461bcd60e51b81526020600482015260146024820152734d4f453a2064657072656361746564206461746160601b60448201526064016107c4565b600082815260fb602090815260408083206007015480845260fc835292819020815160a081018352815481526001820154938101939093526002810154918301829052600380820154606085015260049091015460808401526114f79190613b4f565b8160400151826020015161150b9190613b17565b611516906002613b4f565b111561155e57604081015161152c906003613b4f565b816040015182602001516115409190613b17565b61154b906002613b4f565b6115559190613b6e565b92505050610726565b600092505050610726565b600080600060fb60008581526020019081526020016000206040518060e001604052908160008201805461159c90613bc8565b80601f01602080910402602001604051908101604052809291908181526020018280546115c890613bc8565b80156116155780601f106115ea57610100808354040283529160200191611615565b820191906000526020600020905b8154815290600101906020018083116115f857829003601f168201915b505050918352505060018201546001600160a01b031660208083019190915260408051606080820183526002808701548352600387015460f081901b6001600160f01b031916958401959095526201000090940460ff9081168385015292850191909152600485015493019216908111156116a057634e487b7160e01b600052602160045260246000fd5b60028111156116bf57634e487b7160e01b600052602160045260246000fd5b81526020016005820154815260200160068201548152602001600782015481525050905060008160800151116117075760405162461bcd60e51b81526004016107c4906139ec565b60008160600151600281111561172d57634e487b7160e01b600052602160045260246000fd5b1461174a5760405162461bcd60e51b81526004016107c490613a1c565b60c0810151600090815260ff602052604081208054829061177b57634e487b7160e01b600052603260045260246000fd5b60009182526020918290206040805160808101825260049093029091018054835260018101546001600160a01b031693830193909352600283015490820152600390910154606082018190529091506117e65760405162461bcd60e51b81526004016107c4906139ec565b60608101516117f59042613b6e565b92506241eb0083826040015161180b9190613b4f565b6118159190613b2f565b93505050915091565b6000811161183e5760405162461bcd60e51b81526004016107c490613967565b60fe54821061185f5760405162461bcd60e51b81526004016107c4906139ec565b600082815260fb602052604081206004015460ff16600281111561189357634e487b7160e01b600052602160045260246000fd5b146118b05760405162461bcd60e51b81526004016107c490613a1c565b6118b933610b91565b3360009081526101016020908152604080832081516060810183528681528084018681524282850190815283546001808201865594885286882093516003909102909301928355905192820192909255905160029091015584835260fb9091528120600601805483929061192e908490613b17565b90915550505050565b600081815260fc6020908152604091829020825160a081018452815481526001820154928101929092526002810154928201929092526003820154606082018190526004909201546080820152906119a15760405162461bcd60e51b81526004016107c4906139ec565b8051600090815260fb60205260409020600781015483146119d45760405162461bcd60e51b81526004016107c4906139ec565b6001600482015460ff1660028111156119fd57634e487b7160e01b600052602160045260246000fd5b14611a1a5760405162461bcd60e51b81526004016107c490613a5e565b6000826060015142611a2c9190613b6e565b9050610e108111611a4f5760405162461bcd60e51b81526004016107c490613a95565b826020015183604001511115611a9357611a7f3360648560400151611a749190613b2f565b610916906001613b4f565b60048201805460ff19166002179055610b4f565b826020015183604001511015610b4f57611ab83360648560200151611a749190613b2f565b60048201805460ff19169055600084815260ff6020526040812080548290611af057634e487b7160e01b600052603260045260246000fd5b9060005260206000209060040201604051806080016040529081600082015481526020016001820160009054906101000a90046001600160a01b03166001600160a01b03166001600160a01b031681526020016002820154815260200160038201548152505090506040518060a0016040528085600001518152602001826040015181526020016000815260200160008152602001600181525060fc600060fd548152602001908152602001600020600082015181600001556020820151816001015560408201518160020155606082015181600301556080820151816004015590505060fd548360070181905550600060405180608001604052808660000151815260200183602001516001600160a01b031681526020018360400151815260200142815250905060ff600060fd5481526020019081526020016000208190806001815401808255809150506001900390600052602060002090600402016000909190919091506000820151816000015560208201518160010160006101000a8154816001600160a01b0302191690836001600160a01b031602179055506040820151816002015560608201518160030155505060fd6000815480929190610e0790613c03565b60008111611cd85760405162461bcd60e51b81526004016107c490613967565b600082815260fb602090815260408083206007015480845260fc8352818420825160a0810184528154815260018201549481019490945260028101549284019290925260038201546060840152600490910154608083015291611d3a856120c1565b905080841015611d8c5760405162461bcd60e51b815260206004820152601d60248201527f4d4f453a206c657373207468616e206d696e696d756d20616d6f756e7400000060448201526064016107c4565b6000826060015142611d9e9190613b6e565b9050610e108110611dc15760405162461bcd60e51b81526004016107c490613a5e565b611dcb3386612b5c565b60ff60008581526020019081526020016000206040518060800160405280888152602001611df63390565b6001600160a01b03908116825260208083018a905242604093840152845460018082018755600096875282872086516004909302019182558583015182820180546001600160a01b031916919095161790935584840151600282015560609094015160039094019390935587845260fc9092528220018054879290611e7c908490613b17565b9091555050600084815260fc60205260408120600401805491610e0783613c03565b600080611eab33846112d8565b9150915060008211611eff5760405162461bcd60e51b815260206004820152601f60248201527f4d4f453a20726577617264206d7573742067726561746572207468616e20300060448201526064016107c4565b610e108111611f205760405162461bcd60e51b81526004016107c49061399e565b33600090815261010160205260409020805442919085908110611f5357634e487b7160e01b600052603260045260246000fd5b60009182526020909120600260039092020101556111d6335b83612915565b6000828152609760205260408120611f8a9083612f20565b9392505050565b60009182526065602090815260408084206001600160a01b0393909316845291905290205460ff1690565b6101006020528160005260406000208181548110611fd957600080fd5b600091825260209091206004909102018054600182015460028301546003909301549194506001600160a01b0316925084565b606060cd80546109c690613bc8565b33600090815260ca602090815260408083206001600160a01b03861684529091528120548281101561209d5760405162461bcd60e51b815260206004820152602560248201527f45524332303a2064656372656173656420616c6c6f77616e63652062656c6f77604482015264207a65726f60d81b60648201526084016107c4565b6120aa3385858403612a38565b5060019392505050565b6000610b62338484612caa565b600060fe5482106120e45760405162461bcd60e51b81526004016107c4906139ec565b6001600083815260fb602052604090206004015460ff16600281111561211a57634e487b7160e01b600052602160045260246000fd5b146121375760405162461bcd60e51b81526004016107c490613a5e565b600082815260fb602090815260408083206007015480845260fc835292819020815160a0810183528154815260018201549381019390935260028101549183019190915260038101546060830181905260049091015460808301526121ae5760405162461bcd60e51b81526004016107c4906139ec565b60208101516121be906003613b4f565b816040015182602001516121d29190613b17565b6121dd906002613b4f565b111561155e57602081015161152c906003613b4f565b600081815260976020526040812061072390612f2c565b6122347f8f4f2da22e8ac8f11e15f9fc141cddbb5deea8800186560abb6e68c5496619a933610590565b6122805760405162461bcd60e51b815260206004820152601d60248201527f596f75277265206e6f7420616c6c6f77656420746f206465706f73697400000060448201526064016107c4565b600061228e828401846136af565b9050610b4f8482612915565b600081815260fb6020908152604080832060070154835260ff909152812080543392906122d757634e487b7160e01b600052603260045260246000fd5b60009182526020909120600160049092020101546001600160a01b0316146123365760405162461bcd60e51b81526020600482015260126024820152711353d14e881858d8d95cdcc819195b9a595960721b60448201526064016107c4565b60008061234283611569565b91509150610e1081116123675760405162461bcd60e51b81526004016107c49061399e565b600082116123b75760405162461bcd60e51b815260206004820152601f60248201527f4d4f453a20726577617264206d7573742067726561746572207468616e20300060448201526064016107c4565b6123c033611f6c565b600083815260fb6020908152604080832060070154835260ff909152812080544292906123fd57634e487b7160e01b600052603260045260246000fd5b906000526020600020906004020160030181905550505050565b60ff6020528160005260406000208181548110611fd957600080fd5b60008281526065602052604090206001015461244f81336111c7565b6111d68383612efe565b600081116124795760405162461bcd60e51b81526004016107c490613967565b6000612484836113f6565b9050808210156124d65760405162461bcd60e51b815260206004820152601d60248201527f4d4f453a206c657373207468616e206d696e696d756d20616d6f756e7400000060448201526064016107c4565b600083815260fb60205260408120600781015460049091015490919060ff16600281111561251457634e487b7160e01b600052602160045260246000fd5b141561254f57600084815260fb60209081526040808320600401805460ff1916600117905583835260fc9091529020426003909101556125f1565b600081815260fc6020908152604091829020825160a081018452815481526001820154928101929092526002810154928201929092526003820154606082018190526004909201546080820152906125b95760405162461bcd60e51b81526004016107c4906139ec565b60008160600151426125cb9190613b6e565b9050610e1081106125ee5760405162461bcd60e51b81526004016107c490613a5e565b50505b6125fb3384612b5c565b610100600082815260200190815260200160002060405180608001604052808681526020016126273390565b6001600160a01b039081168252602080830188905242604093840152845460018082018755600096875282872086516004909302019182558583015190820180546001600160a01b03191691909416179092558383015160028084019190915560609094015160039092019190915584845260fc905282200180548592906126b0908490613b17565b9091555050600081815260fc602052604081206004018054916126d283613c03565b919050555050505050565b60008281526101006020526040812080548390811061270c57634e487b7160e01b600052603260045260246000fd5b60009182526020918290206040805160808101825260049093029091018054835260018101546001600160a01b031693830193909352600283015490820152600390910154606082018190529091506127775760405162461bcd60e51b81526004016107c4906139ec565b60208101516001600160a01b0316336001600160a01b0316146127d15760405162461bcd60e51b81526020600482015260126024820152711353d14e881858d8d95cdcc819195b9a595960721b60448201526064016107c4565b600083815260fc6020908152604091829020825160a0810184528154815260018201549281019290925260028101549282019290925260038201546060820181905260049092015460808201529061283b5760405162461bcd60e51b81526004016107c4906139ec565b600081606001514261284d9190613b6e565b9050610e1081116128705760405162461bcd60e51b81526004016107c490613a95565b6000826020015183604001516128869190613b17565b90508260200151836040015111156128b1576128b133846040015186604001518461090c9190613b4f565b60008681526101006020526040812080548790811061097a57634e487b7160e01b600052603260045260246000fd5b60006001600160e01b03198216637965db0b60e01b148061072357506301ffc9a760e01b6001600160e01b0319831614610723565b6001600160a01b03821661296b5760405162461bcd60e51b815260206004820152601f60248201527f45524332303a206d696e7420746f20746865207a65726f20616464726573730060448201526064016107c4565b8060cb600082825461297d9190613b17565b90915550506001600160a01b038216600090815260c96020526040812080548392906129aa908490613b17565b90915550506040518181526001600160a01b038316906000907fddf252ad1be2c89b69c2b068fc378daa952ba7f163c4a11628f55a4df523b3ef9060200160405180910390a3611255565b600054610100900460ff16612a1c5760405162461bcd60e51b81526004016107c490613acc565b612a24612f36565b6112558282612f5f565b6112558282612edc565b6001600160a01b038316612a9a5760405162461bcd60e51b8152602060048201526024808201527f45524332303a20617070726f76652066726f6d20746865207a65726f206164646044820152637265737360e01b60648201526084016107c4565b6001600160a01b038216612afb5760405162461bcd60e51b815260206004820152602260248201527f45524332303a20617070726f766520746f20746865207a65726f206164647265604482015261737360f01b60648201526084016107c4565b6001600160a01b03838116600081815260ca602090815260408083209487168084529482529182902085905590518481527f8c5be1e5ebec7d5bd14f71427d1e84f3dd0314c0f7b2291e5b200ac8c7c3b925910160405180910390a3505050565b6001600160a01b038216612bbc5760405162461bcd60e51b815260206004820152602160248201527f45524332303a206275726e2066726f6d20746865207a65726f206164647265736044820152607360f81b60648201526084016107c4565b6001600160a01b038216600090815260c9602052604090205481811015612c305760405162461bcd60e51b815260206004820152602260248201527f45524332303a206275726e20616d6f756e7420657863656564732062616c616e604482015261636560f01b60648201526084016107c4565b6001600160a01b038316600090815260c960205260408120838303905560cb8054849290612c5f908490613b6e565b90915550506040518281526000906001600160a01b038516907fddf252ad1be2c89b69c2b068fc378daa952ba7f163c4a11628f55a4df523b3ef9060200160405180910390a36111d6565b6001600160a01b038316612d0e5760405162461bcd60e51b815260206004820152602560248201527f45524332303a207472616e736665722066726f6d20746865207a65726f206164604482015264647265737360d81b60648201526084016107c4565b6001600160a01b038216612d705760405162461bcd60e51b815260206004820152602360248201527f45524332303a207472616e7366657220746f20746865207a65726f206164647260448201526265737360e81b60648201526084016107c4565b6001600160a01b038316600090815260c9602052604090205481811015612de85760405162461bcd60e51b815260206004820152602660248201527f45524332303a207472616e7366657220616d6f756e7420657863656564732062604482015265616c616e636560d01b60648201526084016107c4565b6001600160a01b03808516600090815260c96020526040808220858503905591851681529081208054849290612e1f908490613b17565b92505081905550826001600160a01b0316846001600160a01b03167fddf252ad1be2c89b69c2b068fc378daa952ba7f163c4a11628f55a4df523b3ef84604051612e6b91815260200190565b60405180910390a3610b4f565b612e828282611f91565b61125557612e9a816001600160a01b03166014612fad565b612ea5836020612fad565b604051602001612eb6929190613852565b60408051601f198184030181529082905262461bcd60e51b82526107c4916004016138c7565b612ee6828261318f565b60008281526097602052604090206111d69082613215565b612f08828261322a565b60008281526097602052604090206111d69082613291565b6000611f8a83836132a6565b6000610723825490565b600054610100900460ff16612f5d5760405162461bcd60e51b81526004016107c490613acc565b565b600054610100900460ff16612f865760405162461bcd60e51b81526004016107c490613acc565b8151612f999060cc90602085019061344a565b5080516111d69060cd90602084019061344a565b60606000612fbc836002613b4f565b612fc7906002613b17565b67ffffffffffffffff811115612fed57634e487b7160e01b600052604160045260246000fd5b6040519080825280601f01601f191660200182016040528015613017576020820181803683370190505b509050600360fc1b8160008151811061304057634e487b7160e01b600052603260045260246000fd5b60200101906001600160f81b031916908160001a905350600f60fb1b8160018151811061307d57634e487b7160e01b600052603260045260246000fd5b60200101906001600160f81b031916908160001a90535060006130a1846002613b4f565b6130ac906001613b17565b90505b6001811115613140576f181899199a1a9b1b9c1cb0b131b232b360811b85600f16601081106130ee57634e487b7160e01b600052603260045260246000fd5b1a60f81b82828151811061311257634e487b7160e01b600052603260045260246000fd5b60200101906001600160f81b031916908160001a90535060049490941c9361313981613bb1565b90506130af565b508315611f8a5760405162461bcd60e51b815260206004820181905260248201527f537472696e67733a20686578206c656e67746820696e73756666696369656e7460448201526064016107c4565b6131998282611f91565b6112555760008281526065602090815260408083206001600160a01b03851684529091529020805460ff191660011790556131d13390565b6001600160a01b0316816001600160a01b0316837f2f8788117e7eff1d82e926ec794901d17c78024a50270940304540a733656f0d60405160405180910390a45050565b6000611f8a836001600160a01b0384166132de565b6132348282611f91565b156112555760008281526065602090815260408083206001600160a01b0385168085529252808320805460ff1916905551339285917ff6391f5c32d9c69d2a47ea670b442974b53935d1edc7fd64eb21e047a839171b9190a45050565b6000611f8a836001600160a01b03841661332d565b60008260000182815481106132cb57634e487b7160e01b600052603260045260246000fd5b9060005260206000200154905092915050565b600081815260018301602052604081205461332557508154600181810184556000848152602080822090930184905584548482528286019093526040902091909155610b66565b506000610b66565b60008181526001830160205260408120548015613440576000613351600183613b6e565b855490915060009061336590600190613b6e565b90508181146133e657600086600001828154811061339357634e487b7160e01b600052603260045260246000fd5b90600052602060002001549050808760000184815481106133c457634e487b7160e01b600052603260045260246000fd5b6000918252602080832090910192909255918252600188019052604090208390555b855486908061340557634e487b7160e01b600052603160045260246000fd5b600190038181906000526020600020016000905590558560010160008681526020019081526020016000206000905560019350505050610b66565b6000915050610b66565b82805461345690613bc8565b90600052602060002090601f01602090048101928261347857600085556134be565b82601f1061349157805160ff19168380011785556134be565b828001600101855582156134be579182015b828111156134be5782518255916020019190600101906134a3565b506134ca9291506134ce565b5090565b5b808211156134ca57600081556001016134cf565b80356001600160a01b038116811461072657600080fd5b600082601f83011261350a578081fd5b813567ffffffffffffffff8082111561352557613525613c34565b604051601f8301601f19908116603f0116810190828211818310171561354d5761354d613c34565b81604052838152866020858801011115613565578485fd5b8360208701602083013792830160200193909352509392505050565b600060208284031215613592578081fd5b611f8a826134e3565b600080604083850312156135ad578081fd5b6135b6836134e3565b91506135c4602084016134e3565b90509250929050565b6000806000606084860312156135e1578081fd5b6135ea846134e3565b92506135f8602085016134e3565b9150604084013590509250925092565b60008060006040848603121561361c578283fd5b613625846134e3565b9250602084013567ffffffffffffffff80821115613641578384fd5b818601915086601f830112613654578384fd5b813581811115613662578485fd5b876020828501011115613673578485fd5b6020830194508093505050509250925092565b60008060408385031215613698578182fd5b6136a1836134e3565b946020939093013593505050565b6000602082840312156136c0578081fd5b5035919050565b600080604083850312156136d9578182fd5b823591506135c4602084016134e3565b600080604083850312156136fb578182fd5b50508035926020909101359150565b60006020828403121561371b578081fd5b81356001600160e01b031981168114611f8a578182fd5b600080600080600060a08688031215613749578081fd5b853567ffffffffffffffff81111561375f578182fd5b61376b888289016134fa565b9550506020860135935060408601356001600160f01b03198116811461378f578182fd5b9250606086013560ff811681146137a4578182fd5b949793965091946080013592915050565b6000806000606084860312156137c9578283fd5b833567ffffffffffffffff808211156137e0578485fd5b6137ec878388016134fa565b94506020860135915080821115613801578384fd5b5061380e868287016134fa565b92505061381d604085016134e3565b90509250925092565b6000815180845261383e816020860160208601613b85565b601f01601f19169290920160200192915050565b60007f416363657373436f6e74726f6c3a206163636f756e74200000000000000000008252835161388a816017850160208801613b85565b7001034b99036b4b9b9b4b733903937b6329607d1b60179184019182015283516138bb816028840160208801613b85565b01602801949350505050565b600060208252611f8a6020830184613826565b60006101208083526138ee8184018b613826565b91505060018060a01b03881660208301528651604083015261ffff60f01b602088015116606083015260ff60408801511660808301526003861061394257634e487b7160e01b600052602160045260246000fd5b8560a08301528460c08301528360e08301528261010083015298975050505050505050565b6020808252601a908201527f4d4f453a20616d6f756e742063616e6e6f74206265207a65726f000000000000604082015260600190565b6020808252602e908201527f4d4f453a20726571756573742063616e206265206d616465206166746572206160408201526d3a103632b0b9ba1018903437bab960911b606082015260800190565b6020808252601690820152754d4f453a206e6f206461746120617661696c61626c6560501b604082015260600190565b60208082526022908201527f4d4f453a20726f756e64206973206e6f7420696e206e6f726d616c2073746174604082015261757360f01b606082015260800190565b6020808252601c908201527f4d4f453a20726f756e64206973206e6f7420696e206469737075746500000000604082015260600190565b6020808252601f908201527f4d4f453a20646973707574652077696e646f77206973206e6f74206f76657200604082015260600190565b6020808252602b908201527f496e697469616c697a61626c653a20636f6e7472616374206973206e6f74206960408201526a6e697469616c697a696e6760a81b606082015260800190565b60008219821115613b2a57613b2a613c1e565b500190565b600082613b4a57634e487b7160e01b81526012600452602481fd5b500490565b6000816000190483118215151615613b6957613b69613c1e565b500290565b600082821015613b8057613b80613c1e565b500390565b60005b83811015613ba0578181015183820152602001613b88565b83811115610b4f5750506000910152565b600081613bc057613bc0613c1e565b506000190190565b600281046001821680613bdc57607f821691505b60208210811415613bfd57634e487b7160e01b600052602260045260246000fd5b50919050565b6000600019821415613c1757613c17613c1e565b5060010190565b634e487b7160e01b600052601160045260246000fd5b634e487b7160e01b600052604160045260246000fdfea2646970667358221220996db7c7529b38bd771e11b795bd94639f0c48999d3e5218962f06ec391253d364736f6c63430008020033",
  "immutableReferences": {},
  "source": "// SPDX-License-Identifier: MIT\npragma solidity ^0.8.2;\n\nimport \"./Library.sol\";\nimport \"./IMOEToken.sol\";\nimport \"@openzeppelin/contracts-upgradeable/token/ERC20/ERC20Upgradeable.sol\";\nimport \"@openzeppelin/contracts-upgradeable/access/AccessControlEnumerableUpgradeable.sol\";\nimport \"@openzeppelin/contracts-upgradeable/utils/ContextUpgradeable.sol\";\n\n// *** IMPORTANT ***\n//\n// BEFORE DEPLOY\n// --------------\n// erase _mint() line on initialize()\n// change duration require() function on voteForAttack()\n// change duration require() function on voteForDeffense()\n// change duration require() function on unstake()\n// change duration require() function on clearRound()\n// change duration require() function on resolveAttack()\n// change duration require() function on resolveDefense()\n\ncontract MOEToken is ContextUpgradeable, AccessControlEnumerableUpgradeable, IMOEToken, ERC20Upgradeable {\n\n    bytes32 public constant DEPOSITOR_ROLE = keccak256(\"DEPOSITOR_ROLE\"); // Polygon mapping\n\n    mapping(uint256 => Lib.Onnanoco) public onnanocos;\n    mapping(uint256 => Lib.Round) public rounds;\n\n    uint256 public totalRounds;\n    uint256 public totalOnnanocos;\n\n    mapping(uint256 => Lib.Vote[]) public defenseVotes;\n    mapping(uint256 => Lib.Vote[]) public attackVotes;\n    mapping(address => Lib.Stake[]) public stakes;\n\n    // Add onnanoco data\n    function add(string memory name, bytes32 hash, bytes2 hashFunction, uint8 hashSize, uint256 amount) public {\n        \n        require(amount > 0, 'MOE: amount cannot be zero');\n\n        _burn(_msgSender(), amount);\n\n        onnanocos[totalOnnanocos] = Lib.Onnanoco(name, _msgSender(), Lib.Multihash(hash, hashFunction, hashSize), Lib.Status.NORMAL, block.timestamp, 0, totalRounds);\n\n        rounds[totalRounds] = Lib.Round(totalOnnanocos, amount, 0, 0, 1);\n\n        Lib.Vote memory vote = Lib.Vote(totalOnnanocos, _msgSender(), amount, block.timestamp);\n        defenseVotes[totalRounds].push(vote);\n\n        totalOnnanocos++;\n        totalRounds++;\n    }\n\n    function getMinimumAttackAmount(uint256 id) public view returns (uint256 amount) {\n\n        require(id < totalOnnanocos, 'MOE: no data available');\n        require(onnanocos[id].status != Lib.Status.DEPRECATED, 'MOE: deprecated data');\n\n        uint256 roundId = onnanocos[id].roundId;\n        Lib.Round memory roundInfo = rounds[roundId];\n\n        if (((roundInfo.totalDefenseAmount + roundInfo.totalAttackAmount) * 2) > (roundInfo.totalAttackAmount * 3)) {\n            return ((roundInfo.totalDefenseAmount + roundInfo.totalAttackAmount) * 2) - (roundInfo.totalAttackAmount * 3);\n        } else {\n            return 0;\n        }\n    }\n\n    function attack(uint256 id, uint256 amount) public {\n\n        require(amount > 0, 'MOE: amount cannot be zero');\n        \n        uint256 minimumAmount = getMinimumAttackAmount(id);\n        require(amount >= minimumAmount, 'MOE: less than minimum amount');\n\n        uint256 roundId = onnanocos[id].roundId;\n\n        // 1st attack\n        if (onnanocos[id].status == Lib.Status.NORMAL) {\n\n            onnanocos[id].status = Lib.Status.IN_DISPUTE;\n            rounds[roundId].timestamp = block.timestamp;\n\n        } else {\n            \n            Lib.Round memory roundInfo = rounds[roundId];\n            require(roundInfo.timestamp > 0, 'MOE: no data available');\n\n            uint256 duration = block.timestamp - roundInfo.timestamp;\n            //require(duration < 60 * 60 * 24 * 7, 'MOE: round is not in dispute'); // deploy\n            require(duration < 60 * 60, 'MOE: round is not in dispute'); // dev\n        }\n\n        _burn(_msgSender(), amount);\n        attackVotes[roundId].push(Lib.Vote(id, _msgSender(), amount, block.timestamp));\n\n        rounds[roundId].totalAttackAmount += amount;\n        rounds[roundId].totalVotes++;\n    }\n\n    function getMinimumDefenseAmount(uint256 id) public view returns (uint256 amount) {\n\n        require (id < totalOnnanocos, 'MOE: no data available');\n        require (onnanocos[id].status == Lib.Status.IN_DISPUTE, 'MOE: round is not in dispute');\n\n        uint256 roundId = onnanocos[id].roundId;\n        Lib.Round memory roundInfo = rounds[roundId];\n        require(roundInfo.timestamp > 0, 'MOE: no data available');\n\n        if (((roundInfo.totalDefenseAmount + roundInfo.totalAttackAmount) * 2) > (roundInfo.totalDefenseAmount * 3)) {\n            return ((roundInfo.totalDefenseAmount + roundInfo.totalAttackAmount) * 2) - (roundInfo.totalDefenseAmount * 3);\n        } else {\n            return 0;\n        }\n    }\n\n    function defense(uint256 id, uint256 amount) public {\n\n        require(amount > 0, 'MOE: amount cannot be zero');\n\n        uint256 roundId = onnanocos[id].roundId;\n        Lib.Round memory roundInfo = rounds[roundId];\n\n        uint256 minimumAmount = getMinimumDefenseAmount(id);\n        require(amount >= minimumAmount, 'MOE: less than minimum amount');\n\n        uint256 duration = block.timestamp - roundInfo.timestamp;\n        //require(duration < 60 * 60 * 24 * 7, 'MOE: round is not in dispute'); // deploy\n        require(duration < 60 * 60 * 1, 'MOE: round is not in dispute'); // dev\n\n        _burn(_msgSender(), amount);\n        defenseVotes[roundId].push(Lib.Vote(id, _msgSender(), amount, block.timestamp));\n\n        rounds[roundId].totalDefenseAmount += amount;\n        rounds[roundId].totalVotes++;\n    }\n\n    function clearRound(uint256 roundId) public {\n\n        Lib.Round memory roundInfo = rounds[roundId];\n        require(roundInfo.timestamp > 0, 'MOE: no data available');\n\n        Lib.Onnanoco storage onnanoco = onnanocos[roundInfo.onnanocoId];\n        require(onnanoco.roundId == roundId, 'MOE: no data available');\n        require(onnanoco.status == Lib.Status.IN_DISPUTE, 'MOE: round is not in dispute');\n\n        uint256 duration = block.timestamp - roundInfo.timestamp;\n\n        //require(duration > 60 * 60 * 24 * 7, 'MOE: dispute window is not over'); // deploy\n        require(duration > 60 * 60 * 1, 'MOE: dispute window is not over'); // dev\n\n        if (roundInfo.totalAttackAmount > roundInfo.totalDefenseAmount) { // Attackers win\n            _mint(_msgSender(), roundInfo.totalAttackAmount / 100 * 1);\n            onnanoco.status = Lib.Status.DEPRECATED;\n\n        } else if(roundInfo.totalAttackAmount < roundInfo.totalDefenseAmount) { // Attackers lose\n            _mint(_msgSender(), roundInfo.totalDefenseAmount / 100 * 1);\n            onnanoco.status = Lib.Status.NORMAL;\n\n            // 1st defender\n            Lib.Vote memory vote = defenseVotes[roundId][0];\n\n            // new round\n            rounds[totalRounds] = Lib.Round(roundInfo.onnanocoId, vote.amount, 0, 0, 1);\n            onnanoco.roundId = totalRounds;\n\n            Lib.Vote memory newVote = Lib.Vote(roundInfo.onnanocoId, vote.voter, vote.amount, block.timestamp);\n            defenseVotes[totalRounds].push(newVote);\n\n            // increase roundId\n            totalRounds++;\n        }\n        \n    }\n\n    function receiveAttackReward(uint256 roundId, uint256 voteId) public {\n\n        Lib.Vote memory voteInfo = attackVotes[roundId][voteId];\n        require(voteInfo.timestamp > 0, 'MOE: no data available');\n        require(_msgSender() == voteInfo.voter, 'MOE: access denied');\n\n        Lib.Round memory roundInfo = rounds[roundId];\n        require(roundInfo.timestamp > 0, 'MOE: no data available');\n        \n        uint256 duration = block.timestamp - roundInfo.timestamp;\n\n        //require(duration > 60 * 60 * 24 * 7, 'MOE: dispute window is not over'); // deploy\n        require(duration > 60 * 60 * 1, 'MOE: dispute window is not over'); // dev\n\n        uint256 totalAmount = roundInfo.totalAttackAmount + roundInfo.totalDefenseAmount;\n\n        if (roundInfo.totalAttackAmount > roundInfo.totalDefenseAmount) {\n            _mint(_msgSender(), totalAmount * voteInfo.amount / roundInfo.totalAttackAmount);\n        }\n\n        attackVotes[roundId][voteId].voter = address(0);\n    }\n\n    function receiveDefenseReward(uint256 roundId, uint256 voteId) public {\n\n        Lib.Vote memory voteInfo = defenseVotes[roundId][voteId];\n        require(voteInfo.timestamp > 0, 'MOE: no data available');\n        require(_msgSender() == voteInfo.voter, 'MOE\" access denied');\n\n        Lib.Round memory roundInfo = rounds[roundId];\n        require(roundInfo.timestamp > 0, 'MOE: no data available');\n        \n        uint256 duration = block.timestamp - roundInfo.timestamp;\n\n        //require(duration > 60 * 60 * 24 * 7, 'MOE: dispute window is not over'); // deploy\n        require(duration > 60 * 60 * 1, 'MOE: dispute window is not over'); // dev\n\n        uint256 totalAmount = roundInfo.totalAttackAmount + roundInfo.totalDefenseAmount;\n\n        if (roundInfo.totalAttackAmount < roundInfo.totalDefenseAmount) {\n\n            if (voteId > 0) {\n                _mint(_msgSender(), totalAmount * voteInfo.amount / roundInfo.totalDefenseAmount);\n            } else { // 1st defender\n                _mint(_msgSender(), (totalAmount * voteInfo.amount / roundInfo.totalDefenseAmount) - voteInfo.amount);\n            }\n        }\n\n        defenseVotes[roundId][voteId].voter = address(0);\n    }\n    \n    function stake(uint256 id, uint256 amount) public {\n    \n        require(amount > 0, 'MOE: amount cannot be zero');\n        require(id < totalOnnanocos, 'MOE: no data available');\n        require(onnanocos[id].status == Lib.Status.NORMAL, 'MOE: round is not in normal status');\n\n        _burn(_msgSender(), amount);\n\n        stakes[_msgSender()].push(Lib.Stake(id, amount, block.timestamp));\n        onnanocos[id].totalStakingAmount += amount;\n    }\n    \n    function unstake(uint256 stakeId) public {\n\n        Lib.Stake memory stakeInfo = stakes[_msgSender()][stakeId];\n        \n        require(stakeInfo.timestamp > 0, 'MOE: no data available');\n        require(onnanocos[stakeInfo.id].status != Lib.Status.IN_DISPUTE, 'MOE: round is in dispute status');\n        \n        (uint256 reward, uint256 duration) = getStakeRewardAmount(_msgSender(), stakeId);\n\n        //require(duration > 60 * 60 * 24 * 100, 'MOE: request can be made after at least 100 days'); // Deploy\n        require(duration > 60 * 60 * 1, 'MOE: request can be made after at least 1 hour'); // Test\n\n        _mint(_msgSender(), stakeInfo.amount + reward);\n        onnanocos[stakeInfo.id].totalStakingAmount -= stakeInfo.amount;\n        delete stakes[_msgSender()][stakeId];\n    }\n\n    function getStakeRewardAmount(address staker, uint256 stakeId) public view returns(uint256 amount, uint256 duration) {\n\n        Lib.Stake memory stakeInfo = stakes[staker][stakeId];\n\n        require(stakeInfo.timestamp > 0, 'MOE: no data available');\n\n        duration = block.timestamp - stakeInfo.timestamp;\n        amount = stakeInfo.amount * duration / (60 * 60 * 24 * 100);\n\n        if (onnanocos[stakeInfo.id].status != Lib.Status.NORMAL) {\n            return (0, 0);\n        }\n\n        return (amount, duration);\n    }\n\n    function receiveStakeReward(uint256 stakeId) public {\n\n        (uint256 reward, uint256 duration) = getStakeRewardAmount(_msgSender(), stakeId);\n\n        require(reward > 0, 'MOE: reward must greater than 0');\n        //require(duration > 60 * 60 * 24 * 100, 'MOE: request can be made after at least 100 days'); // Deploy\n        require(duration > 60 * 60 * 1, 'MOE: request can be made after at least 1 hour'); // Test\n\n        stakes[_msgSender()][stakeId].timestamp = block.timestamp;\n        _mint(_msgSender(), reward);\n    }\n\n    function getOwnerRewardAmount(uint256 id) public view returns(uint256 amount, uint256 duration){\n\n        Lib.Onnanoco memory onnanocoInfo = onnanocos[id];\n        \n        require(onnanocoInfo.timestamp > 0, 'MOE: no data available');\n        require(onnanocoInfo.status == Lib.Status.NORMAL, 'MOE: round is not in normal status');\n\n        Lib.Vote memory voteInfo = defenseVotes[onnanocoInfo.roundId][0];\n\n        require(voteInfo.timestamp > 0, 'MOE: no data available');\n\n        duration = block.timestamp - voteInfo.timestamp;\n        amount = voteInfo.amount * duration / (60 * 60 * 24 * 50);\n\n        return (amount, duration);\n    }\n\n    function receiveOwnerReward(uint256 id) public {\n        \n        require(defenseVotes[onnanocos[id].roundId][0].voter == _msgSender(), 'MOE: access denied');\n\n        (uint256 reward, uint256 duration) = getOwnerRewardAmount(id);\n        //require(duration > 60 * 60 * 24 * 50, 'MOE: request can be made after at least 50 days'); // Deploy\n        require(duration > 60 * 60 * 1, 'MOE: request can be made after at least 1 hour'); // Test\n\n        require(reward > 0, 'MOE: reward must greater than 0');\n\n        _mint(_msgSender(), reward);\n        defenseVotes[onnanocos[id].roundId][0].timestamp = block.timestamp;\n    }\n\n    function deposit(address user, bytes calldata depositData) external override {\n\n        require(hasRole(DEPOSITOR_ROLE, _msgSender()), \"You're not allowed to deposit\");\n        \n        uint256 amount = abi.decode(depositData, (uint256));\n        _mint(user, amount);\n    }\n\n    function withdraw(uint256 amount) external {\n\n        _burn(_msgSender(), amount);\n    }\n\n    // Initializer\n    function initialize(string memory name, string memory symbol, address childchangeProxy) public virtual initializer {\n        \n        __ERC20_init(name, symbol);\n        _setupRole(DEPOSITOR_ROLE, childchangeProxy);\n\n        _mint(_msgSender(), 10 ** 18 * 100); // dev faucet\n    }\n}",
  "sourcePath": "/Users/misskiwi/github/smartcontract-child/contracts/MOEToken.sol",
  "compiler": {
    "name": "solc",
    "version": "0.8.2+commit.661d1103.Emscripten.clang"
  },
  "schemaVersion": "3.4.4",
  "updatedAt": "2022-02-01T19:06:05.762Z",
  "networkType": "ethereum",
  "devdoc": {
    "kind": "dev",
    "methods": {
      "allowance(address,address)": {
        "details": "See {IERC20-allowance}."
      },
      "approve(address,uint256)": {
        "details": "See {IERC20-approve}. Requirements: - `spender` cannot be the zero address."
      },
      "balanceOf(address)": {
        "details": "See {IERC20-balanceOf}."
      },
      "decimals()": {
        "details": "Returns the number of decimals used to get its user representation. For example, if `decimals` equals `2`, a balance of `505` tokens should be displayed to a user as `5.05` (`505 / 10 ** 2`). Tokens usually opt for a value of 18, imitating the relationship between Ether and Wei. This is the value {ERC20} uses, unless this function is overridden; NOTE: This information is only used for _display_ purposes: it in no way affects any of the arithmetic of the contract, including {IERC20-balanceOf} and {IERC20-transfer}."
      },
      "decreaseAllowance(address,uint256)": {
        "details": "Atomically decreases the allowance granted to `spender` by the caller. This is an alternative to {approve} that can be used as a mitigation for problems described in {IERC20-approve}. Emits an {Approval} event indicating the updated allowance. Requirements: - `spender` cannot be the zero address. - `spender` must have allowance for the caller of at least `subtractedValue`."
      },
      "getRoleAdmin(bytes32)": {
        "details": "Returns the admin role that controls `role`. See {grantRole} and {revokeRole}. To change a role's admin, use {_setRoleAdmin}."
      },
      "getRoleMember(bytes32,uint256)": {
        "details": "Returns one of the accounts that have `role`. `index` must be a value between 0 and {getRoleMemberCount}, non-inclusive. Role bearers are not sorted in any particular way, and their ordering may change at any point. WARNING: When using {getRoleMember} and {getRoleMemberCount}, make sure you perform all queries on the same block. See the following https://forum.openzeppelin.com/t/iterating-over-elements-on-enumerableset-in-openzeppelin-contracts/2296[forum post] for more information."
      },
      "getRoleMemberCount(bytes32)": {
        "details": "Returns the number of accounts that have `role`. Can be used together with {getRoleMember} to enumerate all bearers of a role."
      },
      "grantRole(bytes32,address)": {
        "details": "Grants `role` to `account`. If `account` had not been already granted `role`, emits a {RoleGranted} event. Requirements: - the caller must have ``role``'s admin role."
      },
      "hasRole(bytes32,address)": {
        "details": "Returns `true` if `account` has been granted `role`."
      },
      "increaseAllowance(address,uint256)": {
        "details": "Atomically increases the allowance granted to `spender` by the caller. This is an alternative to {approve} that can be used as a mitigation for problems described in {IERC20-approve}. Emits an {Approval} event indicating the updated allowance. Requirements: - `spender` cannot be the zero address."
      },
      "name()": {
        "details": "Returns the name of the token."
      },
      "renounceRole(bytes32,address)": {
        "details": "Revokes `role` from the calling account. Roles are often managed via {grantRole} and {revokeRole}: this function's purpose is to provide a mechanism for accounts to lose their privileges if they are compromised (such as when a trusted device is misplaced). If the calling account had been revoked `role`, emits a {RoleRevoked} event. Requirements: - the caller must be `account`."
      },
      "revokeRole(bytes32,address)": {
        "details": "Revokes `role` from `account`. If `account` had been granted `role`, emits a {RoleRevoked} event. Requirements: - the caller must have ``role``'s admin role."
      },
      "supportsInterface(bytes4)": {
        "details": "See {IERC165-supportsInterface}."
      },
      "symbol()": {
        "details": "Returns the symbol of the token, usually a shorter version of the name."
      },
      "totalSupply()": {
        "details": "See {IERC20-totalSupply}."
      },
      "transfer(address,uint256)": {
        "details": "See {IERC20-transfer}. Requirements: - `recipient` cannot be the zero address. - the caller must have a balance of at least `amount`."
      },
      "transferFrom(address,address,uint256)": {
        "details": "See {IERC20-transferFrom}. Emits an {Approval} event indicating the updated allowance. This is not required by the EIP. See the note at the beginning of {ERC20}. Requirements: - `sender` and `recipient` cannot be the zero address. - `sender` must have a balance of at least `amount`. - the caller must have allowance for ``sender``'s tokens of at least `amount`."
      }
    },
    "version": 1
  },
  "userdoc": {
    "kind": "user",
    "methods": {},
    "version": 1
  }
}