{
  "contractName": "MOEToken",
  "abi": [
    {
      "anonymous": false,
      "inputs": [
        {
          "indexed": true,
          "internalType": "address",
          "name": "owner",
          "type": "address"
        },
        {
          "indexed": true,
          "internalType": "address",
          "name": "spender",
          "type": "address"
        },
        {
          "indexed": false,
          "internalType": "uint256",
          "name": "value",
          "type": "uint256"
        }
      ],
      "name": "Approval",
      "type": "event"
    },
    {
      "anonymous": false,
      "inputs": [
        {
          "indexed": false,
          "internalType": "address",
          "name": "userAddress",
          "type": "address"
        },
        {
          "indexed": false,
          "internalType": "address payable",
          "name": "relayerAddress",
          "type": "address"
        },
        {
          "indexed": false,
          "internalType": "bytes",
          "name": "functionSignature",
          "type": "bytes"
        }
      ],
      "name": "MetaTransactionExecuted",
      "type": "event"
    },
    {
      "anonymous": false,
      "inputs": [
        {
          "indexed": true,
          "internalType": "bytes32",
          "name": "role",
          "type": "bytes32"
        },
        {
          "indexed": true,
          "internalType": "bytes32",
          "name": "previousAdminRole",
          "type": "bytes32"
        },
        {
          "indexed": true,
          "internalType": "bytes32",
          "name": "newAdminRole",
          "type": "bytes32"
        }
      ],
      "name": "RoleAdminChanged",
      "type": "event"
    },
    {
      "anonymous": false,
      "inputs": [
        {
          "indexed": true,
          "internalType": "bytes32",
          "name": "role",
          "type": "bytes32"
        },
        {
          "indexed": true,
          "internalType": "address",
          "name": "account",
          "type": "address"
        },
        {
          "indexed": true,
          "internalType": "address",
          "name": "sender",
          "type": "address"
        }
      ],
      "name": "RoleGranted",
      "type": "event"
    },
    {
      "anonymous": false,
      "inputs": [
        {
          "indexed": true,
          "internalType": "bytes32",
          "name": "role",
          "type": "bytes32"
        },
        {
          "indexed": true,
          "internalType": "address",
          "name": "account",
          "type": "address"
        },
        {
          "indexed": true,
          "internalType": "address",
          "name": "sender",
          "type": "address"
        }
      ],
      "name": "RoleRevoked",
      "type": "event"
    },
    {
      "anonymous": false,
      "inputs": [
        {
          "indexed": true,
          "internalType": "address",
          "name": "from",
          "type": "address"
        },
        {
          "indexed": true,
          "internalType": "address",
          "name": "to",
          "type": "address"
        },
        {
          "indexed": false,
          "internalType": "uint256",
          "name": "value",
          "type": "uint256"
        }
      ],
      "name": "Transfer",
      "type": "event"
    },
    {
      "inputs": [],
      "name": "DEFAULT_ADMIN_ROLE",
      "outputs": [
        {
          "internalType": "bytes32",
          "name": "",
          "type": "bytes32"
        }
      ],
      "stateMutability": "view",
      "type": "function"
    },
    {
      "inputs": [],
      "name": "DEPOSITOR_ROLE",
      "outputs": [
        {
          "internalType": "bytes32",
          "name": "",
          "type": "bytes32"
        }
      ],
      "stateMutability": "view",
      "type": "function"
    },
    {
      "inputs": [],
      "name": "ERC712_VERSION",
      "outputs": [
        {
          "internalType": "string",
          "name": "",
          "type": "string"
        }
      ],
      "stateMutability": "view",
      "type": "function"
    },
    {
      "inputs": [
        {
          "internalType": "address",
          "name": "owner",
          "type": "address"
        },
        {
          "internalType": "address",
          "name": "spender",
          "type": "address"
        }
      ],
      "name": "allowance",
      "outputs": [
        {
          "internalType": "uint256",
          "name": "",
          "type": "uint256"
        }
      ],
      "stateMutability": "view",
      "type": "function"
    },
    {
      "inputs": [
        {
          "internalType": "address",
          "name": "spender",
          "type": "address"
        },
        {
          "internalType": "uint256",
          "name": "amount",
          "type": "uint256"
        }
      ],
      "name": "approve",
      "outputs": [
        {
          "internalType": "bool",
          "name": "",
          "type": "bool"
        }
      ],
      "stateMutability": "nonpayable",
      "type": "function"
    },
    {
      "inputs": [
        {
          "internalType": "uint256",
          "name": "",
          "type": "uint256"
        },
        {
          "internalType": "uint256",
          "name": "",
          "type": "uint256"
        }
      ],
      "name": "attackVotes",
      "outputs": [
        {
          "internalType": "uint256",
          "name": "id",
          "type": "uint256"
        },
        {
          "internalType": "address",
          "name": "voter",
          "type": "address"
        },
        {
          "internalType": "uint256",
          "name": "amount",
          "type": "uint256"
        },
        {
          "internalType": "uint256",
          "name": "timestamp",
          "type": "uint256"
        }
      ],
      "stateMutability": "view",
      "type": "function"
    },
    {
      "inputs": [
        {
          "internalType": "address",
          "name": "account",
          "type": "address"
        }
      ],
      "name": "balanceOf",
      "outputs": [
        {
          "internalType": "uint256",
          "name": "",
          "type": "uint256"
        }
      ],
      "stateMutability": "view",
      "type": "function"
    },
    {
      "inputs": [
        {
          "internalType": "string",
          "name": "name_",
          "type": "string"
        }
      ],
      "name": "changeName",
      "outputs": [],
      "stateMutability": "nonpayable",
      "type": "function"
    },
    {
      "inputs": [],
      "name": "decimals",
      "outputs": [
        {
          "internalType": "uint8",
          "name": "",
          "type": "uint8"
        }
      ],
      "stateMutability": "view",
      "type": "function"
    },
    {
      "inputs": [
        {
          "internalType": "address",
          "name": "spender",
          "type": "address"
        },
        {
          "internalType": "uint256",
          "name": "subtractedValue",
          "type": "uint256"
        }
      ],
      "name": "decreaseAllowance",
      "outputs": [
        {
          "internalType": "bool",
          "name": "",
          "type": "bool"
        }
      ],
      "stateMutability": "nonpayable",
      "type": "function"
    },
    {
      "inputs": [
        {
          "internalType": "uint256",
          "name": "",
          "type": "uint256"
        },
        {
          "internalType": "uint256",
          "name": "",
          "type": "uint256"
        }
      ],
      "name": "defenseVotes",
      "outputs": [
        {
          "internalType": "uint256",
          "name": "id",
          "type": "uint256"
        },
        {
          "internalType": "address",
          "name": "voter",
          "type": "address"
        },
        {
          "internalType": "uint256",
          "name": "amount",
          "type": "uint256"
        },
        {
          "internalType": "uint256",
          "name": "timestamp",
          "type": "uint256"
        }
      ],
      "stateMutability": "view",
      "type": "function"
    },
    {
      "inputs": [
        {
          "internalType": "address",
          "name": "user",
          "type": "address"
        },
        {
          "internalType": "bytes",
          "name": "depositData",
          "type": "bytes"
        }
      ],
      "name": "deposit",
      "outputs": [],
      "stateMutability": "nonpayable",
      "type": "function"
    },
    {
      "inputs": [
        {
          "internalType": "address",
          "name": "userAddress",
          "type": "address"
        },
        {
          "internalType": "bytes",
          "name": "functionSignature",
          "type": "bytes"
        },
        {
          "internalType": "bytes32",
          "name": "sigR",
          "type": "bytes32"
        },
        {
          "internalType": "bytes32",
          "name": "sigS",
          "type": "bytes32"
        },
        {
          "internalType": "uint8",
          "name": "sigV",
          "type": "uint8"
        }
      ],
      "name": "executeMetaTransaction",
      "outputs": [
        {
          "internalType": "bytes",
          "name": "",
          "type": "bytes"
        }
      ],
      "stateMutability": "payable",
      "type": "function"
    },
    {
      "inputs": [],
      "name": "getChainId",
      "outputs": [
        {
          "internalType": "uint256",
          "name": "",
          "type": "uint256"
        }
      ],
      "stateMutability": "pure",
      "type": "function"
    },
    {
      "inputs": [],
      "name": "getDomainSeperator",
      "outputs": [
        {
          "internalType": "bytes32",
          "name": "",
          "type": "bytes32"
        }
      ],
      "stateMutability": "view",
      "type": "function"
    },
    {
      "inputs": [
        {
          "internalType": "address",
          "name": "user",
          "type": "address"
        }
      ],
      "name": "getNonce",
      "outputs": [
        {
          "internalType": "uint256",
          "name": "nonce",
          "type": "uint256"
        }
      ],
      "stateMutability": "view",
      "type": "function"
    },
    {
      "inputs": [
        {
          "internalType": "bytes32",
          "name": "role",
          "type": "bytes32"
        }
      ],
      "name": "getRoleAdmin",
      "outputs": [
        {
          "internalType": "bytes32",
          "name": "",
          "type": "bytes32"
        }
      ],
      "stateMutability": "view",
      "type": "function"
    },
    {
      "inputs": [
        {
          "internalType": "bytes32",
          "name": "role",
          "type": "bytes32"
        },
        {
          "internalType": "uint256",
          "name": "index",
          "type": "uint256"
        }
      ],
      "name": "getRoleMember",
      "outputs": [
        {
          "internalType": "address",
          "name": "",
          "type": "address"
        }
      ],
      "stateMutability": "view",
      "type": "function"
    },
    {
      "inputs": [
        {
          "internalType": "bytes32",
          "name": "role",
          "type": "bytes32"
        }
      ],
      "name": "getRoleMemberCount",
      "outputs": [
        {
          "internalType": "uint256",
          "name": "",
          "type": "uint256"
        }
      ],
      "stateMutability": "view",
      "type": "function"
    },
    {
      "inputs": [
        {
          "internalType": "bytes32",
          "name": "role",
          "type": "bytes32"
        },
        {
          "internalType": "address",
          "name": "account",
          "type": "address"
        }
      ],
      "name": "grantRole",
      "outputs": [],
      "stateMutability": "nonpayable",
      "type": "function"
    },
    {
      "inputs": [
        {
          "internalType": "bytes32",
          "name": "role",
          "type": "bytes32"
        },
        {
          "internalType": "address",
          "name": "account",
          "type": "address"
        }
      ],
      "name": "hasRole",
      "outputs": [
        {
          "internalType": "bool",
          "name": "",
          "type": "bool"
        }
      ],
      "stateMutability": "view",
      "type": "function"
    },
    {
      "inputs": [
        {
          "internalType": "address",
          "name": "spender",
          "type": "address"
        },
        {
          "internalType": "uint256",
          "name": "addedValue",
          "type": "uint256"
        }
      ],
      "name": "increaseAllowance",
      "outputs": [
        {
          "internalType": "bool",
          "name": "",
          "type": "bool"
        }
      ],
      "stateMutability": "nonpayable",
      "type": "function"
    },
    {
      "inputs": [
        {
          "internalType": "string",
          "name": "name_",
          "type": "string"
        },
        {
          "internalType": "string",
          "name": "symbol_",
          "type": "string"
        },
        {
          "internalType": "uint8",
          "name": "decimals_",
          "type": "uint8"
        },
        {
          "internalType": "address",
          "name": "childChainManager",
          "type": "address"
        }
      ],
      "name": "initialize",
      "outputs": [],
      "stateMutability": "nonpayable",
      "type": "function"
    },
    {
      "inputs": [],
      "name": "name",
      "outputs": [
        {
          "internalType": "string",
          "name": "",
          "type": "string"
        }
      ],
      "stateMutability": "view",
      "type": "function"
    },
    {
      "inputs": [
        {
          "internalType": "uint256",
          "name": "",
          "type": "uint256"
        }
      ],
      "name": "onnanocos",
      "outputs": [
        {
          "internalType": "string",
          "name": "name",
          "type": "string"
        },
        {
          "internalType": "address",
          "name": "owner",
          "type": "address"
        },
        {
          "components": [
            {
              "internalType": "bytes32",
              "name": "hash",
              "type": "bytes32"
            },
            {
              "internalType": "bytes2",
              "name": "hashFunction",
              "type": "bytes2"
            },
            {
              "internalType": "uint8",
              "name": "size",
              "type": "uint8"
            }
          ],
          "internalType": "struct Lib.Multihash",
          "name": "multihash",
          "type": "tuple"
        },
        {
          "internalType": "enum Lib.Status",
          "name": "status",
          "type": "uint8"
        },
        {
          "internalType": "uint256",
          "name": "timestamp",
          "type": "uint256"
        },
        {
          "internalType": "uint256",
          "name": "totalStakingAmount",
          "type": "uint256"
        },
        {
          "internalType": "uint256",
          "name": "roundId",
          "type": "uint256"
        }
      ],
      "stateMutability": "view",
      "type": "function"
    },
    {
      "inputs": [
        {
          "internalType": "bytes32",
          "name": "role",
          "type": "bytes32"
        },
        {
          "internalType": "address",
          "name": "account",
          "type": "address"
        }
      ],
      "name": "renounceRole",
      "outputs": [],
      "stateMutability": "nonpayable",
      "type": "function"
    },
    {
      "inputs": [
        {
          "internalType": "bytes32",
          "name": "role",
          "type": "bytes32"
        },
        {
          "internalType": "address",
          "name": "account",
          "type": "address"
        }
      ],
      "name": "revokeRole",
      "outputs": [],
      "stateMutability": "nonpayable",
      "type": "function"
    },
    {
      "inputs": [
        {
          "internalType": "uint256",
          "name": "",
          "type": "uint256"
        }
      ],
      "name": "rounds",
      "outputs": [
        {
          "internalType": "uint256",
          "name": "onnanocoId",
          "type": "uint256"
        },
        {
          "internalType": "uint256",
          "name": "totalDefenseAmount",
          "type": "uint256"
        },
        {
          "internalType": "uint256",
          "name": "totalAttackAmount",
          "type": "uint256"
        },
        {
          "internalType": "uint256",
          "name": "timestamp",
          "type": "uint256"
        }
      ],
      "stateMutability": "view",
      "type": "function"
    },
    {
      "inputs": [
        {
          "internalType": "address",
          "name": "",
          "type": "address"
        },
        {
          "internalType": "uint256",
          "name": "",
          "type": "uint256"
        }
      ],
      "name": "stakes",
      "outputs": [
        {
          "internalType": "uint256",
          "name": "id",
          "type": "uint256"
        },
        {
          "internalType": "uint256",
          "name": "amount",
          "type": "uint256"
        },
        {
          "internalType": "uint256",
          "name": "timestamp",
          "type": "uint256"
        }
      ],
      "stateMutability": "view",
      "type": "function"
    },
    {
      "inputs": [],
      "name": "symbol",
      "outputs": [
        {
          "internalType": "string",
          "name": "",
          "type": "string"
        }
      ],
      "stateMutability": "view",
      "type": "function"
    },
    {
      "inputs": [],
      "name": "totalOnnanocos",
      "outputs": [
        {
          "internalType": "uint256",
          "name": "",
          "type": "uint256"
        }
      ],
      "stateMutability": "view",
      "type": "function"
    },
    {
      "inputs": [],
      "name": "totalRounds",
      "outputs": [
        {
          "internalType": "uint256",
          "name": "",
          "type": "uint256"
        }
      ],
      "stateMutability": "view",
      "type": "function"
    },
    {
      "inputs": [],
      "name": "totalSupply",
      "outputs": [
        {
          "internalType": "uint256",
          "name": "",
          "type": "uint256"
        }
      ],
      "stateMutability": "view",
      "type": "function"
    },
    {
      "inputs": [
        {
          "internalType": "address",
          "name": "recipient",
          "type": "address"
        },
        {
          "internalType": "uint256",
          "name": "amount",
          "type": "uint256"
        }
      ],
      "name": "transfer",
      "outputs": [
        {
          "internalType": "bool",
          "name": "",
          "type": "bool"
        }
      ],
      "stateMutability": "nonpayable",
      "type": "function"
    },
    {
      "inputs": [
        {
          "internalType": "address",
          "name": "sender",
          "type": "address"
        },
        {
          "internalType": "address",
          "name": "recipient",
          "type": "address"
        },
        {
          "internalType": "uint256",
          "name": "amount",
          "type": "uint256"
        }
      ],
      "name": "transferFrom",
      "outputs": [
        {
          "internalType": "bool",
          "name": "",
          "type": "bool"
        }
      ],
      "stateMutability": "nonpayable",
      "type": "function"
    },
    {
      "inputs": [
        {
          "internalType": "uint256",
          "name": "amount",
          "type": "uint256"
        }
      ],
      "name": "withdraw",
      "outputs": [],
      "stateMutability": "nonpayable",
      "type": "function"
    },
    {
      "inputs": [
        {
          "internalType": "string",
          "name": "name",
          "type": "string"
        },
        {
          "internalType": "bytes32",
          "name": "hash",
          "type": "bytes32"
        },
        {
          "internalType": "bytes2",
          "name": "hashFunction",
          "type": "bytes2"
        },
        {
          "internalType": "uint8",
          "name": "hashSize",
          "type": "uint8"
        },
        {
          "internalType": "uint256",
          "name": "amount",
          "type": "uint256"
        }
      ],
      "name": "addOnnanoco",
      "outputs": [],
      "stateMutability": "nonpayable",
      "type": "function"
    },
    {
      "inputs": [
        {
          "internalType": "uint256",
          "name": "id",
          "type": "uint256"
        }
      ],
      "name": "getMinimumAttackAmount",
      "outputs": [
        {
          "internalType": "uint256",
          "name": "amount",
          "type": "uint256"
        }
      ],
      "stateMutability": "view",
      "type": "function"
    },
    {
      "inputs": [
        {
          "internalType": "uint256",
          "name": "id",
          "type": "uint256"
        },
        {
          "internalType": "uint256",
          "name": "amount",
          "type": "uint256"
        }
      ],
      "name": "voteForAttack",
      "outputs": [],
      "stateMutability": "nonpayable",
      "type": "function"
    },
    {
      "inputs": [
        {
          "internalType": "uint256",
          "name": "id",
          "type": "uint256"
        }
      ],
      "name": "getMinimumDefenseAmount",
      "outputs": [
        {
          "internalType": "uint256",
          "name": "amount",
          "type": "uint256"
        }
      ],
      "stateMutability": "view",
      "type": "function"
    },
    {
      "inputs": [
        {
          "internalType": "uint256",
          "name": "id",
          "type": "uint256"
        },
        {
          "internalType": "uint256",
          "name": "amount",
          "type": "uint256"
        }
      ],
      "name": "voteForDefense",
      "outputs": [],
      "stateMutability": "nonpayable",
      "type": "function"
    },
    {
      "inputs": [
        {
          "internalType": "uint256",
          "name": "roundId",
          "type": "uint256"
        }
      ],
      "name": "clearRound",
      "outputs": [],
      "stateMutability": "nonpayable",
      "type": "function"
    },
    {
      "inputs": [
        {
          "internalType": "uint256",
          "name": "roundId",
          "type": "uint256"
        },
        {
          "internalType": "uint256",
          "name": "voteId",
          "type": "uint256"
        }
      ],
      "name": "resolveAttack",
      "outputs": [],
      "stateMutability": "nonpayable",
      "type": "function"
    },
    {
      "inputs": [
        {
          "internalType": "uint256",
          "name": "roundId",
          "type": "uint256"
        },
        {
          "internalType": "uint256",
          "name": "voteId",
          "type": "uint256"
        }
      ],
      "name": "resolveDefense",
      "outputs": [],
      "stateMutability": "nonpayable",
      "type": "function"
    },
    {
      "inputs": [
        {
          "internalType": "uint256",
          "name": "id",
          "type": "uint256"
        },
        {
          "internalType": "uint256",
          "name": "amount",
          "type": "uint256"
        }
      ],
      "name": "stake",
      "outputs": [],
      "stateMutability": "nonpayable",
      "type": "function"
    },
    {
      "inputs": [
        {
          "internalType": "uint256",
          "name": "stakeId",
          "type": "uint256"
        }
      ],
      "name": "unstake",
      "outputs": [],
      "stateMutability": "nonpayable",
      "type": "function"
    },
    {
      "inputs": [
        {
          "internalType": "uint256",
          "name": "amount",
          "type": "uint256"
        }
      ],
      "name": "mintToken",
      "outputs": [],
      "stateMutability": "nonpayable",
      "type": "function"
    }
  ],
  "bytecode": "0x6008805460ff191690556000608081815260c060405260a082815290916200002c90600390839062000058565b5080516200004290600490602084019062000058565b50506005805460ff1916601217905550620000fd565b828054600181600116156101000203166002900490600052602060002090601f016020900481019282601f106200009b57805160ff1916838001178555620000cb565b82800160010185558215620000cb579182015b82811115620000cb578251825591602001919060010190620000ae565b50620000d9929150620000dd565b5090565b620000fa91905b80821115620000d95760008155600101620000e4565b90565b6141c0806200010d6000396000f3fe6080604052600436106103085760003560e01c806370a082311161019a578063a3b0b5a3116100e1578063cf2c52cb1161008a578063dd62ed3e11610064578063dd62ed3e14610895578063de7ea79d146108b5578063fd75061f146108d557610308565b8063cf2c52cb14610835578063d50c2c5014610855578063d547741f1461087557610308565b8063b4d03928116100bb578063b4d03928146107d5578063c634d032146107f5578063ca15c8731461081557610308565b8063a3b0b5a314610780578063a457c2d714610795578063a9059cbb146107b557610308565b80638c65c81f11610143578063946e94c41161011d578063946e94c41461072657806395d89b4114610756578063a217fddf1461076b57610308565b80638c65c81f146106a95780639010d07c146106d957806391d148541461070657610308565b806381a15af41161017457806381a15af414610654578063868b029d146106745780638a5682991461069457610308565b806370a08231146105f45780637797d79f146106145780637b0472f01461063457610308565b80632d0335ab1161025e57806335097ce3116102075780635353a2d8116101e15780635353a2d814610585578063584b62a1146105a55780636ad6c035146105d457610308565b806335097ce31461052557806336568abe14610545578063395093511461056557610308565b80632f2ff15d116102385780632f2ff15d146104ce578063313ce567146104ee5780633408e4701461051057610308565b80632d0335ab1461046e5780632e17de781461048e5780632e1a7d4d146104ae57610308565b80630fa214c9116102c05780632042f1c71161029a5780632042f1c7146103fb57806323b872dd1461042e578063248a9ca31461044e57610308565b80630fa214c9146103af57806318160ddd146103d157806320379ee5146103e657610308565b80630c53c51c116102f15780630c53c51c146103655780630c6cc4a3146103785780630f7e59701461039a57610308565b806306fdde031461030d578063095ea7b314610338575b600080fd5b34801561031957600080fd5b506103226108f5565b60405161032f9190613610565b60405180910390f35b34801561034457600080fd5b506103586103533660046131e5565b61098c565b60405161032f919061358e565b610322610373366004613173565b6109aa565b34801561038457600080fd5b5061038d610b44565b60405161032f9190613599565b3480156103a657600080fd5b50610322610b4a565b3480156103bb57600080fd5b506103cf6103ca366004613256565b610b67565b005b3480156103dd57600080fd5b5061038d610da2565b3480156103f257600080fd5b5061038d610da8565b34801561040757600080fd5b5061041b61041636600461320f565b610dae565b60405161032f9796959493929190613623565b34801561043a57600080fd5b506103586104493660046130e0565b610ecf565b34801561045a57600080fd5b5061038d61046936600461320f565b610f5c565b34801561047a57600080fd5b5061038d610489366004613091565b610f71565b34801561049a57600080fd5b506103cf6104a936600461320f565b610f8c565b3480156104ba57600080fd5b506103cf6104c936600461320f565b61111e565b3480156104da57600080fd5b506103cf6104e9366004613227565b611132565b3480156104fa57600080fd5b5061050361117a565b60405161032f9190614008565b34801561051c57600080fd5b5061038d611183565b34801561053157600080fd5b506103cf610540366004613256565b611187565b34801561055157600080fd5b506103cf610560366004613227565b6113cc565b34801561057157600080fd5b506103586105803660046131e5565b61140e565b34801561059157600080fd5b506103cf6105a0366004613277565b611462565b3480156105b157600080fd5b506105c56105c03660046131e5565b611514565b60405161032f93929190613fd7565b3480156105e057600080fd5b5061038d6105ef36600461320f565b611553565b34801561060057600080fd5b5061038d61060f366004613091565b6115cc565b34801561062057600080fd5b506103cf61062f366004613256565b6115e7565b34801561064057600080fd5b506103cf61064f366004613256565b611821565b34801561066057600080fd5b506103cf61066f36600461320f565b611916565b34801561068057600080fd5b506103cf61068f36600461334e565b611bb5565b3480156106a057600080fd5b5061038d611e4b565b3480156106b557600080fd5b506106c96106c436600461320f565b611e51565b60405161032f9493929190613fed565b3480156106e557600080fd5b506106f96106f4366004613256565b611e78565b60405161032f919061354e565b34801561071257600080fd5b50610358610721366004613227565b611e9d565b34801561073257600080fd5b50610746610741366004613256565b611ebb565b60405161032f9493929190613fb3565b34801561076257600080fd5b50610322611f07565b34801561077757600080fd5b5061038d611f68565b34801561078c57600080fd5b5061038d611f6d565b3480156107a157600080fd5b506103586107b03660046131e5565b611f84565b3480156107c157600080fd5b506103586107d03660046131e5565b611ff2565b3480156107e157600080fd5b5061038d6107f036600461320f565b612006565b34801561080157600080fd5b506103cf61081036600461320f565b612077565b34801561082157600080fd5b5061038d61083036600461320f565b612088565b34801561084157600080fd5b506103cf610850366004613120565b61209f565b34801561086157600080fd5b50610746610870366004613256565b6120fa565b34801561088157600080fd5b506103cf610890366004613227565b612113565b3480156108a157600080fd5b5061038d6108b03660046130ac565b61214d565b3480156108c157600080fd5b506103cf6108d03660046132b7565b612178565b3480156108e157600080fd5b506103cf6108f0366004613256565b6122cf565b60038054604080516020601f60026000196101006001881615020190951694909404938401819004810282018101909252828152606093909290918301828280156109815780601f1061095657610100808354040283529160200191610981565b820191906000526020600020905b81548152906001019060200180831161096457829003601f168201915b505050505090505b90565b60006109a0610999612485565b8484612494565b5060015b92915050565b60606109b4612e68565b50604080516060810182526001600160a01b0388166000818152600a6020908152908490205483528201529081018690526109f28782878787612548565b610a175760405162461bcd60e51b8152600401610a0e90613c61565b60405180910390fd5b6001600160a01b0387166000908152600a6020526040902054610a4190600163ffffffff6125ee16565b6001600160a01b0388166000908152600a60205260409081902091909155517f5845892132946850460bff5a0083f71031bc5bf9aadcd40f1de79423eac9b10b90610a9190899033908a90613562565b60405180910390a160006060306001600160a01b0316888a604051602001610aba92919061342b565b60408051601f1981840301815290829052610ad49161340f565b6000604051808303816000865af19150503d8060008114610b11576040519150601f19603f3d011682016040523d82523d6000602084013e610b16565b606091505b509150915081610b385760405162461bcd60e51b8152600401610a0e9061395b565b98975050505050505050565b600e5481565b604051806040016040528060018152602001603160f81b81525081565b60008111610b875760405162461bcd60e51b8152600401610a0e90613ee8565b60016000838152600b602052604090206004015460ff166002811115610ba957fe5b14610bc65760405162461bcd60e51b8152600401610a0e90613890565b6000828152600b6020526040902060070154610be0612e92565b506000818152600c6020908152604080832081516080810183528154815260018201549381018490526002820154928101929092526003908101546060830152909291610c6f91610c37919063ffffffff61261316565b610c636002610c57866040015187602001516125ee90919063ffffffff16565b9063ffffffff61261316565b9063ffffffff61264d16565b90506000610c8a83606001514261264d90919063ffffffff16565b9050610e108111610cad5760405162461bcd60e51b8152600401610a0e90613a00565b81851015610ccd5760405162461bcd60e51b8152600401610a0e90613e7a565b610cde610cd8612485565b86612675565b600f60008581526020019081526020016000206040518060800160405280888152602001610d0a612485565b6001600160a01b03908116825260208083018a9052426040938401528454600180820187556000968752828720865160049093020191825585830151828201805473ffffffffffffffffffffffffffffffffffffffff19169190951617909355848401516002820155606090940151600390940193909355878452600c9092529091200154610d9990866125ee565b50505050505050565b60025490565b60095490565b600b6020908152600091825260409182902080548351601f60026000196101006001861615020190931692909204918201849004840281018401909452808452909291839190830182828015610e455780601f10610e1a57610100808354040283529160200191610e45565b820191906000526020600020905b815481529060010190602001808311610e2857829003601f168201915b5050505060018301546040805160608101825260028601548152600386015460f081901b7fffff00000000000000000000000000000000000000000000000000000000000016602083015262010000900460ff9081169282019290925260048601546005870154600688015460079098015496976001600160a01b03909516969295509216929087565b6000610edc848484612763565b610f5284610ee8612485565b610f4d8560405180606001604052806028815260200161413e602891396001600160a01b038a16600090815260016020526040812090610f26612485565b6001600160a01b03168152602081019190915260400160002054919063ffffffff61288416565b612494565b5060019392505050565b60009081526006602052604090206002015490565b6001600160a01b03166000908152600a602052604090205490565b610f94612eba565b60116000610fa0612485565b6001600160a01b03166001600160a01b031681526020019081526020016000208281548110610fcb57fe5b600091825260209182902060408051606081018252600390930290910180548352600180820154948401949094526002015490820152915081516000908152600b602052604090206004015460ff16600281111561102557fe5b14156110435760405162461bcd60e51b8152600401610a0e9061379f565b60408101514203610e10811161106b5760405162461bcd60e51b8152600401610a0e90613b5f565b6000611098630a4cb80061108c84866020015161261390919063ffffffff16565b9063ffffffff6128b016565b9050600283516000908152600b602052604090206004015460ff1660028111156110be57fe5b14156110c8575060005b6110ed6110d3612485565b60208501516110e8908463ffffffff6125ee16565b6128e2565b60208084015184516000908152600b9092526040909120600601546111179163ffffffff61264d16565b5050505050565b61112f611129612485565b82612675565b50565b60008281526006602052604090206002015461115090610721612485565b61116c5760405162461bcd60e51b8152600401610a0e90613833565b61117682826129a2565b5050565b60055460ff1690565b4690565b600081116111a75760405162461bcd60e51b8152600401610a0e90613ee8565b60026000838152600b602052604090206004015460ff1660028111156111c957fe5b14156111e75760405162461bcd60e51b8152600401610a0e90613d1b565b60006111f283611553565b9050808210156112145760405162461bcd60e51b8152600401610a0e90613e43565b61122561121f612485565b83612675565b6000838152600b60205260408120600781015460049091015490919060ff16600281111561124f57fe5b14156112f85761125d612e92565b506000818152600c6020908152604080832081516080810183528154815260018201549381019390935260028101549183019190915260030154606082018190529091906112b290429063ffffffff61264d16565b9050610e1081106112d55760405162461bcd60e51b8152600401610a0e90613a00565b50506000848152600b60205260409020600401805460ff1916600117905561130e565b6000818152600c60205260409020426003909101555b60106000828152602001908152602001600020604051806080016040528086815260200161133a612485565b6001600160a01b0390811682526020808301889052426040938401528454600180820187556000968752828720865160049093020191825585830151908201805473ffffffffffffffffffffffffffffffffffffffff1916919094161790925583830151600280840191909155606090940151600390920191909155848452600c9052909120015461111790846125ee565b6113d4612485565b6001600160a01b0316816001600160a01b0316146114045760405162461bcd60e51b8152600401610a0e90613f1f565b6111768282612a11565b60006109a061141b612485565b84610f4d856001600061142c612485565b6001600160a01b03908116825260208083019390935260409182016000908120918c16815292529020549063ffffffff6125ee16565b600061147081610721612485565b6007906114905760405162461bcd60e51b8152600401610a0e91906136b8565b506114d083838080601f016020809104026020016040519081016040528093929190818152602001838380828437600092019190915250612a8092505050565b61150f83838080601f016020809104026020016040519081016040528093929190818152602001838380828437600092019190915250612a9392505050565b505050565b6011602052816000526040600020818154811061152d57fe5b600091825260209091206003909102018054600182015460029092015490935090915083565b6000818152600b602052604081206007015461156d612e92565b506000818152600c60209081526040808320815160808101835281548152600182015493810193909352600281015491830182905260039081015460608401529192916115c391610c379163ffffffff61261316565b95945050505050565b6001600160a01b031660009081526020819052604090205490565b6115ef612edb565b6000838152600f6020526040902080548390811061160957fe5b60009182526020918290206040805160808101825260049093029091018054835260018101546001600160a01b0316938301939093526002830154908201526003909101546060820152905061165d612e92565b506000838152600c60209081526040918290208251608081018452815481526001820154818401526002820154938101939093526003015460608301528201516001600160a01b03166116ae612485565b6001600160a01b0316146116d45760405162461bcd60e51b8152600401610a0e90613eb1565b60006116ed82606001514261264d90919063ffffffff16565b9050610e1081116117105760405162461bcd60e51b8152600401610a0e90613a00565b600061172d836020015184604001516125ee90919063ffffffff16565b9050826020015183604001511080156117465750600085115b156117c957611775611756612485565b6110e8856020015161108c88604001518661261390919063ffffffff16565b6000868152600f6020526040812080548790811061178f57fe5b906000526020600020906004020160010160006101000a8154816001600160a01b0302191690836001600160a01b03160217905550611819565b6000868152600f602052604081208054879081106117e357fe5b906000526020600020906004020160010160006101000a8154816001600160a01b0302191690836001600160a01b031602179055505b505050505050565b600081116118415760405162461bcd60e51b8152600401610a0e906138c7565b6000828152600b602052604081206004015460ff16600281111561186157fe5b1461187e5760405162461bcd60e51b8152600401610a0e90613b96565b611889611129612485565b60116000611895612485565b6001600160a01b0316815260208082019290925260409081016000908120825160608101845286815280850186815242828601908152835460018181018655948652878620935160039091029093019283559051928201929092559051600290910155848152600b90925290206006015461150f908263ffffffff6125ee16565b61191e612e92565b506000818152600c60209081526040808320815160808101835281548082526001830154828601526002830154828501526003909201546060820152908452600b909252909120600781015483146119885760405162461bcd60e51b8152600401610a0e90613a37565b60006119a183606001514261264d90919063ffffffff16565b9050610e1081116119c45760405162461bcd60e51b8152600401610a0e90613bcd565b826020015183604001511115611a09576119f56119df612485565b60408501516110e890603263ffffffff6128b016565b60048201805460ff19166002179055611baf565b826020015183604001511015611baf57611a3a611a24612485565b60208501516110e890603263ffffffff6128b016565b60048201805460ff1916905560408051608081018252845181526000602080830182815283850183815260608501848152600d548552600c909352949092209251835590516001830155915160028201559051600390910155611a9b612edb565b6000858152600f602052604081208054909190611ab457fe5b60009182526020918290206040805160808101825260049093029091018054835260018101546001600160a01b03169383019390935260028301549082015260039091015460608201529050611b08612edb565b5060408051608081018252855181526020838101516001600160a01b03908116828401908152858501518486019081524260608601908152600d80546000908152600f8752978820805460018082018355918a529690982087516004909702019586559251858801805473ffffffffffffffffffffffffffffffffffffffff191691909516179093555160028401559051600390920191909155549091610d9991906125ee565b50505050565b611bc0611129612485565b6040518060e00160405280868152602001611bd9612485565b6001600160a01b03168152604080516060810182528781527fffff000000000000000000000000000000000000000000000000000000000000871660208281019190915260ff871682840152830152016000815260200142815260200160008152602001600d54815250600b6000600e5481526020019081526020016000206000820151816000019080519060200190611c74929190612f0c565b50602082810151600180840180546001600160a01b0390931673ffffffffffffffffffffffffffffffffffffffff1990931692909217909155604080850151805160028087019190915593810151600386018054929093015160ff16620100000262ff00001960f09290921c61ffff19909316929092171617905560608401516004840180549193909260ff1990921691908490811115611d1157fe5b0217905550608082810151600583015560a0830151600683015560c090920151600790910155604080519182018152600e5482526020808301848152600084840181815260608601828152600d548352600c909452939020935184555160018401559051600283015551600390910155611d89612edb565b6040518060800160405280600e548152602001611da4612485565b6001600160a01b039081168252602080830186905242604093840152600d546000908152600f825283812080546001808201835591835291839020865160049093020191825591850151818301805473ffffffffffffffffffffffffffffffffffffffff191691909416179092559183015160028201556060830151600390910155600e54919250611e3691906125ee565b50600d54610d9990600163ffffffff6125ee16565b600d5481565b600c6020526000908152604090208054600182015460028301546003909301549192909184565b6000828152600660205260408120611e96908363ffffffff612b3016565b9392505050565b6000828152600660205260408120611e96908363ffffffff612b3c16565b60106020528160005260406000208181548110611ed457fe5b600091825260209091206004909102018054600182015460028301546003909301549194506001600160a01b0316925084565b60048054604080516020601f60026000196101006001881615020190951694909404938401819004810282018101909252828152606093909290918301828280156109815780601f1061095657610100808354040283529160200191610981565b600081565b604051611f7990613525565b604051809103902081565b60006109a0611f91612485565b84610f4d856040518060600160405280602581526020016141666025913960016000611fbb612485565b6001600160a01b03908116825260208083019390935260409182016000908120918d1681529252902054919063ffffffff61288416565b60006109a0611fff612485565b8484612763565b6000818152600b6020526040812060070154612020612e92565b506000818152600c60209081526040808320815160808101835281548152600182015493810184905260028201549281019290925260039081015460608301529092916115c391610c37919063ffffffff61261316565b61112f612082612485565b826128e2565b60008181526006602052604081206109a490612b51565b6040516120ab90613525565b60405180910390206120bf81610721612485565b6007906120df5760405162461bcd60e51b8152600401610a0e91906136b8565b5060006120ee8385018561320f565b905061111785826128e2565b600f6020528160005260406000208181548110611ed457fe5b60008281526006602052604090206002015461213190610721612485565b6114045760405162461bcd60e51b8152600401610a0e90613aa5565b6001600160a01b03918216600090815260016020908152604080832093909416825291909152205490565b60085460ff161561219b5760405162461bcd60e51b8152600401610a0e90613daf565b6121da86868080601f016020809104026020016040519081016040528093929190818152602001838380828437600092019190915250612a8092505050565b61221984848080601f016020809104026020016040519081016040528093929190818152602001838380828437600092019190915250612b5c92505050565b61222282612b6f565b61224c84846040516020016122389291906134b6565b604051602081830303815290604052612b85565b61225e6000612259612485565b61116c565b61227b60405161226d90613525565b60405180910390208261116c565b6122ba86868080601f016020809104026020016040519081016040528093929190818152602001838380828437600092019190915250612bba92505050565b50506008805460ff1916600117905550505050565b6122d7612edb565b60008381526010602052604090208054839081106122f157fe5b60009182526020918290206040805160808101825260049093029091018054835260018101546001600160a01b03169383019390935260028301549082015260039091015460608201529050612345612e92565b506000838152600c60209081526040918290208251608081018452815481526001820154818401526002820154938101939093526003015460608301528201516001600160a01b0316612396612485565b6001600160a01b0316146123bc5760405162461bcd60e51b8152600401610a0e90613eb1565b60006123d582606001514261264d90919063ffffffff16565b9050610e1081116123f85760405162461bcd60e51b8152600401610a0e90613a00565b6000612415836020015184604001516125ee90919063ffffffff16565b905082602001518360400151111561246b57612451612432612485565b6110e8856040015161108c88604001518661261390919063ffffffff16565b600086815260106020526040812080548790811061178f57fe5b60008681526010602052604081208054879081106117e357fe5b600061248f612bf6565b905090565b6001600160a01b0383166124ba5760405162461bcd60e51b8152600401610a0e90613de6565b6001600160a01b0382166124e05760405162461bcd60e51b8152600401610a0e906138fe565b6001600160a01b0380841660008181526001602090815260408083209487168084529490915290819020849055517f8c5be1e5ebec7d5bd14f71427d1e84f3dd0314c0f7b2291e5b200ac8c7c3b9259061253b908590613599565b60405180910390a3505050565b60006001600160a01b0386166125705760405162461bcd60e51b8152600401610a0e90613b02565b600161258361257e87612c53565b612cb1565b838686604051600081526020016040526040516125a394939291906135f2565b6020604051602081039080840390855afa1580156125c5573d6000803e3d6000fd5b505050602060405103516001600160a01b0316866001600160a01b031614905095945050505050565b600082820183811015611e965760405162461bcd60e51b8152600401610a0e90613992565b600082612622575060006109a4565b8282028284828161262f57fe5b0414611e965760405162461bcd60e51b8152600401610a0e90613c04565b60008282111561266f5760405162461bcd60e51b8152600401610a0e906139c9565b50900390565b6001600160a01b03821661269b5760405162461bcd60e51b8152600401610a0e90613cbe565b6126a78260008361150f565b6126ea81604051806060016040528060228152602001614064602291396001600160a01b038516600090815260208190526040902054919063ffffffff61288416565b6001600160a01b038316600090815260208190526040902055600254612716908263ffffffff61264d16565b6002556040516000906001600160a01b038416907fddf252ad1be2c89b69c2b068fc378daa952ba7f163c4a11628f55a4df523b3ef90612757908590613599565b60405180910390a35050565b6001600160a01b0383166127895760405162461bcd60e51b8152600401610a0e90613d52565b6001600160a01b0382166127af5760405162461bcd60e51b8152600401610a0e906137d6565b6127ba83838361150f565b6127fd81604051806060016040528060268152602001614118602691396001600160a01b038616600090815260208190526040902054919063ffffffff61288416565b6001600160a01b038085166000908152602081905260408082209390935590841681522054612832908263ffffffff6125ee16565b6001600160a01b0380841660008181526020819052604090819020939093559151908516907fddf252ad1be2c89b69c2b068fc378daa952ba7f163c4a11628f55a4df523b3ef9061253b908590613599565b600081848411156128a85760405162461bcd60e51b8152600401610a0e9190613610565b505050900390565b60008082116128d15760405162461bcd60e51b8152600401610a0e90613a6e565b8183816128da57fe5b049392505050565b6001600160a01b0382166129085760405162461bcd60e51b8152600401610a0e90613f7c565b6129146000838361150f565b600254612927908263ffffffff6125ee16565b6002556001600160a01b038216600090815260208190526040902054612953908263ffffffff6125ee16565b6001600160a01b0383166000818152602081905260408082209390935591519091907fddf252ad1be2c89b69c2b068fc378daa952ba7f163c4a11628f55a4df523b3ef90612757908590613599565b60008281526006602052604090206129c0908263ffffffff612ccd16565b15611176576129cd612485565b6001600160a01b0316816001600160a01b0316837f2f8788117e7eff1d82e926ec794901d17c78024a50270940304540a733656f0d60405160405180910390a45050565b6000828152600660205260409020612a2f908263ffffffff612ce216565b1561117657612a3c612485565b6001600160a01b0316816001600160a01b0316837ff6391f5c32d9c69d2a47ea670b442974b53935d1edc7fd64eb21e047a839171b60405160405180910390a45050565b8051611176906003906020840190612f0c565b6040518060800160405280604f81526020016140c9604f913980516020918201208251838301206040805180820190915260018152603160f81b930192909252907fc89efdaa54c0f20c7adf612882df0950f5a951637e0307cdcb4c672f298b8bc630612afe611183565b604051612b129594939291906020016135a2565b60408051601f19818403018152919052805160209091012060095550565b6000611e968383612cf7565b6000611e96836001600160a01b038416612d3c565b60006109a482612d54565b8051611176906004906020840190612f0c565b6005805460ff191660ff92909216919091179055565b80604051602001612b969190613475565b60405160208183030381529060405260079080519060200190611176929190612f0c565b60085460ff1615612bdd5760405162461bcd60e51b8152600401610a0e90613daf565b612be681612a93565b506008805460ff19166001179055565b600033301415612c4e5760606000368080601f0160208091040260200160405190810160405280939291908181526020018383808284376000920191909152505050503601516001600160a01b031691506109899050565b503390565b60006040518060800160405280604381526020016140866043913980516020918201208351848301516040808701518051908601209051612c9495016135ce565b604051602081830303815290604052805190602001209050919050565b6000612cbb610da8565b82604051602001612c949291906134ef565b6000611e96836001600160a01b038416612d58565b6000611e96836001600160a01b038416612da2565b81546000908210612d1a5760405162461bcd60e51b8152600401610a0e90613742565b826000018281548110612d2957fe5b9060005260206000200154905092915050565b60009081526001919091016020526040902054151590565b5490565b6000612d648383612d3c565b612d9a575081546001818101845560008481526020808220909301849055845484825282860190935260409020919091556109a4565b5060006109a4565b60008181526001830160205260408120548015612e5e5783546000198083019190810190600090879083908110612dd557fe5b9060005260206000200154905080876000018481548110612df257fe5b600091825260208083209091019290925582815260018981019092526040902090840190558654879080612e2257fe5b600190038181906000526020600020016000905590558660010160008781526020019081526020016000206000905560019450505050506109a4565b60009150506109a4565b60405180606001604052806000815260200160006001600160a01b03168152602001606081525090565b6040518060800160405280600081526020016000815260200160008152602001600081525090565b60405180606001604052806000815260200160008152602001600081525090565b60405180608001604052806000815260200160006001600160a01b0316815260200160008152602001600081525090565b828054600181600116156101000203166002900490600052602060002090601f016020900481019282601f10612f4d57805160ff1916838001178555612f7a565b82800160010185558215612f7a579182015b82811115612f7a578251825591602001919060010190612f5f565b50612f86929150612f8a565b5090565b61098991905b80821115612f865760008155600101612f90565b80356001600160a01b03811681146109a457600080fd5b60008083601f840112612fcc578182fd5b50813567ffffffffffffffff811115612fe3578182fd5b602083019150836020828501011115612ffb57600080fd5b9250929050565b600082601f830112613012578081fd5b813567ffffffffffffffff80821115613029578283fd5b604051601f8301601f191681016020018281118282101715613049578485fd5b60405282815292508284830160200186101561306457600080fd5b8260208601602083013760006020848301015250505092915050565b803560ff811681146109a457600080fd5b6000602082840312156130a2578081fd5b611e968383612fa4565b600080604083850312156130be578081fd5b6130c88484612fa4565b91506130d78460208501612fa4565b90509250929050565b6000806000606084860312156130f4578081fd5b83356130ff8161404e565b9250602084013561310f8161404e565b929592945050506040919091013590565b600080600060408486031215613134578283fd5b833561313f8161404e565b9250602084013567ffffffffffffffff81111561315a578283fd5b61316686828701612fbb565b9497909650939450505050565b600080600080600060a0868803121561318a578081fd5b6131948787612fa4565b9450602086013567ffffffffffffffff8111156131af578182fd5b6131bb88828901613002565b94505060408601359250606086013591506131d98760808801613080565b90509295509295909350565b600080604083850312156131f7578182fd5b6132018484612fa4565b946020939093013593505050565b600060208284031215613220578081fd5b5035919050565b60008060408385031215613239578182fd5b82359150602083013561324b8161404e565b809150509250929050565b60008060408385031215613268578182fd5b50508035926020909101359150565b60008060208385031215613289578182fd5b823567ffffffffffffffff81111561329f578283fd5b6132ab85828601612fbb565b90969095509350505050565b600080600080600080608087890312156132cf578081fd5b863567ffffffffffffffff808211156132e6578283fd5b6132f28a838b01612fbb565b9098509650602089013591508082111561330a578283fd5b5061331789828a01612fbb565b909550935050604087013560ff81168114613330578182fd5b915060608701356133408161404e565b809150509295509295509295565b600080600080600060a08688031215613365578283fd5b853567ffffffffffffffff81111561337b578384fd5b61338788828901613002565b9550506020860135935060408601357fffff000000000000000000000000000000000000000000000000000000000000811681146133c3578384fd5b92506133d28760608801613080565b949793965091946080013592915050565b600081518084526133fb816020860160208601614022565b601f01601f19169290920160200192915050565b60008251613421818460208701614022565b9190910192915050565b6000835161343d818460208801614022565b60609390931b7fffffffffffffffffffffffffffffffffffffffff000000000000000000000000169190920190815260140192915050565b60008251613487818460208701614022565b7f3a20494e53554646494349454e545f5045524d495353494f4e53000000000000920191825250601a01919050565b60007f4368696c640000000000000000000000000000000000000000000000000000008252828460058401379101600501908152919050565b7f190100000000000000000000000000000000000000000000000000000000000081526002810192909252602282015260420190565b7f4445504f5349544f525f524f4c450000000000000000000000000000000000008152600e0190565b6001600160a01b0391909116815260200190565b60006001600160a01b038086168352808516602084015250606060408301526115c360608301846133e3565b901515815260200190565b90815260200190565b948552602085019390935260408401919091526001600160a01b03166060830152608082015260a00190565b93845260208401929092526001600160a01b03166040830152606082015260800190565b93845260ff9290921660208401526040830152606082015260800190565b600060208252611e9660208301846133e3565b60006101208083526136378184018b6133e3565b9150506001600160a01b0388166020830152865160408301527fffff000000000000000000000000000000000000000000000000000000000000602088015116606083015260ff60408801511660808301526003861061369357fe5b8560a08301528460c08301528360e08301528261010083015298975050505050505050565b600060208083018184528285546001808216600081146136df57600181146136fd57613735565b60028304607f16855260ff1983166040890152606088019350613735565b6002830480865261370d8a614016565b885b8281101561372b5781548b82016040015290840190880161370f565b8a01604001955050505b5091979650505050505050565b60208082526022908201527f456e756d657261626c655365743a20696e646578206f7574206f6620626f756e60408201527f6473000000000000000000000000000000000000000000000000000000000000606082015260800190565b6020808252601a908201527f526f756e6420697320696e206469737075746520737461747573000000000000604082015260600190565b60208082526023908201527f45524332303a207472616e7366657220746f20746865207a65726f206164647260408201527f6573730000000000000000000000000000000000000000000000000000000000606082015260800190565b6020808252602f908201527f416363657373436f6e74726f6c3a2073656e646572206d75737420626520616e60408201527f2061646d696e20746f206772616e740000000000000000000000000000000000606082015260800190565b60208082526017908201527f526f756e64206973206e6f7420696e2064697370757465000000000000000000604082015260600190565b60208082526012908201527f43616e6e6f74207374616b652030204d4f450000000000000000000000000000604082015260600190565b60208082526022908201527f45524332303a20617070726f766520746f20746865207a65726f20616464726560408201527f7373000000000000000000000000000000000000000000000000000000000000606082015260800190565b6020808252601c908201527f46756e6374696f6e2063616c6c206e6f74207375636365737366756c00000000604082015260600190565b6020808252601b908201527f536166654d6174683a206164646974696f6e206f766572666c6f770000000000604082015260600190565b6020808252601e908201527f536166654d6174683a207375627472616374696f6e206f766572666c6f770000604082015260600190565b60208082526018908201527f446973707574652077696e646f77206973203120686f75720000000000000000604082015260600190565b60208082526010908201527f496e76616c696420726f756e6420696400000000000000000000000000000000604082015260600190565b6020808252601a908201527f536166654d6174683a206469766973696f6e206279207a65726f000000000000604082015260600190565b60208082526030908201527f416363657373436f6e74726f6c3a2073656e646572206d75737420626520616e60408201527f2061646d696e20746f207265766f6b6500000000000000000000000000000000606082015260800190565b60208082526025908201527f4e61746976654d6574615472616e73616374696f6e3a20494e56414c49445f5360408201527f49474e4552000000000000000000000000000000000000000000000000000000606082015260800190565b6020808252601a908201527f4d696e696d756d206475726174696f6e206973203120686f7572000000000000604082015260600190565b6020808252601d908201527f526f756e64206973206e6f7420696e206e6f726d616c20737461747573000000604082015260600190565b6020808252601a908201527f446973707574652077696e646f77206973206e6f74206f766572000000000000604082015260600190565b60208082526021908201527f536166654d6174683a206d756c7469706c69636174696f6e206f766572666c6f60408201527f7700000000000000000000000000000000000000000000000000000000000000606082015260800190565b60208082526021908201527f5369676e657220616e64207369676e617475726520646f206e6f74206d61746360408201527f6800000000000000000000000000000000000000000000000000000000000000606082015260800190565b60208082526021908201527f45524332303a206275726e2066726f6d20746865207a65726f2061646472657360408201527f7300000000000000000000000000000000000000000000000000000000000000606082015260800190565b6020808252600a908201527f4465707265636174656400000000000000000000000000000000000000000000604082015260600190565b60208082526025908201527f45524332303a207472616e736665722066726f6d20746865207a65726f20616460408201527f6472657373000000000000000000000000000000000000000000000000000000606082015260800190565b6020808252600e908201527f616c726561647920696e69746564000000000000000000000000000000000000604082015260600190565b60208082526024908201527f45524332303a20617070726f76652066726f6d20746865207a65726f2061646460408201527f7265737300000000000000000000000000000000000000000000000000000000606082015260800190565b6020808252601b908201527f4c657373207468656e204d494e2061747461636b20616d6f756e740000000000604082015260600190565b6020808252601c908201527f4c657373207468656e204d494e20646566656e736520616d6f756e7400000000604082015260600190565b6020808252600d908201527f4163636573732064656e69656400000000000000000000000000000000000000604082015260600190565b60208082526016908201527f43616e6e6f7420766f746520776974682030204d4f4500000000000000000000604082015260600190565b6020808252602f908201527f416363657373436f6e74726f6c3a2063616e206f6e6c792072656e6f756e636560408201527f20726f6c657320666f722073656c660000000000000000000000000000000000606082015260800190565b6020808252601f908201527f45524332303a206d696e7420746f20746865207a65726f206164647265737300604082015260600190565b9384526001600160a01b039290921660208401526040830152606082015260800190565b9283526020830191909152604082015260600190565b93845260208401929092526040830152606082015260800190565b60ff91909116815260200190565b60009081526020902090565b60005b8381101561403d578181015183820152602001614025565b83811115611baf5750506000910152565b6001600160a01b038116811461112f57600080fdfe45524332303a206275726e20616d6f756e7420657863656564732062616c616e63654d6574615472616e73616374696f6e2875696e74323536206e6f6e63652c616464726573732066726f6d2c62797465732066756e6374696f6e5369676e617475726529454950373132446f6d61696e28737472696e67206e616d652c737472696e672076657273696f6e2c6164647265737320766572696679696e67436f6e74726163742c627974657333322073616c742945524332303a207472616e7366657220616d6f756e7420657863656564732062616c616e636545524332303a207472616e7366657220616d6f756e74206578636565647320616c6c6f77616e636545524332303a2064656372656173656420616c6c6f77616e63652062656c6f77207a65726fa2646970667358221220d22aa9552ce0e17c8ecf03df7b6ef63a355172ba5c0f14cb093faff4f5460f5d64736f6c63430006060033",
  "immutableReferences": {},
  "source": "// SPDX-License-Identifier: MIT\npragma experimental ABIEncoderV2;\npragma solidity ^0.6.0;\n\nimport \"./Library.sol\";\nimport \"@maticnetwork/pos-portal/contracts/child/ChildToken/UpgradeableChildERC20/UChildERC20.sol\";\n//import \"@maticnetwork/pos-portal/contracts/child/ChildToken/UpgradeableChildERC20/UChildERC20Proxy.sol\";\n\n// *** IMPORTANT ***\n//\n// BEFORE DEPLOY\n// --------------\n// erase _mint() line on constructor function\n// change duration require() function on voteForAttack()\n// change duration require() function on voteForDeffense()\n// change duration require() function on unstake()\n// change duration require() function on clearRound()\n// change duration require() function on resolveAttack()\n// change duration require() function on resolveDefense()\n//\ncontract MOEToken is UChildERC20 {\n\n    //string public constant NAME = \"MOE Token\";\n    //string public constant SYMBOL = \"MOE\";\n    //uint8 public constant DECIMALS = 18;\n\n    mapping(uint256 => Lib.Onnanoco) public onnanocos;\n    mapping(uint256 => Lib.Round) public rounds;\n\n    uint256 public totalRounds;\n    uint256 public totalOnnanocos;\n\n    mapping(uint256 => Lib.Vote[]) public defenseVotes;\n    mapping(uint256 => Lib.Vote[]) public attackVotes;\n\n    mapping(address => Lib.Stake[]) public stakes;\n\n    //bytes32 public constant DEPOSITOR_ROLE = keccak256(\"DEPOSITOR_ROLE\"); // Polygon mapping\n\n    function addOnnanoco(string memory name, bytes32 hash, bytes2 hashFunction, uint8 hashSize, uint256 amount) public {\n  \n        _burn(_msgSender(), amount);\n\n        // add onnanoco base data\n        onnanocos[totalOnnanocos] = Lib.Onnanoco(name, _msgSender(), Lib.Multihash(hash, hashFunction, hashSize), Lib.Status.NORMAL, block.timestamp, 0, totalRounds);\n\n        // setup round\n        rounds[totalRounds] = Lib.Round(totalOnnanocos, amount, 0, 0);\n\n        // vote for defense\n        Lib.Vote memory vote = Lib.Vote(totalOnnanocos, _msgSender(), amount, block.timestamp);\n        defenseVotes[totalRounds].push(vote);\n\n        // increase onnanoco index\n        totalOnnanocos.add(1);\n        totalRounds.add(1);\n    }\n\n    // Get minimum attack amount\n    // id : id of the character\n    function getMinimumAttackAmount(uint256 id) public view returns (uint256 amount) {\n\n        uint256 roundId = onnanocos[id].roundId;\n        Lib.Round memory round = rounds[roundId];\n\n        uint256 minimumAmount = (round.totalDefenseAmount.add(round.totalAttackAmount).mul(2)).sub(round.totalAttackAmount.mul(3));\n\n        return minimumAmount;\n    }\n\n    // Vote for attack\n    // id: id of the character\n    // amount: defense amount\n    function voteForAttack(uint256 id, uint256 amount) public {\n\n        require(amount > 0, 'Cannot vote with 0 MOE');\n        require(onnanocos[id].status != Lib.Status.DEPRECATED, 'Deprecated');\n        \n        uint256 minimumAmount = getMinimumAttackAmount(id);\n\n        require(amount >= minimumAmount, 'Less then MIN attack amount');\n\n        _burn(_msgSender(), amount);\n\n        uint256 roundId = onnanocos[id].roundId;\n\n        // 1st attack\n        if (onnanocos[id].status == Lib.Status.NORMAL) {\n\n            Lib.Round memory round = rounds[roundId];\n\n            uint256 duration = block.timestamp.sub(round.timestamp);\n            //require(duration < 60 * 60 * 24 * 7, 'Dispute window is 7 days'); // deploy\n            require(duration < 60 * 60, 'Dispute window is 1 hour'); // dev\n\n            onnanocos[id].status = Lib.Status.IN_DISPUTE;\n        } else {\n            rounds[roundId].timestamp = block.timestamp;\n        }\n\n        attackVotes[roundId].push(Lib.Vote(id, _msgSender(), amount, block.timestamp));\n        rounds[roundId].totalAttackAmount.add(amount);\n    }\n\n    // Get minimum defense amount\n    // id : id of the character\n    function getMinimumDefenseAmount(uint256 id) public view returns (uint256 amount) {\n\n        uint256 roundId = onnanocos[id].roundId;\n        Lib.Round memory round = rounds[roundId];\n\n        uint256 minimumAmount = ((round.totalDefenseAmount.add(round.totalAttackAmount)).mul(2)).sub(round.totalDefenseAmount.mul(3));\n\n        return minimumAmount;\n    }\n\n    // Vote for defense\n    // id: id of the character\n    // amount: defense amount\n    function voteForDefense(uint256 id, uint256 amount) public {\n\n        require(amount > 0, 'Cannot vote with 0 MOE');\n        require(onnanocos[id].status == Lib.Status.IN_DISPUTE, 'Round is not in dispute');\n\n        uint256 roundId = onnanocos[id].roundId;\n        Lib.Round memory round = rounds[roundId];\n\n        uint256 minimumAmount = ((round.totalDefenseAmount.add(round.totalAttackAmount)).mul(2)).sub(round.totalDefenseAmount.mul(3));\n\n        uint256 duration = block.timestamp.sub(round.timestamp);\n\n        //require(duration > 60 * 60 * 24 * 7, 'Dispute window is 7 days'); // deploy\n        require(duration > 60 * 60 * 1, 'Dispute window is 1 hour'); // dev\n\n        require(amount >= minimumAmount, 'Less then MIN defense amount');\n        \n        _burn(_msgSender(), amount);\n        defenseVotes[roundId].push(Lib.Vote(id, _msgSender(), amount, block.timestamp));\n\n        rounds[roundId].totalDefenseAmount.add(amount);\n    }\n\n    // clearRound\n    // roundId : ID for the round\n    function clearRound(uint256 roundId) public {\n\n        Lib.Round memory round = rounds[roundId];\n        Lib.Onnanoco storage onnanoco = onnanocos[round.onnanocoId];\n\n        require(onnanoco.roundId == roundId, 'Invalid round id');\n\n        uint256 duration = block.timestamp.sub(round.timestamp);\n\n        //require(duration > 60 * 60 * 24 * 7, 'Dispute window is not over'); // deploy\n        require(duration > 60 * 60 * 1, 'Dispute window is not over'); // dev\n\n        if (round.totalAttackAmount > round.totalDefenseAmount) { // Attackers win\n            _mint(_msgSender(), round.totalAttackAmount.div(50));\n            onnanoco.status = Lib.Status.DEPRECATED;\n\n        } else if(round.totalAttackAmount < round.totalDefenseAmount) { // Attackeres lose\n            _mint(_msgSender(), round.totalDefenseAmount.div(50));\n            onnanoco.status = Lib.Status.NORMAL;\n\n            // new round\n            rounds[totalRounds] = Lib.Round(round.onnanocoId, 0, 0, 0);\n\n            Lib.Vote memory vote = defenseVotes[roundId][0];\n\n            Lib.Vote memory newVote = Lib.Vote(round.onnanocoId, vote.voter, vote.amount, block.timestamp);\n            defenseVotes[totalRounds].push(newVote);\n\n            totalRounds.add(1);\n        }\n        \n    }\n\n    function resolveAttack(uint256 roundId, uint256 voteId) public {\n\n        Lib.Vote memory vote = attackVotes[roundId][voteId];\n        Lib.Round memory round = rounds[roundId];\n\n        require(_msgSender() == vote.voter, 'Access denied');\n\n        uint256 duration = block.timestamp.sub(round.timestamp);\n\n        //require(duration > 60 * 60 * 24 * 7, 'Dispute window is 7 days'); // deploy\n        require(duration > 60 * 60 * 1, 'Dispute window is 1 hour'); // dev\n\n        uint256 totalAmount = round.totalAttackAmount.add(round.totalDefenseAmount);\n\n        if (round.totalAttackAmount > round.totalDefenseAmount) {\n            _mint(_msgSender(), totalAmount.mul(vote.amount).div(round.totalAttackAmount));\n            attackVotes[roundId][voteId].voter = address(0);\n\n        } else {\n            attackVotes[roundId][voteId].voter = address(0);\n        }\n\n    }\n\n    function resolveDefense(uint256 roundId, uint256 voteId) public {\n\n        Lib.Vote memory vote = defenseVotes[roundId][voteId];\n        Lib.Round memory round = rounds[roundId];\n\n        require(_msgSender() == vote.voter, 'Access denied');\n\n        uint256 duration = block.timestamp.sub(round.timestamp);\n\n        //require(duration > 60 * 60 * 24 * 7, 'Dispute window is 7 days'); // deploy\n        require(duration > 60 * 60 * 1, 'Dispute window is 1 hour'); // dev\n\n        uint256 totalAmount = round.totalAttackAmount.add(round.totalDefenseAmount);\n\n        if (round.totalAttackAmount < round.totalDefenseAmount && voteId > 0) {\n\n            _mint(_msgSender(), totalAmount.mul(vote.amount).div(round.totalDefenseAmount));\n            defenseVotes[roundId][voteId].voter = address(0);\n\n        } else {\n            defenseVotes[roundId][voteId].voter = address(0);\n        }\n    }\n    \n    // Stake MOE\n    function stake(uint256 id, uint256 amount) public {\n    \n        require(amount > 0, 'Cannot stake 0 MOE');\n        require(onnanocos[id].status == Lib.Status.NORMAL, 'Round is not in normal status');\n\n        _burn(_msgSender(), amount);\n\n        stakes[_msgSender()].push(Lib.Stake(id, amount, block.timestamp));\n        onnanocos[id].totalStakingAmount.add(amount);\n    }\n    \n    // Unstake MOE\n    function unstake(uint256 stakeId) public {\n\n        Lib.Stake memory stakeInfo = stakes[_msgSender()][stakeId];\n        \n        require(onnanocos[stakeInfo.id].status != Lib.Status.IN_DISPUTE, 'Round is in dispute status');\n        \n        uint256 duration = block.timestamp - stakeInfo.timestamp;\n\n        //require(duration > 60 * 60 * 24 * 100, 'Minimum duration is 100 days'); // Deploy\n        require(duration > 60 * 60 * 1, 'Minimum duration is 1 hour'); // Test\n\n        uint256 bonus = stakeInfo.amount.mul(duration).div(60 * 60 * 24 * 100 * 20);\n\n        if (onnanocos[stakeInfo.id].status == Lib.Status.DEPRECATED) {\n            bonus = 0;\n        }\n\n        _mint(_msgSender(), stakeInfo.amount.add(bonus));\n        onnanocos[stakeInfo.id].totalStakingAmount.sub(stakeInfo.amount);\n    }\n\n    // Test faucet\n    function mintToken(uint256 amount) public {\n        _mint(_msgSender(), amount);\n    }\n}",
  "sourcePath": "/Users/misskiwi/github/smartcontract-child/contracts/MOEToken.sol",
  "compiler": {
    "name": "solc",
    "version": "0.6.6+commit.6c089d02.Emscripten.clang"
  },
  "schemaVersion": "3.4.4",
  "updatedAt": "2022-01-22T00:45:54.168Z",
  "devdoc": {
    "methods": {
      "allowance(address,address)": {
        "details": "See {IERC20-allowance}."
      },
      "approve(address,uint256)": {
        "details": "See {IERC20-approve}.     * Requirements:     * - `spender` cannot be the zero address."
      },
      "balanceOf(address)": {
        "details": "See {IERC20-balanceOf}."
      },
      "decimals()": {
        "details": "Returns the number of decimals used to get its user representation. For example, if `decimals` equals `2`, a balance of `505` tokens should be displayed to a user as `5,05` (`505 / 10 ** 2`).     * Tokens usually opt for a value of 18, imitating the relationship between Ether and Wei. This is the value {ERC20} uses, unless {_setupDecimals} is called.     * NOTE: This information is only used for _display_ purposes: it in no way affects any of the arithmetic of the contract, including {IERC20-balanceOf} and {IERC20-transfer}."
      },
      "decreaseAllowance(address,uint256)": {
        "details": "Atomically decreases the allowance granted to `spender` by the caller.     * This is an alternative to {approve} that can be used as a mitigation for problems described in {IERC20-approve}.     * Emits an {Approval} event indicating the updated allowance.     * Requirements:     * - `spender` cannot be the zero address. - `spender` must have allowance for the caller of at least `subtractedValue`."
      },
      "deposit(address,bytes)": {
        "details": "Should be callable only by ChildChainManager Should handle deposit by minting the required amount for user Make sure minting is done only by this function",
        "params": {
          "depositData": "abi encoded amount",
          "user": "user address for whom deposit is being done"
        }
      },
      "getRoleAdmin(bytes32)": {
        "details": "Returns the admin role that controls `role`. See {grantRole} and {revokeRole}.     * To change a role's admin, use {_setRoleAdmin}."
      },
      "getRoleMember(bytes32,uint256)": {
        "details": "Returns one of the accounts that have `role`. `index` must be a value between 0 and {getRoleMemberCount}, non-inclusive.     * Role bearers are not sorted in any particular way, and their ordering may change at any point.     * WARNING: When using {getRoleMember} and {getRoleMemberCount}, make sure you perform all queries on the same block. See the following https://forum.openzeppelin.com/t/iterating-over-elements-on-enumerableset-in-openzeppelin-contracts/2296[forum post] for more information."
      },
      "getRoleMemberCount(bytes32)": {
        "details": "Returns the number of accounts that have `role`. Can be used together with {getRoleMember} to enumerate all bearers of a role."
      },
      "grantRole(bytes32,address)": {
        "details": "Grants `role` to `account`.     * If `account` had not been already granted `role`, emits a {RoleGranted} event.     * Requirements:     * - the caller must have ``role``'s admin role."
      },
      "hasRole(bytes32,address)": {
        "details": "Returns `true` if `account` has been granted `role`."
      },
      "increaseAllowance(address,uint256)": {
        "details": "Atomically increases the allowance granted to `spender` by the caller.     * This is an alternative to {approve} that can be used as a mitigation for problems described in {IERC20-approve}.     * Emits an {Approval} event indicating the updated allowance.     * Requirements:     * - `spender` cannot be the zero address."
      },
      "initialize(string,string,uint8,address)": {
        "details": "meant to be called once immediately after deployment"
      },
      "name()": {
        "details": "Returns the name of the token."
      },
      "renounceRole(bytes32,address)": {
        "details": "Revokes `role` from the calling account.     * Roles are often managed via {grantRole} and {revokeRole}: this function's purpose is to provide a mechanism for accounts to lose their privileges if they are compromised (such as when a trusted device is misplaced).     * If the calling account had been granted `role`, emits a {RoleRevoked} event.     * Requirements:     * - the caller must be `account`."
      },
      "revokeRole(bytes32,address)": {
        "details": "Revokes `role` from `account`.     * If `account` had been granted `role`, emits a {RoleRevoked} event.     * Requirements:     * - the caller must have ``role``'s admin role."
      },
      "symbol()": {
        "details": "Returns the symbol of the token, usually a shorter version of the name."
      },
      "totalSupply()": {
        "details": "See {IERC20-totalSupply}."
      },
      "transfer(address,uint256)": {
        "details": "See {IERC20-transfer}.     * Requirements:     * - `recipient` cannot be the zero address. - the caller must have a balance of at least `amount`."
      },
      "transferFrom(address,address,uint256)": {
        "details": "See {IERC20-transferFrom}.     * Emits an {Approval} event indicating the updated allowance. This is not required by the EIP. See the note at the beginning of {ERC20};     * Requirements: - `sender` and `recipient` cannot be the zero address. - `sender` must have a balance of at least `amount`. - the caller must have allowance for ``sender``'s tokens of at least `amount`."
      },
      "withdraw(uint256)": {
        "details": "Should burn user's tokens. This transaction will be verified when exiting on root chain",
        "params": {
          "amount": "amount of tokens to withdraw"
        }
      }
    }
  },
  "userdoc": {
    "methods": {
      "deposit(address,bytes)": {
        "notice": "called when token is deposited on root chain"
      },
      "initialize(string,string,uint8,address)": {
        "notice": "Initialize the contract after it has been proxified"
      },
      "withdraw(uint256)": {
        "notice": "called when user wants to withdraw tokens back to root chain"
      }
    }
  }
}