{
  "contractName": "MOEToken",
  "abi": [
    {
      "anonymous": false,
      "inputs": [
        {
          "indexed": true,
          "internalType": "address",
          "name": "owner",
          "type": "address"
        },
        {
          "indexed": true,
          "internalType": "address",
          "name": "spender",
          "type": "address"
        },
        {
          "indexed": false,
          "internalType": "uint256",
          "name": "value",
          "type": "uint256"
        }
      ],
      "name": "Approval",
      "type": "event"
    },
    {
      "anonymous": false,
      "inputs": [
        {
          "indexed": true,
          "internalType": "bytes32",
          "name": "role",
          "type": "bytes32"
        },
        {
          "indexed": true,
          "internalType": "bytes32",
          "name": "previousAdminRole",
          "type": "bytes32"
        },
        {
          "indexed": true,
          "internalType": "bytes32",
          "name": "newAdminRole",
          "type": "bytes32"
        }
      ],
      "name": "RoleAdminChanged",
      "type": "event"
    },
    {
      "anonymous": false,
      "inputs": [
        {
          "indexed": true,
          "internalType": "bytes32",
          "name": "role",
          "type": "bytes32"
        },
        {
          "indexed": true,
          "internalType": "address",
          "name": "account",
          "type": "address"
        },
        {
          "indexed": true,
          "internalType": "address",
          "name": "sender",
          "type": "address"
        }
      ],
      "name": "RoleGranted",
      "type": "event"
    },
    {
      "anonymous": false,
      "inputs": [
        {
          "indexed": true,
          "internalType": "bytes32",
          "name": "role",
          "type": "bytes32"
        },
        {
          "indexed": true,
          "internalType": "address",
          "name": "account",
          "type": "address"
        },
        {
          "indexed": true,
          "internalType": "address",
          "name": "sender",
          "type": "address"
        }
      ],
      "name": "RoleRevoked",
      "type": "event"
    },
    {
      "anonymous": false,
      "inputs": [
        {
          "indexed": true,
          "internalType": "address",
          "name": "from",
          "type": "address"
        },
        {
          "indexed": true,
          "internalType": "address",
          "name": "to",
          "type": "address"
        },
        {
          "indexed": false,
          "internalType": "uint256",
          "name": "value",
          "type": "uint256"
        }
      ],
      "name": "Transfer",
      "type": "event"
    },
    {
      "inputs": [],
      "name": "DEFAULT_ADMIN_ROLE",
      "outputs": [
        {
          "internalType": "bytes32",
          "name": "",
          "type": "bytes32"
        }
      ],
      "stateMutability": "view",
      "type": "function",
      "constant": true
    },
    {
      "inputs": [],
      "name": "DEPOSITOR_ROLE",
      "outputs": [
        {
          "internalType": "bytes32",
          "name": "",
          "type": "bytes32"
        }
      ],
      "stateMutability": "view",
      "type": "function",
      "constant": true
    },
    {
      "inputs": [
        {
          "internalType": "address",
          "name": "owner",
          "type": "address"
        },
        {
          "internalType": "address",
          "name": "spender",
          "type": "address"
        }
      ],
      "name": "allowance",
      "outputs": [
        {
          "internalType": "uint256",
          "name": "",
          "type": "uint256"
        }
      ],
      "stateMutability": "view",
      "type": "function",
      "constant": true
    },
    {
      "inputs": [
        {
          "internalType": "address",
          "name": "spender",
          "type": "address"
        },
        {
          "internalType": "uint256",
          "name": "amount",
          "type": "uint256"
        }
      ],
      "name": "approve",
      "outputs": [
        {
          "internalType": "bool",
          "name": "",
          "type": "bool"
        }
      ],
      "stateMutability": "nonpayable",
      "type": "function"
    },
    {
      "inputs": [
        {
          "internalType": "uint256",
          "name": "",
          "type": "uint256"
        },
        {
          "internalType": "uint256",
          "name": "",
          "type": "uint256"
        }
      ],
      "name": "attackVotes",
      "outputs": [
        {
          "internalType": "uint256",
          "name": "id",
          "type": "uint256"
        },
        {
          "internalType": "address",
          "name": "voter",
          "type": "address"
        },
        {
          "internalType": "uint256",
          "name": "amount",
          "type": "uint256"
        },
        {
          "internalType": "uint256",
          "name": "timestamp",
          "type": "uint256"
        },
        {
          "internalType": "string",
          "name": "evidence",
          "type": "string"
        }
      ],
      "stateMutability": "view",
      "type": "function",
      "constant": true
    },
    {
      "inputs": [
        {
          "internalType": "address",
          "name": "account",
          "type": "address"
        }
      ],
      "name": "balanceOf",
      "outputs": [
        {
          "internalType": "uint256",
          "name": "",
          "type": "uint256"
        }
      ],
      "stateMutability": "view",
      "type": "function",
      "constant": true
    },
    {
      "inputs": [],
      "name": "decimals",
      "outputs": [
        {
          "internalType": "uint8",
          "name": "",
          "type": "uint8"
        }
      ],
      "stateMutability": "view",
      "type": "function",
      "constant": true
    },
    {
      "inputs": [
        {
          "internalType": "address",
          "name": "spender",
          "type": "address"
        },
        {
          "internalType": "uint256",
          "name": "subtractedValue",
          "type": "uint256"
        }
      ],
      "name": "decreaseAllowance",
      "outputs": [
        {
          "internalType": "bool",
          "name": "",
          "type": "bool"
        }
      ],
      "stateMutability": "nonpayable",
      "type": "function"
    },
    {
      "inputs": [
        {
          "internalType": "uint256",
          "name": "",
          "type": "uint256"
        },
        {
          "internalType": "uint256",
          "name": "",
          "type": "uint256"
        }
      ],
      "name": "defenseVotes",
      "outputs": [
        {
          "internalType": "uint256",
          "name": "id",
          "type": "uint256"
        },
        {
          "internalType": "address",
          "name": "voter",
          "type": "address"
        },
        {
          "internalType": "uint256",
          "name": "amount",
          "type": "uint256"
        },
        {
          "internalType": "uint256",
          "name": "timestamp",
          "type": "uint256"
        },
        {
          "internalType": "string",
          "name": "evidence",
          "type": "string"
        }
      ],
      "stateMutability": "view",
      "type": "function",
      "constant": true
    },
    {
      "inputs": [
        {
          "internalType": "bytes32",
          "name": "role",
          "type": "bytes32"
        }
      ],
      "name": "getRoleAdmin",
      "outputs": [
        {
          "internalType": "bytes32",
          "name": "",
          "type": "bytes32"
        }
      ],
      "stateMutability": "view",
      "type": "function",
      "constant": true
    },
    {
      "inputs": [
        {
          "internalType": "bytes32",
          "name": "role",
          "type": "bytes32"
        },
        {
          "internalType": "uint256",
          "name": "index",
          "type": "uint256"
        }
      ],
      "name": "getRoleMember",
      "outputs": [
        {
          "internalType": "address",
          "name": "",
          "type": "address"
        }
      ],
      "stateMutability": "view",
      "type": "function",
      "constant": true
    },
    {
      "inputs": [
        {
          "internalType": "bytes32",
          "name": "role",
          "type": "bytes32"
        }
      ],
      "name": "getRoleMemberCount",
      "outputs": [
        {
          "internalType": "uint256",
          "name": "",
          "type": "uint256"
        }
      ],
      "stateMutability": "view",
      "type": "function",
      "constant": true
    },
    {
      "inputs": [
        {
          "internalType": "bytes32",
          "name": "role",
          "type": "bytes32"
        },
        {
          "internalType": "address",
          "name": "account",
          "type": "address"
        }
      ],
      "name": "grantRole",
      "outputs": [],
      "stateMutability": "nonpayable",
      "type": "function"
    },
    {
      "inputs": [
        {
          "internalType": "bytes32",
          "name": "role",
          "type": "bytes32"
        },
        {
          "internalType": "address",
          "name": "account",
          "type": "address"
        }
      ],
      "name": "hasRole",
      "outputs": [
        {
          "internalType": "bool",
          "name": "",
          "type": "bool"
        }
      ],
      "stateMutability": "view",
      "type": "function",
      "constant": true
    },
    {
      "inputs": [
        {
          "internalType": "address",
          "name": "spender",
          "type": "address"
        },
        {
          "internalType": "uint256",
          "name": "addedValue",
          "type": "uint256"
        }
      ],
      "name": "increaseAllowance",
      "outputs": [
        {
          "internalType": "bool",
          "name": "",
          "type": "bool"
        }
      ],
      "stateMutability": "nonpayable",
      "type": "function"
    },
    {
      "inputs": [],
      "name": "name",
      "outputs": [
        {
          "internalType": "string",
          "name": "",
          "type": "string"
        }
      ],
      "stateMutability": "view",
      "type": "function",
      "constant": true
    },
    {
      "inputs": [
        {
          "internalType": "uint256",
          "name": "",
          "type": "uint256"
        }
      ],
      "name": "onnanocos",
      "outputs": [
        {
          "internalType": "string",
          "name": "name",
          "type": "string"
        },
        {
          "internalType": "address",
          "name": "owner",
          "type": "address"
        },
        {
          "components": [
            {
              "internalType": "bytes32",
              "name": "digest",
              "type": "bytes32"
            },
            {
              "internalType": "bytes2",
              "name": "hashFunction",
              "type": "bytes2"
            },
            {
              "internalType": "uint8",
              "name": "size",
              "type": "uint8"
            }
          ],
          "internalType": "struct Lib.Multihash",
          "name": "multihash",
          "type": "tuple"
        },
        {
          "internalType": "enum Lib.Status",
          "name": "status",
          "type": "uint8"
        },
        {
          "internalType": "uint256",
          "name": "timestamp",
          "type": "uint256"
        },
        {
          "internalType": "uint256",
          "name": "totalStakingAmount",
          "type": "uint256"
        },
        {
          "internalType": "uint256",
          "name": "roundId",
          "type": "uint256"
        }
      ],
      "stateMutability": "view",
      "type": "function",
      "constant": true
    },
    {
      "inputs": [
        {
          "internalType": "bytes32",
          "name": "role",
          "type": "bytes32"
        },
        {
          "internalType": "address",
          "name": "account",
          "type": "address"
        }
      ],
      "name": "renounceRole",
      "outputs": [],
      "stateMutability": "nonpayable",
      "type": "function"
    },
    {
      "inputs": [
        {
          "internalType": "bytes32",
          "name": "role",
          "type": "bytes32"
        },
        {
          "internalType": "address",
          "name": "account",
          "type": "address"
        }
      ],
      "name": "revokeRole",
      "outputs": [],
      "stateMutability": "nonpayable",
      "type": "function"
    },
    {
      "inputs": [
        {
          "internalType": "uint256",
          "name": "",
          "type": "uint256"
        }
      ],
      "name": "rounds",
      "outputs": [
        {
          "internalType": "uint256",
          "name": "onnanocoId",
          "type": "uint256"
        },
        {
          "internalType": "uint256",
          "name": "totalDefenseAmount",
          "type": "uint256"
        },
        {
          "internalType": "uint256",
          "name": "totalAttackAmount",
          "type": "uint256"
        },
        {
          "internalType": "uint256",
          "name": "timestamp",
          "type": "uint256"
        },
        {
          "internalType": "uint256",
          "name": "totalVotes",
          "type": "uint256"
        }
      ],
      "stateMutability": "view",
      "type": "function",
      "constant": true
    },
    {
      "inputs": [
        {
          "internalType": "address",
          "name": "",
          "type": "address"
        },
        {
          "internalType": "uint256",
          "name": "",
          "type": "uint256"
        }
      ],
      "name": "stakes",
      "outputs": [
        {
          "internalType": "uint256",
          "name": "id",
          "type": "uint256"
        },
        {
          "internalType": "uint256",
          "name": "amount",
          "type": "uint256"
        },
        {
          "internalType": "uint256",
          "name": "timestamp",
          "type": "uint256"
        }
      ],
      "stateMutability": "view",
      "type": "function",
      "constant": true
    },
    {
      "inputs": [
        {
          "internalType": "bytes4",
          "name": "interfaceId",
          "type": "bytes4"
        }
      ],
      "name": "supportsInterface",
      "outputs": [
        {
          "internalType": "bool",
          "name": "",
          "type": "bool"
        }
      ],
      "stateMutability": "view",
      "type": "function",
      "constant": true
    },
    {
      "inputs": [],
      "name": "symbol",
      "outputs": [
        {
          "internalType": "string",
          "name": "",
          "type": "string"
        }
      ],
      "stateMutability": "view",
      "type": "function",
      "constant": true
    },
    {
      "inputs": [],
      "name": "totalOnnanocos",
      "outputs": [
        {
          "internalType": "uint256",
          "name": "",
          "type": "uint256"
        }
      ],
      "stateMutability": "view",
      "type": "function",
      "constant": true
    },
    {
      "inputs": [],
      "name": "totalRounds",
      "outputs": [
        {
          "internalType": "uint256",
          "name": "",
          "type": "uint256"
        }
      ],
      "stateMutability": "view",
      "type": "function",
      "constant": true
    },
    {
      "inputs": [],
      "name": "totalSupply",
      "outputs": [
        {
          "internalType": "uint256",
          "name": "",
          "type": "uint256"
        }
      ],
      "stateMutability": "view",
      "type": "function",
      "constant": true
    },
    {
      "inputs": [
        {
          "internalType": "address",
          "name": "recipient",
          "type": "address"
        },
        {
          "internalType": "uint256",
          "name": "amount",
          "type": "uint256"
        }
      ],
      "name": "transfer",
      "outputs": [
        {
          "internalType": "bool",
          "name": "",
          "type": "bool"
        }
      ],
      "stateMutability": "nonpayable",
      "type": "function"
    },
    {
      "inputs": [
        {
          "internalType": "address",
          "name": "sender",
          "type": "address"
        },
        {
          "internalType": "address",
          "name": "recipient",
          "type": "address"
        },
        {
          "internalType": "uint256",
          "name": "amount",
          "type": "uint256"
        }
      ],
      "name": "transferFrom",
      "outputs": [
        {
          "internalType": "bool",
          "name": "",
          "type": "bool"
        }
      ],
      "stateMutability": "nonpayable",
      "type": "function"
    },
    {
      "inputs": [
        {
          "internalType": "string",
          "name": "name",
          "type": "string"
        },
        {
          "internalType": "bytes32",
          "name": "hash",
          "type": "bytes32"
        },
        {
          "internalType": "bytes2",
          "name": "hashFunction",
          "type": "bytes2"
        },
        {
          "internalType": "uint8",
          "name": "hashSize",
          "type": "uint8"
        },
        {
          "internalType": "uint256",
          "name": "amount",
          "type": "uint256"
        }
      ],
      "name": "add",
      "outputs": [],
      "stateMutability": "nonpayable",
      "type": "function"
    },
    {
      "inputs": [
        {
          "internalType": "uint256",
          "name": "id",
          "type": "uint256"
        }
      ],
      "name": "getMinimumAttackAmount",
      "outputs": [
        {
          "internalType": "uint256",
          "name": "amount",
          "type": "uint256"
        }
      ],
      "stateMutability": "view",
      "type": "function",
      "constant": true
    },
    {
      "inputs": [
        {
          "internalType": "uint256",
          "name": "id",
          "type": "uint256"
        },
        {
          "internalType": "uint256",
          "name": "amount",
          "type": "uint256"
        },
        {
          "internalType": "string",
          "name": "evidence",
          "type": "string"
        }
      ],
      "name": "attack",
      "outputs": [],
      "stateMutability": "nonpayable",
      "type": "function"
    },
    {
      "inputs": [
        {
          "internalType": "uint256",
          "name": "id",
          "type": "uint256"
        }
      ],
      "name": "getMinimumDefenseAmount",
      "outputs": [
        {
          "internalType": "uint256",
          "name": "amount",
          "type": "uint256"
        }
      ],
      "stateMutability": "view",
      "type": "function",
      "constant": true
    },
    {
      "inputs": [
        {
          "internalType": "uint256",
          "name": "id",
          "type": "uint256"
        },
        {
          "internalType": "uint256",
          "name": "amount",
          "type": "uint256"
        },
        {
          "internalType": "string",
          "name": "evidence",
          "type": "string"
        }
      ],
      "name": "defense",
      "outputs": [],
      "stateMutability": "nonpayable",
      "type": "function"
    },
    {
      "inputs": [
        {
          "internalType": "uint256",
          "name": "roundId",
          "type": "uint256"
        }
      ],
      "name": "clearRound",
      "outputs": [],
      "stateMutability": "nonpayable",
      "type": "function"
    },
    {
      "inputs": [
        {
          "internalType": "uint256",
          "name": "roundId",
          "type": "uint256"
        },
        {
          "internalType": "uint256",
          "name": "voteId",
          "type": "uint256"
        }
      ],
      "name": "resolveAttack",
      "outputs": [],
      "stateMutability": "nonpayable",
      "type": "function"
    },
    {
      "inputs": [
        {
          "internalType": "uint256",
          "name": "roundId",
          "type": "uint256"
        },
        {
          "internalType": "uint256",
          "name": "voteId",
          "type": "uint256"
        }
      ],
      "name": "resolveDefense",
      "outputs": [],
      "stateMutability": "nonpayable",
      "type": "function"
    },
    {
      "inputs": [
        {
          "internalType": "uint256",
          "name": "id",
          "type": "uint256"
        },
        {
          "internalType": "uint256",
          "name": "amount",
          "type": "uint256"
        }
      ],
      "name": "stake",
      "outputs": [],
      "stateMutability": "nonpayable",
      "type": "function"
    },
    {
      "inputs": [
        {
          "internalType": "uint256",
          "name": "stakeId",
          "type": "uint256"
        }
      ],
      "name": "unstake",
      "outputs": [],
      "stateMutability": "nonpayable",
      "type": "function"
    },
    {
      "inputs": [
        {
          "internalType": "address",
          "name": "staker",
          "type": "address"
        },
        {
          "internalType": "uint256",
          "name": "stakeId",
          "type": "uint256"
        }
      ],
      "name": "getStakingRewardsAmount",
      "outputs": [
        {
          "internalType": "uint256",
          "name": "amount",
          "type": "uint256"
        },
        {
          "internalType": "uint256",
          "name": "duration",
          "type": "uint256"
        }
      ],
      "stateMutability": "view",
      "type": "function",
      "constant": true
    },
    {
      "inputs": [
        {
          "internalType": "uint256",
          "name": "stakeId",
          "type": "uint256"
        }
      ],
      "name": "receiveStakingRewards",
      "outputs": [],
      "stateMutability": "nonpayable",
      "type": "function"
    },
    {
      "inputs": [
        {
          "internalType": "uint256",
          "name": "id",
          "type": "uint256"
        }
      ],
      "name": "getOwnerRewardsAmount",
      "outputs": [
        {
          "internalType": "uint256",
          "name": "amount",
          "type": "uint256"
        },
        {
          "internalType": "uint256",
          "name": "duration",
          "type": "uint256"
        }
      ],
      "stateMutability": "view",
      "type": "function",
      "constant": true
    },
    {
      "inputs": [
        {
          "internalType": "uint256",
          "name": "id",
          "type": "uint256"
        }
      ],
      "name": "receiveOwnerRewards",
      "outputs": [],
      "stateMutability": "nonpayable",
      "type": "function"
    },
    {
      "inputs": [
        {
          "internalType": "address",
          "name": "user",
          "type": "address"
        },
        {
          "internalType": "bytes",
          "name": "depositData",
          "type": "bytes"
        }
      ],
      "name": "deposit",
      "outputs": [],
      "stateMutability": "nonpayable",
      "type": "function"
    },
    {
      "inputs": [
        {
          "internalType": "uint256",
          "name": "amount",
          "type": "uint256"
        }
      ],
      "name": "withdraw",
      "outputs": [],
      "stateMutability": "nonpayable",
      "type": "function"
    },
    {
      "inputs": [
        {
          "internalType": "string",
          "name": "name",
          "type": "string"
        },
        {
          "internalType": "string",
          "name": "symbol",
          "type": "string"
        },
        {
          "internalType": "address",
          "name": "childchangeProxy",
          "type": "address"
        }
      ],
      "name": "initialize",
      "outputs": [],
      "stateMutability": "nonpayable",
      "type": "function"
    }
  ],
  "bytecode": "0x608060405234801561001057600080fd5b50614358806100206000396000f3fe608060405234801561001057600080fd5b506004361061027f5760003560e01c806381a15af41161015c578063a8b9a2f0116100ce578063d50c2c5011610087578063d50c2c501461064f578063d547741f14610662578063dd62ed3e14610675578063e2ed1bda146106ae578063f436cc05146106c1578063fd75061f146106d45761027f565b8063a8b9a2f0146105c8578063a9059cbb146105f0578063b4d0392814610603578063ca15c87314610616578063cef904c714610629578063cf2c52cb1461063c5761027f565b806391d148541161012057806391d1485414610547578063946e94c41461055a57806395d89b411461057e578063a217fddf14610586578063a3b0b5a31461058e578063a457c2d7146105b55761027f565b806381a15af4146104885780638a5682991461049b5780638a57eceb146104a45780638c65c81f146104b75780639010d07c1461051c5761027f565b80632e1a7d4d116101f55780634505a96d116101b95780634505a96d146103e5578063584b62a1146103f85780636ad6c0351461042657806370a08231146104395780637797d79f146104625780637b0472f0146104755761027f565b80632e1a7d4d1461038a5780632f2ff15d1461039d578063313ce567146103b057806336568abe146103bf57806339509351146103d25761027f565b8063111bf50b11610247578063111bf50b1461030057806318160ddd146103135780632042f1c71461031b57806323b872dd14610341578063248a9ca3146103545780632e17de78146103775761027f565b806301ffc9a71461028457806306fdde03146102ac578063077f224a146102c1578063095ea7b3146102d65780630c6cc4a3146102e9575b600080fd5b610297610292366004613cbd565b6106e7565b60405190151581526020015b60405180910390f35b6102b4610714565b6040516102a39190613ec8565b6102d46102cf366004613d68565b6107a6565b005b6102976102e4366004613c39565b6108a4565b6102f260fe5481565b6040519081526020016102a3565b6102d461030e366004613ce5565b6108bb565b60cb546102f2565b61032e610329366004613c62565b610bb3565b6040516102a39796959493929190613edb565b61029761034f366004613b80565b610cb9565b6102f2610362366004613c62565b60009081526065602052604090206001015490565b6102d4610385366004613c62565b610d63565b6102d4610398366004613c62565b61103b565b6102d46103ab366004613c7a565b611047565b604051601281526020016102a3565b6102d46103cd366004613c7a565b611073565b6102976103e0366004613c39565b6110f1565b6102d46103f3366004613dd9565b61112d565b61040b610406366004613c39565b611376565b604080519384526020840192909252908201526060016102a3565b6102f2610434366004613c62565b6113b9565b6102f2610447366004613b34565b6001600160a01b0316600090815260c9602052604090205490565b6102d4610470366004613c9c565b61152c565b6102d4610483366004613c9c565b611876565b6102d4610496366004613c62565b6119b7565b6102f260fd5481565b6102d46104b2366004613c62565b611dc8565b6104f46104c5366004613c62565b60fc60205260009081526040902080546001820154600283015460038401546004909401549293919290919085565b604080519586526020860194909452928401919091526060830152608082015260a0016102a3565b61052f61052a366004613c9c565b611e9c565b6040516001600160a01b0390911681526020016102a3565b610297610555366004613c7a565b611ebb565b61056d610568366004613c9c565b611ee6565b6040516102a39594939291906141b1565b6102b4611fcd565b6102f2600081565b6102f27f8f4f2da22e8ac8f11e15f9fc141cddbb5deea8800186560abb6e68c5496619a981565b6102976105c3366004613c39565b611fdc565b6105db6105d6366004613c62565b612075565b604080519283526020830191909152016102a3565b6102976105fe366004613c39565b6123ae565b6102f2610611366004613c62565b6123bb565b6102f2610624366004613c62565b6124ed565b6102d4610637366004613dd9565b612504565b6102d461064a366004613bbb565b6127cf565b61056d61065d366004613c9c565b61285f565b6102d4610670366004613c7a565b61287b565b6102f2610683366004613b4e565b6001600160a01b03918216600090815260ca6020908152604080832093909416825291909152205490565b6102d46106bc366004613c62565b6128a1565b6105db6106cf366004613c39565b612a0e565b6102d46106e2366004613c9c565b612bc3565b60006001600160e01b03198216635a05180f60e01b148061070c575061070c82612e93565b90505b919050565b606060cc8054610723906142a0565b80601f016020809104026020016040519081016040528092919081815260200182805461074f906142a0565b801561079c5780601f106107715761010080835404028352916020019161079c565b820191906000526020600020905b81548152906001019060200180831161077f57829003601f168201915b5050505050905090565b600054610100900460ff166107c15760005460ff16156107c5565b303b155b61082d5760405162461bcd60e51b815260206004820152602e60248201527f496e697469616c697a61626c653a20636f6e747261637420697320616c72656160448201526d191e481a5b9a5d1a585b1a5e995960921b60648201526084015b60405180910390fd5b600054610100900460ff16158015610858576000805460ff1961ff0019909116610100171660011790555b6108628484612ec8565b61088c7f8f4f2da22e8ac8f11e15f9fc141cddbb5deea8800186560abb6e68c5496619a983612f01565b801561089e576000805461ff00191690555b50505050565b60006108b1338484612f0b565b5060015b92915050565b600081116108db5760405162461bcd60e51b8152600401610824906140c1565b6108e433610447565b8111156109035760405162461bcd60e51b815260040161082490613f68565b61090e335b8261302f565b6040518060e001604052808681526020016109263390565b6001600160a01b03168152604080516060810182528781526001600160f01b0319871660208281019190915260ff87168284015283015201600081526020014281526020016000815260200160fd5481525060fb600060fe54815260200190815260200160002060008201518160000190805190602001906109a99291906139fd565b50602082810151600180840180546001600160a01b039093166001600160a01b031990931692909217909155604080850151805160028087019190915593810151600386018054929093015160ff16620100000262ff00001960f09290921c61ffff19909316929092171617905560608401516004840180549193909260ff1990921691908490811115610a4d57634e487b7160e01b600052602160045260246000fd5b021790555060808281015160058381019190915560a080850151600685015560c09094015160079093019290925560408051808501825260fe805482526020808301888152600084860181815260608087018381526001888b0181815260fd8054875260fc89528b87209a518b5596518a83015593516002808b019190915591516003808b019190915593516004998a01559454845260ff865288842089519c8d018a5296548c52338c87019081528c8a018e815242938e019384528a51808901909b52858b529a8d01998a5287548087018955978552938690208c5197909b02909a01958655915192850180546001600160a01b0319166001600160a01b039094169390931790925595519683019690965593519481019490945590518051610b7f939285019291909101906139fd565b505060fe805491506000610b92836142db565b909155505060fd8054906000610ba7836142db565b91905055505050505050565b60fb60205260009081526040902080548190610bce906142a0565b80601f0160208091040260200160405190810160405280929190818152602001828054610bfa906142a0565b8015610c475780601f10610c1c57610100808354040283529160200191610c47565b820191906000526020600020905b815481529060010190602001808311610c2a57829003601f168201915b5050505060018301546040805160608101825260028601548152600386015460f081901b6001600160f01b031916602083015262010000900460ff9081169282019290925260048601546005870154600688015460079098015496976001600160a01b03909516969295509216929087565b6000610cc684848461317d565b6001600160a01b038416600090815260ca6020908152604080832033845290915290205482811015610d4b5760405162461bcd60e51b815260206004820152602860248201527f45524332303a207472616e7366657220616d6f756e74206578636565647320616044820152676c6c6f77616e636560c01b6064820152608401610824565b610d588533858403612f0b565b506001949350505050565b600080610d71335b84612a0e565b9150915060006101016000610d833390565b6001600160a01b03166001600160a01b031681526020019081526020016000208481548110610dc257634e487b7160e01b600052603260045260246000fd5b60009182526020918290206040805160608101825260039093029091018054835260018082015494840194909452600201549082015291508151600090815260fb602052604090206004015460ff166002811115610e3057634e487b7160e01b600052602160045260246000fd5b1415610e7e5760405162461bcd60e51b815260206004820152601f60248201527f4d4f453a20726f756e6420697320696e206469737075746520737461747573006044820152606401610824565b6283d6008211610ea05760405162461bcd60e51b815260040161082490613f95565b610eb933848360200151610eb491906141ef565b61334b565b806020015160fb6000836000015181526020019081526020016000206006016000828254610ee79190614246565b909155508490505b3360009081526101016020526040902054610f0c90600190614246565b8110156110345733600090815261010160205260409020610f2e8260016141ef565b81548110610f4c57634e487b7160e01b600052603260045260246000fd5b90600052602060002090600302016101016000610f663390565b6001600160a01b03166001600160a01b031681526020019081526020016000208281548110610fa557634e487b7160e01b600052603260045260246000fd5b6000918252602080832084546003939093020191825560018085015490830155600293840154939091019290925533815261010190915260409020805480610ffd57634e487b7160e01b600052603160045260246000fd5b600082815260208120600360001990930192830201818155600181018290556002015590558061102c816142db565b915050610eef565b5050505050565b61104433610908565b50565b60008281526065602052604090206001015461106481335b61342b565b61106e838361348f565b505050565b6001600160a01b03811633146110e35760405162461bcd60e51b815260206004820152602f60248201527f416363657373436f6e74726f6c3a2063616e206f6e6c792072656e6f756e636560448201526e103937b632b9903337b91039b2b63360891b6064820152608401610824565b6110ed82826134b1565b5050565b33600081815260ca602090815260408083206001600160a01b038716845290915281205490916108b19185906111289086906141ef565b612f0b565b6000821161114d5760405162461bcd60e51b8152600401610824906140c1565b61115633610447565b8211156111755760405162461bcd60e51b815260040161082490613f68565b600083815260fb602090815260408083206007015480845260fc8352818420825160a08101845281548152600182015494810194909452600281015492840192909252600382015460608401526004909101546080830152916111d7866123bb565b9050808510156112295760405162461bcd60e51b815260206004820152601d60248201527f4d4f453a206c657373207468616e206d696e696d756d20616d6f756e740000006044820152606401610824565b600082606001514261123b9190614246565b905062093a80811061125f5760405162461bcd60e51b81526004016108249061408a565b611269338761302f565b60ff60008581526020019081526020016000206040518060a001604052808981526020016112943390565b6001600160a01b03908116825260208083018b90524260408085019190915260609384018b905285546001808201885560009788529683902086516005909202019081558583015196810180546001600160a01b03191697909416969096179092559083015160028501559082015160038401556080820151805192939261132292600485019201906139fd565b505050600084815260fc6020526040812060010180548892906113469084906141ef565b9091555050600084815260fc60205260408120600401805491611368836142db565b919050555050505050505050565b610101602052816000526040600020818154811061139357600080fd5b600091825260209091206003909102018054600182015460029092015490935090915083565b600060fe5482106113dc5760405162461bcd60e51b815260040161082490614011565b6002600083815260fb602052604090206004015460ff16600281111561141257634e487b7160e01b600052602160045260246000fd5b14156114575760405162461bcd60e51b81526020600482015260146024820152734d4f453a2064657072656361746564206461746160601b6044820152606401610824565b600082815260fb602090815260408083206007015480845260fc835292819020815160a081018352815481526001820154938101939093526002810154918301829052600380820154606085015260049091015460808401526114ba9190614227565b816040015182602001516114ce91906141ef565b6114d9906002614227565b11156115215760408101516114ef906003614227565b8160400151826020015161150391906141ef565b61150e906002614227565b6115189190614246565b9250505061070f565b60009250505061070f565b60fd54821061154d5760405162461bcd60e51b81526004016108249061412f565b600082815260ff602052604090205481106115aa5760405162461bcd60e51b815260206004820152601e60248201527f4d4f453a206e6f20646566656e7365206461746120617661696c61626c6500006044820152606401610824565b600082815260ff602052604081208054839081106115d857634e487b7160e01b600052603260045260246000fd5b90600052602060002090600502016040518060a0016040529081600082015481526020016001820160009054906101000a90046001600160a01b03166001600160a01b03166001600160a01b03168152602001600282015481526020016003820154815260200160048201805461164e906142a0565b80601f016020809104026020016040519081016040528092919081815260200182805461167a906142a0565b80156116c75780601f1061169c576101008083540402835291602001916116c7565b820191906000526020600020905b8154815290600101906020018083116116aa57829003601f168201915b505050505081525050905080602001516001600160a01b03166116e73390565b6001600160a01b03161461170d5760405162461bcd60e51b815260040161082490613fe5565b600083815260fc60209081526040808320815160a0810183528154815260018201549381019390935260028101549183019190915260038101546060830181905260049091015460808301529091906117669042614246565b905062093a80811161178a5760405162461bcd60e51b8152600401610824906140f8565b6000826020015183604001516117a091906141ef565b905082602001518360400151101561180b5784156117df576117da33602085015160408701516117d09085614227565b610eb49190614207565b61180b565b61180b33604086015160208601516117f78286614227565b6118019190614207565b610eb49190614246565b600086815260ff6020526040812080548790811061183957634e487b7160e01b600052603260045260246000fd5b906000526020600020906005020160010160006101000a8154816001600160a01b0302191690836001600160a01b03160217905550505050505050565b600081116118965760405162461bcd60e51b8152600401610824906140c1565b61189f33610447565b8111156118be5760405162461bcd60e51b815260040161082490613f68565b60fe5482106118df5760405162461bcd60e51b815260040161082490614011565b600082815260fb602052604081206004015460ff16600281111561191357634e487b7160e01b600052602160045260246000fd5b146119305760405162461bcd60e51b815260040161082490614048565b61193933610908565b3360009081526101016020908152604080832081516060810183528681528084018681524282850190815283546001808201865594885286882093516003909102909301928355905192820192909255905160029091015584835260fb909152812060060180548392906119ae9084906141ef565b90915550505050565b60fd5481106119d85760405162461bcd60e51b81526004016108249061412f565b600081815260fc60209081526040808320815160a081018352815480825260018084015483870152600284015483860152600384015460608401526004909301546080830152855260fb90935292209091600482015460ff166002811115611a5057634e487b7160e01b600052602160045260246000fd5b14611a6d5760405162461bcd60e51b81526004016108249061408a565b6000826060015142611a7f9190614246565b905062093a808111611aa35760405162461bcd60e51b8152600401610824906140f8565b826020015183604001511115611ae757611ad33360648560400151611ac89190614207565b610eb4906001614227565b60048201805460ff1916600217905561089e565b82602001518360400151101561089e57611b0c3360648560200151611ac89190614207565b60048201805460ff19169055600084815260ff6020526040812080548290611b4457634e487b7160e01b600052603260045260246000fd5b90600052602060002090600502016040518060a0016040529081600082015481526020016001820160009054906101000a90046001600160a01b03166001600160a01b03166001600160a01b031681526020016002820154815260200160038201548152602001600482018054611bba906142a0565b80601f0160208091040260200160405190810160405280929190818152602001828054611be6906142a0565b8015611c335780601f10611c0857610100808354040283529160200191611c33565b820191906000526020600020905b815481529060010190602001808311611c1657829003601f168201915b50505050508152505090506040518060a0016040528085600001518152602001826040015181526020016000815260200160008152602001600181525060fc600060fd548152602001908152602001600020600082015181600001556020820151816001015560408201518160020155606082015181600301556080820151816004015590505060fd54836007018190555060ff600060fd5481526020019081526020016000206040518060a001604052808660000151815260200183602001516001600160a01b03168152602001836040015181526020014281526020016040518060200160405280600081525081525090806001815401808255809150506001900390600052602060002090600502016000909190919091506000820151816000015560208201518160010160006101000a8154816001600160a01b0302191690836001600160a01b0316021790555060408201518160020155606082015181600301556080820151816004019080519060200190611db59291906139fd565b505060fd805491506000610ba7836142db565b600080611dd433610d6b565b9150915060008211611e285760405162461bcd60e51b815260206004820152601f60248201527f4d4f453a20726577617264206d7573742067726561746572207468616e2030006044820152606401610824565b6283d6008111611e4a5760405162461bcd60e51b815260040161082490613f95565b33600090815261010160205260409020805442919085908110611e7d57634e487b7160e01b600052603260045260246000fd5b600091825260209091206002600390920201015561106e335b8361334b565b6000828152609760205260408120611eb490836134d3565b9392505050565b60009182526065602090815260408084206001600160a01b0393909316845291905290205460ff1690565b6101006020528160005260406000208181548110611f0357600080fd5b6000918252602090912060059091020180546001820154600283015460038401546004850180549497506001600160a01b03909316955090939092909190611f4a906142a0565b80601f0160208091040260200160405190810160405280929190818152602001828054611f76906142a0565b8015611fc35780601f10611f9857610100808354040283529160200191611fc3565b820191906000526020600020905b815481529060010190602001808311611fa657829003601f168201915b5050505050905085565b606060cd8054610723906142a0565b33600090815260ca602090815260408083206001600160a01b03861684529091528120548281101561205e5760405162461bcd60e51b815260206004820152602560248201527f45524332303a2064656372656173656420616c6c6f77616e63652062656c6f77604482015264207a65726f60d81b6064820152608401610824565b61206b3385858403612f0b565b5060019392505050565b60008060fe5483106120995760405162461bcd60e51b815260040161082490614011565b600083815260fb6020526040808220815160e081019092528054829082906120c0906142a0565b80601f01602080910402602001604051908101604052809291908181526020018280546120ec906142a0565b80156121395780601f1061210e57610100808354040283529160200191612139565b820191906000526020600020905b81548152906001019060200180831161211c57829003601f168201915b505050918352505060018201546001600160a01b031660208083019190915260408051606080820183526002808701548352600387015460f081901b6001600160f01b031916958401959095526201000090940460ff9081168385015292850191909152600485015493019216908111156121c457634e487b7160e01b600052602160045260246000fd5b60028111156121e357634e487b7160e01b600052602160045260246000fd5b81526005820154602082015260068201546040820152600790910154606090910152905060008160600151600281111561222d57634e487b7160e01b600052602160045260246000fd5b1461224a5760405162461bcd60e51b815260040161082490614048565b60c0810151600090815260ff602052604081208054829061227b57634e487b7160e01b600052603260045260246000fd5b90600052602060002090600502016040518060a0016040529081600082015481526020016001820160009054906101000a90046001600160a01b03166001600160a01b03166001600160a01b0316815260200160028201548152602001600382015481526020016004820180546122f1906142a0565b80601f016020809104026020016040519081016040528092919081815260200182805461231d906142a0565b801561236a5780601f1061233f5761010080835404028352916020019161236a565b820191906000526020600020905b81548152906001019060200180831161234d57829003601f168201915b50505050508152505090508060600151426123859190614246565b92506241eb0083826040015161239b9190614227565b6123a59190614207565b93505050915091565b60006108b133848461317d565b600060fe5482106123de5760405162461bcd60e51b815260040161082490614011565b6001600083815260fb602052604090206004015460ff16600281111561241457634e487b7160e01b600052602160045260246000fd5b146124315760405162461bcd60e51b81526004016108249061408a565b600082815260fb602090815260408083206007015480845260fc835292819020815160a0810183528154815260018201549381019390935260028101549183019190915260038101546060830181905260049091015460808301526124a85760405162461bcd60e51b81526004016108249061412f565b60208101516124b8906003614227565b816040015182602001516124cc91906141ef565b6124d7906002614227565b11156115215760208101516114ef906003614227565b600081815260976020526040812061070c906134df565b600082116125245760405162461bcd60e51b8152600401610824906140c1565b61252d33610447565b82111561254c5760405162461bcd60e51b815260040161082490613f68565b6000612557846113b9565b9050808310156125a95760405162461bcd60e51b815260206004820152601d60248201527f4d4f453a206c657373207468616e206d696e696d756d20616d6f756e740000006044820152606401610824565b600084815260fb60205260408120600781015460049091015490919060ff1660028111156125e757634e487b7160e01b600052602160045260246000fd5b141561262257600085815260fb60209081526040808320600401805460ff1916600117905583835260fc9091529020426003909101556126c5565b600081815260fc6020908152604091829020825160a0810184528154815260018201549281019290925260028101549282019290925260038201546060820181905260049092015460808201529061268c5760405162461bcd60e51b81526004016108249061412f565b600081606001514261269e9190614246565b905062093a8081106126c25760405162461bcd60e51b81526004016108249061408a565b50505b6126cf338561302f565b61010060008281526020019081526020016000206040518060a001604052808781526020016126fb3390565b6001600160a01b039081168252602080830189905242604080850191909152606093840189905285546001808201885560009788529683902086516005909202019081558583015196810180546001600160a01b03191697909416969096179092559083015160028501559082015160038401556080820151805192939261278992600485019201906139fd565b505050600081815260fc6020526040812060020180548692906127ad9084906141ef565b9091555050600081815260fc60205260408120600401805491610ba7836142db565b6127f97f8f4f2da22e8ac8f11e15f9fc141cddbb5deea8800186560abb6e68c5496619a933610555565b6128455760405162461bcd60e51b815260206004820152601d60248201527f596f75277265206e6f7420616c6c6f77656420746f206465706f7369740000006044820152606401610824565b600061285382840184613c62565b905061089e848261334b565b60ff6020528160005260406000208181548110611f0357600080fd5b600082815260656020526040902060010154612897813361105f565b61106e83836134b1565b6000806128ad83612075565b915091506128b83390565b600084815260fb60205260409020600101546001600160a01b039081169116146128f45760405162461bcd60e51b815260040161082490613fe5565b6241eb00811161295e5760405162461bcd60e51b815260206004820152602f60248201527f4d4f453a20726571756573742063616e206265206d616465206166746572206160448201526e74206c65617374203530206461797360881b6064820152608401610824565b600082116129ae5760405162461bcd60e51b815260206004820152601f60248201527f4d4f453a20726577617264206d7573742067726561746572207468616e2030006044820152606401610824565b6129b733611e96565b600083815260fb6020908152604080832060070154835260ff909152812080544292906129f457634e487b7160e01b600052603260045260246000fd5b906000526020600020906005020160030181905550505050565b33600090815261010160205260408120548190612a6d5760405162461bcd60e51b815260206004820152601e60248201527f4d4f453a206e6f207374616b696e67206461746120617661696c61626c6500006044820152606401610824565b33600090815261010160205260409020548310612acc5760405162461bcd60e51b815260206004820152601e60248201527f4d4f453a206e6f207374616b696e67206461746120617661696c61626c6500006044820152606401610824565b6001600160a01b038416600090815261010160205260408120805485908110612b0557634e487b7160e01b600052603260045260246000fd5b6000918252602080832060408051606081018252600394909402909101805480855260018201548585015260029182015485840152855260fb90925283206004015491935060ff90911690811115612b6d57634e487b7160e01b600052602160045260246000fd5b14612b8a5760405162461bcd60e51b815260040161082490614048565b6040810151612b999042614246565b91506283d600828260200151612baf9190614227565b612bb99190614207565b9250509250929050565b60fd548210612be45760405162461bcd60e51b81526004016108249061412f565b600082815261010060205260409020548110612c425760405162461bcd60e51b815260206004820152601d60248201527f4d4f453a206e6f2061747461636b206461746120617661696c61626c650000006044820152606401610824565b600082815261010060205260408120805483908110612c7157634e487b7160e01b600052603260045260246000fd5b90600052602060002090600502016040518060a0016040529081600082015481526020016001820160009054906101000a90046001600160a01b03166001600160a01b03166001600160a01b031681526020016002820154815260200160038201548152602001600482018054612ce7906142a0565b80601f0160208091040260200160405190810160405280929190818152602001828054612d13906142a0565b8015612d605780601f10612d3557610100808354040283529160200191612d60565b820191906000526020600020905b815481529060010190602001808311612d4357829003601f168201915b505050505081525050905080602001516001600160a01b0316612d803390565b6001600160a01b031614612da65760405162461bcd60e51b815260040161082490613fe5565b600083815260fc60209081526040808320815160a081018352815481526001820154938101939093526002810154918301919091526003810154606083018190526004909101546080830152909190612dff9042614246565b905062093a808111612e235760405162461bcd60e51b8152600401610824906140f8565b600082602001518360400151612e3991906141ef565b9050826020015183604001511115612e6457612e643384604001518660400151846117d09190614227565b60008681526101006020526040812080548790811061183957634e487b7160e01b600052603260045260246000fd5b60006001600160e01b03198216637965db0b60e01b148061070c57506301ffc9a760e01b6001600160e01b031983161461070c565b600054610100900460ff16612eef5760405162461bcd60e51b815260040161082490614166565b612ef76134e9565b6110ed8282613512565b6110ed828261348f565b6001600160a01b038316612f6d5760405162461bcd60e51b8152602060048201526024808201527f45524332303a20617070726f76652066726f6d20746865207a65726f206164646044820152637265737360e01b6064820152608401610824565b6001600160a01b038216612fce5760405162461bcd60e51b815260206004820152602260248201527f45524332303a20617070726f766520746f20746865207a65726f206164647265604482015261737360f01b6064820152608401610824565b6001600160a01b03838116600081815260ca602090815260408083209487168084529482529182902085905590518481527f8c5be1e5ebec7d5bd14f71427d1e84f3dd0314c0f7b2291e5b200ac8c7c3b925910160405180910390a3505050565b6001600160a01b03821661308f5760405162461bcd60e51b815260206004820152602160248201527f45524332303a206275726e2066726f6d20746865207a65726f206164647265736044820152607360f81b6064820152608401610824565b6001600160a01b038216600090815260c96020526040902054818110156131035760405162461bcd60e51b815260206004820152602260248201527f45524332303a206275726e20616d6f756e7420657863656564732062616c616e604482015261636560f01b6064820152608401610824565b6001600160a01b038316600090815260c960205260408120838303905560cb8054849290613132908490614246565b90915550506040518281526000906001600160a01b038516907fddf252ad1be2c89b69c2b068fc378daa952ba7f163c4a11628f55a4df523b3ef9060200160405180910390a361106e565b6001600160a01b0383166131e15760405162461bcd60e51b815260206004820152602560248201527f45524332303a207472616e736665722066726f6d20746865207a65726f206164604482015264647265737360d81b6064820152608401610824565b6001600160a01b0382166132435760405162461bcd60e51b815260206004820152602360248201527f45524332303a207472616e7366657220746f20746865207a65726f206164647260448201526265737360e81b6064820152608401610824565b6001600160a01b038316600090815260c96020526040902054818110156132bb5760405162461bcd60e51b815260206004820152602660248201527f45524332303a207472616e7366657220616d6f756e7420657863656564732062604482015265616c616e636560d01b6064820152608401610824565b6001600160a01b03808516600090815260c960205260408082208585039055918516815290812080548492906132f29084906141ef565b92505081905550826001600160a01b0316846001600160a01b03167fddf252ad1be2c89b69c2b068fc378daa952ba7f163c4a11628f55a4df523b3ef8460405161333e91815260200190565b60405180910390a361089e565b6001600160a01b0382166133a15760405162461bcd60e51b815260206004820152601f60248201527f45524332303a206d696e7420746f20746865207a65726f2061646472657373006044820152606401610824565b8060cb60008282546133b391906141ef565b90915550506001600160a01b038216600090815260c96020526040812080548392906133e09084906141ef565b90915550506040518181526001600160a01b038316906000907fddf252ad1be2c89b69c2b068fc378daa952ba7f163c4a11628f55a4df523b3ef9060200160405180910390a36110ed565b6134358282611ebb565b6110ed5761344d816001600160a01b03166014613560565b613458836020613560565b604051602001613469929190613e53565b60408051601f198184030181529082905262461bcd60e51b825261082491600401613ec8565b6134998282613742565b600082815260976020526040902061106e90826137c8565b6134bb82826137dd565b600082815260976020526040902061106e9082613844565b6000611eb48383613859565b600061070c825490565b600054610100900460ff166135105760405162461bcd60e51b815260040161082490614166565b565b600054610100900460ff166135395760405162461bcd60e51b815260040161082490614166565b815161354c9060cc9060208501906139fd565b50805161106e9060cd9060208401906139fd565b6060600061356f836002614227565b61357a9060026141ef565b67ffffffffffffffff8111156135a057634e487b7160e01b600052604160045260246000fd5b6040519080825280601f01601f1916602001820160405280156135ca576020820181803683370190505b509050600360fc1b816000815181106135f357634e487b7160e01b600052603260045260246000fd5b60200101906001600160f81b031916908160001a905350600f60fb1b8160018151811061363057634e487b7160e01b600052603260045260246000fd5b60200101906001600160f81b031916908160001a9053506000613654846002614227565b61365f9060016141ef565b90505b60018111156136f3576f181899199a1a9b1b9c1cb0b131b232b360811b85600f16601081106136a157634e487b7160e01b600052603260045260246000fd5b1a60f81b8282815181106136c557634e487b7160e01b600052603260045260246000fd5b60200101906001600160f81b031916908160001a90535060049490941c936136ec81614289565b9050613662565b508315611eb45760405162461bcd60e51b815260206004820181905260248201527f537472696e67733a20686578206c656e67746820696e73756666696369656e746044820152606401610824565b61374c8282611ebb565b6110ed5760008281526065602090815260408083206001600160a01b03851684529091529020805460ff191660011790556137843390565b6001600160a01b0316816001600160a01b0316837f2f8788117e7eff1d82e926ec794901d17c78024a50270940304540a733656f0d60405160405180910390a45050565b6000611eb4836001600160a01b038416613891565b6137e78282611ebb565b156110ed5760008281526065602090815260408083206001600160a01b0385168085529252808320805460ff1916905551339285917ff6391f5c32d9c69d2a47ea670b442974b53935d1edc7fd64eb21e047a839171b9190a45050565b6000611eb4836001600160a01b0384166138e0565b600082600001828154811061387e57634e487b7160e01b600052603260045260246000fd5b9060005260206000200154905092915050565b60008181526001830160205260408120546138d8575081546001818101845560008481526020808220909301849055845484825282860190935260409020919091556108b5565b5060006108b5565b600081815260018301602052604081205480156139f3576000613904600183614246565b855490915060009061391890600190614246565b905081811461399957600086600001828154811061394657634e487b7160e01b600052603260045260246000fd5b906000526020600020015490508087600001848154811061397757634e487b7160e01b600052603260045260246000fd5b6000918252602080832090910192909255918252600188019052604090208390555b85548690806139b857634e487b7160e01b600052603160045260246000fd5b6001900381819060005260206000200160009055905585600101600086815260200190815260200160002060009055600193505050506108b5565b60009150506108b5565b828054613a09906142a0565b90600052602060002090601f016020900481019282613a2b5760008555613a71565b82601f10613a4457805160ff1916838001178555613a71565b82800160010185558215613a71579182015b82811115613a71578251825591602001919060010190613a56565b50613a7d929150613a81565b5090565b5b80821115613a7d5760008155600101613a82565b80356001600160a01b038116811461070f57600080fd5b600082601f830112613abd578081fd5b813567ffffffffffffffff80821115613ad857613ad861430c565b604051601f8301601f19908116603f01168101908282118183101715613b0057613b0061430c565b81604052838152866020858801011115613b18578485fd5b8360208701602083013792830160200193909352509392505050565b600060208284031215613b45578081fd5b611eb482613a96565b60008060408385031215613b60578081fd5b613b6983613a96565b9150613b7760208401613a96565b90509250929050565b600080600060608486031215613b94578081fd5b613b9d84613a96565b9250613bab60208501613a96565b9150604084013590509250925092565b600080600060408486031215613bcf578283fd5b613bd884613a96565b9250602084013567ffffffffffffffff80821115613bf4578384fd5b818601915086601f830112613c07578384fd5b813581811115613c15578485fd5b876020828501011115613c26578485fd5b6020830194508093505050509250925092565b60008060408385031215613c4b578182fd5b613c5483613a96565b946020939093013593505050565b600060208284031215613c73578081fd5b5035919050565b60008060408385031215613c8c578182fd5b82359150613b7760208401613a96565b60008060408385031215613cae578182fd5b50508035926020909101359150565b600060208284031215613cce578081fd5b81356001600160e01b031981168114611eb4578182fd5b600080600080600060a08688031215613cfc578081fd5b853567ffffffffffffffff811115613d12578182fd5b613d1e88828901613aad565b9550506020860135935060408601356001600160f01b031981168114613d42578182fd5b9250606086013560ff81168114613d57578182fd5b949793965091946080013592915050565b600080600060608486031215613d7c578283fd5b833567ffffffffffffffff80821115613d93578485fd5b613d9f87838801613aad565b94506020860135915080821115613db4578384fd5b50613dc186828701613aad565b925050613dd060408501613a96565b90509250925092565b600080600060608486031215613ded578081fd5b8335925060208401359150604084013567ffffffffffffffff811115613e11578182fd5b613e1d86828701613aad565b9150509250925092565b60008151808452613e3f81602086016020860161425d565b601f01601f19169290920160200192915050565b60007f416363657373436f6e74726f6c3a206163636f756e742000000000000000000082528351613e8b81601785016020880161425d565b7001034b99036b4b9b9b4b733903937b6329607d1b6017918401918201528351613ebc81602884016020880161425d565b01602801949350505050565b600060208252611eb46020830184613e27565b6000610120808352613eef8184018b613e27565b91505060018060a01b03881660208301528651604083015261ffff60f01b602088015116606083015260ff604088015116608083015260038610613f4357634e487b7160e01b600052602160045260246000fd5b8560a08301528460c08301528360e08301528261010083015298975050505050505050565b6020808252601390820152724d4f453a206e6f7420656e6f756768204d4f4560681b604082015260600190565b60208082526030908201527f4d4f453a20726571756573742063616e206265206d616465206166746572206160408201526f74206c6561737420313030206461797360801b606082015260800190565b6020808252601290820152711353d14e881858d8d95cdcc819195b9a595960721b604082015260600190565b6020808252601f908201527f4d4f453a206e6f206f6e6e616e6f636f206461746120617661696c61626c6500604082015260600190565b60208082526022908201527f4d4f453a20726f756e64206973206e6f7420696e206e6f726d616c2073746174604082015261757360f01b606082015260800190565b6020808252601c908201527f4d4f453a20726f756e64206973206e6f7420696e206469737075746500000000604082015260600190565b60208082526017908201527f4d4f453a20616d6f756e742063616e6e6f742062652030000000000000000000604082015260600190565b6020808252601f908201527f4d4f453a20646973707574652077696e646f77206973206e6f74206f76657200604082015260600190565b6020808252601c908201527f4d4f453a206e6f20726f756e64206461746120617661696c61626c6500000000604082015260600190565b6020808252602b908201527f496e697469616c697a61626c653a20636f6e7472616374206973206e6f74206960408201526a6e697469616c697a696e6760a81b606082015260800190565b600086825260018060a01b038616602083015284604083015283606083015260a060808301526141e460a0830184613e27565b979650505050505050565b60008219821115614202576142026142f6565b500190565b60008261422257634e487b7160e01b81526012600452602481fd5b500490565b6000816000190483118215151615614241576142416142f6565b500290565b600082821015614258576142586142f6565b500390565b60005b83811015614278578181015183820152602001614260565b8381111561089e5750506000910152565b600081614298576142986142f6565b506000190190565b6002810460018216806142b457607f821691505b602082108114156142d557634e487b7160e01b600052602260045260246000fd5b50919050565b60006000198214156142ef576142ef6142f6565b5060010190565b634e487b7160e01b600052601160045260246000fd5b634e487b7160e01b600052604160045260246000fdfea2646970667358221220fc53ad716f31633302833cf789fef172f56491d4ecb31e962d324f01bb54f20164736f6c63430008020033",
  "immutableReferences": {},
  "source": "// SPDX-License-Identifier: MIT\npragma solidity ^0.8.2;\n\nimport \"./Library.sol\";\nimport \"./IMOEToken.sol\";\nimport \"@openzeppelin/contracts-upgradeable/token/ERC20/ERC20Upgradeable.sol\";\nimport \"@openzeppelin/contracts-upgradeable/access/AccessControlEnumerableUpgradeable.sol\";\nimport \"@openzeppelin/contracts-upgradeable/utils/ContextUpgradeable.sol\";\n\ncontract MOEToken is ContextUpgradeable, AccessControlEnumerableUpgradeable, IMOEToken, ERC20Upgradeable {\n\n    bytes32 public constant DEPOSITOR_ROLE = keccak256(\"DEPOSITOR_ROLE\");\n\n    mapping(uint256 => Lib.Onnanoco) public onnanocos;\n    mapping(uint256 => Lib.Round) public rounds;\n\n    uint256 public totalRounds;\n    uint256 public totalOnnanocos;\n\n    mapping(uint256 => Lib.Vote[]) public defenseVotes;\n    mapping(uint256 => Lib.Vote[]) public attackVotes;\n    mapping(address => Lib.Stake[]) public stakes;\n\n    function add(string memory name, bytes32 hash, bytes2 hashFunction, uint8 hashSize, uint256 amount) public {\n        \n        require(amount > 0, 'MOE: amount cannot be 0');\n        require(amount <= balanceOf(_msgSender()), 'MOE: not enough MOE');\n\n        _burn(_msgSender(), amount);\n\n        onnanocos[totalOnnanocos] = Lib.Onnanoco(name, _msgSender(), Lib.Multihash(hash, hashFunction, hashSize), Lib.Status.NORMAL, block.timestamp, 0, totalRounds);\n\n        rounds[totalRounds] = Lib.Round(totalOnnanocos, amount, 0, 0, 1);\n\n        defenseVotes[totalRounds].push(Lib.Vote(totalOnnanocos, _msgSender(), amount, block.timestamp, ''));\n\n        totalOnnanocos++;\n        totalRounds++;\n    }\n\n    function getMinimumAttackAmount(uint256 id) public view returns (uint256 amount) {\n\n        require(id < totalOnnanocos, 'MOE: no onnanoco data available');\n        require(onnanocos[id].status != Lib.Status.DEPRECATED, 'MOE: deprecated data');\n\n        uint256 roundId = onnanocos[id].roundId;\n        Lib.Round memory roundInfo = rounds[roundId];\n\n        if (((roundInfo.totalDefenseAmount + roundInfo.totalAttackAmount) * 2) > (roundInfo.totalAttackAmount * 3)) {\n            return ((roundInfo.totalDefenseAmount + roundInfo.totalAttackAmount) * 2) - (roundInfo.totalAttackAmount * 3);\n        } else {\n            return 0;\n        }\n    }\n\n    function attack(uint256 id, uint256 amount, string memory evidence) public {\n\n        require(amount > 0, 'MOE: amount cannot be 0');\n        require(amount <= balanceOf(_msgSender()), 'MOE: not enough MOE');\n        \n        uint256 minimumAmount = getMinimumAttackAmount(id);\n        require(amount >= minimumAmount, 'MOE: less than minimum amount');\n\n        uint256 roundId = onnanocos[id].roundId;\n        \n        if (onnanocos[id].status == Lib.Status.NORMAL) {\n\n            onnanocos[id].status = Lib.Status.IN_DISPUTE;\n            rounds[roundId].timestamp = block.timestamp;\n\n        } else {\n            \n            Lib.Round memory roundInfo = rounds[roundId];\n            require(roundInfo.timestamp > 0, 'MOE: no round data available');\n\n            uint256 duration = block.timestamp - roundInfo.timestamp;\n            require(duration < 60 * 60 * 24 * 7, 'MOE: round is not in dispute');\n        }\n\n        _burn(_msgSender(), amount);\n        attackVotes[roundId].push(Lib.Vote(id, _msgSender(), amount, block.timestamp, evidence));\n\n        rounds[roundId].totalAttackAmount += amount;\n        rounds[roundId].totalVotes++;\n    }\n\n    function getMinimumDefenseAmount(uint256 id) public view returns (uint256 amount) {\n\n        require (id < totalOnnanocos, 'MOE: no onnanoco data available');\n        require (onnanocos[id].status == Lib.Status.IN_DISPUTE, 'MOE: round is not in dispute');\n\n        uint256 roundId = onnanocos[id].roundId;\n        Lib.Round memory roundInfo = rounds[roundId];\n        require(roundInfo.timestamp > 0, 'MOE: no round data available');\n\n        if (((roundInfo.totalDefenseAmount + roundInfo.totalAttackAmount) * 2) > (roundInfo.totalDefenseAmount * 3)) {\n            return ((roundInfo.totalDefenseAmount + roundInfo.totalAttackAmount) * 2) - (roundInfo.totalDefenseAmount * 3);\n        } else {\n            return 0;\n        }\n    }\n\n    function defense(uint256 id, uint256 amount, string memory evidence) public {\n\n        require(amount > 0, 'MOE: amount cannot be 0');\n        require(amount <= balanceOf(_msgSender()), 'MOE: not enough MOE');\n\n        uint256 roundId = onnanocos[id].roundId;\n        Lib.Round memory roundInfo = rounds[roundId];\n\n        uint256 minimumAmount = getMinimumDefenseAmount(id);\n        require(amount >= minimumAmount, 'MOE: less than minimum amount');\n\n        uint256 duration = block.timestamp - roundInfo.timestamp;\n        require(duration < 60 * 60 * 24 * 7, 'MOE: round is not in dispute');\n\n        _burn(_msgSender(), amount);\n        defenseVotes[roundId].push(Lib.Vote(id, _msgSender(), amount, block.timestamp, evidence));\n\n        rounds[roundId].totalDefenseAmount += amount;\n        rounds[roundId].totalVotes++;\n    }\n\n    function clearRound(uint256 roundId) public {\n        \n        require(roundId < totalRounds, 'MOE: no round data available');\n\n        Lib.Round memory roundInfo = rounds[roundId];\n        Lib.Onnanoco storage onnanoco = onnanocos[roundInfo.onnanocoId];\n        require(onnanoco.status == Lib.Status.IN_DISPUTE, 'MOE: round is not in dispute');\n\n        uint256 duration = block.timestamp - roundInfo.timestamp;\n        require(duration > 60 * 60 * 24 * 7, 'MOE: dispute window is not over');\n\n        if (roundInfo.totalAttackAmount > roundInfo.totalDefenseAmount) { // Attackers win\n            _mint(_msgSender(), roundInfo.totalAttackAmount / 100 * 1);\n            onnanoco.status = Lib.Status.DEPRECATED;\n\n        } else if(roundInfo.totalAttackAmount < roundInfo.totalDefenseAmount) { // Attackers lose\n            _mint(_msgSender(), roundInfo.totalDefenseAmount / 100 * 1);\n            onnanoco.status = Lib.Status.NORMAL;\n\n            Lib.Vote memory vote = defenseVotes[roundId][0];\n\n            rounds[totalRounds] = Lib.Round(roundInfo.onnanocoId, vote.amount, 0, 0, 1);\n            onnanoco.roundId = totalRounds;\n\n            defenseVotes[totalRounds].push(Lib.Vote(roundInfo.onnanocoId, vote.voter, vote.amount, block.timestamp, ''));\n\n            totalRounds++;\n        }\n    }\n\n    function resolveAttack(uint256 roundId, uint256 voteId) public {\n\n        require(roundId < totalRounds, 'MOE: no round data available');\n        require(voteId < attackVotes[roundId].length, 'MOE: no attack data available');\n\n        Lib.Vote memory voteInfo = attackVotes[roundId][voteId];\n        require(_msgSender() == voteInfo.voter, 'MOE: access denied');\n\n        Lib.Round memory roundInfo = rounds[roundId];\n        uint256 duration = block.timestamp - roundInfo.timestamp;\n        require(duration > 60 * 60 * 24 * 7, 'MOE: dispute window is not over');\n\n        uint256 totalAmount = roundInfo.totalAttackAmount + roundInfo.totalDefenseAmount;\n\n        if (roundInfo.totalAttackAmount > roundInfo.totalDefenseAmount) {\n            _mint(_msgSender(), totalAmount * voteInfo.amount / roundInfo.totalAttackAmount);\n        }\n\n        attackVotes[roundId][voteId].voter = address(0);\n    }\n\n    function resolveDefense(uint256 roundId, uint256 voteId) public {\n\n        require(roundId < totalRounds, 'MOE: no round data available');\n        require(voteId < defenseVotes[roundId].length, 'MOE: no defense data available');\n\n        Lib.Vote memory voteInfo = defenseVotes[roundId][voteId];\n        require(_msgSender() == voteInfo.voter, 'MOE: access denied');\n\n        Lib.Round memory roundInfo = rounds[roundId];\n        uint256 duration = block.timestamp - roundInfo.timestamp;\n        require(duration > 60 * 60 * 24 * 7, 'MOE: dispute window is not over');\n\n        uint256 totalAmount = roundInfo.totalAttackAmount + roundInfo.totalDefenseAmount;\n\n        if (roundInfo.totalAttackAmount < roundInfo.totalDefenseAmount) {\n\n            if (voteId > 0) {\n                _mint(_msgSender(), totalAmount * voteInfo.amount / roundInfo.totalDefenseAmount);\n            } else {\n                _mint(_msgSender(), (totalAmount * voteInfo.amount / roundInfo.totalDefenseAmount) - voteInfo.amount);\n            }\n        }\n\n        defenseVotes[roundId][voteId].voter = address(0);\n    }\n    \n    function stake(uint256 id, uint256 amount) public {\n    \n        require(amount > 0, 'MOE: amount cannot be 0');\n        require(amount <= balanceOf(_msgSender()), 'MOE: not enough MOE');\n        require(id < totalOnnanocos, 'MOE: no onnanoco data available');\n        require(onnanocos[id].status == Lib.Status.NORMAL, 'MOE: round is not in normal status');\n\n        _burn(_msgSender(), amount);\n\n        stakes[_msgSender()].push(Lib.Stake(id, amount, block.timestamp));\n        onnanocos[id].totalStakingAmount += amount;\n    }\n    \n    function unstake(uint256 stakeId) public {\n\n        (uint256 reward, uint256 duration) = getStakingRewardsAmount(_msgSender(), stakeId);\n\n        Lib.Stake memory stakeInfo = stakes[_msgSender()][stakeId];\n        require(onnanocos[stakeInfo.id].status != Lib.Status.IN_DISPUTE, 'MOE: round is in dispute status');\n        \n        require(duration > 60 * 60 * 24 * 100, 'MOE: request can be made after at least 100 days');\n\n        _mint(_msgSender(), stakeInfo.amount + reward);\n        onnanocos[stakeInfo.id].totalStakingAmount -= stakeInfo.amount;\n\n        for (uint256 i = stakeId; i < stakes[_msgSender()].length - 1; i++) {\n            stakes[_msgSender()][i] = stakes[_msgSender()][i + 1];\n            stakes[_msgSender()].pop();\n        }\n    }\n\n    function getStakingRewardsAmount(address staker, uint256 stakeId) public view returns(uint256 amount, uint256 duration) {\n\n        require(stakes[_msgSender()].length > 0, 'MOE: no staking data available');\n        require(stakes[_msgSender()].length > stakeId, 'MOE: no staking data available');\n\n        Lib.Stake memory stakeInfo = stakes[staker][stakeId];\n        require(onnanocos[stakeInfo.id].status == Lib.Status.NORMAL, 'MOE: round is not in normal status');\n\n        duration = block.timestamp - stakeInfo.timestamp;\n        amount = stakeInfo.amount * duration / (60 * 60 * 24 * 100);\n\n        return (amount, duration);\n    }\n\n    function receiveStakingRewards(uint256 stakeId) public {\n\n        (uint256 reward, uint256 duration) = getStakingRewardsAmount(_msgSender(), stakeId);\n\n        require(reward > 0, 'MOE: reward must greater than 0');\n        require(duration > 60 * 60 * 24 * 100, 'MOE: request can be made after at least 100 days');\n\n        stakes[_msgSender()][stakeId].timestamp = block.timestamp;\n        _mint(_msgSender(), reward);\n    }\n\n    function getOwnerRewardsAmount(uint256 id) public view returns(uint256 amount, uint256 duration){\n\n        require(id < totalOnnanocos, 'MOE: no onnanoco data available');\n\n        Lib.Onnanoco memory onnanocoInfo = onnanocos[id];\n        require(onnanocoInfo.status == Lib.Status.NORMAL, 'MOE: round is not in normal status');\n\n        Lib.Vote memory voteInfo = defenseVotes[onnanocoInfo.roundId][0];\n\n        duration = block.timestamp - voteInfo.timestamp;\n        amount = voteInfo.amount * duration / (60 * 60 * 24 * 50);\n\n        return (amount, duration);\n    }\n\n    function receiveOwnerRewards(uint256 id) public {\n        \n        (uint256 reward, uint256 duration) = getOwnerRewardsAmount(id);\n\n        require(onnanocos[id].owner == _msgSender(), 'MOE: access denied');\n        require(duration > 60 * 60 * 24 * 50, 'MOE: request can be made after at least 50 days');\n        require(reward > 0, 'MOE: reward must greater than 0');\n\n        _mint(_msgSender(), reward);\n        defenseVotes[onnanocos[id].roundId][0].timestamp = block.timestamp;\n    }\n\n    function deposit(address user, bytes calldata depositData) external override {\n\n        require(hasRole(DEPOSITOR_ROLE, _msgSender()), \"You're not allowed to deposit\");\n        \n        uint256 amount = abi.decode(depositData, (uint256));\n        _mint(user, amount);\n    }\n\n    function withdraw(uint256 amount) external {\n\n        _burn(_msgSender(), amount);\n    }\n\n    // Initializer\n    function initialize(string memory name, string memory symbol, address childchangeProxy) public virtual initializer {\n\n        __ERC20_init(name, symbol);\n        _setupRole(DEPOSITOR_ROLE, childchangeProxy);\n    }\n}",
  "sourcePath": "/Users/misskiwi/github/smartcontract-child/contracts/MOEToken.sol",
  "compiler": {
    "name": "solc",
    "version": "0.8.2+commit.661d1103.Emscripten.clang"
  },
  "schemaVersion": "3.4.4",
  "updatedAt": "2022-02-05T03:48:25.645Z",
  "networkType": "ethereum",
  "devdoc": {
    "kind": "dev",
    "methods": {
      "allowance(address,address)": {
        "details": "See {IERC20-allowance}."
      },
      "approve(address,uint256)": {
        "details": "See {IERC20-approve}. Requirements: - `spender` cannot be the zero address."
      },
      "balanceOf(address)": {
        "details": "See {IERC20-balanceOf}."
      },
      "decimals()": {
        "details": "Returns the number of decimals used to get its user representation. For example, if `decimals` equals `2`, a balance of `505` tokens should be displayed to a user as `5.05` (`505 / 10 ** 2`). Tokens usually opt for a value of 18, imitating the relationship between Ether and Wei. This is the value {ERC20} uses, unless this function is overridden; NOTE: This information is only used for _display_ purposes: it in no way affects any of the arithmetic of the contract, including {IERC20-balanceOf} and {IERC20-transfer}."
      },
      "decreaseAllowance(address,uint256)": {
        "details": "Atomically decreases the allowance granted to `spender` by the caller. This is an alternative to {approve} that can be used as a mitigation for problems described in {IERC20-approve}. Emits an {Approval} event indicating the updated allowance. Requirements: - `spender` cannot be the zero address. - `spender` must have allowance for the caller of at least `subtractedValue`."
      },
      "getRoleAdmin(bytes32)": {
        "details": "Returns the admin role that controls `role`. See {grantRole} and {revokeRole}. To change a role's admin, use {_setRoleAdmin}."
      },
      "getRoleMember(bytes32,uint256)": {
        "details": "Returns one of the accounts that have `role`. `index` must be a value between 0 and {getRoleMemberCount}, non-inclusive. Role bearers are not sorted in any particular way, and their ordering may change at any point. WARNING: When using {getRoleMember} and {getRoleMemberCount}, make sure you perform all queries on the same block. See the following https://forum.openzeppelin.com/t/iterating-over-elements-on-enumerableset-in-openzeppelin-contracts/2296[forum post] for more information."
      },
      "getRoleMemberCount(bytes32)": {
        "details": "Returns the number of accounts that have `role`. Can be used together with {getRoleMember} to enumerate all bearers of a role."
      },
      "grantRole(bytes32,address)": {
        "details": "Grants `role` to `account`. If `account` had not been already granted `role`, emits a {RoleGranted} event. Requirements: - the caller must have ``role``'s admin role."
      },
      "hasRole(bytes32,address)": {
        "details": "Returns `true` if `account` has been granted `role`."
      },
      "increaseAllowance(address,uint256)": {
        "details": "Atomically increases the allowance granted to `spender` by the caller. This is an alternative to {approve} that can be used as a mitigation for problems described in {IERC20-approve}. Emits an {Approval} event indicating the updated allowance. Requirements: - `spender` cannot be the zero address."
      },
      "name()": {
        "details": "Returns the name of the token."
      },
      "renounceRole(bytes32,address)": {
        "details": "Revokes `role` from the calling account. Roles are often managed via {grantRole} and {revokeRole}: this function's purpose is to provide a mechanism for accounts to lose their privileges if they are compromised (such as when a trusted device is misplaced). If the calling account had been revoked `role`, emits a {RoleRevoked} event. Requirements: - the caller must be `account`."
      },
      "revokeRole(bytes32,address)": {
        "details": "Revokes `role` from `account`. If `account` had been granted `role`, emits a {RoleRevoked} event. Requirements: - the caller must have ``role``'s admin role."
      },
      "supportsInterface(bytes4)": {
        "details": "See {IERC165-supportsInterface}."
      },
      "symbol()": {
        "details": "Returns the symbol of the token, usually a shorter version of the name."
      },
      "totalSupply()": {
        "details": "See {IERC20-totalSupply}."
      },
      "transfer(address,uint256)": {
        "details": "See {IERC20-transfer}. Requirements: - `recipient` cannot be the zero address. - the caller must have a balance of at least `amount`."
      },
      "transferFrom(address,address,uint256)": {
        "details": "See {IERC20-transferFrom}. Emits an {Approval} event indicating the updated allowance. This is not required by the EIP. See the note at the beginning of {ERC20}. Requirements: - `sender` and `recipient` cannot be the zero address. - `sender` must have a balance of at least `amount`. - the caller must have allowance for ``sender``'s tokens of at least `amount`."
      }
    },
    "version": 1
  },
  "userdoc": {
    "kind": "user",
    "methods": {},
    "version": 1
  }
}